{"contracts/test/MintableERC20.sol":{"MintableERC20":{"abi":[{"inputs":[{"internalType":"uint256","name":"amountToMint","type":"uint256"}],"stateMutability":"nonpayable","type":"constructor"},{"anonymous":false,"inputs":[{"indexed":true,"internalType":"address","name":"owner","type":"address"},{"indexed":true,"internalType":"address","name":"spender","type":"address"},{"indexed":false,"internalType":"uint256","name":"amount","type":"uint256"}],"name":"Approval","type":"event"},{"anonymous":false,"inputs":[{"indexed":true,"internalType":"address","name":"from","type":"address"},{"indexed":true,"internalType":"address","name":"to","type":"address"},{"indexed":false,"internalType":"uint256","name":"amount","type":"uint256"}],"name":"Transfer","type":"event"},{"inputs":[],"name":"DOMAIN_SEPARATOR","outputs":[{"internalType":"bytes32","name":"","type":"bytes32"}],"stateMutability":"view","type":"function"},{"inputs":[{"internalType":"address","name":"","type":"address"},{"internalType":"address","name":"","type":"address"}],"name":"allowance","outputs":[{"internalType":"uint256","name":"","type":"uint256"}],"stateMutability":"view","type":"function"},{"inputs":[{"internalType":"address","name":"spender","type":"address"},{"internalType":"uint256","name":"amount","type":"uint256"}],"name":"approve","outputs":[{"internalType":"bool","name":"","type":"bool"}],"stateMutability":"nonpayable","type":"function"},{"inputs":[{"internalType":"address","name":"","type":"address"}],"name":"balanceOf","outputs":[{"internalType":"uint256","name":"","type":"uint256"}],"stateMutability":"view","type":"function"},{"inputs":[],"name":"decimals","outputs":[{"internalType":"uint8","name":"","type":"uint8"}],"stateMutability":"view","type":"function"},{"inputs":[{"internalType":"address","name":"to","type":"address"},{"internalType":"uint256","name":"amount","type":"uint256"}],"name":"mint","outputs":[],"stateMutability":"nonpayable","type":"function"},{"inputs":[],"name":"name","outputs":[{"internalType":"string","name":"","type":"string"}],"stateMutability":"view","type":"function"},{"inputs":[{"internalType":"address","name":"","type":"address"}],"name":"nonces","outputs":[{"internalType":"uint256","name":"","type":"uint256"}],"stateMutability":"view","type":"function"},{"inputs":[{"internalType":"address","name":"owner","type":"address"},{"internalType":"address","name":"spender","type":"address"},{"internalType":"uint256","name":"value","type":"uint256"},{"internalType":"uint256","name":"deadline","type":"uint256"},{"internalType":"uint8","name":"v","type":"uint8"},{"internalType":"bytes32","name":"r","type":"bytes32"},{"internalType":"bytes32","name":"s","type":"bytes32"}],"name":"permit","outputs":[],"stateMutability":"nonpayable","type":"function"},{"inputs":[],"name":"symbol","outputs":[{"internalType":"string","name":"","type":"string"}],"stateMutability":"view","type":"function"},{"inputs":[],"name":"totalSupply","outputs":[{"internalType":"uint256","name":"","type":"uint256"}],"stateMutability":"view","type":"function"},{"inputs":[{"internalType":"address","name":"to","type":"address"},{"internalType":"uint256","name":"amount","type":"uint256"}],"name":"transfer","outputs":[{"internalType":"bool","name":"","type":"bool"}],"stateMutability":"nonpayable","type":"function"},{"inputs":[{"internalType":"address","name":"from","type":"address"},{"internalType":"address","name":"to","type":"address"},{"internalType":"uint256","name":"amount","type":"uint256"}],"name":"transferFrom","outputs":[{"internalType":"bool","name":"","type":"bool"}],"stateMutability":"nonpayable","type":"function"}],"evm":{"bytecode":{"linkReferences":{},"object":"60e060408181523462000463578162001336803803809162000022828562000484565b8339602093849181010312620004635751815192620000418462000468565b60048452631d195cdd60e21b818501528251936200005f8562000468565b6004855263151154d560e21b828601528051946001600160401b03918287116200044d5760009680620000938954620004a8565b92601f93848111620003fc575b50869084831160011462000394578a9262000388575b50508160011b916000199060031b1c19161787555b81519083821162000374578190600193620000e78554620004a8565b8281116200031f575b5086918311600114620002bb578992620002af575b5050600019600383901b1c191690821b1781555b60126080524660a052845186549181886200013485620004a8565b92838352878301958882821691826000146200028f5750506001146200024f575b50620001649250038262000484565b51902090845190838201927f8b73c3c69bb8fe3d512ecc4cf759cc79239f7b179b0ffacaa9a75d522b39400f8452868301527fc89efdaa54c0f20c7adf612882df0950f5a951637e0307cdcb4c672f298b8bc660608301524660808301523060a083015260a0825260c0820190828210908211176200023b579285969260039287956200020f985251902060c052338352522062000204828254620004e5565b9055600254620004e5565b60025551610e2c90816200050a8239608051816107a9015260a05181610c47015260c05181610c6e0152f35b634e487b7160e01b87526041600452602487fd5b8791508a8052818b20908b915b858310620002765750506200016493508201013862000155565b805483880185015286945089939092019181016200025c565b60ff191688526200016495151560051b8501019250389150620001559050565b01519050388062000105565b848a52868a208594509190601f1984168b5b89828210620003085750508411620002ee575b505050811b01815562000119565b015160001960f88460031b161c19169055388080620002e0565b8385015186558897909501949384019301620002cd565b90919250848a52868a208380860160051c8201928987106200036a575b91869588929594930160051c01915b8281106200035b575050620000f0565b8c81558695508791016200034b565b925081926200033c565b634e487b7160e01b88526041600452602488fd5b015190503880620000b6565b8a8052878b209250601f1984168b5b89828210620003e5575050908460019594939210620003cb575b505050811b018755620000cb565b015160001960f88460031b161c19169055388080620003bd565b6001859682939686015181550195019301620003a3565b909150898052868a208480850160051c82019289861062000443575b9085949392910160051c01905b818110620004345750620000a0565b8b815584935060010162000425565b9250819262000418565b634e487b7160e01b600052604160045260246000fd5b600080fd5b604081019081106001600160401b038211176200044d57604052565b601f909101601f19168101906001600160401b038211908210176200044d57604052565b90600182811c92168015620004da575b6020831014620004c457565b634e487b7160e01b600052602260045260246000fd5b91607f1691620004b8565b91908201809211620004f357565b634e487b7160e01b600052601160045260246000fdfe6080604081815260048036101561001557600080fd5b600092833560e01c90816306fdde03146109c157508063095ea7b31461092757806318160ddd146108ea57806323b872dd146107cd578063313ce567146107715780633644e5151461072f57806340c10f19146106b457806370a08231146106525780637ecebe00146105f057806395d89b41146104d5578063a9059cbb14610428578063d505accf146101285763dd62ed3e146100b257600080fd5b3461012457817ffffffffffffffffffffffffffffffffffffffffffffffffffffffffffffffffc3601126101245760209282916100ed610bae565b6100f5610bd6565b9173ffffffffffffffffffffffffffffffffffffffff8092168452865283832091168252845220549051908152f35b8280fd5b509190346104245760e07ffffffffffffffffffffffffffffffffffffffffffffffffffffffffffffffffc36011261042457610162610bae565b9061016b610bd6565b91604435606435926084359260ff8416809403610420574285106103c357610191610c42565b9573ffffffffffffffffffffffffffffffffffffffff8092169586895260209560058752848a209889549960018b01905585519285898501957f6e71edae12b1b97f4d1f60370fef10105fa2faae0126114a169c64845d6126c987528b89870152169a8b606086015288608086015260a085015260c084015260c0835260e0830167ffffffffffffffff948482108683111761039657818852845190206101008501927f19010000000000000000000000000000000000000000000000000000000000008452610102860152610122850152604281526101608401948186109086111761036a57848752519020835261018082015260a4356101a082015260c4356101c0909101528780528490889060809060015afa15610360578651169687151580610357575b156102fc5786977f8c5be1e5ebec7d5bd14f71427d1e84f3dd0314c0f7b2291e5b200ac8c7c3b9259596975283528087208688528352818188205551908152a380f35b8360649251917f08c379a0000000000000000000000000000000000000000000000000000000008352820152600e60248201527f494e56414c49445f5349474e45520000000000000000000000000000000000006044820152fd5b508488146102b9565b81513d88823e3d90fd5b60248c60418f7f4e487b7100000000000000000000000000000000000000000000000000000000835252fd5b5060248c60418f7f4e487b7100000000000000000000000000000000000000000000000000000000835252fd5b60648860208451917f08c379a0000000000000000000000000000000000000000000000000000000008352820152601760248201527f5045524d49545f444541444c494e455f455850495245440000000000000000006044820152fd5b8680fd5b5080fd5b50503461042457807ffffffffffffffffffffffffffffffffffffffffffffffffffffffffffffffffc36011261042457602091610463610bae565b8273ffffffffffffffffffffffffffffffffffffffff6024359233855260038752828520610492858254610c35565b90551692838152600386522081815401905582519081527fddf252ad1be2c89b69c2b068fc378daa952ba7f163c4a11628f55a4df523b3ef843392a35160018152f35b50503461042457817ffffffffffffffffffffffffffffffffffffffffffffffffffffffffffffffffc3601126104245780519082600180549161051783610a85565b808652928281169081156105aa575060011461054e575b5050506105408261054a940383610ad8565b5191829182610b48565b0390f35b94508085527fb10e2d527612073b26eecdfd717e6a320cf44b4afac2b0732d9fcbe2b7fa0cf65b8286106105925750505061054082602061054a958201019461052e565b80546020878701810191909152909501948101610575565b61054a9750869350602092506105409491507fffffffffffffffffffffffffffffffffffffffffffffffffffffffffffffff001682840152151560051b8201019461052e565b5050346104245760207ffffffffffffffffffffffffffffffffffffffffffffffffffffffffffffffffc360112610424578060209273ffffffffffffffffffffffffffffffffffffffff610642610bae565b1681526005845220549051908152f35b5050346104245760207ffffffffffffffffffffffffffffffffffffffffffffffffffffffffffffffffc360112610424578060209273ffffffffffffffffffffffffffffffffffffffff6106a4610bae565b1681526003845220549051908152f35b50503461042457807ffffffffffffffffffffffffffffffffffffffffffffffffffffffffffffffffc36011261042457610729906106f0610bae565b9073ffffffffffffffffffffffffffffffffffffffff602435921684526003602052832061071f828254610bf9565b9055600254610bf9565b60025580f35b50503461042457817ffffffffffffffffffffffffffffffffffffffffffffffffffffffffffffffffc3601126104245760209061076a610c42565b9051908152f35b50503461042457817ffffffffffffffffffffffffffffffffffffffffffffffffffffffffffffffffc360112610424576020905160ff7f0000000000000000000000000000000000000000000000000000000000000000168152f35b5091346108e75760607ffffffffffffffffffffffffffffffffffffffffffffffffffffffffffffffffc3601126108e757610806610bae565b7fddf252ad1be2c89b69c2b068fc378daa952ba7f163c4a11628f55a4df523b3ef61082f610bd6565b946044358573ffffffffffffffffffffffffffffffffffffffff80951694858752602098848a958652838920338a52865283892054857fffffffffffffffffffffffffffffffffffffffffffffffffffffffffffffffff82036108c4575b505050868852600385528288206108a5858254610c35565b9055169586815260038452208181540190558551908152a35160018152f35b6108cd91610c35565b90888a528652838920338a5286528389205538808561088d565b80fd5b50503461042457817ffffffffffffffffffffffffffffffffffffffffffffffffffffffffffffffffc360112610424576020906002549051908152f35b503461012457817ffffffffffffffffffffffffffffffffffffffffffffffffffffffffffffffffc36011261012457602092610961610bae565b9183602435928392338252875273ffffffffffffffffffffffffffffffffffffffff8282209516948582528752205582519081527f8c5be1e5ebec7d5bd14f71427d1e84f3dd0314c0f7b2291e5b200ac8c7c3b925843392a35160018152f35b8490843461012457827ffffffffffffffffffffffffffffffffffffffffffffffffffffffffffffffffc360112610124578280546109fe81610a85565b808552916001918083169081156105aa5750600114610a29575050506105408261054a940383610ad8565b80809650527f290decd9548b62a8d60345a988386fc84ba6bc95484008f6362f93160ef3e5635b828610610a6d5750505061054082602061054a958201019461052e565b80546020878701810191909152909501948101610a50565b90600182811c92168015610ace575b6020831014610a9f57565b7f4e487b7100000000000000000000000000000000000000000000000000000000600052602260045260246000fd5b91607f1691610a94565b90601f7fffffffffffffffffffffffffffffffffffffffffffffffffffffffffffffffe0910116810190811067ffffffffffffffff821117610b1957604052565b7f4e487b7100000000000000000000000000000000000000000000000000000000600052604160045260246000fd5b60208082528251818301819052939260005b858110610b9a575050507fffffffffffffffffffffffffffffffffffffffffffffffffffffffffffffffe0601f8460006040809697860101520116010190565b818101830151848201604001528201610b5a565b6004359073ffffffffffffffffffffffffffffffffffffffff82168203610bd157565b600080fd5b6024359073ffffffffffffffffffffffffffffffffffffffff82168203610bd157565b91908201809211610c0657565b7f4e487b7100000000000000000000000000000000000000000000000000000000600052601160045260246000fd5b91908203918211610c0657565b6000467f000000000000000000000000000000000000000000000000000000000000000003610c9057507f000000000000000000000000000000000000000000000000000000000000000090565b60405181548291610ca082610a85565b8082528160209485820194600190878282169182600014610de3575050600114610d8a575b50610cd292500382610ad8565b51902091604051918201927f8b73c3c69bb8fe3d512ecc4cf759cc79239f7b179b0ffacaa9a75d522b39400f845260408301527fc89efdaa54c0f20c7adf612882df0950f5a951637e0307cdcb4c672f298b8bc660608301524660808301523060a083015260a0825260c082019082821067ffffffffffffffff831117610d5d575060405251902090565b807f4e487b7100000000000000000000000000000000000000000000000000000000602492526041600452fd5b87805286915087907f290decd9548b62a8d60345a988386fc84ba6bc95484008f6362f93160ef3e5635b858310610dcb575050610cd2935082010138610cc5565b80548388018501528694508893909201918101610db4565b7fffffffffffffffffffffffffffffffffffffffffffffffffffffffffffffff00168852610cd295151560051b8501019250389150610cc5905056fea164736f6c6343000811000a","opcodes":"PUSH1 0xE0 PUSH1 0x40 DUP2 DUP2 MSTORE CALLVALUE PUSH3 0x463 JUMPI DUP2 PUSH3 0x1336 DUP1 CODESIZE SUB DUP1 SWAP2 PUSH3 0x22 DUP3 DUP6 PUSH3 0x484 JUMP JUMPDEST DUP4 CODECOPY PUSH1 0x20 SWAP4 DUP5 SWAP2 DUP2 ADD SUB SLT PUSH3 0x463 JUMPI MLOAD DUP2 MLOAD SWAP3 PUSH3 0x41 DUP5 PUSH3 0x468 JUMP JUMPDEST PUSH1 0x4 DUP5 MSTORE PUSH4 0x1D195CDD PUSH1 0xE2 SHL DUP2 DUP6 ADD MSTORE DUP3 MLOAD SWAP4 PUSH3 0x5F DUP6 PUSH3 0x468 JUMP JUMPDEST PUSH1 0x4 DUP6 MSTORE PUSH4 0x151154D5 PUSH1 0xE2 SHL DUP3 DUP7 ADD MSTORE DUP1 MLOAD SWAP5 PUSH1 0x1 PUSH1 0x1 PUSH1 0x40 SHL SUB SWAP2 DUP3 DUP8 GT PUSH3 0x44D JUMPI PUSH1 0x0 SWAP7 DUP1 PUSH3 0x93 DUP10 SLOAD PUSH3 0x4A8 JUMP JUMPDEST SWAP3 PUSH1 0x1F SWAP4 DUP5 DUP2 GT PUSH3 0x3FC JUMPI JUMPDEST POP DUP7 SWAP1 DUP5 DUP4 GT PUSH1 0x1 EQ PUSH3 0x394 JUMPI DUP11 SWAP3 PUSH3 0x388 JUMPI JUMPDEST POP POP DUP2 PUSH1 0x1 SHL SWAP2 PUSH1 0x0 NOT SWAP1 PUSH1 0x3 SHL SHR NOT AND OR DUP8 SSTORE JUMPDEST DUP2 MLOAD SWAP1 DUP4 DUP3 GT PUSH3 0x374 JUMPI DUP2 SWAP1 PUSH1 0x1 SWAP4 PUSH3 0xE7 DUP6 SLOAD PUSH3 0x4A8 JUMP JUMPDEST DUP3 DUP2 GT PUSH3 0x31F JUMPI JUMPDEST POP DUP7 SWAP2 DUP4 GT PUSH1 0x1 EQ PUSH3 0x2BB JUMPI DUP10 SWAP3 PUSH3 0x2AF JUMPI JUMPDEST POP POP PUSH1 0x0 NOT PUSH1 0x3 DUP4 SWAP1 SHL SHR NOT AND SWAP1 DUP3 SHL OR DUP2 SSTORE JUMPDEST PUSH1 0x12 PUSH1 0x80 MSTORE CHAINID PUSH1 0xA0 MSTORE DUP5 MLOAD DUP7 SLOAD SWAP2 DUP2 DUP9 PUSH3 0x134 DUP6 PUSH3 0x4A8 JUMP JUMPDEST SWAP3 DUP4 DUP4 MSTORE DUP8 DUP4 ADD SWAP6 DUP9 DUP3 DUP3 AND SWAP2 DUP3 PUSH1 0x0 EQ PUSH3 0x28F JUMPI POP POP PUSH1 0x1 EQ PUSH3 0x24F JUMPI JUMPDEST POP PUSH3 0x164 SWAP3 POP SUB DUP3 PUSH3 0x484 JUMP JUMPDEST MLOAD SWAP1 KECCAK256 SWAP1 DUP5 MLOAD SWAP1 DUP4 DUP3 ADD SWAP3 PUSH32 0x8B73C3C69BB8FE3D512ECC4CF759CC79239F7B179B0FFACAA9A75D522B39400F DUP5 MSTORE DUP7 DUP4 ADD MSTORE PUSH32 0xC89EFDAA54C0F20C7ADF612882DF0950F5A951637E0307CDCB4C672F298B8BC6 PUSH1 0x60 DUP4 ADD MSTORE CHAINID PUSH1 0x80 DUP4 ADD MSTORE ADDRESS PUSH1 0xA0 DUP4 ADD MSTORE PUSH1 0xA0 DUP3 MSTORE PUSH1 0xC0 DUP3 ADD SWAP1 DUP3 DUP3 LT SWAP1 DUP3 GT OR PUSH3 0x23B JUMPI SWAP3 DUP6 SWAP7 SWAP3 PUSH1 0x3 SWAP3 DUP8 SWAP6 PUSH3 0x20F SWAP9 MSTORE MLOAD SWAP1 KECCAK256 PUSH1 0xC0 MSTORE CALLER DUP4 MSTORE MSTORE KECCAK256 PUSH3 0x204 DUP3 DUP3 SLOAD PUSH3 0x4E5 JUMP JUMPDEST SWAP1 SSTORE PUSH1 0x2 SLOAD PUSH3 0x4E5 JUMP JUMPDEST PUSH1 0x2 SSTORE MLOAD PUSH2 0xE2C SWAP1 DUP2 PUSH3 0x50A DUP3 CODECOPY PUSH1 0x80 MLOAD DUP2 PUSH2 0x7A9 ADD MSTORE PUSH1 0xA0 MLOAD DUP2 PUSH2 0xC47 ADD MSTORE PUSH1 0xC0 MLOAD DUP2 PUSH2 0xC6E ADD MSTORE RETURN JUMPDEST PUSH4 0x4E487B71 PUSH1 0xE0 SHL DUP8 MSTORE PUSH1 0x41 PUSH1 0x4 MSTORE PUSH1 0x24 DUP8 REVERT JUMPDEST DUP8 SWAP2 POP DUP11 DUP1 MSTORE DUP2 DUP12 KECCAK256 SWAP1 DUP12 SWAP2 JUMPDEST DUP6 DUP4 LT PUSH3 0x276 JUMPI POP POP PUSH3 0x164 SWAP4 POP DUP3 ADD ADD CODESIZE PUSH3 0x155 JUMP JUMPDEST DUP1 SLOAD DUP4 DUP9 ADD DUP6 ADD MSTORE DUP7 SWAP5 POP DUP10 SWAP4 SWAP1 SWAP3 ADD SWAP2 DUP2 ADD PUSH3 0x25C JUMP JUMPDEST PUSH1 0xFF NOT AND DUP9 MSTORE PUSH3 0x164 SWAP6 ISZERO ISZERO PUSH1 0x5 SHL DUP6 ADD ADD SWAP3 POP CODESIZE SWAP2 POP PUSH3 0x155 SWAP1 POP JUMP JUMPDEST ADD MLOAD SWAP1 POP CODESIZE DUP1 PUSH3 0x105 JUMP JUMPDEST DUP5 DUP11 MSTORE DUP7 DUP11 KECCAK256 DUP6 SWAP5 POP SWAP2 SWAP1 PUSH1 0x1F NOT DUP5 AND DUP12 JUMPDEST DUP10 DUP3 DUP3 LT PUSH3 0x308 JUMPI POP POP DUP5 GT PUSH3 0x2EE JUMPI JUMPDEST POP POP POP DUP2 SHL ADD DUP2 SSTORE PUSH3 0x119 JUMP JUMPDEST ADD MLOAD PUSH1 0x0 NOT PUSH1 0xF8 DUP5 PUSH1 0x3 SHL AND SHR NOT AND SWAP1 SSTORE CODESIZE DUP1 DUP1 PUSH3 0x2E0 JUMP JUMPDEST DUP4 DUP6 ADD MLOAD DUP7 SSTORE DUP9 SWAP8 SWAP1 SWAP6 ADD SWAP5 SWAP4 DUP5 ADD SWAP4 ADD PUSH3 0x2CD JUMP JUMPDEST SWAP1 SWAP2 SWAP3 POP DUP5 DUP11 MSTORE DUP7 DUP11 KECCAK256 DUP4 DUP1 DUP7 ADD PUSH1 0x5 SHR DUP3 ADD SWAP3 DUP10 DUP8 LT PUSH3 0x36A JUMPI JUMPDEST SWAP2 DUP7 SWAP6 DUP9 SWAP3 SWAP6 SWAP5 SWAP4 ADD PUSH1 0x5 SHR ADD SWAP2 JUMPDEST DUP3 DUP2 LT PUSH3 0x35B JUMPI POP POP PUSH3 0xF0 JUMP JUMPDEST DUP13 DUP2 SSTORE DUP7 SWAP6 POP DUP8 SWAP2 ADD PUSH3 0x34B JUMP JUMPDEST SWAP3 POP DUP2 SWAP3 PUSH3 0x33C JUMP JUMPDEST PUSH4 0x4E487B71 PUSH1 0xE0 SHL DUP9 MSTORE PUSH1 0x41 PUSH1 0x4 MSTORE PUSH1 0x24 DUP9 REVERT JUMPDEST ADD MLOAD SWAP1 POP CODESIZE DUP1 PUSH3 0xB6 JUMP JUMPDEST DUP11 DUP1 MSTORE DUP8 DUP12 KECCAK256 SWAP3 POP PUSH1 0x1F NOT DUP5 AND DUP12 JUMPDEST DUP10 DUP3 DUP3 LT PUSH3 0x3E5 JUMPI POP POP SWAP1 DUP5 PUSH1 0x1 SWAP6 SWAP5 SWAP4 SWAP3 LT PUSH3 0x3CB JUMPI JUMPDEST POP POP POP DUP2 SHL ADD DUP8 SSTORE PUSH3 0xCB JUMP JUMPDEST ADD MLOAD PUSH1 0x0 NOT PUSH1 0xF8 DUP5 PUSH1 0x3 SHL AND SHR NOT AND SWAP1 SSTORE CODESIZE DUP1 DUP1 PUSH3 0x3BD JUMP JUMPDEST PUSH1 0x1 DUP6 SWAP7 DUP3 SWAP4 SWAP7 DUP7 ADD MLOAD DUP2 SSTORE ADD SWAP6 ADD SWAP4 ADD PUSH3 0x3A3 JUMP JUMPDEST SWAP1 SWAP2 POP DUP10 DUP1 MSTORE DUP7 DUP11 KECCAK256 DUP5 DUP1 DUP6 ADD PUSH1 0x5 SHR DUP3 ADD SWAP3 DUP10 DUP7 LT PUSH3 0x443 JUMPI JUMPDEST SWAP1 DUP6 SWAP5 SWAP4 SWAP3 SWAP2 ADD PUSH1 0x5 SHR ADD SWAP1 JUMPDEST DUP2 DUP2 LT PUSH3 0x434 JUMPI POP PUSH3 0xA0 JUMP JUMPDEST DUP12 DUP2 SSTORE DUP5 SWAP4 POP PUSH1 0x1 ADD PUSH3 0x425 JUMP JUMPDEST SWAP3 POP DUP2 SWAP3 PUSH3 0x418 JUMP JUMPDEST PUSH4 0x4E487B71 PUSH1 0xE0 SHL PUSH1 0x0 MSTORE PUSH1 0x41 PUSH1 0x4 MSTORE PUSH1 0x24 PUSH1 0x0 REVERT JUMPDEST PUSH1 0x0 DUP1 REVERT JUMPDEST PUSH1 0x40 DUP2 ADD SWAP1 DUP2 LT PUSH1 0x1 PUSH1 0x1 PUSH1 0x40 SHL SUB DUP3 GT OR PUSH3 0x44D JUMPI PUSH1 0x40 MSTORE JUMP JUMPDEST PUSH1 0x1F SWAP1 SWAP2 ADD PUSH1 0x1F NOT AND DUP2 ADD SWAP1 PUSH1 0x1 PUSH1 0x1 PUSH1 0x40 SHL SUB DUP3 GT SWAP1 DUP3 LT OR PUSH3 0x44D JUMPI PUSH1 0x40 MSTORE JUMP JUMPDEST SWAP1 PUSH1 0x1 DUP3 DUP2 SHR SWAP3 AND DUP1 ISZERO PUSH3 0x4DA JUMPI JUMPDEST PUSH1 0x20 DUP4 LT EQ PUSH3 0x4C4 JUMPI JUMP JUMPDEST PUSH4 0x4E487B71 PUSH1 0xE0 SHL PUSH1 0x0 MSTORE PUSH1 0x22 PUSH1 0x4 MSTORE PUSH1 0x24 PUSH1 0x0 REVERT JUMPDEST SWAP2 PUSH1 0x7F AND SWAP2 PUSH3 0x4B8 JUMP JUMPDEST SWAP2 SWAP1 DUP3 ADD DUP1 SWAP3 GT PUSH3 0x4F3 JUMPI JUMP JUMPDEST PUSH4 0x4E487B71 PUSH1 0xE0 SHL PUSH1 0x0 MSTORE PUSH1 0x11 PUSH1 0x4 MSTORE PUSH1 0x24 PUSH1 0x0 REVERT INVALID PUSH1 0x80 PUSH1 0x40 DUP2 DUP2 MSTORE PUSH1 0x4 DUP1 CALLDATASIZE LT ISZERO PUSH2 0x15 JUMPI PUSH1 0x0 DUP1 REVERT JUMPDEST PUSH1 0x0 SWAP3 DUP4 CALLDATALOAD PUSH1 0xE0 SHR SWAP1 DUP2 PUSH4 0x6FDDE03 EQ PUSH2 0x9C1 JUMPI POP DUP1 PUSH4 0x95EA7B3 EQ PUSH2 0x927 JUMPI DUP1 PUSH4 0x18160DDD EQ PUSH2 0x8EA JUMPI DUP1 PUSH4 0x23B872DD EQ PUSH2 0x7CD JUMPI DUP1 PUSH4 0x313CE567 EQ PUSH2 0x771 JUMPI DUP1 PUSH4 0x3644E515 EQ PUSH2 0x72F JUMPI DUP1 PUSH4 0x40C10F19 EQ PUSH2 0x6B4 JUMPI DUP1 PUSH4 0x70A08231 EQ PUSH2 0x652 JUMPI DUP1 PUSH4 0x7ECEBE00 EQ PUSH2 0x5F0 JUMPI DUP1 PUSH4 0x95D89B41 EQ PUSH2 0x4D5 JUMPI DUP1 PUSH4 0xA9059CBB EQ PUSH2 0x428 JUMPI DUP1 PUSH4 0xD505ACCF EQ PUSH2 0x128 JUMPI PUSH4 0xDD62ED3E EQ PUSH2 0xB2 JUMPI PUSH1 0x0 DUP1 REVERT JUMPDEST CALLVALUE PUSH2 0x124 JUMPI DUP2 PUSH32 0xFFFFFFFFFFFFFFFFFFFFFFFFFFFFFFFFFFFFFFFFFFFFFFFFFFFFFFFFFFFFFFFC CALLDATASIZE ADD SLT PUSH2 0x124 JUMPI PUSH1 0x20 SWAP3 DUP3 SWAP2 PUSH2 0xED PUSH2 0xBAE JUMP JUMPDEST PUSH2 0xF5 PUSH2 0xBD6 JUMP JUMPDEST SWAP2 PUSH20 0xFFFFFFFFFFFFFFFFFFFFFFFFFFFFFFFFFFFFFFFF DUP1 SWAP3 AND DUP5 MSTORE DUP7 MSTORE DUP4 DUP4 KECCAK256 SWAP2 AND DUP3 MSTORE DUP5 MSTORE KECCAK256 SLOAD SWAP1 MLOAD SWAP1 DUP2 MSTORE RETURN JUMPDEST DUP3 DUP1 REVERT JUMPDEST POP SWAP2 SWAP1 CALLVALUE PUSH2 0x424 JUMPI PUSH1 0xE0 PUSH32 0xFFFFFFFFFFFFFFFFFFFFFFFFFFFFFFFFFFFFFFFFFFFFFFFFFFFFFFFFFFFFFFFC CALLDATASIZE ADD SLT PUSH2 0x424 JUMPI PUSH2 0x162 PUSH2 0xBAE JUMP JUMPDEST SWAP1 PUSH2 0x16B PUSH2 0xBD6 JUMP JUMPDEST SWAP2 PUSH1 0x44 CALLDATALOAD PUSH1 0x64 CALLDATALOAD SWAP3 PUSH1 0x84 CALLDATALOAD SWAP3 PUSH1 0xFF DUP5 AND DUP1 SWAP5 SUB PUSH2 0x420 JUMPI TIMESTAMP DUP6 LT PUSH2 0x3C3 JUMPI PUSH2 0x191 PUSH2 0xC42 JUMP JUMPDEST SWAP6 PUSH20 0xFFFFFFFFFFFFFFFFFFFFFFFFFFFFFFFFFFFFFFFF DUP1 SWAP3 AND SWAP6 DUP7 DUP10 MSTORE PUSH1 0x20 SWAP6 PUSH1 0x5 DUP8 MSTORE DUP5 DUP11 KECCAK256 SWAP9 DUP10 SLOAD SWAP10 PUSH1 0x1 DUP12 ADD SWAP1 SSTORE DUP6 MLOAD SWAP3 DUP6 DUP10 DUP6 ADD SWAP6 PUSH32 0x6E71EDAE12B1B97F4D1F60370FEF10105FA2FAAE0126114A169C64845D6126C9 DUP8 MSTORE DUP12 DUP10 DUP8 ADD MSTORE AND SWAP11 DUP12 PUSH1 0x60 DUP7 ADD MSTORE DUP9 PUSH1 0x80 DUP7 ADD MSTORE PUSH1 0xA0 DUP6 ADD MSTORE PUSH1 0xC0 DUP5 ADD MSTORE PUSH1 0xC0 DUP4 MSTORE PUSH1 0xE0 DUP4 ADD PUSH8 0xFFFFFFFFFFFFFFFF SWAP5 DUP5 DUP3 LT DUP7 DUP4 GT OR PUSH2 0x396 JUMPI DUP2 DUP9 MSTORE DUP5 MLOAD SWAP1 KECCAK256 PUSH2 0x100 DUP6 ADD SWAP3 PUSH32 0x1901000000000000000000000000000000000000000000000000000000000000 DUP5 MSTORE PUSH2 0x102 DUP7 ADD MSTORE PUSH2 0x122 DUP6 ADD MSTORE PUSH1 0x42 DUP2 MSTORE PUSH2 0x160 DUP5 ADD SWAP5 DUP2 DUP7 LT SWAP1 DUP7 GT OR PUSH2 0x36A JUMPI DUP5 DUP8 MSTORE MLOAD SWAP1 KECCAK256 DUP4 MSTORE PUSH2 0x180 DUP3 ADD MSTORE PUSH1 0xA4 CALLDATALOAD PUSH2 0x1A0 DUP3 ADD MSTORE PUSH1 0xC4 CALLDATALOAD PUSH2 0x1C0 SWAP1 SWAP2 ADD MSTORE DUP8 DUP1 MSTORE DUP5 SWAP1 DUP9 SWAP1 PUSH1 0x80 SWAP1 PUSH1 0x1 GAS STATICCALL ISZERO PUSH2 0x360 JUMPI DUP7 MLOAD AND SWAP7 DUP8 ISZERO ISZERO DUP1 PUSH2 0x357 JUMPI JUMPDEST ISZERO PUSH2 0x2FC JUMPI DUP7 SWAP8 PUSH32 0x8C5BE1E5EBEC7D5BD14F71427D1E84F3DD0314C0F7B2291E5B200AC8C7C3B925 SWAP6 SWAP7 SWAP8 MSTORE DUP4 MSTORE DUP1 DUP8 KECCAK256 DUP7 DUP9 MSTORE DUP4 MSTORE DUP2 DUP2 DUP9 KECCAK256 SSTORE MLOAD SWAP1 DUP2 MSTORE LOG3 DUP1 RETURN JUMPDEST DUP4 PUSH1 0x64 SWAP3 MLOAD SWAP2 PUSH32 0x8C379A000000000000000000000000000000000000000000000000000000000 DUP4 MSTORE DUP3 ADD MSTORE PUSH1 0xE PUSH1 0x24 DUP3 ADD MSTORE PUSH32 0x494E56414C49445F5349474E4552000000000000000000000000000000000000 PUSH1 0x44 DUP3 ADD MSTORE REVERT JUMPDEST POP DUP5 DUP9 EQ PUSH2 0x2B9 JUMP JUMPDEST DUP2 MLOAD RETURNDATASIZE DUP9 DUP3 RETURNDATACOPY RETURNDATASIZE SWAP1 REVERT JUMPDEST PUSH1 0x24 DUP13 PUSH1 0x41 DUP16 PUSH32 0x4E487B7100000000000000000000000000000000000000000000000000000000 DUP4 MSTORE MSTORE REVERT JUMPDEST POP PUSH1 0x24 DUP13 PUSH1 0x41 DUP16 PUSH32 0x4E487B7100000000000000000000000000000000000000000000000000000000 DUP4 MSTORE MSTORE REVERT JUMPDEST PUSH1 0x64 DUP9 PUSH1 0x20 DUP5 MLOAD SWAP2 PUSH32 0x8C379A000000000000000000000000000000000000000000000000000000000 DUP4 MSTORE DUP3 ADD MSTORE PUSH1 0x17 PUSH1 0x24 DUP3 ADD MSTORE PUSH32 0x5045524D49545F444541444C494E455F45585049524544000000000000000000 PUSH1 0x44 DUP3 ADD MSTORE REVERT JUMPDEST DUP7 DUP1 REVERT JUMPDEST POP DUP1 REVERT JUMPDEST POP POP CALLVALUE PUSH2 0x424 JUMPI DUP1 PUSH32 0xFFFFFFFFFFFFFFFFFFFFFFFFFFFFFFFFFFFFFFFFFFFFFFFFFFFFFFFFFFFFFFFC CALLDATASIZE ADD SLT PUSH2 0x424 JUMPI PUSH1 0x20 SWAP2 PUSH2 0x463 PUSH2 0xBAE JUMP JUMPDEST DUP3 PUSH20 0xFFFFFFFFFFFFFFFFFFFFFFFFFFFFFFFFFFFFFFFF PUSH1 0x24 CALLDATALOAD SWAP3 CALLER DUP6 MSTORE PUSH1 0x3 DUP8 MSTORE DUP3 DUP6 KECCAK256 PUSH2 0x492 DUP6 DUP3 SLOAD PUSH2 0xC35 JUMP JUMPDEST SWAP1 SSTORE AND SWAP3 DUP4 DUP2 MSTORE PUSH1 0x3 DUP7 MSTORE KECCAK256 DUP2 DUP2 SLOAD ADD SWAP1 SSTORE DUP3 MLOAD SWAP1 DUP2 MSTORE PUSH32 0xDDF252AD1BE2C89B69C2B068FC378DAA952BA7F163C4A11628F55A4DF523B3EF DUP5 CALLER SWAP3 LOG3 MLOAD PUSH1 0x1 DUP2 MSTORE RETURN JUMPDEST POP POP CALLVALUE PUSH2 0x424 JUMPI DUP2 PUSH32 0xFFFFFFFFFFFFFFFFFFFFFFFFFFFFFFFFFFFFFFFFFFFFFFFFFFFFFFFFFFFFFFFC CALLDATASIZE ADD SLT PUSH2 0x424 JUMPI DUP1 MLOAD SWAP1 DUP3 PUSH1 0x1 DUP1 SLOAD SWAP2 PUSH2 0x517 DUP4 PUSH2 0xA85 JUMP JUMPDEST DUP1 DUP7 MSTORE SWAP3 DUP3 DUP2 AND SWAP1 DUP2 ISZERO PUSH2 0x5AA JUMPI POP PUSH1 0x1 EQ PUSH2 0x54E JUMPI JUMPDEST POP POP POP PUSH2 0x540 DUP3 PUSH2 0x54A SWAP5 SUB DUP4 PUSH2 0xAD8 JUMP JUMPDEST MLOAD SWAP2 DUP3 SWAP2 DUP3 PUSH2 0xB48 JUMP JUMPDEST SUB SWAP1 RETURN JUMPDEST SWAP5 POP DUP1 DUP6 MSTORE PUSH32 0xB10E2D527612073B26EECDFD717E6A320CF44B4AFAC2B0732D9FCBE2B7FA0CF6 JUMPDEST DUP3 DUP7 LT PUSH2 0x592 JUMPI POP POP POP PUSH2 0x540 DUP3 PUSH1 0x20 PUSH2 0x54A SWAP6 DUP3 ADD ADD SWAP5 PUSH2 0x52E JUMP JUMPDEST DUP1 SLOAD PUSH1 0x20 DUP8 DUP8 ADD DUP2 ADD SWAP2 SWAP1 SWAP2 MSTORE SWAP1 SWAP6 ADD SWAP5 DUP2 ADD PUSH2 0x575 JUMP JUMPDEST PUSH2 0x54A SWAP8 POP DUP7 SWAP4 POP PUSH1 0x20 SWAP3 POP PUSH2 0x540 SWAP5 SWAP2 POP PUSH32 0xFFFFFFFFFFFFFFFFFFFFFFFFFFFFFFFFFFFFFFFFFFFFFFFFFFFFFFFFFFFFFF00 AND DUP3 DUP5 ADD MSTORE ISZERO ISZERO PUSH1 0x5 SHL DUP3 ADD ADD SWAP5 PUSH2 0x52E JUMP JUMPDEST POP POP CALLVALUE PUSH2 0x424 JUMPI PUSH1 0x20 PUSH32 0xFFFFFFFFFFFFFFFFFFFFFFFFFFFFFFFFFFFFFFFFFFFFFFFFFFFFFFFFFFFFFFFC CALLDATASIZE ADD SLT PUSH2 0x424 JUMPI DUP1 PUSH1 0x20 SWAP3 PUSH20 0xFFFFFFFFFFFFFFFFFFFFFFFFFFFFFFFFFFFFFFFF PUSH2 0x642 PUSH2 0xBAE JUMP JUMPDEST AND DUP2 MSTORE PUSH1 0x5 DUP5 MSTORE KECCAK256 SLOAD SWAP1 MLOAD SWAP1 DUP2 MSTORE RETURN JUMPDEST POP POP CALLVALUE PUSH2 0x424 JUMPI PUSH1 0x20 PUSH32 0xFFFFFFFFFFFFFFFFFFFFFFFFFFFFFFFFFFFFFFFFFFFFFFFFFFFFFFFFFFFFFFFC CALLDATASIZE ADD SLT PUSH2 0x424 JUMPI DUP1 PUSH1 0x20 SWAP3 PUSH20 0xFFFFFFFFFFFFFFFFFFFFFFFFFFFFFFFFFFFFFFFF PUSH2 0x6A4 PUSH2 0xBAE JUMP JUMPDEST AND DUP2 MSTORE PUSH1 0x3 DUP5 MSTORE KECCAK256 SLOAD SWAP1 MLOAD SWAP1 DUP2 MSTORE RETURN JUMPDEST POP POP CALLVALUE PUSH2 0x424 JUMPI DUP1 PUSH32 0xFFFFFFFFFFFFFFFFFFFFFFFFFFFFFFFFFFFFFFFFFFFFFFFFFFFFFFFFFFFFFFFC CALLDATASIZE ADD SLT PUSH2 0x424 JUMPI PUSH2 0x729 SWAP1 PUSH2 0x6F0 PUSH2 0xBAE JUMP JUMPDEST SWAP1 PUSH20 0xFFFFFFFFFFFFFFFFFFFFFFFFFFFFFFFFFFFFFFFF PUSH1 0x24 CALLDATALOAD SWAP3 AND DUP5 MSTORE PUSH1 0x3 PUSH1 0x20 MSTORE DUP4 KECCAK256 PUSH2 0x71F DUP3 DUP3 SLOAD PUSH2 0xBF9 JUMP JUMPDEST SWAP1 SSTORE PUSH1 0x2 SLOAD PUSH2 0xBF9 JUMP JUMPDEST PUSH1 0x2 SSTORE DUP1 RETURN JUMPDEST POP POP CALLVALUE PUSH2 0x424 JUMPI DUP2 PUSH32 0xFFFFFFFFFFFFFFFFFFFFFFFFFFFFFFFFFFFFFFFFFFFFFFFFFFFFFFFFFFFFFFFC CALLDATASIZE ADD SLT PUSH2 0x424 JUMPI PUSH1 0x20 SWAP1 PUSH2 0x76A PUSH2 0xC42 JUMP JUMPDEST SWAP1 MLOAD SWAP1 DUP2 MSTORE RETURN JUMPDEST POP POP CALLVALUE PUSH2 0x424 JUMPI DUP2 PUSH32 0xFFFFFFFFFFFFFFFFFFFFFFFFFFFFFFFFFFFFFFFFFFFFFFFFFFFFFFFFFFFFFFFC CALLDATASIZE ADD SLT PUSH2 0x424 JUMPI PUSH1 0x20 SWAP1 MLOAD PUSH1 0xFF PUSH32 0x0 AND DUP2 MSTORE RETURN JUMPDEST POP SWAP2 CALLVALUE PUSH2 0x8E7 JUMPI PUSH1 0x60 PUSH32 0xFFFFFFFFFFFFFFFFFFFFFFFFFFFFFFFFFFFFFFFFFFFFFFFFFFFFFFFFFFFFFFFC CALLDATASIZE ADD SLT PUSH2 0x8E7 JUMPI PUSH2 0x806 PUSH2 0xBAE JUMP JUMPDEST PUSH32 0xDDF252AD1BE2C89B69C2B068FC378DAA952BA7F163C4A11628F55A4DF523B3EF PUSH2 0x82F PUSH2 0xBD6 JUMP JUMPDEST SWAP5 PUSH1 0x44 CALLDATALOAD DUP6 PUSH20 0xFFFFFFFFFFFFFFFFFFFFFFFFFFFFFFFFFFFFFFFF DUP1 SWAP6 AND SWAP5 DUP6 DUP8 MSTORE PUSH1 0x20 SWAP9 DUP5 DUP11 SWAP6 DUP7 MSTORE DUP4 DUP10 KECCAK256 CALLER DUP11 MSTORE DUP7 MSTORE DUP4 DUP10 KECCAK256 SLOAD DUP6 PUSH32 0xFFFFFFFFFFFFFFFFFFFFFFFFFFFFFFFFFFFFFFFFFFFFFFFFFFFFFFFFFFFFFFFF DUP3 SUB PUSH2 0x8C4 JUMPI JUMPDEST POP POP POP DUP7 DUP9 MSTORE PUSH1 0x3 DUP6 MSTORE DUP3 DUP9 KECCAK256 PUSH2 0x8A5 DUP6 DUP3 SLOAD PUSH2 0xC35 JUMP JUMPDEST SWAP1 SSTORE AND SWAP6 DUP7 DUP2 MSTORE PUSH1 0x3 DUP5 MSTORE KECCAK256 DUP2 DUP2 SLOAD ADD SWAP1 SSTORE DUP6 MLOAD SWAP1 DUP2 MSTORE LOG3 MLOAD PUSH1 0x1 DUP2 MSTORE RETURN JUMPDEST PUSH2 0x8CD SWAP2 PUSH2 0xC35 JUMP JUMPDEST SWAP1 DUP9 DUP11 MSTORE DUP7 MSTORE DUP4 DUP10 KECCAK256 CALLER DUP11 MSTORE DUP7 MSTORE DUP4 DUP10 KECCAK256 SSTORE CODESIZE DUP1 DUP6 PUSH2 0x88D JUMP JUMPDEST DUP1 REVERT JUMPDEST POP POP CALLVALUE PUSH2 0x424 JUMPI DUP2 PUSH32 0xFFFFFFFFFFFFFFFFFFFFFFFFFFFFFFFFFFFFFFFFFFFFFFFFFFFFFFFFFFFFFFFC CALLDATASIZE ADD SLT PUSH2 0x424 JUMPI PUSH1 0x20 SWAP1 PUSH1 0x2 SLOAD SWAP1 MLOAD SWAP1 DUP2 MSTORE RETURN JUMPDEST POP CALLVALUE PUSH2 0x124 JUMPI DUP2 PUSH32 0xFFFFFFFFFFFFFFFFFFFFFFFFFFFFFFFFFFFFFFFFFFFFFFFFFFFFFFFFFFFFFFFC CALLDATASIZE ADD SLT PUSH2 0x124 JUMPI PUSH1 0x20 SWAP3 PUSH2 0x961 PUSH2 0xBAE JUMP JUMPDEST SWAP2 DUP4 PUSH1 0x24 CALLDATALOAD SWAP3 DUP4 SWAP3 CALLER DUP3 MSTORE DUP8 MSTORE PUSH20 0xFFFFFFFFFFFFFFFFFFFFFFFFFFFFFFFFFFFFFFFF DUP3 DUP3 KECCAK256 SWAP6 AND SWAP5 DUP6 DUP3 MSTORE DUP8 MSTORE KECCAK256 SSTORE DUP3 MLOAD SWAP1 DUP2 MSTORE PUSH32 0x8C5BE1E5EBEC7D5BD14F71427D1E84F3DD0314C0F7B2291E5B200AC8C7C3B925 DUP5 CALLER SWAP3 LOG3 MLOAD PUSH1 0x1 DUP2 MSTORE RETURN JUMPDEST DUP5 SWAP1 DUP5 CALLVALUE PUSH2 0x124 JUMPI DUP3 PUSH32 0xFFFFFFFFFFFFFFFFFFFFFFFFFFFFFFFFFFFFFFFFFFFFFFFFFFFFFFFFFFFFFFFC CALLDATASIZE ADD SLT PUSH2 0x124 JUMPI DUP3 DUP1 SLOAD PUSH2 0x9FE DUP2 PUSH2 0xA85 JUMP JUMPDEST DUP1 DUP6 MSTORE SWAP2 PUSH1 0x1 SWAP2 DUP1 DUP4 AND SWAP1 DUP2 ISZERO PUSH2 0x5AA JUMPI POP PUSH1 0x1 EQ PUSH2 0xA29 JUMPI POP POP POP PUSH2 0x540 DUP3 PUSH2 0x54A SWAP5 SUB DUP4 PUSH2 0xAD8 JUMP JUMPDEST DUP1 DUP1 SWAP7 POP MSTORE PUSH32 0x290DECD9548B62A8D60345A988386FC84BA6BC95484008F6362F93160EF3E563 JUMPDEST DUP3 DUP7 LT PUSH2 0xA6D JUMPI POP POP POP PUSH2 0x540 DUP3 PUSH1 0x20 PUSH2 0x54A SWAP6 DUP3 ADD ADD SWAP5 PUSH2 0x52E JUMP JUMPDEST DUP1 SLOAD PUSH1 0x20 DUP8 DUP8 ADD DUP2 ADD SWAP2 SWAP1 SWAP2 MSTORE SWAP1 SWAP6 ADD SWAP5 DUP2 ADD PUSH2 0xA50 JUMP JUMPDEST SWAP1 PUSH1 0x1 DUP3 DUP2 SHR SWAP3 AND DUP1 ISZERO PUSH2 0xACE JUMPI JUMPDEST PUSH1 0x20 DUP4 LT EQ PUSH2 0xA9F JUMPI JUMP JUMPDEST PUSH32 0x4E487B7100000000000000000000000000000000000000000000000000000000 PUSH1 0x0 MSTORE PUSH1 0x22 PUSH1 0x4 MSTORE PUSH1 0x24 PUSH1 0x0 REVERT JUMPDEST SWAP2 PUSH1 0x7F AND SWAP2 PUSH2 0xA94 JUMP JUMPDEST SWAP1 PUSH1 0x1F PUSH32 0xFFFFFFFFFFFFFFFFFFFFFFFFFFFFFFFFFFFFFFFFFFFFFFFFFFFFFFFFFFFFFFE0 SWAP2 ADD AND DUP2 ADD SWAP1 DUP2 LT PUSH8 0xFFFFFFFFFFFFFFFF DUP3 GT OR PUSH2 0xB19 JUMPI PUSH1 0x40 MSTORE JUMP JUMPDEST PUSH32 0x4E487B7100000000000000000000000000000000000000000000000000000000 PUSH1 0x0 MSTORE PUSH1 0x41 PUSH1 0x4 MSTORE PUSH1 0x24 PUSH1 0x0 REVERT JUMPDEST PUSH1 0x20 DUP1 DUP3 MSTORE DUP3 MLOAD DUP2 DUP4 ADD DUP2 SWAP1 MSTORE SWAP4 SWAP3 PUSH1 0x0 JUMPDEST DUP6 DUP2 LT PUSH2 0xB9A JUMPI POP POP POP PUSH32 0xFFFFFFFFFFFFFFFFFFFFFFFFFFFFFFFFFFFFFFFFFFFFFFFFFFFFFFFFFFFFFFE0 PUSH1 0x1F DUP5 PUSH1 0x0 PUSH1 0x40 DUP1 SWAP7 SWAP8 DUP7 ADD ADD MSTORE ADD AND ADD ADD SWAP1 JUMP JUMPDEST DUP2 DUP2 ADD DUP4 ADD MLOAD DUP5 DUP3 ADD PUSH1 0x40 ADD MSTORE DUP3 ADD PUSH2 0xB5A JUMP JUMPDEST PUSH1 0x4 CALLDATALOAD SWAP1 PUSH20 0xFFFFFFFFFFFFFFFFFFFFFFFFFFFFFFFFFFFFFFFF DUP3 AND DUP3 SUB PUSH2 0xBD1 JUMPI JUMP JUMPDEST PUSH1 0x0 DUP1 REVERT JUMPDEST PUSH1 0x24 CALLDATALOAD SWAP1 PUSH20 0xFFFFFFFFFFFFFFFFFFFFFFFFFFFFFFFFFFFFFFFF DUP3 AND DUP3 SUB PUSH2 0xBD1 JUMPI JUMP JUMPDEST SWAP2 SWAP1 DUP3 ADD DUP1 SWAP3 GT PUSH2 0xC06 JUMPI JUMP JUMPDEST PUSH32 0x4E487B7100000000000000000000000000000000000000000000000000000000 PUSH1 0x0 MSTORE PUSH1 0x11 PUSH1 0x4 MSTORE PUSH1 0x24 PUSH1 0x0 REVERT JUMPDEST SWAP2 SWAP1 DUP3 SUB SWAP2 DUP3 GT PUSH2 0xC06 JUMPI JUMP JUMPDEST PUSH1 0x0 CHAINID PUSH32 0x0 SUB PUSH2 0xC90 JUMPI POP PUSH32 0x0 SWAP1 JUMP JUMPDEST PUSH1 0x40 MLOAD DUP2 SLOAD DUP3 SWAP2 PUSH2 0xCA0 DUP3 PUSH2 0xA85 JUMP JUMPDEST DUP1 DUP3 MSTORE DUP2 PUSH1 0x20 SWAP5 DUP6 DUP3 ADD SWAP5 PUSH1 0x1 SWAP1 DUP8 DUP3 DUP3 AND SWAP2 DUP3 PUSH1 0x0 EQ PUSH2 0xDE3 JUMPI POP POP PUSH1 0x1 EQ PUSH2 0xD8A JUMPI JUMPDEST POP PUSH2 0xCD2 SWAP3 POP SUB DUP3 PUSH2 0xAD8 JUMP JUMPDEST MLOAD SWAP1 KECCAK256 SWAP2 PUSH1 0x40 MLOAD SWAP2 DUP3 ADD SWAP3 PUSH32 0x8B73C3C69BB8FE3D512ECC4CF759CC79239F7B179B0FFACAA9A75D522B39400F DUP5 MSTORE PUSH1 0x40 DUP4 ADD MSTORE PUSH32 0xC89EFDAA54C0F20C7ADF612882DF0950F5A951637E0307CDCB4C672F298B8BC6 PUSH1 0x60 DUP4 ADD MSTORE CHAINID PUSH1 0x80 DUP4 ADD MSTORE ADDRESS PUSH1 0xA0 DUP4 ADD MSTORE PUSH1 0xA0 DUP3 MSTORE PUSH1 0xC0 DUP3 ADD SWAP1 DUP3 DUP3 LT PUSH8 0xFFFFFFFFFFFFFFFF DUP4 GT OR PUSH2 0xD5D JUMPI POP PUSH1 0x40 MSTORE MLOAD SWAP1 KECCAK256 SWAP1 JUMP JUMPDEST DUP1 PUSH32 0x4E487B7100000000000000000000000000000000000000000000000000000000 PUSH1 0x24 SWAP3 MSTORE PUSH1 0x41 PUSH1 0x4 MSTORE REVERT JUMPDEST DUP8 DUP1 MSTORE DUP7 SWAP2 POP DUP8 SWAP1 PUSH32 0x290DECD9548B62A8D60345A988386FC84BA6BC95484008F6362F93160EF3E563 JUMPDEST DUP6 DUP4 LT PUSH2 0xDCB JUMPI POP POP PUSH2 0xCD2 SWAP4 POP DUP3 ADD ADD CODESIZE PUSH2 0xCC5 JUMP JUMPDEST DUP1 SLOAD DUP4 DUP9 ADD DUP6 ADD MSTORE DUP7 SWAP5 POP DUP9 SWAP4 SWAP1 SWAP3 ADD SWAP2 DUP2 ADD PUSH2 0xDB4 JUMP JUMPDEST PUSH32 0xFFFFFFFFFFFFFFFFFFFFFFFFFFFFFFFFFFFFFFFFFFFFFFFFFFFFFFFFFFFFFF00 AND DUP9 MSTORE PUSH2 0xCD2 SWAP6 ISZERO ISZERO PUSH1 0x5 SHL DUP6 ADD ADD SWAP3 POP CODESIZE SWAP2 POP PUSH2 0xCC5 SWAP1 POP JUMP INVALID LOG1 PUSH5 0x736F6C6343 STOP ADDMOD GT STOP EXP "},"methodIdentifiers":{"DOMAIN_SEPARATOR()":"3644e515","allowance(address,address)":"dd62ed3e","approve(address,uint256)":"095ea7b3","balanceOf(address)":"70a08231","decimals()":"313ce567","mint(address,uint256)":"40c10f19","name()":"06fdde03","nonces(address)":"7ecebe00","permit(address,address,uint256,uint256,uint8,bytes32,bytes32)":"d505accf","symbol()":"95d89b41","totalSupply()":"18160ddd","transfer(address,uint256)":"a9059cbb","transferFrom(address,address,uint256)":"23b872dd"}}}}}