{"contracts/test/ExampleModule.sol":{"ExampleModule":{"abi":[{"inputs":[],"name":"CauseRevert","type":"error"},{"anonymous":false,"inputs":[{"indexed":false,"internalType":"string","name":"message","type":"string"}],"name":"ExampleModuleEvent","type":"event"},{"inputs":[],"name":"causeRevert","outputs":[],"stateMutability":"pure","type":"function"},{"inputs":[],"name":"logEvent","outputs":[],"stateMutability":"nonpayable","type":"function"}],"evm":{"bytecode":{"linkReferences":{},"object":"608080604052346100165761012c908161001c8239f35b600080fdfe608080604052600436101561001357600080fd5b600090813560e01c90816367192b63146100c3575063a5fe08721461003757600080fd5b346100c057807ffffffffffffffffffffffffffffffffffffffffffffffffffffffffffffffffc3601126100c0577ff173516ab337f2e7729ba9acd5771deab6be31f2ad8d5dd42dab5269e61701b9606060405160208152600960208201527f746573744576656e7400000000000000000000000000000000000000000000006040820152a180f35b80fd5b90503461011b57817ffffffffffffffffffffffffffffffffffffffffffffffffffffffffffffffffc36011261011b57807f39492f340000000000000000000000000000000000000000000000000000000060049252fd5b5080fdfea164736f6c6343000811000a","opcodes":"PUSH1 0x80 DUP1 PUSH1 0x40 MSTORE CALLVALUE PUSH2 0x16 JUMPI PUSH2 0x12C SWAP1 DUP2 PUSH2 0x1C DUP3 CODECOPY RETURN JUMPDEST PUSH1 0x0 DUP1 REVERT INVALID PUSH1 0x80 DUP1 PUSH1 0x40 MSTORE PUSH1 0x4 CALLDATASIZE LT ISZERO PUSH2 0x13 JUMPI PUSH1 0x0 DUP1 REVERT JUMPDEST PUSH1 0x0 SWAP1 DUP2 CALLDATALOAD PUSH1 0xE0 SHR SWAP1 DUP2 PUSH4 0x67192B63 EQ PUSH2 0xC3 JUMPI POP PUSH4 0xA5FE0872 EQ PUSH2 0x37 JUMPI PUSH1 0x0 DUP1 REVERT JUMPDEST CALLVALUE PUSH2 0xC0 JUMPI DUP1 PUSH32 0xFFFFFFFFFFFFFFFFFFFFFFFFFFFFFFFFFFFFFFFFFFFFFFFFFFFFFFFFFFFFFFFC CALLDATASIZE ADD SLT PUSH2 0xC0 JUMPI PUSH32 0xF173516AB337F2E7729BA9ACD5771DEAB6BE31F2AD8D5DD42DAB5269E61701B9 PUSH1 0x60 PUSH1 0x40 MLOAD PUSH1 0x20 DUP2 MSTORE PUSH1 0x9 PUSH1 0x20 DUP3 ADD MSTORE PUSH32 0x746573744576656E740000000000000000000000000000000000000000000000 PUSH1 0x40 DUP3 ADD MSTORE LOG1 DUP1 RETURN JUMPDEST DUP1 REVERT JUMPDEST SWAP1 POP CALLVALUE PUSH2 0x11B JUMPI DUP2 PUSH32 0xFFFFFFFFFFFFFFFFFFFFFFFFFFFFFFFFFFFFFFFFFFFFFFFFFFFFFFFFFFFFFFFC CALLDATASIZE ADD SLT PUSH2 0x11B JUMPI DUP1 PUSH32 0x39492F3400000000000000000000000000000000000000000000000000000000 PUSH1 0x4 SWAP3 MSTORE REVERT JUMPDEST POP DUP1 REVERT INVALID LOG1 PUSH5 0x736F6C6343 STOP ADDMOD GT STOP EXP "},"methodIdentifiers":{"causeRevert()":"67192b63","logEvent()":"a5fe0872"}}}}}