{"contracts/base/Callbacks.sol":{"Callbacks":{"abi":[{"inputs":[{"internalType":"address","name":"","type":"address"},{"internalType":"address","name":"","type":"address"},{"internalType":"uint256[]","name":"","type":"uint256[]"},{"internalType":"uint256[]","name":"","type":"uint256[]"},{"internalType":"bytes","name":"","type":"bytes"}],"name":"onERC1155BatchReceived","outputs":[{"internalType":"bytes4","name":"","type":"bytes4"}],"stateMutability":"pure","type":"function"},{"inputs":[{"internalType":"address","name":"","type":"address"},{"internalType":"address","name":"","type":"address"},{"internalType":"uint256","name":"","type":"uint256"},{"internalType":"uint256","name":"","type":"uint256"},{"internalType":"bytes","name":"","type":"bytes"}],"name":"onERC1155Received","outputs":[{"internalType":"bytes4","name":"","type":"bytes4"}],"stateMutability":"pure","type":"function"},{"inputs":[{"internalType":"address","name":"","type":"address"},{"internalType":"address","name":"","type":"address"},{"internalType":"uint256","name":"","type":"uint256"},{"internalType":"bytes","name":"","type":"bytes"}],"name":"onERC721Received","outputs":[{"internalType":"bytes4","name":"","type":"bytes4"}],"stateMutability":"pure","type":"function"},{"inputs":[{"internalType":"bytes4","name":"interfaceId","type":"bytes4"}],"name":"supportsInterface","outputs":[{"internalType":"bool","name":"","type":"bool"}],"stateMutability":"pure","type":"function"}],"evm":{"bytecode":{"linkReferences":{},"object":"60808060405234610016576103d8908161001c8239f35b600080fdfe60808060405260048036101561001457600080fd5b600091823560e01c90816301ffc9a71461023357508063150b7a02146101a6578063bc197c81146100e25763f23a6e611461004e57600080fd5b346100de5760a07ffffffffffffffffffffffffffffffffffffffffffffffffffffffffffffffffc3601126100de57610085610321565b5061008e610349565b5060843567ffffffffffffffff81116100da576100ae925036910161036c565b505060206040517ff23a6e61000000000000000000000000000000000000000000000000000000008152f35b8280fd5b5080fd5b50346100de5760a07ffffffffffffffffffffffffffffffffffffffffffffffffffffffffffffffffc3601126100de5761011a610321565b50610123610349565b5067ffffffffffffffff6044358181116101a257610144903690840161039a565b50506064358181116101a25761015d903690840161039a565b50506084359081116100da57610176925036910161036c565b505060206040517fbc197c81000000000000000000000000000000000000000000000000000000008152f35b8380fd5b50346100de5760807ffffffffffffffffffffffffffffffffffffffffffffffffffffffffffffffffc3601126100de576101de610321565b506101e7610349565b5060643567ffffffffffffffff81116100da57610207925036910161036c565b505060206040517f150b7a02000000000000000000000000000000000000000000000000000000008152f35b919050346100da5760207ffffffffffffffffffffffffffffffffffffffffffffffffffffffffffffffffc3601126100da57357fffffffff0000000000000000000000000000000000000000000000000000000081168091036100da57602092507f4e2312e00000000000000000000000000000000000000000000000000000000081149081156102f7575b81156102cd575b5015158152f35b7f01ffc9a700000000000000000000000000000000000000000000000000000000915014386102c6565b7f150b7a0200000000000000000000000000000000000000000000000000000000811491506102bf565b6004359073ffffffffffffffffffffffffffffffffffffffff8216820361034457565b600080fd5b6024359073ffffffffffffffffffffffffffffffffffffffff8216820361034457565b9181601f840112156103445782359167ffffffffffffffff8311610344576020838186019501011161034457565b9181601f840112156103445782359167ffffffffffffffff8311610344576020808501948460051b0101116103445756fea164736f6c6343000811000a","opcodes":"PUSH1 0x80 DUP1 PUSH1 0x40 MSTORE CALLVALUE PUSH2 0x16 JUMPI PUSH2 0x3D8 SWAP1 DUP2 PUSH2 0x1C DUP3 CODECOPY RETURN JUMPDEST PUSH1 0x0 DUP1 REVERT INVALID PUSH1 0x80 DUP1 PUSH1 0x40 MSTORE PUSH1 0x4 DUP1 CALLDATASIZE LT ISZERO PUSH2 0x14 JUMPI PUSH1 0x0 DUP1 REVERT JUMPDEST PUSH1 0x0 SWAP2 DUP3 CALLDATALOAD PUSH1 0xE0 SHR SWAP1 DUP2 PUSH4 0x1FFC9A7 EQ PUSH2 0x233 JUMPI POP DUP1 PUSH4 0x150B7A02 EQ PUSH2 0x1A6 JUMPI DUP1 PUSH4 0xBC197C81 EQ PUSH2 0xE2 JUMPI PUSH4 0xF23A6E61 EQ PUSH2 0x4E JUMPI PUSH1 0x0 DUP1 REVERT JUMPDEST CALLVALUE PUSH2 0xDE JUMPI PUSH1 0xA0 PUSH32 0xFFFFFFFFFFFFFFFFFFFFFFFFFFFFFFFFFFFFFFFFFFFFFFFFFFFFFFFFFFFFFFFC CALLDATASIZE ADD SLT PUSH2 0xDE JUMPI PUSH2 0x85 PUSH2 0x321 JUMP JUMPDEST POP PUSH2 0x8E PUSH2 0x349 JUMP JUMPDEST POP PUSH1 0x84 CALLDATALOAD PUSH8 0xFFFFFFFFFFFFFFFF DUP2 GT PUSH2 0xDA JUMPI PUSH2 0xAE SWAP3 POP CALLDATASIZE SWAP2 ADD PUSH2 0x36C JUMP JUMPDEST POP POP PUSH1 0x20 PUSH1 0x40 MLOAD PUSH32 0xF23A6E6100000000000000000000000000000000000000000000000000000000 DUP2 MSTORE RETURN JUMPDEST DUP3 DUP1 REVERT JUMPDEST POP DUP1 REVERT JUMPDEST POP CALLVALUE PUSH2 0xDE JUMPI PUSH1 0xA0 PUSH32 0xFFFFFFFFFFFFFFFFFFFFFFFFFFFFFFFFFFFFFFFFFFFFFFFFFFFFFFFFFFFFFFFC CALLDATASIZE ADD SLT PUSH2 0xDE JUMPI PUSH2 0x11A PUSH2 0x321 JUMP JUMPDEST POP PUSH2 0x123 PUSH2 0x349 JUMP JUMPDEST POP PUSH8 0xFFFFFFFFFFFFFFFF PUSH1 0x44 CALLDATALOAD DUP2 DUP2 GT PUSH2 0x1A2 JUMPI PUSH2 0x144 SWAP1 CALLDATASIZE SWAP1 DUP5 ADD PUSH2 0x39A JUMP JUMPDEST POP POP PUSH1 0x64 CALLDATALOAD DUP2 DUP2 GT PUSH2 0x1A2 JUMPI PUSH2 0x15D SWAP1 CALLDATASIZE SWAP1 DUP5 ADD PUSH2 0x39A JUMP JUMPDEST POP POP PUSH1 0x84 CALLDATALOAD SWAP1 DUP2 GT PUSH2 0xDA JUMPI PUSH2 0x176 SWAP3 POP CALLDATASIZE SWAP2 ADD PUSH2 0x36C JUMP JUMPDEST POP POP PUSH1 0x20 PUSH1 0x40 MLOAD PUSH32 0xBC197C8100000000000000000000000000000000000000000000000000000000 DUP2 MSTORE RETURN JUMPDEST DUP4 DUP1 REVERT JUMPDEST POP CALLVALUE PUSH2 0xDE JUMPI PUSH1 0x80 PUSH32 0xFFFFFFFFFFFFFFFFFFFFFFFFFFFFFFFFFFFFFFFFFFFFFFFFFFFFFFFFFFFFFFFC CALLDATASIZE ADD SLT PUSH2 0xDE JUMPI PUSH2 0x1DE PUSH2 0x321 JUMP JUMPDEST POP PUSH2 0x1E7 PUSH2 0x349 JUMP JUMPDEST POP PUSH1 0x64 CALLDATALOAD PUSH8 0xFFFFFFFFFFFFFFFF DUP2 GT PUSH2 0xDA JUMPI PUSH2 0x207 SWAP3 POP CALLDATASIZE SWAP2 ADD PUSH2 0x36C JUMP JUMPDEST POP POP PUSH1 0x20 PUSH1 0x40 MLOAD PUSH32 0x150B7A0200000000000000000000000000000000000000000000000000000000 DUP2 MSTORE RETURN JUMPDEST SWAP2 SWAP1 POP CALLVALUE PUSH2 0xDA JUMPI PUSH1 0x20 PUSH32 0xFFFFFFFFFFFFFFFFFFFFFFFFFFFFFFFFFFFFFFFFFFFFFFFFFFFFFFFFFFFFFFFC CALLDATASIZE ADD SLT PUSH2 0xDA JUMPI CALLDATALOAD PUSH32 0xFFFFFFFF00000000000000000000000000000000000000000000000000000000 DUP2 AND DUP1 SWAP2 SUB PUSH2 0xDA JUMPI PUSH1 0x20 SWAP3 POP PUSH32 0x4E2312E000000000000000000000000000000000000000000000000000000000 DUP2 EQ SWAP1 DUP2 ISZERO PUSH2 0x2F7 JUMPI JUMPDEST DUP2 ISZERO PUSH2 0x2CD JUMPI JUMPDEST POP ISZERO ISZERO DUP2 MSTORE RETURN JUMPDEST PUSH32 0x1FFC9A700000000000000000000000000000000000000000000000000000000 SWAP2 POP EQ CODESIZE PUSH2 0x2C6 JUMP JUMPDEST PUSH32 0x150B7A0200000000000000000000000000000000000000000000000000000000 DUP2 EQ SWAP2 POP PUSH2 0x2BF JUMP JUMPDEST PUSH1 0x4 CALLDATALOAD SWAP1 PUSH20 0xFFFFFFFFFFFFFFFFFFFFFFFFFFFFFFFFFFFFFFFF DUP3 AND DUP3 SUB PUSH2 0x344 JUMPI JUMP JUMPDEST PUSH1 0x0 DUP1 REVERT JUMPDEST PUSH1 0x24 CALLDATALOAD SWAP1 PUSH20 0xFFFFFFFFFFFFFFFFFFFFFFFFFFFFFFFFFFFFFFFF DUP3 AND DUP3 SUB PUSH2 0x344 JUMPI JUMP JUMPDEST SWAP2 DUP2 PUSH1 0x1F DUP5 ADD SLT ISZERO PUSH2 0x344 JUMPI DUP3 CALLDATALOAD SWAP2 PUSH8 0xFFFFFFFFFFFFFFFF DUP4 GT PUSH2 0x344 JUMPI PUSH1 0x20 DUP4 DUP2 DUP7 ADD SWAP6 ADD ADD GT PUSH2 0x344 JUMPI JUMP JUMPDEST SWAP2 DUP2 PUSH1 0x1F DUP5 ADD SLT ISZERO PUSH2 0x344 JUMPI DUP3 CALLDATALOAD SWAP2 PUSH8 0xFFFFFFFFFFFFFFFF DUP4 GT PUSH2 0x344 JUMPI PUSH1 0x20 DUP1 DUP6 ADD SWAP5 DUP5 PUSH1 0x5 SHL ADD ADD GT PUSH2 0x344 JUMPI JUMP INVALID LOG1 PUSH5 0x736F6C6343 STOP ADDMOD GT STOP EXP "},"methodIdentifiers":{"onERC1155BatchReceived(address,address,uint256[],uint256[],bytes)":"bc197c81","onERC1155Received(address,address,uint256,uint256,bytes)":"f23a6e61","onERC721Received(address,address,uint256,bytes)":"150b7a02","supportsInterface(bytes4)":"01ffc9a7"}}}}}