{"permit2/src/AllowanceTransfer.sol":{"AllowanceTransfer":{"abi":[{"inputs":[{"internalType":"uint256","name":"deadline","type":"uint256"}],"name":"AllowanceExpired","type":"error"},{"inputs":[],"name":"ExcessiveInvalidation","type":"error"},{"inputs":[{"internalType":"uint256","name":"amount","type":"uint256"}],"name":"InsufficientAllowance","type":"error"},{"inputs":[],"name":"InvalidContractSignature","type":"error"},{"inputs":[],"name":"InvalidNonce","type":"error"},{"inputs":[],"name":"InvalidSignature","type":"error"},{"inputs":[],"name":"InvalidSignatureLength","type":"error"},{"inputs":[],"name":"InvalidSigner","type":"error"},{"inputs":[{"internalType":"uint256","name":"signatureDeadline","type":"uint256"}],"name":"SignatureExpired","type":"error"},{"anonymous":false,"inputs":[{"indexed":true,"internalType":"address","name":"owner","type":"address"},{"indexed":true,"internalType":"address","name":"token","type":"address"},{"indexed":true,"internalType":"address","name":"spender","type":"address"},{"indexed":false,"internalType":"uint160","name":"amount","type":"uint160"},{"indexed":false,"internalType":"uint48","name":"expiration","type":"uint48"}],"name":"Approval","type":"event"},{"anonymous":false,"inputs":[{"indexed":true,"internalType":"address","name":"owner","type":"address"},{"indexed":false,"internalType":"address","name":"token","type":"address"},{"indexed":false,"internalType":"address","name":"spender","type":"address"}],"name":"Lockdown","type":"event"},{"anonymous":false,"inputs":[{"indexed":true,"internalType":"address","name":"owner","type":"address"},{"indexed":true,"internalType":"address","name":"token","type":"address"},{"indexed":true,"internalType":"address","name":"spender","type":"address"},{"indexed":false,"internalType":"uint48","name":"newNonce","type":"uint48"},{"indexed":false,"internalType":"uint48","name":"oldNonce","type":"uint48"}],"name":"NonceInvalidation","type":"event"},{"anonymous":false,"inputs":[{"indexed":true,"internalType":"address","name":"owner","type":"address"},{"indexed":true,"internalType":"address","name":"token","type":"address"},{"indexed":true,"internalType":"address","name":"spender","type":"address"},{"indexed":false,"internalType":"uint160","name":"amount","type":"uint160"},{"indexed":false,"internalType":"uint48","name":"expiration","type":"uint48"},{"indexed":false,"internalType":"uint48","name":"nonce","type":"uint48"}],"name":"Permit","type":"event"},{"inputs":[],"name":"DOMAIN_SEPARATOR","outputs":[{"internalType":"bytes32","name":"","type":"bytes32"}],"stateMutability":"view","type":"function"},{"inputs":[{"internalType":"address","name":"","type":"address"},{"internalType":"address","name":"","type":"address"},{"internalType":"address","name":"","type":"address"}],"name":"allowance","outputs":[{"internalType":"uint160","name":"amount","type":"uint160"},{"internalType":"uint48","name":"expiration","type":"uint48"},{"internalType":"uint48","name":"nonce","type":"uint48"}],"stateMutability":"view","type":"function"},{"inputs":[{"internalType":"address","name":"token","type":"address"},{"internalType":"address","name":"spender","type":"address"},{"internalType":"uint160","name":"amount","type":"uint160"},{"internalType":"uint48","name":"expiration","type":"uint48"}],"name":"approve","outputs":[],"stateMutability":"nonpayable","type":"function"},{"inputs":[{"internalType":"address","name":"token","type":"address"},{"internalType":"address","name":"spender","type":"address"},{"internalType":"uint48","name":"newNonce","type":"uint48"}],"name":"invalidateNonces","outputs":[],"stateMutability":"nonpayable","type":"function"},{"inputs":[{"components":[{"internalType":"address","name":"token","type":"address"},{"internalType":"address","name":"spender","type":"address"}],"internalType":"struct IAllowanceTransfer.TokenSpenderPair[]","name":"approvals","type":"tuple[]"}],"name":"lockdown","outputs":[],"stateMutability":"nonpayable","type":"function"},{"inputs":[{"internalType":"address","name":"owner","type":"address"},{"components":[{"components":[{"internalType":"address","name":"token","type":"address"},{"internalType":"uint160","name":"amount","type":"uint160"},{"internalType":"uint48","name":"expiration","type":"uint48"},{"internalType":"uint48","name":"nonce","type":"uint48"}],"internalType":"struct IAllowanceTransfer.PermitDetails[]","name":"details","type":"tuple[]"},{"internalType":"address","name":"spender","type":"address"},{"internalType":"uint256","name":"sigDeadline","type":"uint256"}],"internalType":"struct IAllowanceTransfer.PermitBatch","name":"permitBatch","type":"tuple"},{"internalType":"bytes","name":"signature","type":"bytes"}],"name":"permit","outputs":[],"stateMutability":"nonpayable","type":"function"},{"inputs":[{"internalType":"address","name":"owner","type":"address"},{"components":[{"components":[{"internalType":"address","name":"token","type":"address"},{"internalType":"uint160","name":"amount","type":"uint160"},{"internalType":"uint48","name":"expiration","type":"uint48"},{"internalType":"uint48","name":"nonce","type":"uint48"}],"internalType":"struct IAllowanceTransfer.PermitDetails","name":"details","type":"tuple"},{"internalType":"address","name":"spender","type":"address"},{"internalType":"uint256","name":"sigDeadline","type":"uint256"}],"internalType":"struct IAllowanceTransfer.PermitSingle","name":"permitSingle","type":"tuple"},{"internalType":"bytes","name":"signature","type":"bytes"}],"name":"permit","outputs":[],"stateMutability":"nonpayable","type":"function"},{"inputs":[{"components":[{"internalType":"address","name":"from","type":"address"},{"internalType":"address","name":"to","type":"address"},{"internalType":"uint160","name":"amount","type":"uint160"},{"internalType":"address","name":"token","type":"address"}],"internalType":"struct IAllowanceTransfer.AllowanceTransferDetails[]","name":"transferDetails","type":"tuple[]"}],"name":"transferFrom","outputs":[],"stateMutability":"nonpayable","type":"function"},{"inputs":[{"internalType":"address","name":"from","type":"address"},{"internalType":"address","name":"to","type":"address"},{"internalType":"uint160","name":"amount","type":"uint160"},{"internalType":"address","name":"token","type":"address"}],"name":"transferFrom","outputs":[],"stateMutability":"nonpayable","type":"function"}],"evm":{"bytecode":{"linkReferences":{},"object":"60c0346100bb574660a052602081017f8cad95687ba82c2ce50e74f7b754645e5117c3a5bec8151c0726d5857980a86681527f9ac997416e8ff9d2ff6bebeb7149f65cdae5e32e2b90440b566bb3044041d36a60408301524660608301523060808301526080825260a082019180831060018060401b038411176100a5578260405251902060805261168e90816100c18239608051816111ed015260a051816111c70152f35b634e487b7160e01b600052604160045260246000fd5b600080fdfe6080604052600436101561001257600080fd5b60003560e01c80630d58b1db14610b7d5780632a2d80d11461081a5780632b67b570146106035780633644e515146105c257806336c785161461054f57806365d9723c146103ac57806387517c4514610272578063927da105146101c65763cc53287f1461007f57600080fd5b346101c1576020807ffffffffffffffffffffffffffffffffffffffffffffffffffffffffffffffffc3601126101c15767ffffffffffffffff906004358281116101c157366023820112156101c15780600401359283116101c1576024810190602436918560061b0101116101c15760005b8381106100fa57005b8061011061010b6001938786611013565b611023565b6101258561011f848988611013565b01611023565b336000526000865260406000209173ffffffffffffffffffffffffffffffffffffffff80911692836000528752604060002091169081600052865260406000207fffffffffffffffffffffffff00000000000000000000000000000000000000008154169055604051918252858201527f89b1add15eff56b3dfe299ad94e01f2b52fbcb80ae1a3baea6ae8c04cb2b98a460403392a2016100f1565b600080fd5b346101c15760607ffffffffffffffffffffffffffffffffffffffffffffffffffffffffffffffffc3601126101c1576101fd610ca9565b610205610ccc565b61020d610cef565b73ffffffffffffffffffffffffffffffffffffffff92831660009081526020818152604080832094861683529381528382209285168252918252829020548251938116845265ffffffffffff60a082901c169184019190915260d01c90820152606090f35b346101c15760807ffffffffffffffffffffffffffffffffffffffffffffffffffffffffffffffffc3601126101c1576102a9610ca9565b6102b1610ccc565b906102ba610cef565b65ffffffffffff91606435838116918282036101c15779ffffffffffff0000000000000000000000000000000000000000933360005260006020527fffffffffffff000000000000000000000000000000000000000000000000000060406000209673ffffffffffffffffffffffffffffffffffffffff80941697886000526020528360406000209916988960005260205260406000209486156000146103a457504216925b8454921695869360a01b1691161717905560405191825260208201527fda9fa7c1b00402c17d0161b249b1ab8bbec047c5a52207b9c112deffd817036b60403392a4005b905092610360565b346101c15760607ffffffffffffffffffffffffffffffffffffffffffffffffffffffffffffffffc3601126101c1576103e3610ca9565b6103eb610ccc565b9060443565ffffffffffff808216918281036101c157336000526020906000825260406000209473ffffffffffffffffffffffffffffffffffffffff80911695866000528352604060002096169586600052825260406000205460d01c92838511156105255761ffff9084830316116104fb5733600052600082526040600020856000528252604060002086600052825260406000209079ffffffffffffffffffffffffffffffffffffffffffffffffffff7fffffffffffff000000000000000000000000000000000000000000000000000083549260d01b1691161790556040519283528201527f55eb90d810e1700b35a8e7e25395ff7f2b2259abd7415ca2284dfb1c246418f360403392a4005b60046040517f24d35a26000000000000000000000000000000000000000000000000000000008152fd5b60046040517f756688fe000000000000000000000000000000000000000000000000000000008152fd5b346101c15760807ffffffffffffffffffffffffffffffffffffffffffffffffffffffffffffffffc3601126101c157610586610ca9565b61058e610ccc565b610596610cef565b6064359173ffffffffffffffffffffffffffffffffffffffff831683036101c1576105c093610e48565b005b346101c15760007ffffffffffffffffffffffffffffffffffffffffffffffffffffffffffffffffc3601126101c15760206105fb6111c4565b604051908152f35b346101c1576101007ffffffffffffffffffffffffffffffffffffffffffffffffffffffffffffffffc3601126101c15761063b610ca9565b7fffffffffffffffffffffffffffffffffffffffffffffffffffffffffffffffdc36019060c082126101c157604051906060820167ffffffffffffffff93838210858311176107eb5760809082604052126101c15761069981610d33565b73ffffffffffffffffffffffffffffffffffffffff9060243582811681036101c157815260443582811681036101c157608085015265ffffffffffff60643581811681036101c15760a086015260843590811681036101c15760c0850152835260a4359281841684036101c1576020810193845260c43594604082019086825260e4359081116101c157610731903690600401610dd7565b9190968042116107ba57506105c0966107b0926107aa879361075387516112e2565b90888b511690516040519160208301937ff3841cd1ff0085026a6327b620b67997ce40f282c88a8e905a7a5626e310f3d08552604084015260608301526080820152608081526107a281610d4f565b51902061127f565b9161138e565b5192511691611044565b602490604051907fcd21db4f0000000000000000000000000000000000000000000000000000000082526004820152fd5b7f4e487b7100000000000000000000000000000000000000000000000000000000600052604160045260246000fd5b346101c1577ffffffffffffffffffffffffffffffffffffffffffffffffffffffffffffffffc6060813601126101c157610852610ca9565b906024359067ffffffffffffffff908183116101c15760609083360301126101c1576040519160608301838110838211176107eb5760405280600401358281116101c1578101366023820112156101c15760048101356108b181610dac565b916108bf6040519384610d6b565b8183526024602084019260071b820101903682116101c157602401915b818310610b1b5750505083526044906108f760248201610d12565b60208501520135908160408401526044359081116101c15761091d903690600401610dd7565b918042116107ba5750838351519161093483610dac565b926109426040519485610d6b565b8084527fffffffffffffffffffffffffffffffffffffffffffffffffffffffffffffffe061096f82610dac565b0136602086013760005b818110610a94575050604051602081019081602086519196019060005b818110610a7b575050506109d481610a4596037fffffffffffffffffffffffffffffffffffffffffffffffffffffffffffffffe08101835282610d6b565b519020936107aa73ffffffffffffffffffffffffffffffffffffffff958660208901511660408901516040519160208301937faf1b0d30d2cab0380e68f0689007e3254993c596f2fdd0aaa7f4d04f794408638552604084015260608301526080820152608081526107a281610d4f565b602082015116908051519160005b838110610a5c57005b80610a758387610a6f6001958851610e05565b51611044565b01610a53565b825188526020978801978b975090920191600101610996565b9091939250610aad610aa7828851610e05565b516112e2565b610ab78285610e05565b527fffffffffffffffffffffffffffffffffffffffffffffffffffffffffffffffff8114610aec576001019086929391610979565b7f4e487b7100000000000000000000000000000000000000000000000000000000600052601160045260246000fd5b6080833603126101c1576020608091604051610b3681610d33565b610b3f86610d12565b8152610b4c838701610d12565b83820152610b5c60408701610dc4565b6040820152610b6d60608701610dc4565b60608201528152019201916108dc565b346101c1576020807ffffffffffffffffffffffffffffffffffffffffffffffffffffffffffffffffc3601126101c15767ffffffffffffffff6004358181116101c157366023820112156101c15780600401359182116101c1576024906007368385831b840101116101c15760005b848110610bf557005b80821b83019060807fffffffffffffffffffffffffffffffffffffffffffffffffffffffffffffffdc83360301126101c157610ca3600192604051610c3981610d33565b610c44888301610d12565b8082526060610c5560448501610d12565b92838d820152610c796084610c6c60648801610d12565b9687604085015201610d12565b918291015273ffffffffffffffffffffffffffffffffffffffff8080809316951693169116610e48565b01610bec565b6004359073ffffffffffffffffffffffffffffffffffffffff821682036101c157565b6024359073ffffffffffffffffffffffffffffffffffffffff821682036101c157565b6044359073ffffffffffffffffffffffffffffffffffffffff821682036101c157565b359073ffffffffffffffffffffffffffffffffffffffff821682036101c157565b6080810190811067ffffffffffffffff8211176107eb57604052565b60a0810190811067ffffffffffffffff8211176107eb57604052565b90601f7fffffffffffffffffffffffffffffffffffffffffffffffffffffffffffffffe0910116810190811067ffffffffffffffff8211176107eb57604052565b67ffffffffffffffff81116107eb5760051b60200190565b359065ffffffffffff821682036101c157565b9181601f840112156101c15782359167ffffffffffffffff83116101c157602083818601950101116101c157565b8051821015610e195760209160051b010190565b7f4e487b7100000000000000000000000000000000000000000000000000000000600052603260045260246000fd5b92909273ffffffffffffffffffffffffffffffffffffffff91600092808316845283602052604094818686209316928386526020528585203386526020528585209687549765ffffffffffff8960a01c16804211610fe3575083891698848a03610f6b575b505086975092859692869593926064956020989451957f23b872dd000000000000000000000000000000000000000000000000000000008752600487015260248601521660448401525af19051600114601f3d11163d15171615610f0e5750565b606490517f08c379a000000000000000000000000000000000000000000000000000000000815260206004820152601460248201527f5452414e534645525f46524f4d5f4641494c45440000000000000000000000006044820152fd5b8985851611600014610fa75760248a8a51907ff96fb0710000000000000000000000000000000000000000000000000000000082526004820152fd5b7fffffffffffffffffffffffff000000000000000000000000000000000000000016988390038416989098179097559495869590826020610ead565b6024908951907fd81b2f2e0000000000000000000000000000000000000000000000000000000082526004820152fd5b9190811015610e195760061b0190565b3573ffffffffffffffffffffffffffffffffffffffff811681036101c15790565b9065ffffffffffff908160608401511673ffffffffffffffffffffffffffffffffffffffff9081855116948260208201511692808660408094015116951695600091878352826020528383208984526020528383209916988983526020528282209184835460d01c0361119b57918561117494927fc6a377bfc4eb120024a8ac08eef205be16b817020812c73223e81d1bdb9708ec989796945087156000146111795779ffffffffffff00000000000000000000000000000000000000009042165b60a01b167fffffffffffff00000000000000000000000000000000000000000000000000006001860160d01b1617179055519384938491604091949373ffffffffffffffffffffffffffffffffffffffff606085019616845265ffffffffffff809216602085015216910152565b0390a4565b5079ffffffffffff000000000000000000000000000000000000000087611106565b600484517f756688fe000000000000000000000000000000000000000000000000000000008152fd5b467f00000000000000000000000000000000000000000000000000000000000000000361120f577f000000000000000000000000000000000000000000000000000000000000000090565b60405160208101907f8cad95687ba82c2ce50e74f7b754645e5117c3a5bec8151c0726d5857980a86682527f9ac997416e8ff9d2ff6bebeb7149f65cdae5e32e2b90440b566bb3044041d36a60408201524660608201523060808201526080815261127981610d4f565b51902090565b6112876111c4565b906040519060208201927f1901000000000000000000000000000000000000000000000000000000000000845260228301526042820152604281526080810181811067ffffffffffffffff8211176107eb5760405251902090565b60405160208101917f65626cad6cb96493bf6f5ebea28756c966f023ab9e8a83a7101849d5573b3678835273ffffffffffffffffffffffffffffffffffffffff8082511660408401526020820151166060830152606065ffffffffffff9182604082015116608085015201511660a082015260a0815260c0810181811067ffffffffffffffff8211176107eb5760405251902090565b91908260409103126101c1576020823592013590565b6000843b6114f5575060418203611473576113ab82820182611378565b93909260401015610e195760209360009360ff6040608095013560f81c5b60405194855216868401526040830152606082015282805260015afa156114675773ffffffffffffffffffffffffffffffffffffffff806000511691821561143d57160361141357565b60046040517f815e1d64000000000000000000000000000000000000000000000000000000008152fd5b60046040517f8baa579f000000000000000000000000000000000000000000000000000000008152fd5b6040513d6000823e3d90fd5b604082036114cb5761148791810190611378565b91601b7f7fffffffffffffffffffffffffffffffffffffffffffffffffffffffffffffff84169360ff1c019060ff8211610aec5760209360009360ff6080946113c9565b60046040517f4be6321b000000000000000000000000000000000000000000000000000000008152fd5b929391601f928173ffffffffffffffffffffffffffffffffffffffff60646020957fffffffffffffffffffffffffffffffffffffffffffffffffffffffffffffffe0604051988997889687947f1626ba7e000000000000000000000000000000000000000000000000000000009e8f8752600487015260406024870152816044870152868601378b85828601015201168101030192165afa9081156116765782916115f1575b507fffffffff00000000000000000000000000000000000000000000000000000000915016036115c757565b60046040517fb0669cbc000000000000000000000000000000000000000000000000000000008152fd5b90506020813d821161166e575b8161160b60209383610d6b565b8101031261166a5751907fffffffff000000000000000000000000000000000000000000000000000000008216820361166757507fffffffff00000000000000000000000000000000000000000000000000000000903861159b565b80fd5b5080fd5b3d91506115fe565b6040513d84823e3d90fdfea164736f6c6343000811000a","opcodes":"PUSH1 0xC0 CALLVALUE PUSH2 0xBB JUMPI CHAINID PUSH1 0xA0 MSTORE PUSH1 0x20 DUP2 ADD PUSH32 0x8CAD95687BA82C2CE50E74F7B754645E5117C3A5BEC8151C0726D5857980A866 DUP2 MSTORE PUSH32 0x9AC997416E8FF9D2FF6BEBEB7149F65CDAE5E32E2B90440B566BB3044041D36A PUSH1 0x40 DUP4 ADD MSTORE CHAINID PUSH1 0x60 DUP4 ADD MSTORE ADDRESS PUSH1 0x80 DUP4 ADD MSTORE PUSH1 0x80 DUP3 MSTORE PUSH1 0xA0 DUP3 ADD SWAP2 DUP1 DUP4 LT PUSH1 0x1 DUP1 PUSH1 0x40 SHL SUB DUP5 GT OR PUSH2 0xA5 JUMPI DUP3 PUSH1 0x40 MSTORE MLOAD SWAP1 KECCAK256 PUSH1 0x80 MSTORE PUSH2 0x168E SWAP1 DUP2 PUSH2 0xC1 DUP3 CODECOPY PUSH1 0x80 MLOAD DUP2 PUSH2 0x11ED ADD MSTORE PUSH1 0xA0 MLOAD DUP2 PUSH2 0x11C7 ADD MSTORE RETURN JUMPDEST PUSH4 0x4E487B71 PUSH1 0xE0 SHL PUSH1 0x0 MSTORE PUSH1 0x41 PUSH1 0x4 MSTORE PUSH1 0x24 PUSH1 0x0 REVERT JUMPDEST PUSH1 0x0 DUP1 REVERT INVALID PUSH1 0x80 PUSH1 0x40 MSTORE PUSH1 0x4 CALLDATASIZE LT ISZERO PUSH2 0x12 JUMPI PUSH1 0x0 DUP1 REVERT JUMPDEST PUSH1 0x0 CALLDATALOAD PUSH1 0xE0 SHR DUP1 PUSH4 0xD58B1DB EQ PUSH2 0xB7D JUMPI DUP1 PUSH4 0x2A2D80D1 EQ PUSH2 0x81A JUMPI DUP1 PUSH4 0x2B67B570 EQ PUSH2 0x603 JUMPI DUP1 PUSH4 0x3644E515 EQ PUSH2 0x5C2 JUMPI DUP1 PUSH4 0x36C78516 EQ PUSH2 0x54F JUMPI DUP1 PUSH4 0x65D9723C EQ PUSH2 0x3AC JUMPI DUP1 PUSH4 0x87517C45 EQ PUSH2 0x272 JUMPI DUP1 PUSH4 0x927DA105 EQ PUSH2 0x1C6 JUMPI PUSH4 0xCC53287F EQ PUSH2 0x7F JUMPI PUSH1 0x0 DUP1 REVERT JUMPDEST CALLVALUE PUSH2 0x1C1 JUMPI PUSH1 0x20 DUP1 PUSH32 0xFFFFFFFFFFFFFFFFFFFFFFFFFFFFFFFFFFFFFFFFFFFFFFFFFFFFFFFFFFFFFFFC CALLDATASIZE ADD SLT PUSH2 0x1C1 JUMPI PUSH8 0xFFFFFFFFFFFFFFFF SWAP1 PUSH1 0x4 CALLDATALOAD DUP3 DUP2 GT PUSH2 0x1C1 JUMPI CALLDATASIZE PUSH1 0x23 DUP3 ADD SLT ISZERO PUSH2 0x1C1 JUMPI DUP1 PUSH1 0x4 ADD CALLDATALOAD SWAP3 DUP4 GT PUSH2 0x1C1 JUMPI PUSH1 0x24 DUP2 ADD SWAP1 PUSH1 0x24 CALLDATASIZE SWAP2 DUP6 PUSH1 0x6 SHL ADD ADD GT PUSH2 0x1C1 JUMPI PUSH1 0x0 JUMPDEST DUP4 DUP2 LT PUSH2 0xFA JUMPI STOP JUMPDEST DUP1 PUSH2 0x110 PUSH2 0x10B PUSH1 0x1 SWAP4 DUP8 DUP7 PUSH2 0x1013 JUMP JUMPDEST PUSH2 0x1023 JUMP JUMPDEST PUSH2 0x125 DUP6 PUSH2 0x11F DUP5 DUP10 DUP9 PUSH2 0x1013 JUMP JUMPDEST ADD PUSH2 0x1023 JUMP JUMPDEST CALLER PUSH1 0x0 MSTORE PUSH1 0x0 DUP7 MSTORE PUSH1 0x40 PUSH1 0x0 KECCAK256 SWAP2 PUSH20 0xFFFFFFFFFFFFFFFFFFFFFFFFFFFFFFFFFFFFFFFF DUP1 SWAP2 AND SWAP3 DUP4 PUSH1 0x0 MSTORE DUP8 MSTORE PUSH1 0x40 PUSH1 0x0 KECCAK256 SWAP2 AND SWAP1 DUP2 PUSH1 0x0 MSTORE DUP7 MSTORE PUSH1 0x40 PUSH1 0x0 KECCAK256 PUSH32 0xFFFFFFFFFFFFFFFFFFFFFFFF0000000000000000000000000000000000000000 DUP2 SLOAD AND SWAP1 SSTORE PUSH1 0x40 MLOAD SWAP2 DUP3 MSTORE DUP6 DUP3 ADD MSTORE PUSH32 0x89B1ADD15EFF56B3DFE299AD94E01F2B52FBCB80AE1A3BAEA6AE8C04CB2B98A4 PUSH1 0x40 CALLER SWAP3 LOG2 ADD PUSH2 0xF1 JUMP JUMPDEST PUSH1 0x0 DUP1 REVERT JUMPDEST CALLVALUE PUSH2 0x1C1 JUMPI PUSH1 0x60 PUSH32 0xFFFFFFFFFFFFFFFFFFFFFFFFFFFFFFFFFFFFFFFFFFFFFFFFFFFFFFFFFFFFFFFC CALLDATASIZE ADD SLT PUSH2 0x1C1 JUMPI PUSH2 0x1FD PUSH2 0xCA9 JUMP JUMPDEST PUSH2 0x205 PUSH2 0xCCC JUMP JUMPDEST PUSH2 0x20D PUSH2 0xCEF JUMP JUMPDEST PUSH20 0xFFFFFFFFFFFFFFFFFFFFFFFFFFFFFFFFFFFFFFFF SWAP3 DUP4 AND PUSH1 0x0 SWAP1 DUP2 MSTORE PUSH1 0x20 DUP2 DUP2 MSTORE PUSH1 0x40 DUP1 DUP4 KECCAK256 SWAP5 DUP7 AND DUP4 MSTORE SWAP4 DUP2 MSTORE DUP4 DUP3 KECCAK256 SWAP3 DUP6 AND DUP3 MSTORE SWAP2 DUP3 MSTORE DUP3 SWAP1 KECCAK256 SLOAD DUP3 MLOAD SWAP4 DUP2 AND DUP5 MSTORE PUSH6 0xFFFFFFFFFFFF PUSH1 0xA0 DUP3 SWAP1 SHR AND SWAP2 DUP5 ADD SWAP2 SWAP1 SWAP2 MSTORE PUSH1 0xD0 SHR SWAP1 DUP3 ADD MSTORE PUSH1 0x60 SWAP1 RETURN JUMPDEST CALLVALUE PUSH2 0x1C1 JUMPI PUSH1 0x80 PUSH32 0xFFFFFFFFFFFFFFFFFFFFFFFFFFFFFFFFFFFFFFFFFFFFFFFFFFFFFFFFFFFFFFFC CALLDATASIZE ADD SLT PUSH2 0x1C1 JUMPI PUSH2 0x2A9 PUSH2 0xCA9 JUMP JUMPDEST PUSH2 0x2B1 PUSH2 0xCCC JUMP JUMPDEST SWAP1 PUSH2 0x2BA PUSH2 0xCEF JUMP JUMPDEST PUSH6 0xFFFFFFFFFFFF SWAP2 PUSH1 0x64 CALLDATALOAD DUP4 DUP2 AND SWAP2 DUP3 DUP3 SUB PUSH2 0x1C1 JUMPI PUSH26 0xFFFFFFFFFFFF0000000000000000000000000000000000000000 SWAP4 CALLER PUSH1 0x0 MSTORE PUSH1 0x0 PUSH1 0x20 MSTORE PUSH32 0xFFFFFFFFFFFF0000000000000000000000000000000000000000000000000000 PUSH1 0x40 PUSH1 0x0 KECCAK256 SWAP7 PUSH20 0xFFFFFFFFFFFFFFFFFFFFFFFFFFFFFFFFFFFFFFFF DUP1 SWAP5 AND SWAP8 DUP9 PUSH1 0x0 MSTORE PUSH1 0x20 MSTORE DUP4 PUSH1 0x40 PUSH1 0x0 KECCAK256 SWAP10 AND SWAP9 DUP10 PUSH1 0x0 MSTORE PUSH1 0x20 MSTORE PUSH1 0x40 PUSH1 0x0 KECCAK256 SWAP5 DUP7 ISZERO PUSH1 0x0 EQ PUSH2 0x3A4 JUMPI POP TIMESTAMP AND SWAP3 JUMPDEST DUP5 SLOAD SWAP3 AND SWAP6 DUP7 SWAP4 PUSH1 0xA0 SHL AND SWAP2 AND OR OR SWAP1 SSTORE PUSH1 0x40 MLOAD SWAP2 DUP3 MSTORE PUSH1 0x20 DUP3 ADD MSTORE PUSH32 0xDA9FA7C1B00402C17D0161B249B1AB8BBEC047C5A52207B9C112DEFFD817036B PUSH1 0x40 CALLER SWAP3 LOG4 STOP JUMPDEST SWAP1 POP SWAP3 PUSH2 0x360 JUMP JUMPDEST CALLVALUE PUSH2 0x1C1 JUMPI PUSH1 0x60 PUSH32 0xFFFFFFFFFFFFFFFFFFFFFFFFFFFFFFFFFFFFFFFFFFFFFFFFFFFFFFFFFFFFFFFC CALLDATASIZE ADD SLT PUSH2 0x1C1 JUMPI PUSH2 0x3E3 PUSH2 0xCA9 JUMP JUMPDEST PUSH2 0x3EB PUSH2 0xCCC JUMP JUMPDEST SWAP1 PUSH1 0x44 CALLDATALOAD PUSH6 0xFFFFFFFFFFFF DUP1 DUP3 AND SWAP2 DUP3 DUP2 SUB PUSH2 0x1C1 JUMPI CALLER PUSH1 0x0 MSTORE PUSH1 0x20 SWAP1 PUSH1 0x0 DUP3 MSTORE PUSH1 0x40 PUSH1 0x0 KECCAK256 SWAP5 PUSH20 0xFFFFFFFFFFFFFFFFFFFFFFFFFFFFFFFFFFFFFFFF DUP1 SWAP2 AND SWAP6 DUP7 PUSH1 0x0 MSTORE DUP4 MSTORE PUSH1 0x40 PUSH1 0x0 KECCAK256 SWAP7 AND SWAP6 DUP7 PUSH1 0x0 MSTORE DUP3 MSTORE PUSH1 0x40 PUSH1 0x0 KECCAK256 SLOAD PUSH1 0xD0 SHR SWAP3 DUP4 DUP6 GT ISZERO PUSH2 0x525 JUMPI PUSH2 0xFFFF SWAP1 DUP5 DUP4 SUB AND GT PUSH2 0x4FB JUMPI CALLER PUSH1 0x0 MSTORE PUSH1 0x0 DUP3 MSTORE PUSH1 0x40 PUSH1 0x0 KECCAK256 DUP6 PUSH1 0x0 MSTORE DUP3 MSTORE PUSH1 0x40 PUSH1 0x0 KECCAK256 DUP7 PUSH1 0x0 MSTORE DUP3 MSTORE PUSH1 0x40 PUSH1 0x0 KECCAK256 SWAP1 PUSH26 0xFFFFFFFFFFFFFFFFFFFFFFFFFFFFFFFFFFFFFFFFFFFFFFFFFFFF PUSH32 0xFFFFFFFFFFFF0000000000000000000000000000000000000000000000000000 DUP4 SLOAD SWAP3 PUSH1 0xD0 SHL AND SWAP2 AND OR SWAP1 SSTORE PUSH1 0x40 MLOAD SWAP3 DUP4 MSTORE DUP3 ADD MSTORE PUSH32 0x55EB90D810E1700B35A8E7E25395FF7F2B2259ABD7415CA2284DFB1C246418F3 PUSH1 0x40 CALLER SWAP3 LOG4 STOP JUMPDEST PUSH1 0x4 PUSH1 0x40 MLOAD PUSH32 0x24D35A2600000000000000000000000000000000000000000000000000000000 DUP2 MSTORE REVERT JUMPDEST PUSH1 0x4 PUSH1 0x40 MLOAD PUSH32 0x756688FE00000000000000000000000000000000000000000000000000000000 DUP2 MSTORE REVERT JUMPDEST CALLVALUE PUSH2 0x1C1 JUMPI PUSH1 0x80 PUSH32 0xFFFFFFFFFFFFFFFFFFFFFFFFFFFFFFFFFFFFFFFFFFFFFFFFFFFFFFFFFFFFFFFC CALLDATASIZE ADD SLT PUSH2 0x1C1 JUMPI PUSH2 0x586 PUSH2 0xCA9 JUMP JUMPDEST PUSH2 0x58E PUSH2 0xCCC JUMP JUMPDEST PUSH2 0x596 PUSH2 0xCEF JUMP JUMPDEST PUSH1 0x64 CALLDATALOAD SWAP2 PUSH20 0xFFFFFFFFFFFFFFFFFFFFFFFFFFFFFFFFFFFFFFFF DUP4 AND DUP4 SUB PUSH2 0x1C1 JUMPI PUSH2 0x5C0 SWAP4 PUSH2 0xE48 JUMP JUMPDEST STOP JUMPDEST CALLVALUE PUSH2 0x1C1 JUMPI PUSH1 0x0 PUSH32 0xFFFFFFFFFFFFFFFFFFFFFFFFFFFFFFFFFFFFFFFFFFFFFFFFFFFFFFFFFFFFFFFC CALLDATASIZE ADD SLT PUSH2 0x1C1 JUMPI PUSH1 0x20 PUSH2 0x5FB PUSH2 0x11C4 JUMP JUMPDEST PUSH1 0x40 MLOAD SWAP1 DUP2 MSTORE RETURN JUMPDEST CALLVALUE PUSH2 0x1C1 JUMPI PUSH2 0x100 PUSH32 0xFFFFFFFFFFFFFFFFFFFFFFFFFFFFFFFFFFFFFFFFFFFFFFFFFFFFFFFFFFFFFFFC CALLDATASIZE ADD SLT PUSH2 0x1C1 JUMPI PUSH2 0x63B PUSH2 0xCA9 JUMP JUMPDEST PUSH32 0xFFFFFFFFFFFFFFFFFFFFFFFFFFFFFFFFFFFFFFFFFFFFFFFFFFFFFFFFFFFFFFDC CALLDATASIZE ADD SWAP1 PUSH1 0xC0 DUP3 SLT PUSH2 0x1C1 JUMPI PUSH1 0x40 MLOAD SWAP1 PUSH1 0x60 DUP3 ADD PUSH8 0xFFFFFFFFFFFFFFFF SWAP4 DUP4 DUP3 LT DUP6 DUP4 GT OR PUSH2 0x7EB JUMPI PUSH1 0x80 SWAP1 DUP3 PUSH1 0x40 MSTORE SLT PUSH2 0x1C1 JUMPI PUSH2 0x699 DUP2 PUSH2 0xD33 JUMP JUMPDEST PUSH20 0xFFFFFFFFFFFFFFFFFFFFFFFFFFFFFFFFFFFFFFFF SWAP1 PUSH1 0x24 CALLDATALOAD DUP3 DUP2 AND DUP2 SUB PUSH2 0x1C1 JUMPI DUP2 MSTORE PUSH1 0x44 CALLDATALOAD DUP3 DUP2 AND DUP2 SUB PUSH2 0x1C1 JUMPI PUSH1 0x80 DUP6 ADD MSTORE PUSH6 0xFFFFFFFFFFFF PUSH1 0x64 CALLDATALOAD DUP2 DUP2 AND DUP2 SUB PUSH2 0x1C1 JUMPI PUSH1 0xA0 DUP7 ADD MSTORE PUSH1 0x84 CALLDATALOAD SWAP1 DUP2 AND DUP2 SUB PUSH2 0x1C1 JUMPI PUSH1 0xC0 DUP6 ADD MSTORE DUP4 MSTORE PUSH1 0xA4 CALLDATALOAD SWAP3 DUP2 DUP5 AND DUP5 SUB PUSH2 0x1C1 JUMPI PUSH1 0x20 DUP2 ADD SWAP4 DUP5 MSTORE PUSH1 0xC4 CALLDATALOAD SWAP5 PUSH1 0x40 DUP3 ADD SWAP1 DUP7 DUP3 MSTORE PUSH1 0xE4 CALLDATALOAD SWAP1 DUP2 GT PUSH2 0x1C1 JUMPI PUSH2 0x731 SWAP1 CALLDATASIZE SWAP1 PUSH1 0x4 ADD PUSH2 0xDD7 JUMP JUMPDEST SWAP2 SWAP1 SWAP7 DUP1 TIMESTAMP GT PUSH2 0x7BA JUMPI POP PUSH2 0x5C0 SWAP7 PUSH2 0x7B0 SWAP3 PUSH2 0x7AA DUP8 SWAP4 PUSH2 0x753 DUP8 MLOAD PUSH2 0x12E2 JUMP JUMPDEST SWAP1 DUP9 DUP12 MLOAD AND SWAP1 MLOAD PUSH1 0x40 MLOAD SWAP2 PUSH1 0x20 DUP4 ADD SWAP4 PUSH32 0xF3841CD1FF0085026A6327B620B67997CE40F282C88A8E905A7A5626E310F3D0 DUP6 MSTORE PUSH1 0x40 DUP5 ADD MSTORE PUSH1 0x60 DUP4 ADD MSTORE PUSH1 0x80 DUP3 ADD MSTORE PUSH1 0x80 DUP2 MSTORE PUSH2 0x7A2 DUP2 PUSH2 0xD4F JUMP JUMPDEST MLOAD SWAP1 KECCAK256 PUSH2 0x127F JUMP JUMPDEST SWAP2 PUSH2 0x138E JUMP JUMPDEST MLOAD SWAP3 MLOAD AND SWAP2 PUSH2 0x1044 JUMP JUMPDEST PUSH1 0x24 SWAP1 PUSH1 0x40 MLOAD SWAP1 PUSH32 0xCD21DB4F00000000000000000000000000000000000000000000000000000000 DUP3 MSTORE PUSH1 0x4 DUP3 ADD MSTORE REVERT JUMPDEST PUSH32 0x4E487B7100000000000000000000000000000000000000000000000000000000 PUSH1 0x0 MSTORE PUSH1 0x41 PUSH1 0x4 MSTORE PUSH1 0x24 PUSH1 0x0 REVERT JUMPDEST CALLVALUE PUSH2 0x1C1 JUMPI PUSH32 0xFFFFFFFFFFFFFFFFFFFFFFFFFFFFFFFFFFFFFFFFFFFFFFFFFFFFFFFFFFFFFFFC PUSH1 0x60 DUP2 CALLDATASIZE ADD SLT PUSH2 0x1C1 JUMPI PUSH2 0x852 PUSH2 0xCA9 JUMP JUMPDEST SWAP1 PUSH1 0x24 CALLDATALOAD SWAP1 PUSH8 0xFFFFFFFFFFFFFFFF SWAP1 DUP2 DUP4 GT PUSH2 0x1C1 JUMPI PUSH1 0x60 SWAP1 DUP4 CALLDATASIZE SUB ADD SLT PUSH2 0x1C1 JUMPI PUSH1 0x40 MLOAD SWAP2 PUSH1 0x60 DUP4 ADD DUP4 DUP2 LT DUP4 DUP3 GT OR PUSH2 0x7EB JUMPI PUSH1 0x40 MSTORE DUP1 PUSH1 0x4 ADD CALLDATALOAD DUP3 DUP2 GT PUSH2 0x1C1 JUMPI DUP2 ADD CALLDATASIZE PUSH1 0x23 DUP3 ADD SLT ISZERO PUSH2 0x1C1 JUMPI PUSH1 0x4 DUP2 ADD CALLDATALOAD PUSH2 0x8B1 DUP2 PUSH2 0xDAC JUMP JUMPDEST SWAP2 PUSH2 0x8BF PUSH1 0x40 MLOAD SWAP4 DUP5 PUSH2 0xD6B JUMP JUMPDEST DUP2 DUP4 MSTORE PUSH1 0x24 PUSH1 0x20 DUP5 ADD SWAP3 PUSH1 0x7 SHL DUP3 ADD ADD SWAP1 CALLDATASIZE DUP3 GT PUSH2 0x1C1 JUMPI PUSH1 0x24 ADD SWAP2 JUMPDEST DUP2 DUP4 LT PUSH2 0xB1B JUMPI POP POP POP DUP4 MSTORE PUSH1 0x44 SWAP1 PUSH2 0x8F7 PUSH1 0x24 DUP3 ADD PUSH2 0xD12 JUMP JUMPDEST PUSH1 0x20 DUP6 ADD MSTORE ADD CALLDATALOAD SWAP1 DUP2 PUSH1 0x40 DUP5 ADD MSTORE PUSH1 0x44 CALLDATALOAD SWAP1 DUP2 GT PUSH2 0x1C1 JUMPI PUSH2 0x91D SWAP1 CALLDATASIZE SWAP1 PUSH1 0x4 ADD PUSH2 0xDD7 JUMP JUMPDEST SWAP2 DUP1 TIMESTAMP GT PUSH2 0x7BA JUMPI POP DUP4 DUP4 MLOAD MLOAD SWAP2 PUSH2 0x934 DUP4 PUSH2 0xDAC JUMP JUMPDEST SWAP3 PUSH2 0x942 PUSH1 0x40 MLOAD SWAP5 DUP6 PUSH2 0xD6B JUMP JUMPDEST DUP1 DUP5 MSTORE PUSH32 0xFFFFFFFFFFFFFFFFFFFFFFFFFFFFFFFFFFFFFFFFFFFFFFFFFFFFFFFFFFFFFFE0 PUSH2 0x96F DUP3 PUSH2 0xDAC JUMP JUMPDEST ADD CALLDATASIZE PUSH1 0x20 DUP7 ADD CALLDATACOPY PUSH1 0x0 JUMPDEST DUP2 DUP2 LT PUSH2 0xA94 JUMPI POP POP PUSH1 0x40 MLOAD PUSH1 0x20 DUP2 ADD SWAP1 DUP2 PUSH1 0x20 DUP7 MLOAD SWAP2 SWAP7 ADD SWAP1 PUSH1 0x0 JUMPDEST DUP2 DUP2 LT PUSH2 0xA7B JUMPI POP POP POP PUSH2 0x9D4 DUP2 PUSH2 0xA45 SWAP7 SUB PUSH32 0xFFFFFFFFFFFFFFFFFFFFFFFFFFFFFFFFFFFFFFFFFFFFFFFFFFFFFFFFFFFFFFE0 DUP2 ADD DUP4 MSTORE DUP3 PUSH2 0xD6B JUMP JUMPDEST MLOAD SWAP1 KECCAK256 SWAP4 PUSH2 0x7AA PUSH20 0xFFFFFFFFFFFFFFFFFFFFFFFFFFFFFFFFFFFFFFFF SWAP6 DUP7 PUSH1 0x20 DUP10 ADD MLOAD AND PUSH1 0x40 DUP10 ADD MLOAD PUSH1 0x40 MLOAD SWAP2 PUSH1 0x20 DUP4 ADD SWAP4 PUSH32 0xAF1B0D30D2CAB0380E68F0689007E3254993C596F2FDD0AAA7F4D04F79440863 DUP6 MSTORE PUSH1 0x40 DUP5 ADD MSTORE PUSH1 0x60 DUP4 ADD MSTORE PUSH1 0x80 DUP3 ADD MSTORE PUSH1 0x80 DUP2 MSTORE PUSH2 0x7A2 DUP2 PUSH2 0xD4F JUMP JUMPDEST PUSH1 0x20 DUP3 ADD MLOAD AND SWAP1 DUP1 MLOAD MLOAD SWAP2 PUSH1 0x0 JUMPDEST DUP4 DUP2 LT PUSH2 0xA5C JUMPI STOP JUMPDEST DUP1 PUSH2 0xA75 DUP4 DUP8 PUSH2 0xA6F PUSH1 0x1 SWAP6 DUP9 MLOAD PUSH2 0xE05 JUMP JUMPDEST MLOAD PUSH2 0x1044 JUMP JUMPDEST ADD PUSH2 0xA53 JUMP JUMPDEST DUP3 MLOAD DUP9 MSTORE PUSH1 0x20 SWAP8 DUP9 ADD SWAP8 DUP12 SWAP8 POP SWAP1 SWAP3 ADD SWAP2 PUSH1 0x1 ADD PUSH2 0x996 JUMP JUMPDEST SWAP1 SWAP2 SWAP4 SWAP3 POP PUSH2 0xAAD PUSH2 0xAA7 DUP3 DUP9 MLOAD PUSH2 0xE05 JUMP JUMPDEST MLOAD PUSH2 0x12E2 JUMP JUMPDEST PUSH2 0xAB7 DUP3 DUP6 PUSH2 0xE05 JUMP JUMPDEST MSTORE PUSH32 0xFFFFFFFFFFFFFFFFFFFFFFFFFFFFFFFFFFFFFFFFFFFFFFFFFFFFFFFFFFFFFFFF DUP2 EQ PUSH2 0xAEC JUMPI PUSH1 0x1 ADD SWAP1 DUP7 SWAP3 SWAP4 SWAP2 PUSH2 0x979 JUMP JUMPDEST PUSH32 0x4E487B7100000000000000000000000000000000000000000000000000000000 PUSH1 0x0 MSTORE PUSH1 0x11 PUSH1 0x4 MSTORE PUSH1 0x24 PUSH1 0x0 REVERT JUMPDEST PUSH1 0x80 DUP4 CALLDATASIZE SUB SLT PUSH2 0x1C1 JUMPI PUSH1 0x20 PUSH1 0x80 SWAP2 PUSH1 0x40 MLOAD PUSH2 0xB36 DUP2 PUSH2 0xD33 JUMP JUMPDEST PUSH2 0xB3F DUP7 PUSH2 0xD12 JUMP JUMPDEST DUP2 MSTORE PUSH2 0xB4C DUP4 DUP8 ADD PUSH2 0xD12 JUMP JUMPDEST DUP4 DUP3 ADD MSTORE PUSH2 0xB5C PUSH1 0x40 DUP8 ADD PUSH2 0xDC4 JUMP JUMPDEST PUSH1 0x40 DUP3 ADD MSTORE PUSH2 0xB6D PUSH1 0x60 DUP8 ADD PUSH2 0xDC4 JUMP JUMPDEST PUSH1 0x60 DUP3 ADD MSTORE DUP2 MSTORE ADD SWAP3 ADD SWAP2 PUSH2 0x8DC JUMP JUMPDEST CALLVALUE PUSH2 0x1C1 JUMPI PUSH1 0x20 DUP1 PUSH32 0xFFFFFFFFFFFFFFFFFFFFFFFFFFFFFFFFFFFFFFFFFFFFFFFFFFFFFFFFFFFFFFFC CALLDATASIZE ADD SLT PUSH2 0x1C1 JUMPI PUSH8 0xFFFFFFFFFFFFFFFF PUSH1 0x4 CALLDATALOAD DUP2 DUP2 GT PUSH2 0x1C1 JUMPI CALLDATASIZE PUSH1 0x23 DUP3 ADD SLT ISZERO PUSH2 0x1C1 JUMPI DUP1 PUSH1 0x4 ADD CALLDATALOAD SWAP2 DUP3 GT PUSH2 0x1C1 JUMPI PUSH1 0x24 SWAP1 PUSH1 0x7 CALLDATASIZE DUP4 DUP6 DUP4 SHL DUP5 ADD ADD GT PUSH2 0x1C1 JUMPI PUSH1 0x0 JUMPDEST DUP5 DUP2 LT PUSH2 0xBF5 JUMPI STOP JUMPDEST DUP1 DUP3 SHL DUP4 ADD SWAP1 PUSH1 0x80 PUSH32 0xFFFFFFFFFFFFFFFFFFFFFFFFFFFFFFFFFFFFFFFFFFFFFFFFFFFFFFFFFFFFFFDC DUP4 CALLDATASIZE SUB ADD SLT PUSH2 0x1C1 JUMPI PUSH2 0xCA3 PUSH1 0x1 SWAP3 PUSH1 0x40 MLOAD PUSH2 0xC39 DUP2 PUSH2 0xD33 JUMP JUMPDEST PUSH2 0xC44 DUP9 DUP4 ADD PUSH2 0xD12 JUMP JUMPDEST DUP1 DUP3 MSTORE PUSH1 0x60 PUSH2 0xC55 PUSH1 0x44 DUP6 ADD PUSH2 0xD12 JUMP JUMPDEST SWAP3 DUP4 DUP14 DUP3 ADD MSTORE PUSH2 0xC79 PUSH1 0x84 PUSH2 0xC6C PUSH1 0x64 DUP9 ADD PUSH2 0xD12 JUMP JUMPDEST SWAP7 DUP8 PUSH1 0x40 DUP6 ADD MSTORE ADD PUSH2 0xD12 JUMP JUMPDEST SWAP2 DUP3 SWAP2 ADD MSTORE PUSH20 0xFFFFFFFFFFFFFFFFFFFFFFFFFFFFFFFFFFFFFFFF DUP1 DUP1 DUP1 SWAP4 AND SWAP6 AND SWAP4 AND SWAP2 AND PUSH2 0xE48 JUMP JUMPDEST ADD PUSH2 0xBEC JUMP JUMPDEST PUSH1 0x4 CALLDATALOAD SWAP1 PUSH20 0xFFFFFFFFFFFFFFFFFFFFFFFFFFFFFFFFFFFFFFFF DUP3 AND DUP3 SUB PUSH2 0x1C1 JUMPI JUMP JUMPDEST PUSH1 0x24 CALLDATALOAD SWAP1 PUSH20 0xFFFFFFFFFFFFFFFFFFFFFFFFFFFFFFFFFFFFFFFF DUP3 AND DUP3 SUB PUSH2 0x1C1 JUMPI JUMP JUMPDEST PUSH1 0x44 CALLDATALOAD SWAP1 PUSH20 0xFFFFFFFFFFFFFFFFFFFFFFFFFFFFFFFFFFFFFFFF DUP3 AND DUP3 SUB PUSH2 0x1C1 JUMPI JUMP JUMPDEST CALLDATALOAD SWAP1 PUSH20 0xFFFFFFFFFFFFFFFFFFFFFFFFFFFFFFFFFFFFFFFF DUP3 AND DUP3 SUB PUSH2 0x1C1 JUMPI JUMP JUMPDEST PUSH1 0x80 DUP2 ADD SWAP1 DUP2 LT PUSH8 0xFFFFFFFFFFFFFFFF DUP3 GT OR PUSH2 0x7EB JUMPI PUSH1 0x40 MSTORE JUMP JUMPDEST PUSH1 0xA0 DUP2 ADD SWAP1 DUP2 LT PUSH8 0xFFFFFFFFFFFFFFFF DUP3 GT OR PUSH2 0x7EB JUMPI PUSH1 0x40 MSTORE JUMP JUMPDEST SWAP1 PUSH1 0x1F PUSH32 0xFFFFFFFFFFFFFFFFFFFFFFFFFFFFFFFFFFFFFFFFFFFFFFFFFFFFFFFFFFFFFFE0 SWAP2 ADD AND DUP2 ADD SWAP1 DUP2 LT PUSH8 0xFFFFFFFFFFFFFFFF DUP3 GT OR PUSH2 0x7EB JUMPI PUSH1 0x40 MSTORE JUMP JUMPDEST PUSH8 0xFFFFFFFFFFFFFFFF DUP2 GT PUSH2 0x7EB JUMPI PUSH1 0x5 SHL PUSH1 0x20 ADD SWAP1 JUMP JUMPDEST CALLDATALOAD SWAP1 PUSH6 0xFFFFFFFFFFFF DUP3 AND DUP3 SUB PUSH2 0x1C1 JUMPI JUMP JUMPDEST SWAP2 DUP2 PUSH1 0x1F DUP5 ADD SLT ISZERO PUSH2 0x1C1 JUMPI DUP3 CALLDATALOAD SWAP2 PUSH8 0xFFFFFFFFFFFFFFFF DUP4 GT PUSH2 0x1C1 JUMPI PUSH1 0x20 DUP4 DUP2 DUP7 ADD SWAP6 ADD ADD GT PUSH2 0x1C1 JUMPI JUMP JUMPDEST DUP1 MLOAD DUP3 LT ISZERO PUSH2 0xE19 JUMPI PUSH1 0x20 SWAP2 PUSH1 0x5 SHL ADD ADD SWAP1 JUMP JUMPDEST PUSH32 0x4E487B7100000000000000000000000000000000000000000000000000000000 PUSH1 0x0 MSTORE PUSH1 0x32 PUSH1 0x4 MSTORE PUSH1 0x24 PUSH1 0x0 REVERT JUMPDEST SWAP3 SWAP1 SWAP3 PUSH20 0xFFFFFFFFFFFFFFFFFFFFFFFFFFFFFFFFFFFFFFFF SWAP2 PUSH1 0x0 SWAP3 DUP1 DUP4 AND DUP5 MSTORE DUP4 PUSH1 0x20 MSTORE PUSH1 0x40 SWAP5 DUP2 DUP7 DUP7 KECCAK256 SWAP4 AND SWAP3 DUP4 DUP7 MSTORE PUSH1 0x20 MSTORE DUP6 DUP6 KECCAK256 CALLER DUP7 MSTORE PUSH1 0x20 MSTORE DUP6 DUP6 KECCAK256 SWAP7 DUP8 SLOAD SWAP8 PUSH6 0xFFFFFFFFFFFF DUP10 PUSH1 0xA0 SHR AND DUP1 TIMESTAMP GT PUSH2 0xFE3 JUMPI POP DUP4 DUP10 AND SWAP9 DUP5 DUP11 SUB PUSH2 0xF6B JUMPI JUMPDEST POP POP DUP7 SWAP8 POP SWAP3 DUP6 SWAP7 SWAP3 DUP7 SWAP6 SWAP4 SWAP3 PUSH1 0x64 SWAP6 PUSH1 0x20 SWAP9 SWAP5 MLOAD SWAP6 PUSH32 0x23B872DD00000000000000000000000000000000000000000000000000000000 DUP8 MSTORE PUSH1 0x4 DUP8 ADD MSTORE PUSH1 0x24 DUP7 ADD MSTORE AND PUSH1 0x44 DUP5 ADD MSTORE GAS CALL SWAP1 MLOAD PUSH1 0x1 EQ PUSH1 0x1F RETURNDATASIZE GT AND RETURNDATASIZE ISZERO OR AND ISZERO PUSH2 0xF0E JUMPI POP JUMP JUMPDEST PUSH1 0x64 SWAP1 MLOAD PUSH32 0x8C379A000000000000000000000000000000000000000000000000000000000 DUP2 MSTORE PUSH1 0x20 PUSH1 0x4 DUP3 ADD MSTORE PUSH1 0x14 PUSH1 0x24 DUP3 ADD MSTORE PUSH32 0x5452414E534645525F46524F4D5F4641494C4544000000000000000000000000 PUSH1 0x44 DUP3 ADD MSTORE REVERT JUMPDEST DUP10 DUP6 DUP6 AND GT PUSH1 0x0 EQ PUSH2 0xFA7 JUMPI PUSH1 0x24 DUP11 DUP11 MLOAD SWAP1 PUSH32 0xF96FB07100000000000000000000000000000000000000000000000000000000 DUP3 MSTORE PUSH1 0x4 DUP3 ADD MSTORE REVERT JUMPDEST PUSH32 0xFFFFFFFFFFFFFFFFFFFFFFFF0000000000000000000000000000000000000000 AND SWAP9 DUP4 SWAP1 SUB DUP5 AND SWAP9 SWAP1 SWAP9 OR SWAP1 SWAP8 SSTORE SWAP5 SWAP6 DUP7 SWAP6 SWAP1 DUP3 PUSH1 0x20 PUSH2 0xEAD JUMP JUMPDEST PUSH1 0x24 SWAP1 DUP10 MLOAD SWAP1 PUSH32 0xD81B2F2E00000000000000000000000000000000000000000000000000000000 DUP3 MSTORE PUSH1 0x4 DUP3 ADD MSTORE REVERT JUMPDEST SWAP2 SWAP1 DUP2 LT ISZERO PUSH2 0xE19 JUMPI PUSH1 0x6 SHL ADD SWAP1 JUMP JUMPDEST CALLDATALOAD PUSH20 0xFFFFFFFFFFFFFFFFFFFFFFFFFFFFFFFFFFFFFFFF DUP2 AND DUP2 SUB PUSH2 0x1C1 JUMPI SWAP1 JUMP JUMPDEST SWAP1 PUSH6 0xFFFFFFFFFFFF SWAP1 DUP2 PUSH1 0x60 DUP5 ADD MLOAD AND PUSH20 0xFFFFFFFFFFFFFFFFFFFFFFFFFFFFFFFFFFFFFFFF SWAP1 DUP2 DUP6 MLOAD AND SWAP5 DUP3 PUSH1 0x20 DUP3 ADD MLOAD AND SWAP3 DUP1 DUP7 PUSH1 0x40 DUP1 SWAP5 ADD MLOAD AND SWAP6 AND SWAP6 PUSH1 0x0 SWAP2 DUP8 DUP4 MSTORE DUP3 PUSH1 0x20 MSTORE DUP4 DUP4 KECCAK256 DUP10 DUP5 MSTORE PUSH1 0x20 MSTORE DUP4 DUP4 KECCAK256 SWAP10 AND SWAP9 DUP10 DUP4 MSTORE PUSH1 0x20 MSTORE DUP3 DUP3 KECCAK256 SWAP2 DUP5 DUP4 SLOAD PUSH1 0xD0 SHR SUB PUSH2 0x119B JUMPI SWAP2 DUP6 PUSH2 0x1174 SWAP5 SWAP3 PUSH32 0xC6A377BFC4EB120024A8AC08EEF205BE16B817020812C73223E81D1BDB9708EC SWAP9 SWAP8 SWAP7 SWAP5 POP DUP8 ISZERO PUSH1 0x0 EQ PUSH2 0x1179 JUMPI PUSH26 0xFFFFFFFFFFFF0000000000000000000000000000000000000000 SWAP1 TIMESTAMP AND JUMPDEST PUSH1 0xA0 SHL AND PUSH32 0xFFFFFFFFFFFF0000000000000000000000000000000000000000000000000000 PUSH1 0x1 DUP7 ADD PUSH1 0xD0 SHL AND OR OR SWAP1 SSTORE MLOAD SWAP4 DUP5 SWAP4 DUP5 SWAP2 PUSH1 0x40 SWAP2 SWAP5 SWAP4 PUSH20 0xFFFFFFFFFFFFFFFFFFFFFFFFFFFFFFFFFFFFFFFF PUSH1 0x60 DUP6 ADD SWAP7 AND DUP5 MSTORE PUSH6 0xFFFFFFFFFFFF DUP1 SWAP3 AND PUSH1 0x20 DUP6 ADD MSTORE AND SWAP2 ADD MSTORE JUMP JUMPDEST SUB SWAP1 LOG4 JUMP JUMPDEST POP PUSH26 0xFFFFFFFFFFFF0000000000000000000000000000000000000000 DUP8 PUSH2 0x1106 JUMP JUMPDEST PUSH1 0x4 DUP5 MLOAD PUSH32 0x756688FE00000000000000000000000000000000000000000000000000000000 DUP2 MSTORE REVERT JUMPDEST CHAINID PUSH32 0x0 SUB PUSH2 0x120F JUMPI PUSH32 0x0 SWAP1 JUMP JUMPDEST PUSH1 0x40 MLOAD PUSH1 0x20 DUP2 ADD SWAP1 PUSH32 0x8CAD95687BA82C2CE50E74F7B754645E5117C3A5BEC8151C0726D5857980A866 DUP3 MSTORE PUSH32 0x9AC997416E8FF9D2FF6BEBEB7149F65CDAE5E32E2B90440B566BB3044041D36A PUSH1 0x40 DUP3 ADD MSTORE CHAINID PUSH1 0x60 DUP3 ADD MSTORE ADDRESS PUSH1 0x80 DUP3 ADD MSTORE PUSH1 0x80 DUP2 MSTORE PUSH2 0x1279 DUP2 PUSH2 0xD4F JUMP JUMPDEST MLOAD SWAP1 KECCAK256 SWAP1 JUMP JUMPDEST PUSH2 0x1287 PUSH2 0x11C4 JUMP JUMPDEST SWAP1 PUSH1 0x40 MLOAD SWAP1 PUSH1 0x20 DUP3 ADD SWAP3 PUSH32 0x1901000000000000000000000000000000000000000000000000000000000000 DUP5 MSTORE PUSH1 0x22 DUP4 ADD MSTORE PUSH1 0x42 DUP3 ADD MSTORE PUSH1 0x42 DUP2 MSTORE PUSH1 0x80 DUP2 ADD DUP2 DUP2 LT PUSH8 0xFFFFFFFFFFFFFFFF DUP3 GT OR PUSH2 0x7EB JUMPI PUSH1 0x40 MSTORE MLOAD SWAP1 KECCAK256 SWAP1 JUMP JUMPDEST PUSH1 0x40 MLOAD PUSH1 0x20 DUP2 ADD SWAP2 PUSH32 0x65626CAD6CB96493BF6F5EBEA28756C966F023AB9E8A83A7101849D5573B3678 DUP4 MSTORE PUSH20 0xFFFFFFFFFFFFFFFFFFFFFFFFFFFFFFFFFFFFFFFF DUP1 DUP3 MLOAD AND PUSH1 0x40 DUP5 ADD MSTORE PUSH1 0x20 DUP3 ADD MLOAD AND PUSH1 0x60 DUP4 ADD MSTORE PUSH1 0x60 PUSH6 0xFFFFFFFFFFFF SWAP2 DUP3 PUSH1 0x40 DUP3 ADD MLOAD AND PUSH1 0x80 DUP6 ADD MSTORE ADD MLOAD AND PUSH1 0xA0 DUP3 ADD MSTORE PUSH1 0xA0 DUP2 MSTORE PUSH1 0xC0 DUP2 ADD DUP2 DUP2 LT PUSH8 0xFFFFFFFFFFFFFFFF DUP3 GT OR PUSH2 0x7EB JUMPI PUSH1 0x40 MSTORE MLOAD SWAP1 KECCAK256 SWAP1 JUMP JUMPDEST SWAP2 SWAP1 DUP3 PUSH1 0x40 SWAP2 SUB SLT PUSH2 0x1C1 JUMPI PUSH1 0x20 DUP3 CALLDATALOAD SWAP3 ADD CALLDATALOAD SWAP1 JUMP JUMPDEST PUSH1 0x0 DUP5 EXTCODESIZE PUSH2 0x14F5 JUMPI POP PUSH1 0x41 DUP3 SUB PUSH2 0x1473 JUMPI PUSH2 0x13AB DUP3 DUP3 ADD DUP3 PUSH2 0x1378 JUMP JUMPDEST SWAP4 SWAP1 SWAP3 PUSH1 0x40 LT ISZERO PUSH2 0xE19 JUMPI PUSH1 0x20 SWAP4 PUSH1 0x0 SWAP4 PUSH1 0xFF PUSH1 0x40 PUSH1 0x80 SWAP6 ADD CALLDATALOAD PUSH1 0xF8 SHR JUMPDEST PUSH1 0x40 MLOAD SWAP5 DUP6 MSTORE AND DUP7 DUP5 ADD MSTORE PUSH1 0x40 DUP4 ADD MSTORE PUSH1 0x60 DUP3 ADD MSTORE DUP3 DUP1 MSTORE PUSH1 0x1 GAS STATICCALL ISZERO PUSH2 0x1467 JUMPI PUSH20 0xFFFFFFFFFFFFFFFFFFFFFFFFFFFFFFFFFFFFFFFF DUP1 PUSH1 0x0 MLOAD AND SWAP2 DUP3 ISZERO PUSH2 0x143D JUMPI AND SUB PUSH2 0x1413 JUMPI JUMP JUMPDEST PUSH1 0x4 PUSH1 0x40 MLOAD PUSH32 0x815E1D6400000000000000000000000000000000000000000000000000000000 DUP2 MSTORE REVERT JUMPDEST PUSH1 0x4 PUSH1 0x40 MLOAD PUSH32 0x8BAA579F00000000000000000000000000000000000000000000000000000000 DUP2 MSTORE REVERT JUMPDEST PUSH1 0x40 MLOAD RETURNDATASIZE PUSH1 0x0 DUP3 RETURNDATACOPY RETURNDATASIZE SWAP1 REVERT JUMPDEST PUSH1 0x40 DUP3 SUB PUSH2 0x14CB JUMPI PUSH2 0x1487 SWAP2 DUP2 ADD SWAP1 PUSH2 0x1378 JUMP JUMPDEST SWAP2 PUSH1 0x1B PUSH32 0x7FFFFFFFFFFFFFFFFFFFFFFFFFFFFFFFFFFFFFFFFFFFFFFFFFFFFFFFFFFFFFFF DUP5 AND SWAP4 PUSH1 0xFF SHR ADD SWAP1 PUSH1 0xFF DUP3 GT PUSH2 0xAEC JUMPI PUSH1 0x20 SWAP4 PUSH1 0x0 SWAP4 PUSH1 0xFF PUSH1 0x80 SWAP5 PUSH2 0x13C9 JUMP JUMPDEST PUSH1 0x4 PUSH1 0x40 MLOAD PUSH32 0x4BE6321B00000000000000000000000000000000000000000000000000000000 DUP2 MSTORE REVERT JUMPDEST SWAP3 SWAP4 SWAP2 PUSH1 0x1F SWAP3 DUP2 PUSH20 0xFFFFFFFFFFFFFFFFFFFFFFFFFFFFFFFFFFFFFFFF PUSH1 0x64 PUSH1 0x20 SWAP6 PUSH32 0xFFFFFFFFFFFFFFFFFFFFFFFFFFFFFFFFFFFFFFFFFFFFFFFFFFFFFFFFFFFFFFE0 PUSH1 0x40 MLOAD SWAP9 DUP10 SWAP8 DUP9 SWAP7 DUP8 SWAP5 PUSH32 0x1626BA7E00000000000000000000000000000000000000000000000000000000 SWAP15 DUP16 DUP8 MSTORE PUSH1 0x4 DUP8 ADD MSTORE PUSH1 0x40 PUSH1 0x24 DUP8 ADD MSTORE DUP2 PUSH1 0x44 DUP8 ADD MSTORE DUP7 DUP7 ADD CALLDATACOPY DUP12 DUP6 DUP3 DUP7 ADD ADD MSTORE ADD AND DUP2 ADD SUB ADD SWAP3 AND GAS STATICCALL SWAP1 DUP2 ISZERO PUSH2 0x1676 JUMPI DUP3 SWAP2 PUSH2 0x15F1 JUMPI JUMPDEST POP PUSH32 0xFFFFFFFF00000000000000000000000000000000000000000000000000000000 SWAP2 POP AND SUB PUSH2 0x15C7 JUMPI JUMP JUMPDEST PUSH1 0x4 PUSH1 0x40 MLOAD PUSH32 0xB0669CBC00000000000000000000000000000000000000000000000000000000 DUP2 MSTORE REVERT JUMPDEST SWAP1 POP PUSH1 0x20 DUP2 RETURNDATASIZE DUP3 GT PUSH2 0x166E JUMPI JUMPDEST DUP2 PUSH2 0x160B PUSH1 0x20 SWAP4 DUP4 PUSH2 0xD6B JUMP JUMPDEST DUP2 ADD SUB SLT PUSH2 0x166A JUMPI MLOAD SWAP1 PUSH32 0xFFFFFFFF00000000000000000000000000000000000000000000000000000000 DUP3 AND DUP3 SUB PUSH2 0x1667 JUMPI POP PUSH32 0xFFFFFFFF00000000000000000000000000000000000000000000000000000000 SWAP1 CODESIZE PUSH2 0x159B JUMP JUMPDEST DUP1 REVERT JUMPDEST POP DUP1 REVERT JUMPDEST RETURNDATASIZE SWAP2 POP PUSH2 0x15FE JUMP JUMPDEST PUSH1 0x40 MLOAD RETURNDATASIZE DUP5 DUP3 RETURNDATACOPY RETURNDATASIZE SWAP1 REVERT INVALID LOG1 PUSH5 0x736F6C6343 STOP ADDMOD GT STOP EXP "},"methodIdentifiers":{"DOMAIN_SEPARATOR()":"3644e515","allowance(address,address,address)":"927da105","approve(address,address,uint160,uint48)":"87517c45","invalidateNonces(address,address,uint48)":"65d9723c","lockdown((address,address)[])":"cc53287f","permit(address,((address,uint160,uint48,uint48),address,uint256),bytes)":"2b67b570","permit(address,((address,uint160,uint48,uint48)[],address,uint256),bytes)":"2a2d80d1","transferFrom((address,address,uint160,address)[])":"0d58b1db","transferFrom(address,address,uint160,address)":"36c78516"}}}}}