{"contracts/UniversalRouter.sol":{"UniversalRouter":{"abi":[{"inputs":[{"components":[{"internalType":"address","name":"permit2","type":"address"},{"internalType":"address","name":"weth9","type":"address"},{"internalType":"address","name":"seaport","type":"address"},{"internalType":"address","name":"seaportV1_4","type":"address"},{"internalType":"address","name":"openseaConduit","type":"address"},{"internalType":"address","name":"nftxZap","type":"address"},{"internalType":"address","name":"x2y2","type":"address"},{"internalType":"address","name":"foundation","type":"address"},{"internalType":"address","name":"sudoswap","type":"address"},{"internalType":"address","name":"elementMarket","type":"address"},{"internalType":"address","name":"nft20Zap","type":"address"},{"internalType":"address","name":"cryptopunks","type":"address"},{"internalType":"address","name":"looksRareV2","type":"address"},{"internalType":"address","name":"routerRewardsDistributor","type":"address"},{"internalType":"address","name":"looksRareRewardsDistributor","type":"address"},{"internalType":"address","name":"looksRareToken","type":"address"},{"internalType":"address","name":"v2Factory","type":"address"},{"internalType":"address","name":"v3Factory","type":"address"},{"internalType":"bytes32","name":"pairInitCodeHash","type":"bytes32"},{"internalType":"bytes32","name":"poolInitCodeHash","type":"bytes32"}],"internalType":"struct RouterParameters","name":"params","type":"tuple"}],"stateMutability":"nonpayable","type":"constructor"},{"inputs":[],"name":"BalanceTooLow","type":"error"},{"inputs":[],"name":"BuyPunkFailed","type":"error"},{"inputs":[],"name":"ContractLocked","type":"error"},{"inputs":[],"name":"ETHNotAccepted","type":"error"},{"inputs":[{"internalType":"uint256","name":"commandIndex","type":"uint256"},{"internalType":"bytes","name":"message","type":"bytes"}],"name":"ExecutionFailed","type":"error"},{"inputs":[],"name":"FromAddressIsNotOwner","type":"error"},{"inputs":[],"name":"InsufficientETH","type":"error"},{"inputs":[],"name":"InsufficientToken","type":"error"},{"inputs":[],"name":"InvalidBips","type":"error"},{"inputs":[{"internalType":"uint256","name":"commandType","type":"uint256"}],"name":"InvalidCommandType","type":"error"},{"inputs":[],"name":"InvalidOwnerERC1155","type":"error"},{"inputs":[],"name":"InvalidOwnerERC721","type":"error"},{"inputs":[],"name":"InvalidPath","type":"error"},{"inputs":[],"name":"InvalidReserves","type":"error"},{"inputs":[],"name":"InvalidSpender","type":"error"},{"inputs":[],"name":"LengthMismatch","type":"error"},{"inputs":[],"name":"SliceOutOfBounds","type":"error"},{"inputs":[],"name":"TransactionDeadlinePassed","type":"error"},{"inputs":[],"name":"UnableToClaim","type":"error"},{"inputs":[],"name":"UnsafeCast","type":"error"},{"inputs":[],"name":"V2InvalidPath","type":"error"},{"inputs":[],"name":"V2TooLittleReceived","type":"error"},{"inputs":[],"name":"V2TooMuchRequested","type":"error"},{"inputs":[],"name":"V3InvalidAmountOut","type":"error"},{"inputs":[],"name":"V3InvalidCaller","type":"error"},{"inputs":[],"name":"V3InvalidSwap","type":"error"},{"inputs":[],"name":"V3TooLittleReceived","type":"error"},{"inputs":[],"name":"V3TooMuchRequested","type":"error"},{"anonymous":false,"inputs":[{"indexed":false,"internalType":"uint256","name":"amount","type":"uint256"}],"name":"RewardsSent","type":"event"},{"inputs":[{"internalType":"bytes","name":"looksRareClaim","type":"bytes"}],"name":"collectRewards","outputs":[],"stateMutability":"nonpayable","type":"function"},{"inputs":[{"internalType":"bytes","name":"commands","type":"bytes"},{"internalType":"bytes[]","name":"inputs","type":"bytes[]"}],"name":"execute","outputs":[],"stateMutability":"payable","type":"function"},{"inputs":[{"internalType":"bytes","name":"commands","type":"bytes"},{"internalType":"bytes[]","name":"inputs","type":"bytes[]"},{"internalType":"uint256","name":"deadline","type":"uint256"}],"name":"execute","outputs":[],"stateMutability":"payable","type":"function"},{"inputs":[{"internalType":"address","name":"","type":"address"},{"internalType":"address","name":"","type":"address"},{"internalType":"uint256[]","name":"","type":"uint256[]"},{"internalType":"uint256[]","name":"","type":"uint256[]"},{"internalType":"bytes","name":"","type":"bytes"}],"name":"onERC1155BatchReceived","outputs":[{"internalType":"bytes4","name":"","type":"bytes4"}],"stateMutability":"pure","type":"function"},{"inputs":[{"internalType":"address","name":"","type":"address"},{"internalType":"address","name":"","type":"address"},{"internalType":"uint256","name":"","type":"uint256"},{"internalType":"uint256","name":"","type":"uint256"},{"internalType":"bytes","name":"","type":"bytes"}],"name":"onERC1155Received","outputs":[{"internalType":"bytes4","name":"","type":"bytes4"}],"stateMutability":"pure","type":"function"},{"inputs":[{"internalType":"address","name":"","type":"address"},{"internalType":"address","name":"","type":"address"},{"internalType":"uint256","name":"","type":"uint256"},{"internalType":"bytes","name":"","type":"bytes"}],"name":"onERC721Received","outputs":[{"internalType":"bytes4","name":"","type":"bytes4"}],"stateMutability":"pure","type":"function"},{"inputs":[{"internalType":"bytes4","name":"interfaceId","type":"bytes4"}],"name":"supportsInterface","outputs":[{"internalType":"bool","name":"","type":"bool"}],"stateMutability":"pure","type":"function"},{"inputs":[{"internalType":"int256","name":"amount0Delta","type":"int256"},{"internalType":"int256","name":"amount1Delta","type":"int256"},{"internalType":"bytes","name":"data","type":"bytes"}],"name":"uniswapV3SwapCallback","outputs":[],"stateMutability":"nonpayable","type":"function"},{"stateMutability":"payable","type":"receive"}],"evm":{"bytecode":{"linkReferences":{},"object":"34620003ed576001600160401b0362004b8b38819003610300601f8201601f191681019084821190821017620003d7576102809282916040526103003912620003ed57604051610280810191821181831017620003d757610260916040526200006a610300620003f2565b8082526200007a610320620003f2565b60208301526200008c610340620003f2565b60408301526200009e610360620003f2565b6060830152620000b0610380620003f2565b6080830152620000c26103a0620003f2565b60a0830152620000d46103c0620003f2565b60c0830152620000e66103e0620003f2565b60e0830152620000f8610400620003f2565b6101008301526200010b610420620003f2565b6101208301526200011e610440620003f2565b61014083015262000131610460620003f2565b61016083015262000144610480620003f2565b610180830152620001576104a0620003f2565b6101a08301526200016a6104c0620003f2565b6101c08301526200017d6104e0620003f2565b6101e083015262000190610500620003f2565b610200830152620001a3610520620003f2565b610220838101918252610540516102408086019182526103008701518787019081526001600160a01b0395861660a09081526020880151871660809081526040808a0151891660c090815260608b01518a1660e0908152928b01518a16610100908152938b01518a16610120908152908b01518a16610140908152928b01518a16610160908152938b01518a16610180908152908b01518a166101a0908152928b01518a166101c0908152938b01518a166101e0908152908b01518a16610200908152908b01518a16909752918901518816909352918701518616909752919094015183166102805292516102a05251166102c05290516102e052600019600055600180546001600160a01b031916811790555161478362000408823960805181818161244701526125ce015260a05181818161166101528181611761015281816122c0015281816127e60152613cf4015260c05181612b04015260e051816134ba0152610100518161369a01526101205181612bb80152610140518181816130620152613164015261016051816132720152610180518181816130b5015261379c01526101a0518161345101526101c0518161310c01526101e05181612bf601526102005181612b610152610220518161067a0152610240518161061e01526102605181610702015261028051818181611c420152818161205201526141e801526102a051818181611c210152818161203101526141c701526102c051816145a201526102e05181614580015261478390f35b634e487b7160e01b600052604160045260246000fd5b600080fd5b51906001600160a01b0382168203620003ed5756fe60a06040818152600480361015610021575b505050361561001f57600080fd5b005b600092833560e01c90816301ffc9a714610aad57508063150b7a0214610a1f57806324856bc3146109575780633593564c1461081b578063709a1cc2146105b8578063bc197c81146104f3578063f23a6e61146104655763fa461e330361001157346104615760607ffffffffffffffffffffffffffffffffffffffffffffffffffffffffffffffffc360112610461578035906024356044359167ffffffffffffffff9283811161045d576100d99036908301610c07565b91909287861394851580610453575b61042b5783850188868203126104275785359182116104275761010c9186016139d9565b5060208401359373ffffffffffffffffffffffffffffffffffffffff938486168096036104275761013c91614463565b929093602b85106103ff578335968760601c9760178601968735958660601c936101718c8662ffffff809760481c16916144eb565b86339116036103d757156103cd5750828a105b156101a057505050505050505061019d93503391613dcb565b80f35b909192939598506042819a95979a10156000146103845780601711610380577fffffffffffffffffffffffffffffffffffffffffffffffffffffffffffffffe901937f800000000000000000000000000000000000000000000000000000000000000081101561038057610213906144be565b97602b851061035857926102a18b826102498f9895966102f397602e859f9e9d9c9a013560601c908282109c60481c16916144eb565b1698881561033a576102706401000276a49d5b835196879460208601526060850191613840565b908c830152037fffffffffffffffffffffffffffffffffffffffffffffffffffffffffffffffe08101845283613903565b8851998a98899788967f128acb0800000000000000000000000000000000000000000000000000000000885233908801526024870152604486015216606484015260a0608484015260a4830190610c66565b03925af1801561032e5761030657505080f35b813d8311610327575b6103198183613903565b810103126103245780f35b80fd5b503d61030f565b505051903d90823e3d90fd5b61027073fffd8963efd1fc6a506488495d951d5263988d259d61025c565b858b517f3b99b53d000000000000000000000000000000000000000000000000000000008152fd5b8b80fd5b5050955050945095809591505484116103a5575061019d9394503391613dcb565b8590517f739dbe52000000000000000000000000000000000000000000000000000000008152fd5b9a50898310610184565b868e517f32b13d91000000000000000000000000000000000000000000000000000000008152fd5b5087517f3b99b53d000000000000000000000000000000000000000000000000000000008152fd5b8980fd5b8288517f316cf0eb000000000000000000000000000000000000000000000000000000008152fd5b50888213156100e8565b8680fd5b8280fd5b5091346103245760a07ffffffffffffffffffffffffffffffffffffffffffffffffffffffffffffffffc3601126103245761049e610b9b565b506104a7610bc3565b506084359067ffffffffffffffff821161032457506020926104cb91369101610c07565b5050517ff23a6e61000000000000000000000000000000000000000000000000000000008152f35b5091346103245760a07ffffffffffffffffffffffffffffffffffffffffffffffffffffffffffffffffc3601126103245761052c610b9b565b50610535610bc3565b5067ffffffffffffffff906044358281116105b4576105579036908601610c35565b50506064358281116105b4576105709036908601610c35565b5050608435918211610324575060209261058c91369101610c07565b5050517fbc197c81000000000000000000000000000000000000000000000000000000008152f35b5080fd5b50903461046157602090817ffffffffffffffffffffffffffffffffffffffffffffffffffffffffffffffffc3601126108175783833567ffffffffffffffff81116105b45761060b829136908701610c07565b90818551928392833781018381520390827f00000000000000000000000000000000000000000000000000000000000000005af161064761397e565b50156107ef5780517f70a082310000000000000000000000000000000000000000000000000000000081523084820152907f000000000000000000000000000000000000000000000000000000000000000073ffffffffffffffffffffffffffffffffffffffff168383602481845afa9283156107e55786936107b0575b5081517fa9059cbb00000000000000000000000000000000000000000000000000000000815273ffffffffffffffffffffffffffffffffffffffff7f0000000000000000000000000000000000000000000000000000000000000000169581019586526020860184905294849186918290899082906040015b03925af19384156107a6577f1e8f03f716bc104bf7d728131967a0c771e85ab54d09c1e2d6ed9e0bc4e2a16c94610779575b5051908152a180f35b61079890843d861161079f575b6107908183613903565b810190613b96565b5038610770565b503d610786565b81513d87823e3d90fd5b9092508381813d83116107de575b6107c88183613903565b810103126107da57519161073e6106c5565b8580fd5b503d6107be565b82513d88823e3d90fd5b9050517f7d529919000000000000000000000000000000000000000000000000000000008152fd5b8380fd5b509060607ffffffffffffffffffffffffffffffffffffffffffffffffffffffffffffffffc3601126104615767ffffffffffffffff8235818111610953576108669036908501610c07565b916024359081116107da5761087e9036908601610c35565b929091604435421161092b5733301461091c576001958654958773ffffffffffffffffffffffffffffffffffffffff8816036108f657505091859493916108ed937fffffffffffffffffffffffff00000000000000000000000000000000000000009586339116178755610cc4565b81541617905580f35b517f6f5ffb7e000000000000000000000000000000000000000000000000000000008152fd5b909192935061019d9450610cc4565b8585517f5bf6f916000000000000000000000000000000000000000000000000000000008152fd5b8480fd5b5090807ffffffffffffffffffffffffffffffffffffffffffffffffffffffffffffffffc3601126104615767ffffffffffffffff8235818111610953576109a19036908501610c07565b916024359081116107da576109b99036908601610c35565b92909133301461091c576001958654958773ffffffffffffffffffffffffffffffffffffffff8816036108f657505091859493916108ed937fffffffffffffffffffffffff00000000000000000000000000000000000000009586339116178755610cc4565b5091346103245760807ffffffffffffffffffffffffffffffffffffffffffffffffffffffffffffffffc36011261032457610a58610b9b565b50610a61610bc3565b506064359067ffffffffffffffff82116103245750602092610a8591369101610c07565b5050517f150b7a02000000000000000000000000000000000000000000000000000000008152f35b925050346104615760207ffffffffffffffffffffffffffffffffffffffffffffffffffffffffffffffffc36011261046157357fffffffff00000000000000000000000000000000000000000000000000000000811680910361046157602092507f4e2312e0000000000000000000000000000000000000000000000000000000008114908115610b71575b8115610b47575b5015158152f35b7f01ffc9a70000000000000000000000000000000000000000000000000000000091501438610b40565b7f150b7a020000000000000000000000000000000000000000000000000000000081149150610b39565b6004359073ffffffffffffffffffffffffffffffffffffffff82168203610bbe57565b600080fd5b6024359073ffffffffffffffffffffffffffffffffffffffff82168203610bbe57565b359073ffffffffffffffffffffffffffffffffffffffff82168203610bbe57565b9181601f84011215610bbe5782359167ffffffffffffffff8311610bbe5760208381860195010111610bbe57565b9181601f84011215610bbe5782359167ffffffffffffffff8311610bbe576020808501948460051b010111610bbe57565b919082519283825260005b848110610cb05750507fffffffffffffffffffffffffffffffffffffffffffffffffffffffffffffffe0601f8460006020809697860101520116010190565b602081830181015184830182015201610c71565b919290926080528281036138165791906000905b828210610ce55750505050565b8382959394951015611e555760059282841b60805101357fffffffffffffffffffffffffffffffffffffffffffffffffffffffffffffffe19182608051360301821215610bbe578160805101359767ffffffffffffffff8911610bbe576020836080510101988036038a13610bbe57606097603f90818989013560f81c166001976020821060001461347a5750601080821015612abd5750600880821015611b8757508061120157505050610d9a908a6144a1565b92909860a0856080510101356000146111f757610dd173ffffffffffffffffffffffffffffffffffffffff600154169b5b35613b5d565b9960408660805101013585829d927f8000000000000000000000000000000000000000000000000000000000000000831461113f575b50959c95505b7f8000000000000000000000000000000000000000000000000000000000000000811015610bbe57604286106111385730915b86602b11610bbe578d91601783013560601c9083359462ffffff8660601c96610e8573ffffffffffffffffffffffffffffffffffffffff92839260481c16868a6144eb565b16908488101561111c57806401000276a4965b602b60405199604060208c01528160608c015260808b0137600060ab8a015216604088015260a0875260c087019587871067ffffffffffffffff8811176110ed576040948288958688527f128acb080000000000000000000000000000000000000000000000000000000087521660c48a0152868a1060e48a01526101048901521661012487015260a06101448701528160007fffffffffffffffffffffffffffffffffffffffffffffffffffffffffffffff4088610f5b610164820182610c66565b0301925af19283156110e157600092839461109f575b5050610f85931060001461109857506144be565b9a60428510610fc657309085601711610bbe5760177fffffffffffffffffffffffffffffffffffffffffffffffffffffffffffffffe991019501949b610e0d565b5098509860609196959794939250916080510101351161106e575b1580611041575b610ffa57506001019291929092610cd8565b9061103d60409283519384937f2c4029e9000000000000000000000000000000000000000000000000000000008552600485015260248401526044830190610c66565b0390fd5b507f8000000000000000000000000000000000000000000000000000000000000000828501351615610fe8565b60046040517f39d35496000000000000000000000000000000000000000000000000000000008152fd5b90506144be565b91929093506040843d6040116110d9575b816110bd60409386613903565b8101031261032457505160e092909201519190610f8538610f71565b3d91506110b0565b6040513d6000823e3d90fd5b7f4e487b7100000000000000000000000000000000000000000000000000000000600052604160045260246000fd5b8073fffd8963efd1fc6a506488495d951d5263988d2596610e98565b8b91610e40565b6014919250106111cd576020602491604051928380927f70a082310000000000000000000000000000000000000000000000000000000082523060048301523560601c5afa9081156110e15760009161119b575b503880610e07565b906020823d6020116111c5575b816111b560209383613903565b8101031261032457505138611193565b3d91506111a8565b60046040517f3b99b53d000000000000000000000000000000000000000000000000000000008152fd5b610dd1309b610dcb565b6001819d9493969d9b9897959a999b146000146114c557505081611227929394506144a1565b9060a0846080510101356000146114bb5761125b73ffffffffffffffffffffffffffffffffffffffff600154169335613b5d565b916060856080510101356000557f80000000000000000000000000000000000000000000000000000000000000006040866080510101351015610bbe576112a96040866080510101356144be565b602b83106111cd57813592601783013560601c9586928560601c96879660481c62ffffff166112d99086896144eb565b73ffffffffffffffffffffffffffffffffffffffff16938786106000149673ffffffffffffffffffffffffffffffffffffffff80956000956113746113c89560409c6114a0576401000276a4935b856113428f51986040948a9560208701526060860191613840565b91168e830152037fffffffffffffffffffffffffffffffffffffffffffffffffffffffffffffffe08101865285613903565b8a519b8c9a8b998a987f128acb08000000000000000000000000000000000000000000000000000000008a52166004890152106024870152604486015216606484015260a0608484015260a4830190610c66565b03925af19182156110e1576000918293611462575b50604093101561145257506113f1906144be565b915b60805101013503611428577fffffffffffffffffffffffffffffffffffffffffffffffffffffffffffffffff6000555b610fe1565b60046040517fd4e0248e000000000000000000000000000000000000000000000000000000008152fd5b61145c91506144be565b916113f3565b9250906040833d604011611498575b8161147e60409383613903565b8101031261032457508151602090920151919060406113dd565b3d9150611471565b73fffd8963efd1fc6a506488495d951d5263988d2593611327565b61125b3093610dcb565b6002810361150f57505050611423925073ffffffffffffffffffffffffffffffffffffffff60015416611508604060608560805101013594608051010135613b5d565b9135613cd9565b9193916003810361188157505060805181018084019390604090850312610bbe57823567ffffffffffffffff8111610bbe5782608051010192606084860312610bbe57604051946060860186811067ffffffffffffffff8211176110ed57604052602085013567ffffffffffffffff8111610bbe57850160208201809882011215610bbe576020810135906115a3826139ae565b926115b16040519485613903565b8284526040602085019360071b830101918a8311610bbe57604001925b82841061181c575050505085526115e760408501610be6565b956020860196875260606040870195013585526040846080510101359067ffffffffffffffff8211610bbe5760206116289261162e966080510101016139d9565b50614484565b909173ffffffffffffffffffffffffffffffffffffffff600154169473ffffffffffffffffffffffffffffffffffffffff7f0000000000000000000000000000000000000000000000000000000000000000163b15610bbe5794929391906040519586947f2a2d80d100000000000000000000000000000000000000000000000000000000865260048601526060602486015260c48501935193606060648701528451809152602060e487019501906000905b8082106117a357505050946117479285949273ffffffffffffffffffffffffffffffffffffffff600098511660848701525160a48601527ffffffffffffffffffffffffffffffffffffffffffffffffffffffffffffffffc858403016044860152613840565b03818373ffffffffffffffffffffffffffffffffffffffff7f0000000000000000000000000000000000000000000000000000000000000000165af180156110e157611794575b50610fe1565b61179d9061387f565b3861178e565b9197965091929394602060806001928a5173ffffffffffffffffffffffffffffffffffffffff815116825273ffffffffffffffffffffffffffffffffffffffff848201511684830152606065ffffffffffff918260408201511660408501520151166060820152019801920188969795949392916116e1565b608060208584030112610bbe57602060809160405161183a81613893565b61184387610be6565b8152611850838801610be6565b83820152611860604088016139c6565b6040820152611871606088016139c6565b60608201528152019301926115ce565b600495509193508482036119f05750509091604060606118a78286608051010135613b5d565b608051909501013573ffffffffffffffffffffffffffffffffffffffff9081169335168061191d5750479283106118f7575050806118e7575b5050610fe1565b6118f091614657565b38806118e0565b517f6a12f104000000000000000000000000000000000000000000000000000000008152fd5b9391908051937f70a082310000000000000000000000000000000000000000000000000000000085523083860152602085602481895afa9485156119e5576000956119b1575b50841061198b5750508161197a575b505050610fe1565b611983926146c5565b388080611972565b517f675cae38000000000000000000000000000000000000000000000000000000008152fd5b90946020823d6020116119dd575b816119cc60209383613903565b810103126103245750519338611963565b3d91506119bf565b82513d6000823e3d90fd5b8103611a1d57506114239250611a16604060608460805101013593608051010135613b5d565b9035613bae565b90919060068103611b57575060805101606081013590604090611a4290820135613b5d565b9282158015611b4c575b611b24573573ffffffffffffffffffffffffffffffffffffffff169384611a885750506114239250611a816127109147613c8d565b0490614657565b8151907f70a082310000000000000000000000000000000000000000000000000000000082523090820152602081602481885afa918215611b1a5750600091611ae6575b50611adf61142394939261271092613c8d565b04916146c5565b906020823d602011611b12575b81611b0060209383613903565b81010312610324575051611adf611acc565b3d9150611af3565b513d6000823e3d90fd5b8482517fdeaa01e6000000000000000000000000000000000000000000000000000000008152fd5b506127108311611a4c565b83602491604051917fd76a1e9e000000000000000000000000000000000000000000000000000000008352820152fd5b819d969d9b989794959a999b93929314600014611e8e57505050604091611bb6838360805101013591856144a1565b92909460a082608051010135600014611e8457611bec73ffffffffffffffffffffffffffffffffffffffff600154169135613b5d565b908615611e5557611bfc85613d9d565b8760011015611e5557611c1e611c6691611c1860208901613d9d565b90613f3d565b907f00000000000000000000000000000000000000000000000000000000000000007f0000000000000000000000000000000000000000000000000000000000000000613e35565b938481611e3b575b5050507fffffffffffffffffffffffffffffffffffffffffffffffffffffffffffffffff860193868511611e0c57611cc294611cc773ffffffffffffffffffffffffffffffffffffffff9687928a85613d8d565b613d9d565b16948651947f70a082310000000000000000000000000000000000000000000000000000000091828752841693600499858b89015260249460208987818d5afa988915611e0157600099611dcc575b509160209695949391611d2893613fb6565b8751968793849283528a8301525afa928315611dc157600093611d8c575b50906060611d5a9260805101013592613dbe565b10611d66575050610fe1565b517f849eaf98000000000000000000000000000000000000000000000000000000008152fd5b90926020823d602011611db9575b81611da760209383613903565b81010312610324575051916060611d46565b3d9150611d9a565b84513d6000823e3d90fd5b90986020823d602011611df9575b81611de760209383613903565b81010312610324575051976020611d16565b3d9150611dda565b8b513d6000823e3d90fd5b7f4e487b7100000000000000000000000000000000000000000000000000000000600052601160045260246000fd5b611e4d92611e4888613d9d565b613dcb565b388084611c6e565b7f4e487b7100000000000000000000000000000000000000000000000000000000600052603260045260246000fd5b611bec3091610dcb565b91949293916009810361226f575050611ea790826144a1565b608051840160a001351561226557611ed873ffffffffffffffffffffffffffffffffffffffff600154169335613b5d565b92611ee2836139ae565b95611ef06040519788613903565b83875283901b820160208701368211610bbe5783905b82821061224d575050506000946002875110612223576040816080510101359680517fffffffffffffffffffffffffffffffffffffffffffffffffffffffffffffffff8101908111611e0c5790815b611fb057505060805101606001358611611f86578215611e55576114239585611f8192611e4885613d9d565b613fb6565b60046040517f8ab0bc16000000000000000000000000000000000000000000000000000000008152fd5b90977fffffffffffffffffffffffffffffffffffffffffffffffffffffffffffffffff89019750888811611e0c5773ffffffffffffffffffffffffffffffffffffffff6120006120769984613d79565b511661202c73ffffffffffffffffffffffffffffffffffffffff6120248c86613d79565b511682613f3d565b819a917f00000000000000000000000000000000000000000000000000000000000000007f0000000000000000000000000000000000000000000000000000000000000000613e35565b90604051907f0902f1ac00000000000000000000000000000000000000000000000000000000825260608260048173ffffffffffffffffffffffffffffffffffffffff87165afa9a8b156110e157600092839c6121da575b5073ffffffffffffffffffffffffffffffffffffffff16036121c0576dffffffffffffffffffffffffffff8091169916905b98801580156121b8575b61218e578261211891613c8d565b916103e892838102938185041490151715611e0c5761213691613dbe565b6103e590818102918183041490151715611e0c5761215391613ca0565b60018101809111611e0c57978015611e0c577fffffffffffffffffffffffffffffffffffffffffffffffffffffffffffffffff019081611f55565b60046040517f7b9c8916000000000000000000000000000000000000000000000000000000008152fd5b50811561210a565b6dffffffffffffffffffffffffffff998a16991690612100565b612213919c5073ffffffffffffffffffffffffffffffffffffffff935060603d811161221c575b61220b8183613903565b810190613f80565b509b90926120ce565b503d612201565b60046040517f20db8267000000000000000000000000000000000000000000000000000000008152fd5b6020809161225a84610be6565b815201910190611f06565b611ed83093610dcb565b92945091600a81036123d55750608051830160e081013581019460208087013594509092916122a2919087030184614456565b116111cd5773ffffffffffffffffffffffffffffffffffffffff93847f00000000000000000000000000000000000000000000000000000000000000001692856001541691843b15610bbe5760409587875198899687967f2b67b570000000000000000000000000000000000000000000000000000000008852600488015261232a90610be6565b166024860152808883608051010161234190610be6565b16604486015265ffffffffffff808360805101606001612360906139c6565b1660648701528260805101608001612377906139c6565b166084860152816080510160a00161238e90610be6565b1660a48501526080510160c0013560c484015261010060e48401526123ba916101048401918701613840565b03815a6000948591f1908115611b1a57506117945750610fe1565b600b810361259f575050506123f4604080926080510101359235613b5d565b91807f8000000000000000000000000000000000000000000000000000000000000000810361256f575050475b8061242e57505050610fe1565b73ffffffffffffffffffffffffffffffffffffffff90817f000000000000000000000000000000000000000000000000000000000000000016803b15610bbe578351927fd0e30db0000000000000000000000000000000000000000000000000000000008452600493600081868187875af1801561256457612555575b5030908616036124bd575b5050611972565b61251c9460006020948651978895869485937fa9059cbb00000000000000000000000000000000000000000000000000000000855284016020909392919373ffffffffffffffffffffffffffffffffffffffff60408201951681520152565b03925af1908115611b1a5750612536575b808080806124b6565b61254e9060203d60201161079f576107908183613903565b503861252d565b61255e9061387f565b386124ab565b86513d6000823e3d90fd5b47101561242157600482517f6a12f104000000000000000000000000000000000000000000000000000000008152fd5b600c810361272f57505050906125b59035613b5d565b9073ffffffffffffffffffffffffffffffffffffffff807f00000000000000000000000000000000000000000000000000000000000000001660408051937f70a08231000000000000000000000000000000000000000000000000000000008552600430818701526024916020878481885afa968715611dc1576000976126fb575b506080510183013586106126d45785612657575b50505050505050610fe1565b833b15610bbe57600091869183855196879485937f2e1a7d4d0000000000000000000000000000000000000000000000000000000085528401525af1908115611b1a57506126c5575b5030908316036126b5575b808080808061264b565b6126be91614657565b38806126ab565b6126ce9061387f565b386126a0565b82517f6a12f104000000000000000000000000000000000000000000000000000000008152fd5b90966020823d602011612727575b8161271660209383613903565b810103126103245750519583612637565b3d9150612709565b600d810361298a575082608051010191602083019360208260805101850312610bbe573567ffffffffffffffff8111610bbe57849160805101019182011215610bbe57602081013590612781826139ae565b9360409361279185519687613903565b838652602086019285849560071b820101928311610bbe578501925b828410612928575050505073ffffffffffffffffffffffffffffffffffffffff90816001541684519060005b8281106128bc57505050817f00000000000000000000000000000000000000000000000000000000000000001691823b15610bbe5783517f0d58b1db000000000000000000000000000000000000000000000000000000008152602060048201529451602486018190528592604484019290916000915b81831061287857505050509181600081819503925af1908115611b1a57506117945750610fe1565b91938395506080602091846060600195975182815116845282868201511686850152828d820151168d85015201511660608201520195019301909187949392612850565b81856128c8838a613d79565b515116036128ff577fffffffffffffffffffffffffffffffffffffffffffffffffffffffffffffffff8114611e0c576001016127d9565b600486517fe7002877000000000000000000000000000000000000000000000000000000008152fd5b608060208584030112610bbe576020608091875161294581613893565b61294e87610be6565b815261295b838801610be6565b8382015261296a898801610be6565b8982015261297a60608801610be6565b60608201528152019301926127ad565b9294505050600e8103612a8c57506040918251907f70a0823100000000000000000000000000000000000000000000000000000000825260208260248173ffffffffffffffffffffffffffffffffffffffff806004983516888301528886608051010135165afa918215611dc157600092612a57575b5060805101606001351180159290612a19575050610fe1565b517fa3281672000000000000000000000000000000000000000000000000000000006020820152908152909150612a4f816138cb565b9038806118e0565b90916020823d602011612a84575b81612a7260209383613903565b81010312610324575051906060612a00565b3d9150612a65565b602490604051907fd76a1e9e0000000000000000000000000000000000000000000000000000000082526004820152fd5b9150915060189b95939897999692949b80831060001461304c57508103612b33575050506000925090612af1839282614484565b81604051928392833781018481520391357f00000000000000000000000000000000000000000000000000000000000000005af1612b2d61397e565b90610fe1565b60118103612b8a575050506000925090612b4e839282614484565b81604051928392833781018481520391357f00000000000000000000000000000000000000000000000000000000000000005af1612b2d61397e565b60128103612be1575050506000925090612ba5839282614484565b81604051928392833781018481520391357f00000000000000000000000000000000000000000000000000000000000000005af1612b2d61397e565b919392509060138103612d47575050909150357f0000000000000000000000000000000000000000000000000000000000000000916040600080825160208101907f8264fe98000000000000000000000000000000000000000000000000000000008252602487818301528152612c57816138e7565b5190606086608051010135885af192612c6e61397e565b948415612d0d578273ffffffffffffffffffffffffffffffffffffffff612c9c921694608051010135613b5d565b90833b15610bbe5782517f8b72a2ec00000000000000000000000000000000000000000000000000000000815273ffffffffffffffffffffffffffffffffffffffff9290921660048301526024820152916000908390604490829084905af1908115611b1a57506117945750610fe1565b505091925050517fae9bdf0000000000000000000000000000000000000000000000000000000000602082015260048152612b2d816138cb565b60158103612e5857505090604091828051917f6352211e0000000000000000000000000000000000000000000000000000000083526020836024816004976060816080510101358983015273ffffffffffffffffffffffffffffffffffffffff968791608051010135165afa928315612e4d57600093612e0e575b5081903516911614918215612dd8575050610fe1565b517f7dbe7e89000000000000000000000000000000000000000000000000000000006020820152908152909150612a4f816138cb565b6020939193813d602011612e45575b81612e2a60209383613903565b810103126105b4575190828216820361032457509181612dc2565b3d9150612e1d565b85513d6000823e3d90fd5b60168103612f7f5750506040918251907efdd58e00000000000000000000000000000000000000000000000000000000825260208280612eca60049660608660805101013590358884016020909392919373ffffffffffffffffffffffffffffffffffffffff60408201951681520152565b038173ffffffffffffffffffffffffffffffffffffffff8886608051010135165afa918215611dc157600092612f4a575b5060809081510101351191821592612f14575050610fe1565b517f483a6929000000000000000000000000000000000000000000000000000000006020820152908152909150612a4f816138cb565b90916020823d602011612f77575b81612f6560209383613903565b81010312610324575051906080612efb565b3d9150612f58565b909290601714612f90575050610fe1565b60409073ffffffffffffffffffffffffffffffffffffffff612fb88383608051010135613b5d565b93351692833b15610bbe5782517f42842e0e00000000000000000000000000000000000000000000000000000000815260805130600483015273ffffffffffffffffffffffffffffffffffffffff909216602482015291016060013560448201529160009083908183816064810103925af1908115611b1a575061303d575b806118e0565b6130469061387f565b38613037565b939693821415905061308757505050612b2d92507f000000000000000000000000000000000000000000000000000000000000000091613a20565b601981036130de5750505060009250906130a2839282614484565b81604051928392833781018481520391357f00000000000000000000000000000000000000000000000000000000000000005af1612b2d61397e565b601a81036131355750505060009250906130f9839282614484565b81604051928392833781018481520391357f00000000000000000000000000000000000000000000000000000000000000005af1612b2d61397e565b601b810361325c57505050600061314d819284614484565b9390604094818651928392833781018481520391357f00000000000000000000000000000000000000000000000000000000000000005af191829161319061397e565b9261319e575b505090610fe1565b73ffffffffffffffffffffffffffffffffffffffff6080838151010135166131cd606084608051010135613b5d565b908251906131da826138af565b60008252803b15610bbe5761323694600080948651978895869485937ff242432a00000000000000000000000000000000000000000000000000000000855260a060c08360805101013592608051010135903060048701613b18565b03925af1908115611b1a575061324d575b80613196565b6132569061387f565b38613247565b91949091601c810361329757505050612b2d92507f000000000000000000000000000000000000000000000000000000000000000091613a20565b9193929091601d81036134205750506060816080510101359060409173ffffffffffffffffffffffffffffffffffffffff6132d88484608051010135613b5d565b9435168351947efdd58e0000000000000000000000000000000000000000000000000000000086526004936020878061333787308a84016020909392919373ffffffffffffffffffffffffffffffffffffffff60408201951681520152565b0381865afa968715612564576000976133eb575b50608090815101013586106133c3578451613365816138af565b60008152823b15610bbe576000946133ad86928851998a97889687957ff242432a00000000000000000000000000000000000000000000000000000000875230908701613b18565b03925af1908115611b1a57506117945750610fe1565b8385517f675cae38000000000000000000000000000000000000000000000000000000008152fd5b90966020823d602011613418575b8161340660209383613903565b8101031261032457505195608061334b565b3d91506133f9565b929450925050601e8103612a8c57508161343e600093928493614484565b81604051928392833781018481520391357f00000000000000000000000000000000000000000000000000000000000000005af1612b2d61397e565b9499989a92506020819d9792969d989498146000146134e357505050505050806134a76000938493614484565b81604051928392833781018481520391357f00000000000000000000000000000000000000000000000000000000000000005af1612b2d61397e565b60219080820361365a575050505090916135086135008686614463565b969095614484565b929061354a60409788519760208901997f24856bc3000000000000000000000000000000000000000000000000000000008b5260248a01526064890191613840565b7fffffffffffffffffffffffffffffffffffffffffffffffffffffffffffffffdc878203016044880152818152602082818301951b82010195856000915b8483106135dc57505050505050505091816135ce600094938594037fffffffffffffffffffffffffffffffffffffffffffffffffffffffffffffffe08101835282613903565b519082305af1612b2d61397e565b90919293949596977fffffffffffffffffffffffffffffffffffffffffffffffffffffffffffffffe085820301885288358284360301811215610bbe578301906020823592019167ffffffffffffffff8111610bbe578036038313610bbe5761364a60209283928b95613840565b9a01980196959493019190613588565b92975092959350935060228114600014612a8c5750604080936080510101359060009060028310156137ea575050808491156000146137925750506000907f0000000000000000000000000000000000000000000000000000000000000000925b6020838251937f095ea7b3000000000000000000000000000000000000000000000000000000008552600496878601526024947fffffffffffffffffffffffffffffffffffffffffffffffffffffffffffffffff868201526044968792355af13d15601f3d118760005114161716156137375750505050610fe1565b91600e7f415050524f56455f4641494c45440000000000000000000000000000000000009260206064969551957f08c379a0000000000000000000000000000000000000000000000000000000008752860152840152820152fd5b036137c1576000907f0000000000000000000000000000000000000000000000000000000000000000926136bb565b600482517f5461585f000000000000000000000000000000000000000000000000000000008152fd5b602492507f4e487b71000000000000000000000000000000000000000000000000000000008252600452fd5b60046040517fff633a38000000000000000000000000000000000000000000000000000000008152fd5b601f82602094937fffffffffffffffffffffffffffffffffffffffffffffffffffffffffffffffe0938186528686013760008582860101520116010190565b67ffffffffffffffff81116110ed57604052565b6080810190811067ffffffffffffffff8211176110ed57604052565b6020810190811067ffffffffffffffff8211176110ed57604052565b6040810190811067ffffffffffffffff8211176110ed57604052565b6060810190811067ffffffffffffffff8211176110ed57604052565b90601f7fffffffffffffffffffffffffffffffffffffffffffffffffffffffffffffffe0910116810190811067ffffffffffffffff8211176110ed57604052565b67ffffffffffffffff81116110ed57601f017fffffffffffffffffffffffffffffffffffffffffffffffffffffffffffffffe01660200190565b3d156139a9573d9061398f82613944565b9161399d6040519384613903565b82523d6000602084013e565b606090565b67ffffffffffffffff81116110ed5760051b60200190565b359065ffffffffffff82168203610bbe57565b81601f82011215610bbe578035906139f082613944565b926139fe6040519485613903565b82845260208383010111610bbe57816000926020809301838601378301015290565b919290613a2d9083614484565b90938460405195869384378201906000958693838580955203918635905af192613a5561397e565b9284613a5f575050565b73ffffffffffffffffffffffffffffffffffffffff606082013516613a876040830135613b5d565b91813b15610817576040517f42842e0e00000000000000000000000000000000000000000000000000000000815230600482015273ffffffffffffffffffffffffffffffffffffffff93909316602484015260800135604483015290919081908390606490829084905af1908115613b0c5750613b015750565b613b0a9061387f565b565b604051903d90823e3d90fd5b9192613b5a95949160a09473ffffffffffffffffffffffffffffffffffffffff8092168552166020840152604083015260608201528160808201520190610c66565b90565b73ffffffffffffffffffffffffffffffffffffffff9080821660018103613b875750506001541690565b909150600203613b5a57503090565b90816020910312610bbe57518015158103610bbe5790565b9092919073ffffffffffffffffffffffffffffffffffffffff1680613bd85750613b0a9192614657565b7f80000000000000000000000000000000000000000000000000000000000000008214613c0b575b92613b0a92936146c5565b9050604051927f70a08231000000000000000000000000000000000000000000000000000000008452306004850152602084602481855afa9384156110e157600094613c5a575b509290613c00565b6020813d8211613c85575b81613c7260209383613903565b8101031261095357519350613b0a613c52565b3d9150613c65565b81810292918115918404141715611e0c57565b8115613caa570490565b7f4e487b7100000000000000000000000000000000000000000000000000000000600052601260045260246000fd5b919273ffffffffffffffffffffffffffffffffffffffff91827f00000000000000000000000000000000000000000000000000000000000000001693843b15610bbe5760009484869281608496816040519b8c9a8b997f36c78516000000000000000000000000000000000000000000000000000000008b521660048a01521660248801521660448601521660648401525af180156110e157613b015750565b8051821015611e555760209160051b010190565b9190811015611e555760051b0190565b3573ffffffffffffffffffffffffffffffffffffffff81168103610bbe5790565b91908203918211611e0c57565b92919073ffffffffffffffffffffffffffffffffffffffff8082163003613df7575050613b0a92613bae565b8084959411613e0b57613b0a941692613cd9565b60046040517fc4bd89a9000000000000000000000000000000000000000000000000000000008152fd5b9173ffffffffffffffffffffffffffffffffffffffff93613f36916040519060208201927fffffffffffffffffffffffffffffffffffffffff000000000000000000000000809260601b16845260601b16603482015260288152613e98816138e7565b519020613f0a604051938492602084019687917fffffffffffffffffffffffffffffffffffffffff000000000000000000000000605594927fff00000000000000000000000000000000000000000000000000000000000000855260601b166001840152601583015260358201520190565b037fffffffffffffffffffffffffffffffffffffffffffffffffffffffffffffffe08101835282613903565b5190201690565b73ffffffffffffffffffffffffffffffffffffffff8281169082161015613f615791565b9091565b51906dffffffffffffffffffffffffffff82168203610bbe57565b90816060910312610bbe57613f9481613f65565b916040613fa360208401613f65565b92015163ffffffff81168103610bbe5790565b926002821061442c578115611e5557613fce84613d9d565b9160019481861015611e555791613fec602094611c18868601613d9d565b50926000935b7fffffffffffffffffffffffffffffffffffffffffffffffffffffffffffffffff84018510614025575050505050505050565b614033611cc2868685613d8d565b92614044611cc28a88018786613d8d565b936040908151957f0902f1ac00000000000000000000000000000000000000000000000000000000875273ffffffffffffffffffffffffffffffffffffffff80941694606092600493808a86818b5afa998a1561256457908d9594939291600091829c614406575b50508780916dffffffffffffffffffffffffffff8091169c16921692168214998a600014614400575b8651958680947f70a082310000000000000000000000000000000000000000000000000000000082528b8883015260249889915afa9283156143f5578e6000946143c4575b5050808303918115938480156143bc575b61439457826103e580860295860414911417156143675761414c9083613c8d565b926103e880830292830414171561433a57614171929161416b91614456565b90613ca0565b971561433257600097905b898b7ffffffffffffffffffffffffffffffffffffffffffffffffffffffffffffffffe82018110156143265791611c18611cc26141c293600261420c9c9601908d613d8d565b8198917f00000000000000000000000000000000000000000000000000000000000000007f0000000000000000000000000000000000000000000000000000000000000000613e35565b965b988551918d83019367ffffffffffffffff94848110868211176142f957885260008452813b15610bbe5760008a9361428c82968b519c8d97889687957f022c0d9f0000000000000000000000000000000000000000000000000000000087528d8701528d860152166044840152608060648401526084830190610c66565b03925af18015611dc157908d9695949392916142b1575b505050505094019391613ff2565b9091929380959650116142cd57505052879038808080806142a3565b6041907f4e487b7100000000000000000000000000000000000000000000000000000000600052526000fd5b876041887f4e487b7100000000000000000000000000000000000000000000000000000000600052526000fd5b5050508b95600061420e565b60009061417c565b856011867f4e487b7100000000000000000000000000000000000000000000000000000000600052526000fd5b866011877f4e487b7100000000000000000000000000000000000000000000000000000000600052526000fd5b8689517f7b9c8916000000000000000000000000000000000000000000000000000000008152fd5b50811561412b565b8181959293953d83116143ee575b6143dc8183613903565b8101031261032457505191388e61411a565b503d6143d2565b87513d6000823e3d90fd5b906140d5565b899c50899250908161442392903d1061221c5761220b8183613903565b509b90916140ac565b60046040517fae52ad0c000000000000000000000000000000000000000000000000000000008152fd5b91908201809211611e0c57565b91823583019161447d602084359581860195030185614456565b116111cd57565b91602083013583019161447d602084359581860195030185614456565b91606083013583019161447d602084359581860195030185614456565b7f80000000000000000000000000000000000000000000000000000000000000008114611e0c5760000390565b73ffffffffffffffffffffffffffffffffffffffff928383168483161161464f575b62ffffff90846040519481602087019516855216604085015216606083015260608252608082019082821067ffffffffffffffff8311176110ed577fffffffffffffffffffffffffffffffffffffffffffffffffffffffffffffff80613f369183604052845190209361462260a08201957f0000000000000000000000000000000000000000000000000000000000000000907f000000000000000000000000000000000000000000000000000000000000000088917fffffffffffffffffffffffffffffffffffffffff000000000000000000000000605594927fff00000000000000000000000000000000000000000000000000000000000000855260601b166001840152601583015260358201520190565b037fffffffffffffffffffffffffffffffffffffffffffffffffffffffffffffff60810184520182613903565b90919061450d565b600080809381935af11561466757565b60646040517f08c379a000000000000000000000000000000000000000000000000000000000815260206004820152601360248201527f4554485f5452414e534645525f4641494c4544000000000000000000000000006044820152fd5b60009182604492602095604051937fa9059cbb000000000000000000000000000000000000000000000000000000008552600485015260248401525af13d15601f3d116001600051141617161561471857565b60646040517f08c379a000000000000000000000000000000000000000000000000000000000815260206004820152600f60248201527f5452414e534645525f4641494c454400000000000000000000000000000000006044820152fdfea164736f6c6343000811000a","opcodes":"CALLVALUE PUSH3 0x3ED JUMPI PUSH1 0x1 PUSH1 0x1 PUSH1 0x40 SHL SUB PUSH3 0x4B8B CODESIZE DUP2 SWAP1 SUB PUSH2 0x300 PUSH1 0x1F DUP3 ADD PUSH1 0x1F NOT AND DUP2 ADD SWAP1 DUP5 DUP3 GT SWAP1 DUP3 LT OR PUSH3 0x3D7 JUMPI PUSH2 0x280 SWAP3 DUP3 SWAP2 PUSH1 0x40 MSTORE PUSH2 0x300 CODECOPY SLT PUSH3 0x3ED JUMPI PUSH1 0x40 MLOAD PUSH2 0x280 DUP2 ADD SWAP2 DUP3 GT DUP2 DUP4 LT OR PUSH3 0x3D7 JUMPI PUSH2 0x260 SWAP2 PUSH1 0x40 MSTORE PUSH3 0x6A PUSH2 0x300 PUSH3 0x3F2 JUMP JUMPDEST DUP1 DUP3 MSTORE PUSH3 0x7A PUSH2 0x320 PUSH3 0x3F2 JUMP JUMPDEST PUSH1 0x20 DUP4 ADD MSTORE PUSH3 0x8C PUSH2 0x340 PUSH3 0x3F2 JUMP JUMPDEST PUSH1 0x40 DUP4 ADD MSTORE PUSH3 0x9E PUSH2 0x360 PUSH3 0x3F2 JUMP JUMPDEST PUSH1 0x60 DUP4 ADD MSTORE PUSH3 0xB0 PUSH2 0x380 PUSH3 0x3F2 JUMP JUMPDEST PUSH1 0x80 DUP4 ADD MSTORE PUSH3 0xC2 PUSH2 0x3A0 PUSH3 0x3F2 JUMP JUMPDEST PUSH1 0xA0 DUP4 ADD MSTORE PUSH3 0xD4 PUSH2 0x3C0 PUSH3 0x3F2 JUMP JUMPDEST PUSH1 0xC0 DUP4 ADD MSTORE PUSH3 0xE6 PUSH2 0x3E0 PUSH3 0x3F2 JUMP JUMPDEST PUSH1 0xE0 DUP4 ADD MSTORE PUSH3 0xF8 PUSH2 0x400 PUSH3 0x3F2 JUMP JUMPDEST PUSH2 0x100 DUP4 ADD MSTORE PUSH3 0x10B PUSH2 0x420 PUSH3 0x3F2 JUMP JUMPDEST PUSH2 0x120 DUP4 ADD MSTORE PUSH3 0x11E PUSH2 0x440 PUSH3 0x3F2 JUMP JUMPDEST PUSH2 0x140 DUP4 ADD MSTORE PUSH3 0x131 PUSH2 0x460 PUSH3 0x3F2 JUMP JUMPDEST PUSH2 0x160 DUP4 ADD MSTORE PUSH3 0x144 PUSH2 0x480 PUSH3 0x3F2 JUMP JUMPDEST PUSH2 0x180 DUP4 ADD MSTORE PUSH3 0x157 PUSH2 0x4A0 PUSH3 0x3F2 JUMP JUMPDEST PUSH2 0x1A0 DUP4 ADD MSTORE PUSH3 0x16A PUSH2 0x4C0 PUSH3 0x3F2 JUMP JUMPDEST PUSH2 0x1C0 DUP4 ADD MSTORE PUSH3 0x17D PUSH2 0x4E0 PUSH3 0x3F2 JUMP JUMPDEST PUSH2 0x1E0 DUP4 ADD MSTORE PUSH3 0x190 PUSH2 0x500 PUSH3 0x3F2 JUMP JUMPDEST PUSH2 0x200 DUP4 ADD MSTORE PUSH3 0x1A3 PUSH2 0x520 PUSH3 0x3F2 JUMP JUMPDEST PUSH2 0x220 DUP4 DUP2 ADD SWAP2 DUP3 MSTORE PUSH2 0x540 MLOAD PUSH2 0x240 DUP1 DUP7 ADD SWAP2 DUP3 MSTORE PUSH2 0x300 DUP8 ADD MLOAD DUP8 DUP8 ADD SWAP1 DUP2 MSTORE PUSH1 0x1 PUSH1 0x1 PUSH1 0xA0 SHL SUB SWAP6 DUP7 AND PUSH1 0xA0 SWAP1 DUP2 MSTORE PUSH1 0x20 DUP9 ADD MLOAD DUP8 AND PUSH1 0x80 SWAP1 DUP2 MSTORE PUSH1 0x40 DUP1 DUP11 ADD MLOAD DUP10 AND PUSH1 0xC0 SWAP1 DUP2 MSTORE PUSH1 0x60 DUP12 ADD MLOAD DUP11 AND PUSH1 0xE0 SWAP1 DUP2 MSTORE SWAP3 DUP12 ADD MLOAD DUP11 AND PUSH2 0x100 SWAP1 DUP2 MSTORE SWAP4 DUP12 ADD MLOAD DUP11 AND PUSH2 0x120 SWAP1 DUP2 MSTORE SWAP1 DUP12 ADD MLOAD DUP11 AND PUSH2 0x140 SWAP1 DUP2 MSTORE SWAP3 DUP12 ADD MLOAD DUP11 AND PUSH2 0x160 SWAP1 DUP2 MSTORE SWAP4 DUP12 ADD MLOAD DUP11 AND PUSH2 0x180 SWAP1 DUP2 MSTORE SWAP1 DUP12 ADD MLOAD DUP11 AND PUSH2 0x1A0 SWAP1 DUP2 MSTORE SWAP3 DUP12 ADD MLOAD DUP11 AND PUSH2 0x1C0 SWAP1 DUP2 MSTORE SWAP4 DUP12 ADD MLOAD DUP11 AND PUSH2 0x1E0 SWAP1 DUP2 MSTORE SWAP1 DUP12 ADD MLOAD DUP11 AND PUSH2 0x200 SWAP1 DUP2 MSTORE SWAP1 DUP12 ADD MLOAD DUP11 AND SWAP1 SWAP8 MSTORE SWAP2 DUP10 ADD MLOAD DUP9 AND SWAP1 SWAP4 MSTORE SWAP2 DUP8 ADD MLOAD DUP7 AND SWAP1 SWAP8 MSTORE SWAP2 SWAP1 SWAP5 ADD MLOAD DUP4 AND PUSH2 0x280 MSTORE SWAP3 MLOAD PUSH2 0x2A0 MSTORE MLOAD AND PUSH2 0x2C0 MSTORE SWAP1 MLOAD PUSH2 0x2E0 MSTORE PUSH1 0x0 NOT PUSH1 0x0 SSTORE PUSH1 0x1 DUP1 SLOAD PUSH1 0x1 PUSH1 0x1 PUSH1 0xA0 SHL SUB NOT AND DUP2 OR SWAP1 SSTORE MLOAD PUSH2 0x4783 PUSH3 0x408 DUP3 CODECOPY PUSH1 0x80 MLOAD DUP2 DUP2 DUP2 PUSH2 0x2447 ADD MSTORE PUSH2 0x25CE ADD MSTORE PUSH1 0xA0 MLOAD DUP2 DUP2 DUP2 PUSH2 0x1661 ADD MSTORE DUP2 DUP2 PUSH2 0x1761 ADD MSTORE DUP2 DUP2 PUSH2 0x22C0 ADD MSTORE DUP2 DUP2 PUSH2 0x27E6 ADD MSTORE PUSH2 0x3CF4 ADD MSTORE PUSH1 0xC0 MLOAD DUP2 PUSH2 0x2B04 ADD MSTORE PUSH1 0xE0 MLOAD DUP2 PUSH2 0x34BA ADD MSTORE PUSH2 0x100 MLOAD DUP2 PUSH2 0x369A ADD MSTORE PUSH2 0x120 MLOAD DUP2 PUSH2 0x2BB8 ADD MSTORE PUSH2 0x140 MLOAD DUP2 DUP2 DUP2 PUSH2 0x3062 ADD MSTORE PUSH2 0x3164 ADD MSTORE PUSH2 0x160 MLOAD DUP2 PUSH2 0x3272 ADD MSTORE PUSH2 0x180 MLOAD DUP2 DUP2 DUP2 PUSH2 0x30B5 ADD MSTORE PUSH2 0x379C ADD MSTORE PUSH2 0x1A0 MLOAD DUP2 PUSH2 0x3451 ADD MSTORE PUSH2 0x1C0 MLOAD DUP2 PUSH2 0x310C ADD MSTORE PUSH2 0x1E0 MLOAD DUP2 PUSH2 0x2BF6 ADD MSTORE PUSH2 0x200 MLOAD DUP2 PUSH2 0x2B61 ADD MSTORE PUSH2 0x220 MLOAD DUP2 PUSH2 0x67A ADD MSTORE PUSH2 0x240 MLOAD DUP2 PUSH2 0x61E ADD MSTORE PUSH2 0x260 MLOAD DUP2 PUSH2 0x702 ADD MSTORE PUSH2 0x280 MLOAD DUP2 DUP2 DUP2 PUSH2 0x1C42 ADD MSTORE DUP2 DUP2 PUSH2 0x2052 ADD MSTORE PUSH2 0x41E8 ADD MSTORE PUSH2 0x2A0 MLOAD DUP2 DUP2 DUP2 PUSH2 0x1C21 ADD MSTORE DUP2 DUP2 PUSH2 0x2031 ADD MSTORE PUSH2 0x41C7 ADD MSTORE PUSH2 0x2C0 MLOAD DUP2 PUSH2 0x45A2 ADD MSTORE PUSH2 0x2E0 MLOAD DUP2 PUSH2 0x4580 ADD MSTORE PUSH2 0x4783 SWAP1 RETURN JUMPDEST PUSH4 0x4E487B71 PUSH1 0xE0 SHL PUSH1 0x0 MSTORE PUSH1 0x41 PUSH1 0x4 MSTORE PUSH1 0x24 PUSH1 0x0 REVERT JUMPDEST PUSH1 0x0 DUP1 REVERT JUMPDEST MLOAD SWAP1 PUSH1 0x1 PUSH1 0x1 PUSH1 0xA0 SHL SUB DUP3 AND DUP3 SUB PUSH3 0x3ED JUMPI JUMP INVALID PUSH1 0xA0 PUSH1 0x40 DUP2 DUP2 MSTORE PUSH1 0x4 DUP1 CALLDATASIZE LT ISZERO PUSH2 0x21 JUMPI JUMPDEST POP POP POP CALLDATASIZE ISZERO PUSH2 0x1F JUMPI PUSH1 0x0 DUP1 REVERT JUMPDEST STOP JUMPDEST PUSH1 0x0 SWAP3 DUP4 CALLDATALOAD PUSH1 0xE0 SHR SWAP1 DUP2 PUSH4 0x1FFC9A7 EQ PUSH2 0xAAD JUMPI POP DUP1 PUSH4 0x150B7A02 EQ PUSH2 0xA1F JUMPI DUP1 PUSH4 0x24856BC3 EQ PUSH2 0x957 JUMPI DUP1 PUSH4 0x3593564C EQ PUSH2 0x81B JUMPI DUP1 PUSH4 0x709A1CC2 EQ PUSH2 0x5B8 JUMPI DUP1 PUSH4 0xBC197C81 EQ PUSH2 0x4F3 JUMPI DUP1 PUSH4 0xF23A6E61 EQ PUSH2 0x465 JUMPI PUSH4 0xFA461E33 SUB PUSH2 0x11 JUMPI CALLVALUE PUSH2 0x461 JUMPI PUSH1 0x60 PUSH32 0xFFFFFFFFFFFFFFFFFFFFFFFFFFFFFFFFFFFFFFFFFFFFFFFFFFFFFFFFFFFFFFFC CALLDATASIZE ADD SLT PUSH2 0x461 JUMPI DUP1 CALLDATALOAD SWAP1 PUSH1 0x24 CALLDATALOAD PUSH1 0x44 CALLDATALOAD SWAP2 PUSH8 0xFFFFFFFFFFFFFFFF SWAP3 DUP4 DUP2 GT PUSH2 0x45D JUMPI PUSH2 0xD9 SWAP1 CALLDATASIZE SWAP1 DUP4 ADD PUSH2 0xC07 JUMP JUMPDEST SWAP2 SWAP1 SWAP3 DUP8 DUP7 SGT SWAP5 DUP6 ISZERO DUP1 PUSH2 0x453 JUMPI JUMPDEST PUSH2 0x42B JUMPI DUP4 DUP6 ADD DUP9 DUP7 DUP3 SUB SLT PUSH2 0x427 JUMPI DUP6 CALLDATALOAD SWAP2 DUP3 GT PUSH2 0x427 JUMPI PUSH2 0x10C SWAP2 DUP7 ADD PUSH2 0x39D9 JUMP JUMPDEST POP PUSH1 0x20 DUP5 ADD CALLDATALOAD SWAP4 PUSH20 0xFFFFFFFFFFFFFFFFFFFFFFFFFFFFFFFFFFFFFFFF SWAP4 DUP5 DUP7 AND DUP1 SWAP7 SUB PUSH2 0x427 JUMPI PUSH2 0x13C SWAP2 PUSH2 0x4463 JUMP JUMPDEST SWAP3 SWAP1 SWAP4 PUSH1 0x2B DUP6 LT PUSH2 0x3FF JUMPI DUP4 CALLDATALOAD SWAP7 DUP8 PUSH1 0x60 SHR SWAP8 PUSH1 0x17 DUP7 ADD SWAP7 DUP8 CALLDATALOAD SWAP6 DUP7 PUSH1 0x60 SHR SWAP4 PUSH2 0x171 DUP13 DUP7 PUSH3 0xFFFFFF DUP1 SWAP8 PUSH1 0x48 SHR AND SWAP2 PUSH2 0x44EB JUMP JUMPDEST DUP7 CALLER SWAP2 AND SUB PUSH2 0x3D7 JUMPI ISZERO PUSH2 0x3CD JUMPI POP DUP3 DUP11 LT JUMPDEST ISZERO PUSH2 0x1A0 JUMPI POP POP POP POP POP POP POP POP PUSH2 0x19D SWAP4 POP CALLER SWAP2 PUSH2 0x3DCB JUMP JUMPDEST DUP1 RETURN JUMPDEST SWAP1 SWAP2 SWAP3 SWAP4 SWAP6 SWAP9 POP PUSH1 0x42 DUP2 SWAP11 SWAP6 SWAP8 SWAP11 LT ISZERO PUSH1 0x0 EQ PUSH2 0x384 JUMPI DUP1 PUSH1 0x17 GT PUSH2 0x380 JUMPI PUSH32 0xFFFFFFFFFFFFFFFFFFFFFFFFFFFFFFFFFFFFFFFFFFFFFFFFFFFFFFFFFFFFFFE9 ADD SWAP4 PUSH32 0x8000000000000000000000000000000000000000000000000000000000000000 DUP2 LT ISZERO PUSH2 0x380 JUMPI PUSH2 0x213 SWAP1 PUSH2 0x44BE JUMP JUMPDEST SWAP8 PUSH1 0x2B DUP6 LT PUSH2 0x358 JUMPI SWAP3 PUSH2 0x2A1 DUP12 DUP3 PUSH2 0x249 DUP16 SWAP9 SWAP6 SWAP7 PUSH2 0x2F3 SWAP8 PUSH1 0x2E DUP6 SWAP16 SWAP15 SWAP14 SWAP13 SWAP11 ADD CALLDATALOAD PUSH1 0x60 SHR SWAP1 DUP3 DUP3 LT SWAP13 PUSH1 0x48 SHR AND SWAP2 PUSH2 0x44EB JUMP JUMPDEST AND SWAP9 DUP9 ISZERO PUSH2 0x33A JUMPI PUSH2 0x270 PUSH5 0x1000276A4 SWAP14 JUMPDEST DUP4 MLOAD SWAP7 DUP8 SWAP5 PUSH1 0x20 DUP7 ADD MSTORE PUSH1 0x60 DUP6 ADD SWAP2 PUSH2 0x3840 JUMP JUMPDEST SWAP1 DUP13 DUP4 ADD MSTORE SUB PUSH32 0xFFFFFFFFFFFFFFFFFFFFFFFFFFFFFFFFFFFFFFFFFFFFFFFFFFFFFFFFFFFFFFE0 DUP2 ADD DUP5 MSTORE DUP4 PUSH2 0x3903 JUMP JUMPDEST DUP9 MLOAD SWAP10 DUP11 SWAP9 DUP10 SWAP8 DUP9 SWAP7 PUSH32 0x128ACB0800000000000000000000000000000000000000000000000000000000 DUP9 MSTORE CALLER SWAP1 DUP9 ADD MSTORE PUSH1 0x24 DUP8 ADD MSTORE PUSH1 0x44 DUP7 ADD MSTORE AND PUSH1 0x64 DUP5 ADD MSTORE PUSH1 0xA0 PUSH1 0x84 DUP5 ADD MSTORE PUSH1 0xA4 DUP4 ADD SWAP1 PUSH2 0xC66 JUMP JUMPDEST SUB SWAP3 GAS CALL DUP1 ISZERO PUSH2 0x32E JUMPI PUSH2 0x306 JUMPI POP POP DUP1 RETURN JUMPDEST DUP2 RETURNDATASIZE DUP4 GT PUSH2 0x327 JUMPI JUMPDEST PUSH2 0x319 DUP2 DUP4 PUSH2 0x3903 JUMP JUMPDEST DUP2 ADD SUB SLT PUSH2 0x324 JUMPI DUP1 RETURN JUMPDEST DUP1 REVERT JUMPDEST POP RETURNDATASIZE PUSH2 0x30F JUMP JUMPDEST POP POP MLOAD SWAP1 RETURNDATASIZE SWAP1 DUP3 RETURNDATACOPY RETURNDATASIZE SWAP1 REVERT JUMPDEST PUSH2 0x270 PUSH20 0xFFFD8963EFD1FC6A506488495D951D5263988D25 SWAP14 PUSH2 0x25C JUMP JUMPDEST DUP6 DUP12 MLOAD PUSH32 0x3B99B53D00000000000000000000000000000000000000000000000000000000 DUP2 MSTORE REVERT JUMPDEST DUP12 DUP1 REVERT JUMPDEST POP POP SWAP6 POP POP SWAP5 POP SWAP6 DUP1 SWAP6 SWAP2 POP SLOAD DUP5 GT PUSH2 0x3A5 JUMPI POP PUSH2 0x19D SWAP4 SWAP5 POP CALLER SWAP2 PUSH2 0x3DCB JUMP JUMPDEST DUP6 SWAP1 MLOAD PUSH32 0x739DBE5200000000000000000000000000000000000000000000000000000000 DUP2 MSTORE REVERT JUMPDEST SWAP11 POP DUP10 DUP4 LT PUSH2 0x184 JUMP JUMPDEST DUP7 DUP15 MLOAD PUSH32 0x32B13D9100000000000000000000000000000000000000000000000000000000 DUP2 MSTORE REVERT JUMPDEST POP DUP8 MLOAD PUSH32 0x3B99B53D00000000000000000000000000000000000000000000000000000000 DUP2 MSTORE REVERT JUMPDEST DUP10 DUP1 REVERT JUMPDEST DUP3 DUP9 MLOAD PUSH32 0x316CF0EB00000000000000000000000000000000000000000000000000000000 DUP2 MSTORE REVERT JUMPDEST POP DUP9 DUP3 SGT ISZERO PUSH2 0xE8 JUMP JUMPDEST DUP7 DUP1 REVERT JUMPDEST DUP3 DUP1 REVERT JUMPDEST POP SWAP2 CALLVALUE PUSH2 0x324 JUMPI PUSH1 0xA0 PUSH32 0xFFFFFFFFFFFFFFFFFFFFFFFFFFFFFFFFFFFFFFFFFFFFFFFFFFFFFFFFFFFFFFFC CALLDATASIZE ADD SLT PUSH2 0x324 JUMPI PUSH2 0x49E PUSH2 0xB9B JUMP JUMPDEST POP PUSH2 0x4A7 PUSH2 0xBC3 JUMP JUMPDEST POP PUSH1 0x84 CALLDATALOAD SWAP1 PUSH8 0xFFFFFFFFFFFFFFFF DUP3 GT PUSH2 0x324 JUMPI POP PUSH1 0x20 SWAP3 PUSH2 0x4CB SWAP2 CALLDATASIZE SWAP2 ADD PUSH2 0xC07 JUMP JUMPDEST POP POP MLOAD PUSH32 0xF23A6E6100000000000000000000000000000000000000000000000000000000 DUP2 MSTORE RETURN JUMPDEST POP SWAP2 CALLVALUE PUSH2 0x324 JUMPI PUSH1 0xA0 PUSH32 0xFFFFFFFFFFFFFFFFFFFFFFFFFFFFFFFFFFFFFFFFFFFFFFFFFFFFFFFFFFFFFFFC CALLDATASIZE ADD SLT PUSH2 0x324 JUMPI PUSH2 0x52C PUSH2 0xB9B JUMP JUMPDEST POP PUSH2 0x535 PUSH2 0xBC3 JUMP JUMPDEST POP PUSH8 0xFFFFFFFFFFFFFFFF SWAP1 PUSH1 0x44 CALLDATALOAD DUP3 DUP2 GT PUSH2 0x5B4 JUMPI PUSH2 0x557 SWAP1 CALLDATASIZE SWAP1 DUP7 ADD PUSH2 0xC35 JUMP JUMPDEST POP POP PUSH1 0x64 CALLDATALOAD DUP3 DUP2 GT PUSH2 0x5B4 JUMPI PUSH2 0x570 SWAP1 CALLDATASIZE SWAP1 DUP7 ADD PUSH2 0xC35 JUMP JUMPDEST POP POP PUSH1 0x84 CALLDATALOAD SWAP2 DUP3 GT PUSH2 0x324 JUMPI POP PUSH1 0x20 SWAP3 PUSH2 0x58C SWAP2 CALLDATASIZE SWAP2 ADD PUSH2 0xC07 JUMP JUMPDEST POP POP MLOAD PUSH32 0xBC197C8100000000000000000000000000000000000000000000000000000000 DUP2 MSTORE RETURN JUMPDEST POP DUP1 REVERT JUMPDEST POP SWAP1 CALLVALUE PUSH2 0x461 JUMPI PUSH1 0x20 SWAP1 DUP2 PUSH32 0xFFFFFFFFFFFFFFFFFFFFFFFFFFFFFFFFFFFFFFFFFFFFFFFFFFFFFFFFFFFFFFFC CALLDATASIZE ADD SLT PUSH2 0x817 JUMPI DUP4 DUP4 CALLDATALOAD PUSH8 0xFFFFFFFFFFFFFFFF DUP2 GT PUSH2 0x5B4 JUMPI PUSH2 0x60B DUP3 SWAP2 CALLDATASIZE SWAP1 DUP8 ADD PUSH2 0xC07 JUMP JUMPDEST SWAP1 DUP2 DUP6 MLOAD SWAP3 DUP4 SWAP3 DUP4 CALLDATACOPY DUP2 ADD DUP4 DUP2 MSTORE SUB SWAP1 DUP3 PUSH32 0x0 GAS CALL PUSH2 0x647 PUSH2 0x397E JUMP JUMPDEST POP ISZERO PUSH2 0x7EF JUMPI DUP1 MLOAD PUSH32 0x70A0823100000000000000000000000000000000000000000000000000000000 DUP2 MSTORE ADDRESS DUP5 DUP3 ADD MSTORE SWAP1 PUSH32 0x0 PUSH20 0xFFFFFFFFFFFFFFFFFFFFFFFFFFFFFFFFFFFFFFFF AND DUP4 DUP4 PUSH1 0x24 DUP2 DUP5 GAS STATICCALL SWAP3 DUP4 ISZERO PUSH2 0x7E5 JUMPI DUP7 SWAP4 PUSH2 0x7B0 JUMPI JUMPDEST POP DUP2 MLOAD PUSH32 0xA9059CBB00000000000000000000000000000000000000000000000000000000 DUP2 MSTORE PUSH20 0xFFFFFFFFFFFFFFFFFFFFFFFFFFFFFFFFFFFFFFFF PUSH32 0x0 AND SWAP6 DUP2 ADD SWAP6 DUP7 MSTORE PUSH1 0x20 DUP7 ADD DUP5 SWAP1 MSTORE SWAP5 DUP5 SWAP2 DUP7 SWAP2 DUP3 SWAP1 DUP10 SWAP1 DUP3 SWAP1 PUSH1 0x40 ADD JUMPDEST SUB SWAP3 GAS CALL SWAP4 DUP5 ISZERO PUSH2 0x7A6 JUMPI PUSH32 0x1E8F03F716BC104BF7D728131967A0C771E85AB54D09C1E2D6ED9E0BC4E2A16C SWAP5 PUSH2 0x779 JUMPI JUMPDEST POP MLOAD SWAP1 DUP2 MSTORE LOG1 DUP1 RETURN JUMPDEST PUSH2 0x798 SWAP1 DUP5 RETURNDATASIZE DUP7 GT PUSH2 0x79F JUMPI JUMPDEST PUSH2 0x790 DUP2 DUP4 PUSH2 0x3903 JUMP JUMPDEST DUP2 ADD SWAP1 PUSH2 0x3B96 JUMP JUMPDEST POP CODESIZE PUSH2 0x770 JUMP JUMPDEST POP RETURNDATASIZE PUSH2 0x786 JUMP JUMPDEST DUP2 MLOAD RETURNDATASIZE DUP8 DUP3 RETURNDATACOPY RETURNDATASIZE SWAP1 REVERT JUMPDEST SWAP1 SWAP3 POP DUP4 DUP2 DUP2 RETURNDATASIZE DUP4 GT PUSH2 0x7DE JUMPI JUMPDEST PUSH2 0x7C8 DUP2 DUP4 PUSH2 0x3903 JUMP JUMPDEST DUP2 ADD SUB SLT PUSH2 0x7DA JUMPI MLOAD SWAP2 PUSH2 0x73E PUSH2 0x6C5 JUMP JUMPDEST DUP6 DUP1 REVERT JUMPDEST POP RETURNDATASIZE PUSH2 0x7BE JUMP JUMPDEST DUP3 MLOAD RETURNDATASIZE DUP9 DUP3 RETURNDATACOPY RETURNDATASIZE SWAP1 REVERT JUMPDEST SWAP1 POP MLOAD PUSH32 0x7D52991900000000000000000000000000000000000000000000000000000000 DUP2 MSTORE REVERT JUMPDEST DUP4 DUP1 REVERT JUMPDEST POP SWAP1 PUSH1 0x60 PUSH32 0xFFFFFFFFFFFFFFFFFFFFFFFFFFFFFFFFFFFFFFFFFFFFFFFFFFFFFFFFFFFFFFFC CALLDATASIZE ADD SLT PUSH2 0x461 JUMPI PUSH8 0xFFFFFFFFFFFFFFFF DUP3 CALLDATALOAD DUP2 DUP2 GT PUSH2 0x953 JUMPI PUSH2 0x866 SWAP1 CALLDATASIZE SWAP1 DUP6 ADD PUSH2 0xC07 JUMP JUMPDEST SWAP2 PUSH1 0x24 CALLDATALOAD SWAP1 DUP2 GT PUSH2 0x7DA JUMPI PUSH2 0x87E SWAP1 CALLDATASIZE SWAP1 DUP7 ADD PUSH2 0xC35 JUMP JUMPDEST SWAP3 SWAP1 SWAP2 PUSH1 0x44 CALLDATALOAD TIMESTAMP GT PUSH2 0x92B JUMPI CALLER ADDRESS EQ PUSH2 0x91C JUMPI PUSH1 0x1 SWAP6 DUP7 SLOAD SWAP6 DUP8 PUSH20 0xFFFFFFFFFFFFFFFFFFFFFFFFFFFFFFFFFFFFFFFF DUP9 AND SUB PUSH2 0x8F6 JUMPI POP POP SWAP2 DUP6 SWAP5 SWAP4 SWAP2 PUSH2 0x8ED SWAP4 PUSH32 0xFFFFFFFFFFFFFFFFFFFFFFFF0000000000000000000000000000000000000000 SWAP6 DUP7 CALLER SWAP2 AND OR DUP8 SSTORE PUSH2 0xCC4 JUMP JUMPDEST DUP2 SLOAD AND OR SWAP1 SSTORE DUP1 RETURN JUMPDEST MLOAD PUSH32 0x6F5FFB7E00000000000000000000000000000000000000000000000000000000 DUP2 MSTORE REVERT JUMPDEST SWAP1 SWAP2 SWAP3 SWAP4 POP PUSH2 0x19D SWAP5 POP PUSH2 0xCC4 JUMP JUMPDEST DUP6 DUP6 MLOAD PUSH32 0x5BF6F91600000000000000000000000000000000000000000000000000000000 DUP2 MSTORE REVERT JUMPDEST DUP5 DUP1 REVERT JUMPDEST POP SWAP1 DUP1 PUSH32 0xFFFFFFFFFFFFFFFFFFFFFFFFFFFFFFFFFFFFFFFFFFFFFFFFFFFFFFFFFFFFFFFC CALLDATASIZE ADD SLT PUSH2 0x461 JUMPI PUSH8 0xFFFFFFFFFFFFFFFF DUP3 CALLDATALOAD DUP2 DUP2 GT PUSH2 0x953 JUMPI PUSH2 0x9A1 SWAP1 CALLDATASIZE SWAP1 DUP6 ADD PUSH2 0xC07 JUMP JUMPDEST SWAP2 PUSH1 0x24 CALLDATALOAD SWAP1 DUP2 GT PUSH2 0x7DA JUMPI PUSH2 0x9B9 SWAP1 CALLDATASIZE SWAP1 DUP7 ADD PUSH2 0xC35 JUMP JUMPDEST SWAP3 SWAP1 SWAP2 CALLER ADDRESS EQ PUSH2 0x91C JUMPI PUSH1 0x1 SWAP6 DUP7 SLOAD SWAP6 DUP8 PUSH20 0xFFFFFFFFFFFFFFFFFFFFFFFFFFFFFFFFFFFFFFFF DUP9 AND SUB PUSH2 0x8F6 JUMPI POP POP SWAP2 DUP6 SWAP5 SWAP4 SWAP2 PUSH2 0x8ED SWAP4 PUSH32 0xFFFFFFFFFFFFFFFFFFFFFFFF0000000000000000000000000000000000000000 SWAP6 DUP7 CALLER SWAP2 AND OR DUP8 SSTORE PUSH2 0xCC4 JUMP JUMPDEST POP SWAP2 CALLVALUE PUSH2 0x324 JUMPI PUSH1 0x80 PUSH32 0xFFFFFFFFFFFFFFFFFFFFFFFFFFFFFFFFFFFFFFFFFFFFFFFFFFFFFFFFFFFFFFFC CALLDATASIZE ADD SLT PUSH2 0x324 JUMPI PUSH2 0xA58 PUSH2 0xB9B JUMP JUMPDEST POP PUSH2 0xA61 PUSH2 0xBC3 JUMP JUMPDEST POP PUSH1 0x64 CALLDATALOAD SWAP1 PUSH8 0xFFFFFFFFFFFFFFFF DUP3 GT PUSH2 0x324 JUMPI POP PUSH1 0x20 SWAP3 PUSH2 0xA85 SWAP2 CALLDATASIZE SWAP2 ADD PUSH2 0xC07 JUMP JUMPDEST POP POP MLOAD PUSH32 0x150B7A0200000000000000000000000000000000000000000000000000000000 DUP2 MSTORE RETURN JUMPDEST SWAP3 POP POP CALLVALUE PUSH2 0x461 JUMPI PUSH1 0x20 PUSH32 0xFFFFFFFFFFFFFFFFFFFFFFFFFFFFFFFFFFFFFFFFFFFFFFFFFFFFFFFFFFFFFFFC CALLDATASIZE ADD SLT PUSH2 0x461 JUMPI CALLDATALOAD PUSH32 0xFFFFFFFF00000000000000000000000000000000000000000000000000000000 DUP2 AND DUP1 SWAP2 SUB PUSH2 0x461 JUMPI PUSH1 0x20 SWAP3 POP PUSH32 0x4E2312E000000000000000000000000000000000000000000000000000000000 DUP2 EQ SWAP1 DUP2 ISZERO PUSH2 0xB71 JUMPI JUMPDEST DUP2 ISZERO PUSH2 0xB47 JUMPI JUMPDEST POP ISZERO ISZERO DUP2 MSTORE RETURN JUMPDEST PUSH32 0x1FFC9A700000000000000000000000000000000000000000000000000000000 SWAP2 POP EQ CODESIZE PUSH2 0xB40 JUMP JUMPDEST PUSH32 0x150B7A0200000000000000000000000000000000000000000000000000000000 DUP2 EQ SWAP2 POP PUSH2 0xB39 JUMP JUMPDEST PUSH1 0x4 CALLDATALOAD SWAP1 PUSH20 0xFFFFFFFFFFFFFFFFFFFFFFFFFFFFFFFFFFFFFFFF DUP3 AND DUP3 SUB PUSH2 0xBBE JUMPI JUMP JUMPDEST PUSH1 0x0 DUP1 REVERT JUMPDEST PUSH1 0x24 CALLDATALOAD SWAP1 PUSH20 0xFFFFFFFFFFFFFFFFFFFFFFFFFFFFFFFFFFFFFFFF DUP3 AND DUP3 SUB PUSH2 0xBBE JUMPI JUMP JUMPDEST CALLDATALOAD SWAP1 PUSH20 0xFFFFFFFFFFFFFFFFFFFFFFFFFFFFFFFFFFFFFFFF DUP3 AND DUP3 SUB PUSH2 0xBBE JUMPI JUMP JUMPDEST SWAP2 DUP2 PUSH1 0x1F DUP5 ADD SLT ISZERO PUSH2 0xBBE JUMPI DUP3 CALLDATALOAD SWAP2 PUSH8 0xFFFFFFFFFFFFFFFF DUP4 GT PUSH2 0xBBE JUMPI PUSH1 0x20 DUP4 DUP2 DUP7 ADD SWAP6 ADD ADD GT PUSH2 0xBBE JUMPI JUMP JUMPDEST SWAP2 DUP2 PUSH1 0x1F DUP5 ADD SLT ISZERO PUSH2 0xBBE JUMPI DUP3 CALLDATALOAD SWAP2 PUSH8 0xFFFFFFFFFFFFFFFF DUP4 GT PUSH2 0xBBE JUMPI PUSH1 0x20 DUP1 DUP6 ADD SWAP5 DUP5 PUSH1 0x5 SHL ADD ADD GT PUSH2 0xBBE JUMPI JUMP JUMPDEST SWAP2 SWAP1 DUP3 MLOAD SWAP3 DUP4 DUP3 MSTORE PUSH1 0x0 JUMPDEST DUP5 DUP2 LT PUSH2 0xCB0 JUMPI POP POP PUSH32 0xFFFFFFFFFFFFFFFFFFFFFFFFFFFFFFFFFFFFFFFFFFFFFFFFFFFFFFFFFFFFFFE0 PUSH1 0x1F DUP5 PUSH1 0x0 PUSH1 0x20 DUP1 SWAP7 SWAP8 DUP7 ADD ADD MSTORE ADD AND ADD ADD SWAP1 JUMP JUMPDEST PUSH1 0x20 DUP2 DUP4 ADD DUP2 ADD MLOAD DUP5 DUP4 ADD DUP3 ADD MSTORE ADD PUSH2 0xC71 JUMP JUMPDEST SWAP2 SWAP3 SWAP1 SWAP3 PUSH1 0x80 MSTORE DUP3 DUP2 SUB PUSH2 0x3816 JUMPI SWAP2 SWAP1 PUSH1 0x0 SWAP1 JUMPDEST DUP3 DUP3 LT PUSH2 0xCE5 JUMPI POP POP POP POP JUMP JUMPDEST DUP4 DUP3 SWAP6 SWAP4 SWAP5 SWAP6 LT ISZERO PUSH2 0x1E55 JUMPI PUSH1 0x5 SWAP3 DUP3 DUP5 SHL PUSH1 0x80 MLOAD ADD CALLDATALOAD PUSH32 0xFFFFFFFFFFFFFFFFFFFFFFFFFFFFFFFFFFFFFFFFFFFFFFFFFFFFFFFFFFFFFFE1 SWAP2 DUP3 PUSH1 0x80 MLOAD CALLDATASIZE SUB ADD DUP3 SLT ISZERO PUSH2 0xBBE JUMPI DUP2 PUSH1 0x80 MLOAD ADD CALLDATALOAD SWAP8 PUSH8 0xFFFFFFFFFFFFFFFF DUP10 GT PUSH2 0xBBE JUMPI PUSH1 0x20 DUP4 PUSH1 0x80 MLOAD ADD ADD SWAP9 DUP1 CALLDATASIZE SUB DUP11 SGT PUSH2 0xBBE JUMPI PUSH1 0x60 SWAP8 PUSH1 0x3F SWAP1 DUP2 DUP10 DUP10 ADD CALLDATALOAD PUSH1 0xF8 SHR AND PUSH1 0x1 SWAP8 PUSH1 0x20 DUP3 LT PUSH1 0x0 EQ PUSH2 0x347A JUMPI POP PUSH1 0x10 DUP1 DUP3 LT ISZERO PUSH2 0x2ABD JUMPI POP PUSH1 0x8 DUP1 DUP3 LT ISZERO PUSH2 0x1B87 JUMPI POP DUP1 PUSH2 0x1201 JUMPI POP POP POP PUSH2 0xD9A SWAP1 DUP11 PUSH2 0x44A1 JUMP JUMPDEST SWAP3 SWAP1 SWAP9 PUSH1 0xA0 DUP6 PUSH1 0x80 MLOAD ADD ADD CALLDATALOAD PUSH1 0x0 EQ PUSH2 0x11F7 JUMPI PUSH2 0xDD1 PUSH20 0xFFFFFFFFFFFFFFFFFFFFFFFFFFFFFFFFFFFFFFFF PUSH1 0x1 SLOAD AND SWAP12 JUMPDEST CALLDATALOAD PUSH2 0x3B5D JUMP JUMPDEST SWAP10 PUSH1 0x40 DUP7 PUSH1 0x80 MLOAD ADD ADD CALLDATALOAD DUP6 DUP3 SWAP14 SWAP3 PUSH32 0x8000000000000000000000000000000000000000000000000000000000000000 DUP4 EQ PUSH2 0x113F JUMPI JUMPDEST POP SWAP6 SWAP13 SWAP6 POP JUMPDEST PUSH32 0x8000000000000000000000000000000000000000000000000000000000000000 DUP2 LT ISZERO PUSH2 0xBBE JUMPI PUSH1 0x42 DUP7 LT PUSH2 0x1138 JUMPI ADDRESS SWAP2 JUMPDEST DUP7 PUSH1 0x2B GT PUSH2 0xBBE JUMPI DUP14 SWAP2 PUSH1 0x17 DUP4 ADD CALLDATALOAD PUSH1 0x60 SHR SWAP1 DUP4 CALLDATALOAD SWAP5 PUSH3 0xFFFFFF DUP7 PUSH1 0x60 SHR SWAP7 PUSH2 0xE85 PUSH20 0xFFFFFFFFFFFFFFFFFFFFFFFFFFFFFFFFFFFFFFFF SWAP3 DUP4 SWAP3 PUSH1 0x48 SHR AND DUP7 DUP11 PUSH2 0x44EB JUMP JUMPDEST AND SWAP1 DUP5 DUP9 LT ISZERO PUSH2 0x111C JUMPI DUP1 PUSH5 0x1000276A4 SWAP7 JUMPDEST PUSH1 0x2B PUSH1 0x40 MLOAD SWAP10 PUSH1 0x40 PUSH1 0x20 DUP13 ADD MSTORE DUP2 PUSH1 0x60 DUP13 ADD MSTORE PUSH1 0x80 DUP12 ADD CALLDATACOPY PUSH1 0x0 PUSH1 0xAB DUP11 ADD MSTORE AND PUSH1 0x40 DUP9 ADD MSTORE PUSH1 0xA0 DUP8 MSTORE PUSH1 0xC0 DUP8 ADD SWAP6 DUP8 DUP8 LT PUSH8 0xFFFFFFFFFFFFFFFF DUP9 GT OR PUSH2 0x10ED JUMPI PUSH1 0x40 SWAP5 DUP3 DUP9 SWAP6 DUP7 DUP9 MSTORE PUSH32 0x128ACB0800000000000000000000000000000000000000000000000000000000 DUP8 MSTORE AND PUSH1 0xC4 DUP11 ADD MSTORE DUP7 DUP11 LT PUSH1 0xE4 DUP11 ADD MSTORE PUSH2 0x104 DUP10 ADD MSTORE AND PUSH2 0x124 DUP8 ADD MSTORE PUSH1 0xA0 PUSH2 0x144 DUP8 ADD MSTORE DUP2 PUSH1 0x0 PUSH32 0xFFFFFFFFFFFFFFFFFFFFFFFFFFFFFFFFFFFFFFFFFFFFFFFFFFFFFFFFFFFFFF40 DUP9 PUSH2 0xF5B PUSH2 0x164 DUP3 ADD DUP3 PUSH2 0xC66 JUMP JUMPDEST SUB ADD SWAP3 GAS CALL SWAP3 DUP4 ISZERO PUSH2 0x10E1 JUMPI PUSH1 0x0 SWAP3 DUP4 SWAP5 PUSH2 0x109F JUMPI JUMPDEST POP POP PUSH2 0xF85 SWAP4 LT PUSH1 0x0 EQ PUSH2 0x1098 JUMPI POP PUSH2 0x44BE JUMP JUMPDEST SWAP11 PUSH1 0x42 DUP6 LT PUSH2 0xFC6 JUMPI ADDRESS SWAP1 DUP6 PUSH1 0x17 GT PUSH2 0xBBE JUMPI PUSH1 0x17 PUSH32 0xFFFFFFFFFFFFFFFFFFFFFFFFFFFFFFFFFFFFFFFFFFFFFFFFFFFFFFFFFFFFFFE9 SWAP2 ADD SWAP6 ADD SWAP5 SWAP12 PUSH2 0xE0D JUMP JUMPDEST POP SWAP9 POP SWAP9 PUSH1 0x60 SWAP2 SWAP7 SWAP6 SWAP8 SWAP5 SWAP4 SWAP3 POP SWAP2 PUSH1 0x80 MLOAD ADD ADD CALLDATALOAD GT PUSH2 0x106E JUMPI JUMPDEST ISZERO DUP1 PUSH2 0x1041 JUMPI JUMPDEST PUSH2 0xFFA JUMPI POP PUSH1 0x1 ADD SWAP3 SWAP2 SWAP3 SWAP1 SWAP3 PUSH2 0xCD8 JUMP JUMPDEST SWAP1 PUSH2 0x103D PUSH1 0x40 SWAP3 DUP4 MLOAD SWAP4 DUP5 SWAP4 PUSH32 0x2C4029E900000000000000000000000000000000000000000000000000000000 DUP6 MSTORE PUSH1 0x4 DUP6 ADD MSTORE PUSH1 0x24 DUP5 ADD MSTORE PUSH1 0x44 DUP4 ADD SWAP1 PUSH2 0xC66 JUMP JUMPDEST SUB SWAP1 REVERT JUMPDEST POP PUSH32 0x8000000000000000000000000000000000000000000000000000000000000000 DUP3 DUP6 ADD CALLDATALOAD AND ISZERO PUSH2 0xFE8 JUMP JUMPDEST PUSH1 0x4 PUSH1 0x40 MLOAD PUSH32 0x39D3549600000000000000000000000000000000000000000000000000000000 DUP2 MSTORE REVERT JUMPDEST SWAP1 POP PUSH2 0x44BE JUMP JUMPDEST SWAP2 SWAP3 SWAP1 SWAP4 POP PUSH1 0x40 DUP5 RETURNDATASIZE PUSH1 0x40 GT PUSH2 0x10D9 JUMPI JUMPDEST DUP2 PUSH2 0x10BD PUSH1 0x40 SWAP4 DUP7 PUSH2 0x3903 JUMP JUMPDEST DUP2 ADD SUB SLT PUSH2 0x324 JUMPI POP MLOAD PUSH1 0xE0 SWAP3 SWAP1 SWAP3 ADD MLOAD SWAP2 SWAP1 PUSH2 0xF85 CODESIZE PUSH2 0xF71 JUMP JUMPDEST RETURNDATASIZE SWAP2 POP PUSH2 0x10B0 JUMP JUMPDEST PUSH1 0x40 MLOAD RETURNDATASIZE PUSH1 0x0 DUP3 RETURNDATACOPY RETURNDATASIZE SWAP1 REVERT JUMPDEST PUSH32 0x4E487B7100000000000000000000000000000000000000000000000000000000 PUSH1 0x0 MSTORE PUSH1 0x41 PUSH1 0x4 MSTORE PUSH1 0x24 PUSH1 0x0 REVERT JUMPDEST DUP1 PUSH20 0xFFFD8963EFD1FC6A506488495D951D5263988D25 SWAP7 PUSH2 0xE98 JUMP JUMPDEST DUP12 SWAP2 PUSH2 0xE40 JUMP JUMPDEST PUSH1 0x14 SWAP2 SWAP3 POP LT PUSH2 0x11CD JUMPI PUSH1 0x20 PUSH1 0x24 SWAP2 PUSH1 0x40 MLOAD SWAP3 DUP4 DUP1 SWAP3 PUSH32 0x70A0823100000000000000000000000000000000000000000000000000000000 DUP3 MSTORE ADDRESS PUSH1 0x4 DUP4 ADD MSTORE CALLDATALOAD PUSH1 0x60 SHR GAS STATICCALL SWAP1 DUP2 ISZERO PUSH2 0x10E1 JUMPI PUSH1 0x0 SWAP2 PUSH2 0x119B JUMPI JUMPDEST POP CODESIZE DUP1 PUSH2 0xE07 JUMP JUMPDEST SWAP1 PUSH1 0x20 DUP3 RETURNDATASIZE PUSH1 0x20 GT PUSH2 0x11C5 JUMPI JUMPDEST DUP2 PUSH2 0x11B5 PUSH1 0x20 SWAP4 DUP4 PUSH2 0x3903 JUMP JUMPDEST DUP2 ADD SUB SLT PUSH2 0x324 JUMPI POP MLOAD CODESIZE PUSH2 0x1193 JUMP JUMPDEST RETURNDATASIZE SWAP2 POP PUSH2 0x11A8 JUMP JUMPDEST PUSH1 0x4 PUSH1 0x40 MLOAD PUSH32 0x3B99B53D00000000000000000000000000000000000000000000000000000000 DUP2 MSTORE REVERT JUMPDEST PUSH2 0xDD1 ADDRESS SWAP12 PUSH2 0xDCB JUMP JUMPDEST PUSH1 0x1 DUP2 SWAP14 SWAP5 SWAP4 SWAP7 SWAP14 SWAP12 SWAP9 SWAP8 SWAP6 SWAP11 SWAP10 SWAP12 EQ PUSH1 0x0 EQ PUSH2 0x14C5 JUMPI POP POP DUP2 PUSH2 0x1227 SWAP3 SWAP4 SWAP5 POP PUSH2 0x44A1 JUMP JUMPDEST SWAP1 PUSH1 0xA0 DUP5 PUSH1 0x80 MLOAD ADD ADD CALLDATALOAD PUSH1 0x0 EQ PUSH2 0x14BB JUMPI PUSH2 0x125B PUSH20 0xFFFFFFFFFFFFFFFFFFFFFFFFFFFFFFFFFFFFFFFF PUSH1 0x1 SLOAD AND SWAP4 CALLDATALOAD PUSH2 0x3B5D JUMP JUMPDEST SWAP2 PUSH1 0x60 DUP6 PUSH1 0x80 MLOAD ADD ADD CALLDATALOAD PUSH1 0x0 SSTORE PUSH32 0x8000000000000000000000000000000000000000000000000000000000000000 PUSH1 0x40 DUP7 PUSH1 0x80 MLOAD ADD ADD CALLDATALOAD LT ISZERO PUSH2 0xBBE JUMPI PUSH2 0x12A9 PUSH1 0x40 DUP7 PUSH1 0x80 MLOAD ADD ADD CALLDATALOAD PUSH2 0x44BE JUMP JUMPDEST PUSH1 0x2B DUP4 LT PUSH2 0x11CD JUMPI DUP2 CALLDATALOAD SWAP3 PUSH1 0x17 DUP4 ADD CALLDATALOAD PUSH1 0x60 SHR SWAP6 DUP7 SWAP3 DUP6 PUSH1 0x60 SHR SWAP7 DUP8 SWAP7 PUSH1 0x48 SHR PUSH3 0xFFFFFF AND PUSH2 0x12D9 SWAP1 DUP7 DUP10 PUSH2 0x44EB JUMP JUMPDEST PUSH20 0xFFFFFFFFFFFFFFFFFFFFFFFFFFFFFFFFFFFFFFFF AND SWAP4 DUP8 DUP7 LT PUSH1 0x0 EQ SWAP7 PUSH20 0xFFFFFFFFFFFFFFFFFFFFFFFFFFFFFFFFFFFFFFFF DUP1 SWAP6 PUSH1 0x0 SWAP6 PUSH2 0x1374 PUSH2 0x13C8 SWAP6 PUSH1 0x40 SWAP13 PUSH2 0x14A0 JUMPI PUSH5 0x1000276A4 SWAP4 JUMPDEST DUP6 PUSH2 0x1342 DUP16 MLOAD SWAP9 PUSH1 0x40 SWAP5 DUP11 SWAP6 PUSH1 0x20 DUP8 ADD MSTORE PUSH1 0x60 DUP7 ADD SWAP2 PUSH2 0x3840 JUMP JUMPDEST SWAP2 AND DUP15 DUP4 ADD MSTORE SUB PUSH32 0xFFFFFFFFFFFFFFFFFFFFFFFFFFFFFFFFFFFFFFFFFFFFFFFFFFFFFFFFFFFFFFE0 DUP2 ADD DUP7 MSTORE DUP6 PUSH2 0x3903 JUMP JUMPDEST DUP11 MLOAD SWAP12 DUP13 SWAP11 DUP12 SWAP10 DUP11 SWAP9 PUSH32 0x128ACB0800000000000000000000000000000000000000000000000000000000 DUP11 MSTORE AND PUSH1 0x4 DUP10 ADD MSTORE LT PUSH1 0x24 DUP8 ADD MSTORE PUSH1 0x44 DUP7 ADD MSTORE AND PUSH1 0x64 DUP5 ADD MSTORE PUSH1 0xA0 PUSH1 0x84 DUP5 ADD MSTORE PUSH1 0xA4 DUP4 ADD SWAP1 PUSH2 0xC66 JUMP JUMPDEST SUB SWAP3 GAS CALL SWAP2 DUP3 ISZERO PUSH2 0x10E1 JUMPI PUSH1 0x0 SWAP2 DUP3 SWAP4 PUSH2 0x1462 JUMPI JUMPDEST POP PUSH1 0x40 SWAP4 LT ISZERO PUSH2 0x1452 JUMPI POP PUSH2 0x13F1 SWAP1 PUSH2 0x44BE JUMP JUMPDEST SWAP2 JUMPDEST PUSH1 0x80 MLOAD ADD ADD CALLDATALOAD SUB PUSH2 0x1428 JUMPI PUSH32 0xFFFFFFFFFFFFFFFFFFFFFFFFFFFFFFFFFFFFFFFFFFFFFFFFFFFFFFFFFFFFFFFF PUSH1 0x0 SSTORE JUMPDEST PUSH2 0xFE1 JUMP JUMPDEST PUSH1 0x4 PUSH1 0x40 MLOAD PUSH32 0xD4E0248E00000000000000000000000000000000000000000000000000000000 DUP2 MSTORE REVERT JUMPDEST PUSH2 0x145C SWAP2 POP PUSH2 0x44BE JUMP JUMPDEST SWAP2 PUSH2 0x13F3 JUMP JUMPDEST SWAP3 POP SWAP1 PUSH1 0x40 DUP4 RETURNDATASIZE PUSH1 0x40 GT PUSH2 0x1498 JUMPI JUMPDEST DUP2 PUSH2 0x147E PUSH1 0x40 SWAP4 DUP4 PUSH2 0x3903 JUMP JUMPDEST DUP2 ADD SUB SLT PUSH2 0x324 JUMPI POP DUP2 MLOAD PUSH1 0x20 SWAP1 SWAP3 ADD MLOAD SWAP2 SWAP1 PUSH1 0x40 PUSH2 0x13DD JUMP JUMPDEST RETURNDATASIZE SWAP2 POP PUSH2 0x1471 JUMP JUMPDEST PUSH20 0xFFFD8963EFD1FC6A506488495D951D5263988D25 SWAP4 PUSH2 0x1327 JUMP JUMPDEST PUSH2 0x125B ADDRESS SWAP4 PUSH2 0xDCB JUMP JUMPDEST PUSH1 0x2 DUP2 SUB PUSH2 0x150F JUMPI POP POP POP PUSH2 0x1423 SWAP3 POP PUSH20 0xFFFFFFFFFFFFFFFFFFFFFFFFFFFFFFFFFFFFFFFF PUSH1 0x1 SLOAD AND PUSH2 0x1508 PUSH1 0x40 PUSH1 0x60 DUP6 PUSH1 0x80 MLOAD ADD ADD CALLDATALOAD SWAP5 PUSH1 0x80 MLOAD ADD ADD CALLDATALOAD PUSH2 0x3B5D JUMP JUMPDEST SWAP2 CALLDATALOAD PUSH2 0x3CD9 JUMP JUMPDEST SWAP2 SWAP4 SWAP2 PUSH1 0x3 DUP2 SUB PUSH2 0x1881 JUMPI POP POP PUSH1 0x80 MLOAD DUP2 ADD DUP1 DUP5 ADD SWAP4 SWAP1 PUSH1 0x40 SWAP1 DUP6 SUB SLT PUSH2 0xBBE JUMPI DUP3 CALLDATALOAD PUSH8 0xFFFFFFFFFFFFFFFF DUP2 GT PUSH2 0xBBE JUMPI DUP3 PUSH1 0x80 MLOAD ADD ADD SWAP3 PUSH1 0x60 DUP5 DUP7 SUB SLT PUSH2 0xBBE JUMPI PUSH1 0x40 MLOAD SWAP5 PUSH1 0x60 DUP7 ADD DUP7 DUP2 LT PUSH8 0xFFFFFFFFFFFFFFFF DUP3 GT OR PUSH2 0x10ED JUMPI PUSH1 0x40 MSTORE PUSH1 0x20 DUP6 ADD CALLDATALOAD PUSH8 0xFFFFFFFFFFFFFFFF DUP2 GT PUSH2 0xBBE JUMPI DUP6 ADD PUSH1 0x20 DUP3 ADD DUP1 SWAP9 DUP3 ADD SLT ISZERO PUSH2 0xBBE JUMPI PUSH1 0x20 DUP2 ADD CALLDATALOAD SWAP1 PUSH2 0x15A3 DUP3 PUSH2 0x39AE JUMP JUMPDEST SWAP3 PUSH2 0x15B1 PUSH1 0x40 MLOAD SWAP5 DUP6 PUSH2 0x3903 JUMP JUMPDEST DUP3 DUP5 MSTORE PUSH1 0x40 PUSH1 0x20 DUP6 ADD SWAP4 PUSH1 0x7 SHL DUP4 ADD ADD SWAP2 DUP11 DUP4 GT PUSH2 0xBBE JUMPI PUSH1 0x40 ADD SWAP3 JUMPDEST DUP3 DUP5 LT PUSH2 0x181C JUMPI POP POP POP POP DUP6 MSTORE PUSH2 0x15E7 PUSH1 0x40 DUP6 ADD PUSH2 0xBE6 JUMP JUMPDEST SWAP6 PUSH1 0x20 DUP7 ADD SWAP7 DUP8 MSTORE PUSH1 0x60 PUSH1 0x40 DUP8 ADD SWAP6 ADD CALLDATALOAD DUP6 MSTORE PUSH1 0x40 DUP5 PUSH1 0x80 MLOAD ADD ADD CALLDATALOAD SWAP1 PUSH8 0xFFFFFFFFFFFFFFFF DUP3 GT PUSH2 0xBBE JUMPI PUSH1 0x20 PUSH2 0x1628 SWAP3 PUSH2 0x162E SWAP7 PUSH1 0x80 MLOAD ADD ADD ADD PUSH2 0x39D9 JUMP JUMPDEST POP PUSH2 0x4484 JUMP JUMPDEST SWAP1 SWAP2 PUSH20 0xFFFFFFFFFFFFFFFFFFFFFFFFFFFFFFFFFFFFFFFF PUSH1 0x1 SLOAD AND SWAP5 PUSH20 0xFFFFFFFFFFFFFFFFFFFFFFFFFFFFFFFFFFFFFFFF PUSH32 0x0 AND EXTCODESIZE ISZERO PUSH2 0xBBE JUMPI SWAP5 SWAP3 SWAP4 SWAP2 SWAP1 PUSH1 0x40 MLOAD SWAP6 DUP7 SWAP5 PUSH32 0x2A2D80D100000000000000000000000000000000000000000000000000000000 DUP7 MSTORE PUSH1 0x4 DUP7 ADD MSTORE PUSH1 0x60 PUSH1 0x24 DUP7 ADD MSTORE PUSH1 0xC4 DUP6 ADD SWAP4 MLOAD SWAP4 PUSH1 0x60 PUSH1 0x64 DUP8 ADD MSTORE DUP5 MLOAD DUP1 SWAP2 MSTORE PUSH1 0x20 PUSH1 0xE4 DUP8 ADD SWAP6 ADD SWAP1 PUSH1 0x0 SWAP1 JUMPDEST DUP1 DUP3 LT PUSH2 0x17A3 JUMPI POP POP POP SWAP5 PUSH2 0x1747 SWAP3 DUP6 SWAP5 SWAP3 PUSH20 0xFFFFFFFFFFFFFFFFFFFFFFFFFFFFFFFFFFFFFFFF PUSH1 0x0 SWAP9 MLOAD AND PUSH1 0x84 DUP8 ADD MSTORE MLOAD PUSH1 0xA4 DUP7 ADD MSTORE PUSH32 0xFFFFFFFFFFFFFFFFFFFFFFFFFFFFFFFFFFFFFFFFFFFFFFFFFFFFFFFFFFFFFFFC DUP6 DUP5 SUB ADD PUSH1 0x44 DUP7 ADD MSTORE PUSH2 0x3840 JUMP JUMPDEST SUB DUP2 DUP4 PUSH20 0xFFFFFFFFFFFFFFFFFFFFFFFFFFFFFFFFFFFFFFFF PUSH32 0x0 AND GAS CALL DUP1 ISZERO PUSH2 0x10E1 JUMPI PUSH2 0x1794 JUMPI JUMPDEST POP PUSH2 0xFE1 JUMP JUMPDEST PUSH2 0x179D SWAP1 PUSH2 0x387F JUMP JUMPDEST CODESIZE PUSH2 0x178E JUMP JUMPDEST SWAP2 SWAP8 SWAP7 POP SWAP2 SWAP3 SWAP4 SWAP5 PUSH1 0x20 PUSH1 0x80 PUSH1 0x1 SWAP3 DUP11 MLOAD PUSH20 0xFFFFFFFFFFFFFFFFFFFFFFFFFFFFFFFFFFFFFFFF DUP2 MLOAD AND DUP3 MSTORE PUSH20 0xFFFFFFFFFFFFFFFFFFFFFFFFFFFFFFFFFFFFFFFF DUP5 DUP3 ADD MLOAD AND DUP5 DUP4 ADD MSTORE PUSH1 0x60 PUSH6 0xFFFFFFFFFFFF SWAP2 DUP3 PUSH1 0x40 DUP3 ADD MLOAD AND PUSH1 0x40 DUP6 ADD MSTORE ADD MLOAD AND PUSH1 0x60 DUP3 ADD MSTORE ADD SWAP9 ADD SWAP3 ADD DUP9 SWAP7 SWAP8 SWAP6 SWAP5 SWAP4 SWAP3 SWAP2 PUSH2 0x16E1 JUMP JUMPDEST PUSH1 0x80 PUSH1 0x20 DUP6 DUP5 SUB ADD SLT PUSH2 0xBBE JUMPI PUSH1 0x20 PUSH1 0x80 SWAP2 PUSH1 0x40 MLOAD PUSH2 0x183A DUP2 PUSH2 0x3893 JUMP JUMPDEST PUSH2 0x1843 DUP8 PUSH2 0xBE6 JUMP JUMPDEST DUP2 MSTORE PUSH2 0x1850 DUP4 DUP9 ADD PUSH2 0xBE6 JUMP JUMPDEST DUP4 DUP3 ADD MSTORE PUSH2 0x1860 PUSH1 0x40 DUP9 ADD PUSH2 0x39C6 JUMP JUMPDEST PUSH1 0x40 DUP3 ADD MSTORE PUSH2 0x1871 PUSH1 0x60 DUP9 ADD PUSH2 0x39C6 JUMP JUMPDEST PUSH1 0x60 DUP3 ADD MSTORE DUP2 MSTORE ADD SWAP4 ADD SWAP3 PUSH2 0x15CE JUMP JUMPDEST PUSH1 0x4 SWAP6 POP SWAP2 SWAP4 POP DUP5 DUP3 SUB PUSH2 0x19F0 JUMPI POP POP SWAP1 SWAP2 PUSH1 0x40 PUSH1 0x60 PUSH2 0x18A7 DUP3 DUP7 PUSH1 0x80 MLOAD ADD ADD CALLDATALOAD PUSH2 0x3B5D JUMP JUMPDEST PUSH1 0x80 MLOAD SWAP1 SWAP6 ADD ADD CALLDATALOAD PUSH20 0xFFFFFFFFFFFFFFFFFFFFFFFFFFFFFFFFFFFFFFFF SWAP1 DUP2 AND SWAP4 CALLDATALOAD AND DUP1 PUSH2 0x191D JUMPI POP SELFBALANCE SWAP3 DUP4 LT PUSH2 0x18F7 JUMPI POP POP DUP1 PUSH2 0x18E7 JUMPI JUMPDEST POP POP PUSH2 0xFE1 JUMP JUMPDEST PUSH2 0x18F0 SWAP2 PUSH2 0x4657 JUMP JUMPDEST CODESIZE DUP1 PUSH2 0x18E0 JUMP JUMPDEST MLOAD PUSH32 0x6A12F10400000000000000000000000000000000000000000000000000000000 DUP2 MSTORE REVERT JUMPDEST SWAP4 SWAP2 SWAP1 DUP1 MLOAD SWAP4 PUSH32 0x70A0823100000000000000000000000000000000000000000000000000000000 DUP6 MSTORE ADDRESS DUP4 DUP7 ADD MSTORE PUSH1 0x20 DUP6 PUSH1 0x24 DUP2 DUP10 GAS STATICCALL SWAP5 DUP6 ISZERO PUSH2 0x19E5 JUMPI PUSH1 0x0 SWAP6 PUSH2 0x19B1 JUMPI JUMPDEST POP DUP5 LT PUSH2 0x198B JUMPI POP POP DUP2 PUSH2 0x197A JUMPI JUMPDEST POP POP POP PUSH2 0xFE1 JUMP JUMPDEST PUSH2 0x1983 SWAP3 PUSH2 0x46C5 JUMP JUMPDEST CODESIZE DUP1 DUP1 PUSH2 0x1972 JUMP JUMPDEST MLOAD PUSH32 0x675CAE3800000000000000000000000000000000000000000000000000000000 DUP2 MSTORE REVERT JUMPDEST SWAP1 SWAP5 PUSH1 0x20 DUP3 RETURNDATASIZE PUSH1 0x20 GT PUSH2 0x19DD JUMPI JUMPDEST DUP2 PUSH2 0x19CC PUSH1 0x20 SWAP4 DUP4 PUSH2 0x3903 JUMP JUMPDEST DUP2 ADD SUB SLT PUSH2 0x324 JUMPI POP MLOAD SWAP4 CODESIZE PUSH2 0x1963 JUMP JUMPDEST RETURNDATASIZE SWAP2 POP PUSH2 0x19BF JUMP JUMPDEST DUP3 MLOAD RETURNDATASIZE PUSH1 0x0 DUP3 RETURNDATACOPY RETURNDATASIZE SWAP1 REVERT JUMPDEST DUP2 SUB PUSH2 0x1A1D JUMPI POP PUSH2 0x1423 SWAP3 POP PUSH2 0x1A16 PUSH1 0x40 PUSH1 0x60 DUP5 PUSH1 0x80 MLOAD ADD ADD CALLDATALOAD SWAP4 PUSH1 0x80 MLOAD ADD ADD CALLDATALOAD PUSH2 0x3B5D JUMP JUMPDEST SWAP1 CALLDATALOAD PUSH2 0x3BAE JUMP JUMPDEST SWAP1 SWAP2 SWAP1 PUSH1 0x6 DUP2 SUB PUSH2 0x1B57 JUMPI POP PUSH1 0x80 MLOAD ADD PUSH1 0x60 DUP2 ADD CALLDATALOAD SWAP1 PUSH1 0x40 SWAP1 PUSH2 0x1A42 SWAP1 DUP3 ADD CALLDATALOAD PUSH2 0x3B5D JUMP JUMPDEST SWAP3 DUP3 ISZERO DUP1 ISZERO PUSH2 0x1B4C JUMPI JUMPDEST PUSH2 0x1B24 JUMPI CALLDATALOAD PUSH20 0xFFFFFFFFFFFFFFFFFFFFFFFFFFFFFFFFFFFFFFFF AND SWAP4 DUP5 PUSH2 0x1A88 JUMPI POP POP PUSH2 0x1423 SWAP3 POP PUSH2 0x1A81 PUSH2 0x2710 SWAP2 SELFBALANCE PUSH2 0x3C8D JUMP JUMPDEST DIV SWAP1 PUSH2 0x4657 JUMP JUMPDEST DUP2 MLOAD SWAP1 PUSH32 0x70A0823100000000000000000000000000000000000000000000000000000000 DUP3 MSTORE ADDRESS SWAP1 DUP3 ADD MSTORE PUSH1 0x20 DUP2 PUSH1 0x24 DUP2 DUP9 GAS STATICCALL SWAP2 DUP3 ISZERO PUSH2 0x1B1A JUMPI POP PUSH1 0x0 SWAP2 PUSH2 0x1AE6 JUMPI JUMPDEST POP PUSH2 0x1ADF PUSH2 0x1423 SWAP5 SWAP4 SWAP3 PUSH2 0x2710 SWAP3 PUSH2 0x3C8D JUMP JUMPDEST DIV SWAP2 PUSH2 0x46C5 JUMP JUMPDEST SWAP1 PUSH1 0x20 DUP3 RETURNDATASIZE PUSH1 0x20 GT PUSH2 0x1B12 JUMPI JUMPDEST DUP2 PUSH2 0x1B00 PUSH1 0x20 SWAP4 DUP4 PUSH2 0x3903 JUMP JUMPDEST DUP2 ADD SUB SLT PUSH2 0x324 JUMPI POP MLOAD PUSH2 0x1ADF PUSH2 0x1ACC JUMP JUMPDEST RETURNDATASIZE SWAP2 POP PUSH2 0x1AF3 JUMP JUMPDEST MLOAD RETURNDATASIZE PUSH1 0x0 DUP3 RETURNDATACOPY RETURNDATASIZE SWAP1 REVERT JUMPDEST DUP5 DUP3 MLOAD PUSH32 0xDEAA01E600000000000000000000000000000000000000000000000000000000 DUP2 MSTORE REVERT JUMPDEST POP PUSH2 0x2710 DUP4 GT PUSH2 0x1A4C JUMP JUMPDEST DUP4 PUSH1 0x24 SWAP2 PUSH1 0x40 MLOAD SWAP2 PUSH32 0xD76A1E9E00000000000000000000000000000000000000000000000000000000 DUP4 MSTORE DUP3 ADD MSTORE REVERT JUMPDEST DUP2 SWAP14 SWAP7 SWAP14 SWAP12 SWAP9 SWAP8 SWAP5 SWAP6 SWAP11 SWAP10 SWAP12 SWAP4 SWAP3 SWAP4 EQ PUSH1 0x0 EQ PUSH2 0x1E8E JUMPI POP POP POP PUSH1 0x40 SWAP2 PUSH2 0x1BB6 DUP4 DUP4 PUSH1 0x80 MLOAD ADD ADD CALLDATALOAD SWAP2 DUP6 PUSH2 0x44A1 JUMP JUMPDEST SWAP3 SWAP1 SWAP5 PUSH1 0xA0 DUP3 PUSH1 0x80 MLOAD ADD ADD CALLDATALOAD PUSH1 0x0 EQ PUSH2 0x1E84 JUMPI PUSH2 0x1BEC PUSH20 0xFFFFFFFFFFFFFFFFFFFFFFFFFFFFFFFFFFFFFFFF PUSH1 0x1 SLOAD AND SWAP2 CALLDATALOAD PUSH2 0x3B5D JUMP JUMPDEST SWAP1 DUP7 ISZERO PUSH2 0x1E55 JUMPI PUSH2 0x1BFC DUP6 PUSH2 0x3D9D JUMP JUMPDEST DUP8 PUSH1 0x1 LT ISZERO PUSH2 0x1E55 JUMPI PUSH2 0x1C1E PUSH2 0x1C66 SWAP2 PUSH2 0x1C18 PUSH1 0x20 DUP10 ADD PUSH2 0x3D9D JUMP JUMPDEST SWAP1 PUSH2 0x3F3D JUMP JUMPDEST SWAP1 PUSH32 0x0 PUSH32 0x0 PUSH2 0x3E35 JUMP JUMPDEST SWAP4 DUP5 DUP2 PUSH2 0x1E3B JUMPI JUMPDEST POP POP POP PUSH32 0xFFFFFFFFFFFFFFFFFFFFFFFFFFFFFFFFFFFFFFFFFFFFFFFFFFFFFFFFFFFFFFFF DUP7 ADD SWAP4 DUP7 DUP6 GT PUSH2 0x1E0C JUMPI PUSH2 0x1CC2 SWAP5 PUSH2 0x1CC7 PUSH20 0xFFFFFFFFFFFFFFFFFFFFFFFFFFFFFFFFFFFFFFFF SWAP7 DUP8 SWAP3 DUP11 DUP6 PUSH2 0x3D8D JUMP JUMPDEST PUSH2 0x3D9D JUMP JUMPDEST AND SWAP5 DUP7 MLOAD SWAP5 PUSH32 0x70A0823100000000000000000000000000000000000000000000000000000000 SWAP2 DUP3 DUP8 MSTORE DUP5 AND SWAP4 PUSH1 0x4 SWAP10 DUP6 DUP12 DUP10 ADD MSTORE PUSH1 0x24 SWAP5 PUSH1 0x20 DUP10 DUP8 DUP2 DUP14 GAS STATICCALL SWAP9 DUP10 ISZERO PUSH2 0x1E01 JUMPI PUSH1 0x0 SWAP10 PUSH2 0x1DCC JUMPI JUMPDEST POP SWAP2 PUSH1 0x20 SWAP7 SWAP6 SWAP5 SWAP4 SWAP2 PUSH2 0x1D28 SWAP4 PUSH2 0x3FB6 JUMP JUMPDEST DUP8 MLOAD SWAP7 DUP8 SWAP4 DUP5 SWAP3 DUP4 MSTORE DUP11 DUP4 ADD MSTORE GAS STATICCALL SWAP3 DUP4 ISZERO PUSH2 0x1DC1 JUMPI PUSH1 0x0 SWAP4 PUSH2 0x1D8C JUMPI JUMPDEST POP SWAP1 PUSH1 0x60 PUSH2 0x1D5A SWAP3 PUSH1 0x80 MLOAD ADD ADD CALLDATALOAD SWAP3 PUSH2 0x3DBE JUMP JUMPDEST LT PUSH2 0x1D66 JUMPI POP POP PUSH2 0xFE1 JUMP JUMPDEST MLOAD PUSH32 0x849EAF9800000000000000000000000000000000000000000000000000000000 DUP2 MSTORE REVERT JUMPDEST SWAP1 SWAP3 PUSH1 0x20 DUP3 RETURNDATASIZE PUSH1 0x20 GT PUSH2 0x1DB9 JUMPI JUMPDEST DUP2 PUSH2 0x1DA7 PUSH1 0x20 SWAP4 DUP4 PUSH2 0x3903 JUMP JUMPDEST DUP2 ADD SUB SLT PUSH2 0x324 JUMPI POP MLOAD SWAP2 PUSH1 0x60 PUSH2 0x1D46 JUMP JUMPDEST RETURNDATASIZE SWAP2 POP PUSH2 0x1D9A JUMP JUMPDEST DUP5 MLOAD RETURNDATASIZE PUSH1 0x0 DUP3 RETURNDATACOPY RETURNDATASIZE SWAP1 REVERT JUMPDEST SWAP1 SWAP9 PUSH1 0x20 DUP3 RETURNDATASIZE PUSH1 0x20 GT PUSH2 0x1DF9 JUMPI JUMPDEST DUP2 PUSH2 0x1DE7 PUSH1 0x20 SWAP4 DUP4 PUSH2 0x3903 JUMP JUMPDEST DUP2 ADD SUB SLT PUSH2 0x324 JUMPI POP MLOAD SWAP8 PUSH1 0x20 PUSH2 0x1D16 JUMP JUMPDEST RETURNDATASIZE SWAP2 POP PUSH2 0x1DDA JUMP JUMPDEST DUP12 MLOAD RETURNDATASIZE PUSH1 0x0 DUP3 RETURNDATACOPY RETURNDATASIZE SWAP1 REVERT JUMPDEST PUSH32 0x4E487B7100000000000000000000000000000000000000000000000000000000 PUSH1 0x0 MSTORE PUSH1 0x11 PUSH1 0x4 MSTORE PUSH1 0x24 PUSH1 0x0 REVERT JUMPDEST PUSH2 0x1E4D SWAP3 PUSH2 0x1E48 DUP9 PUSH2 0x3D9D JUMP JUMPDEST PUSH2 0x3DCB JUMP JUMPDEST CODESIZE DUP1 DUP5 PUSH2 0x1C6E JUMP JUMPDEST PUSH32 0x4E487B7100000000000000000000000000000000000000000000000000000000 PUSH1 0x0 MSTORE PUSH1 0x32 PUSH1 0x4 MSTORE PUSH1 0x24 PUSH1 0x0 REVERT JUMPDEST PUSH2 0x1BEC ADDRESS SWAP2 PUSH2 0xDCB JUMP JUMPDEST SWAP2 SWAP5 SWAP3 SWAP4 SWAP2 PUSH1 0x9 DUP2 SUB PUSH2 0x226F JUMPI POP POP PUSH2 0x1EA7 SWAP1 DUP3 PUSH2 0x44A1 JUMP JUMPDEST PUSH1 0x80 MLOAD DUP5 ADD PUSH1 0xA0 ADD CALLDATALOAD ISZERO PUSH2 0x2265 JUMPI PUSH2 0x1ED8 PUSH20 0xFFFFFFFFFFFFFFFFFFFFFFFFFFFFFFFFFFFFFFFF PUSH1 0x1 SLOAD AND SWAP4 CALLDATALOAD PUSH2 0x3B5D JUMP JUMPDEST SWAP3 PUSH2 0x1EE2 DUP4 PUSH2 0x39AE JUMP JUMPDEST SWAP6 PUSH2 0x1EF0 PUSH1 0x40 MLOAD SWAP8 DUP9 PUSH2 0x3903 JUMP JUMPDEST DUP4 DUP8 MSTORE DUP4 SWAP1 SHL DUP3 ADD PUSH1 0x20 DUP8 ADD CALLDATASIZE DUP3 GT PUSH2 0xBBE JUMPI DUP4 SWAP1 JUMPDEST DUP3 DUP3 LT PUSH2 0x224D JUMPI POP POP POP PUSH1 0x0 SWAP5 PUSH1 0x2 DUP8 MLOAD LT PUSH2 0x2223 JUMPI PUSH1 0x40 DUP2 PUSH1 0x80 MLOAD ADD ADD CALLDATALOAD SWAP7 DUP1 MLOAD PUSH32 0xFFFFFFFFFFFFFFFFFFFFFFFFFFFFFFFFFFFFFFFFFFFFFFFFFFFFFFFFFFFFFFFF DUP2 ADD SWAP1 DUP2 GT PUSH2 0x1E0C JUMPI SWAP1 DUP2 JUMPDEST PUSH2 0x1FB0 JUMPI POP POP PUSH1 0x80 MLOAD ADD PUSH1 0x60 ADD CALLDATALOAD DUP7 GT PUSH2 0x1F86 JUMPI DUP3 ISZERO PUSH2 0x1E55 JUMPI PUSH2 0x1423 SWAP6 DUP6 PUSH2 0x1F81 SWAP3 PUSH2 0x1E48 DUP6 PUSH2 0x3D9D JUMP JUMPDEST PUSH2 0x3FB6 JUMP JUMPDEST PUSH1 0x4 PUSH1 0x40 MLOAD PUSH32 0x8AB0BC1600000000000000000000000000000000000000000000000000000000 DUP2 MSTORE REVERT JUMPDEST SWAP1 SWAP8 PUSH32 0xFFFFFFFFFFFFFFFFFFFFFFFFFFFFFFFFFFFFFFFFFFFFFFFFFFFFFFFFFFFFFFFF DUP10 ADD SWAP8 POP DUP9 DUP9 GT PUSH2 0x1E0C JUMPI PUSH20 0xFFFFFFFFFFFFFFFFFFFFFFFFFFFFFFFFFFFFFFFF PUSH2 0x2000 PUSH2 0x2076 SWAP10 DUP5 PUSH2 0x3D79 JUMP JUMPDEST MLOAD AND PUSH2 0x202C PUSH20 0xFFFFFFFFFFFFFFFFFFFFFFFFFFFFFFFFFFFFFFFF PUSH2 0x2024 DUP13 DUP7 PUSH2 0x3D79 JUMP JUMPDEST MLOAD AND DUP3 PUSH2 0x3F3D JUMP JUMPDEST DUP2 SWAP11 SWAP2 PUSH32 0x0 PUSH32 0x0 PUSH2 0x3E35 JUMP JUMPDEST SWAP1 PUSH1 0x40 MLOAD SWAP1 PUSH32 0x902F1AC00000000000000000000000000000000000000000000000000000000 DUP3 MSTORE PUSH1 0x60 DUP3 PUSH1 0x4 DUP2 PUSH20 0xFFFFFFFFFFFFFFFFFFFFFFFFFFFFFFFFFFFFFFFF DUP8 AND GAS STATICCALL SWAP11 DUP12 ISZERO PUSH2 0x10E1 JUMPI PUSH1 0x0 SWAP3 DUP4 SWAP13 PUSH2 0x21DA JUMPI JUMPDEST POP PUSH20 0xFFFFFFFFFFFFFFFFFFFFFFFFFFFFFFFFFFFFFFFF AND SUB PUSH2 0x21C0 JUMPI PUSH14 0xFFFFFFFFFFFFFFFFFFFFFFFFFFFF DUP1 SWAP2 AND SWAP10 AND SWAP1 JUMPDEST SWAP9 DUP1 ISZERO DUP1 ISZERO PUSH2 0x21B8 JUMPI JUMPDEST PUSH2 0x218E JUMPI DUP3 PUSH2 0x2118 SWAP2 PUSH2 0x3C8D JUMP JUMPDEST SWAP2 PUSH2 0x3E8 SWAP3 DUP4 DUP2 MUL SWAP4 DUP2 DUP6 DIV EQ SWAP1 ISZERO OR ISZERO PUSH2 0x1E0C JUMPI PUSH2 0x2136 SWAP2 PUSH2 0x3DBE JUMP JUMPDEST PUSH2 0x3E5 SWAP1 DUP2 DUP2 MUL SWAP2 DUP2 DUP4 DIV EQ SWAP1 ISZERO OR ISZERO PUSH2 0x1E0C JUMPI PUSH2 0x2153 SWAP2 PUSH2 0x3CA0 JUMP JUMPDEST PUSH1 0x1 DUP2 ADD DUP1 SWAP2 GT PUSH2 0x1E0C JUMPI SWAP8 DUP1 ISZERO PUSH2 0x1E0C JUMPI PUSH32 0xFFFFFFFFFFFFFFFFFFFFFFFFFFFFFFFFFFFFFFFFFFFFFFFFFFFFFFFFFFFFFFFF ADD SWAP1 DUP2 PUSH2 0x1F55 JUMP JUMPDEST PUSH1 0x4 PUSH1 0x40 MLOAD PUSH32 0x7B9C891600000000000000000000000000000000000000000000000000000000 DUP2 MSTORE REVERT JUMPDEST POP DUP2 ISZERO PUSH2 0x210A JUMP JUMPDEST PUSH14 0xFFFFFFFFFFFFFFFFFFFFFFFFFFFF SWAP10 DUP11 AND SWAP10 AND SWAP1 PUSH2 0x2100 JUMP JUMPDEST PUSH2 0x2213 SWAP2 SWAP13 POP PUSH20 0xFFFFFFFFFFFFFFFFFFFFFFFFFFFFFFFFFFFFFFFF SWAP4 POP PUSH1 0x60 RETURNDATASIZE DUP2 GT PUSH2 0x221C JUMPI JUMPDEST PUSH2 0x220B DUP2 DUP4 PUSH2 0x3903 JUMP JUMPDEST DUP2 ADD SWAP1 PUSH2 0x3F80 JUMP JUMPDEST POP SWAP12 SWAP1 SWAP3 PUSH2 0x20CE JUMP JUMPDEST POP RETURNDATASIZE PUSH2 0x2201 JUMP JUMPDEST PUSH1 0x4 PUSH1 0x40 MLOAD PUSH32 0x20DB826700000000000000000000000000000000000000000000000000000000 DUP2 MSTORE REVERT JUMPDEST PUSH1 0x20 DUP1 SWAP2 PUSH2 0x225A DUP5 PUSH2 0xBE6 JUMP JUMPDEST DUP2 MSTORE ADD SWAP2 ADD SWAP1 PUSH2 0x1F06 JUMP JUMPDEST PUSH2 0x1ED8 ADDRESS SWAP4 PUSH2 0xDCB JUMP JUMPDEST SWAP3 SWAP5 POP SWAP2 PUSH1 0xA DUP2 SUB PUSH2 0x23D5 JUMPI POP PUSH1 0x80 MLOAD DUP4 ADD PUSH1 0xE0 DUP2 ADD CALLDATALOAD DUP2 ADD SWAP5 PUSH1 0x20 DUP1 DUP8 ADD CALLDATALOAD SWAP5 POP SWAP1 SWAP3 SWAP2 PUSH2 0x22A2 SWAP2 SWAP1 DUP8 SUB ADD DUP5 PUSH2 0x4456 JUMP JUMPDEST GT PUSH2 0x11CD JUMPI PUSH20 0xFFFFFFFFFFFFFFFFFFFFFFFFFFFFFFFFFFFFFFFF SWAP4 DUP5 PUSH32 0x0 AND SWAP3 DUP6 PUSH1 0x1 SLOAD AND SWAP2 DUP5 EXTCODESIZE ISZERO PUSH2 0xBBE JUMPI PUSH1 0x40 SWAP6 DUP8 DUP8 MLOAD SWAP9 DUP10 SWAP7 DUP8 SWAP7 PUSH32 0x2B67B57000000000000000000000000000000000000000000000000000000000 DUP9 MSTORE PUSH1 0x4 DUP9 ADD MSTORE PUSH2 0x232A SWAP1 PUSH2 0xBE6 JUMP JUMPDEST AND PUSH1 0x24 DUP7 ADD MSTORE DUP1 DUP9 DUP4 PUSH1 0x80 MLOAD ADD ADD PUSH2 0x2341 SWAP1 PUSH2 0xBE6 JUMP JUMPDEST AND PUSH1 0x44 DUP7 ADD MSTORE PUSH6 0xFFFFFFFFFFFF DUP1 DUP4 PUSH1 0x80 MLOAD ADD PUSH1 0x60 ADD PUSH2 0x2360 SWAP1 PUSH2 0x39C6 JUMP JUMPDEST AND PUSH1 0x64 DUP8 ADD MSTORE DUP3 PUSH1 0x80 MLOAD ADD PUSH1 0x80 ADD PUSH2 0x2377 SWAP1 PUSH2 0x39C6 JUMP JUMPDEST AND PUSH1 0x84 DUP7 ADD MSTORE DUP2 PUSH1 0x80 MLOAD ADD PUSH1 0xA0 ADD PUSH2 0x238E SWAP1 PUSH2 0xBE6 JUMP JUMPDEST AND PUSH1 0xA4 DUP6 ADD MSTORE PUSH1 0x80 MLOAD ADD PUSH1 0xC0 ADD CALLDATALOAD PUSH1 0xC4 DUP5 ADD MSTORE PUSH2 0x100 PUSH1 0xE4 DUP5 ADD MSTORE PUSH2 0x23BA SWAP2 PUSH2 0x104 DUP5 ADD SWAP2 DUP8 ADD PUSH2 0x3840 JUMP JUMPDEST SUB DUP2 GAS PUSH1 0x0 SWAP5 DUP6 SWAP2 CALL SWAP1 DUP2 ISZERO PUSH2 0x1B1A JUMPI POP PUSH2 0x1794 JUMPI POP PUSH2 0xFE1 JUMP JUMPDEST PUSH1 0xB DUP2 SUB PUSH2 0x259F JUMPI POP POP POP PUSH2 0x23F4 PUSH1 0x40 DUP1 SWAP3 PUSH1 0x80 MLOAD ADD ADD CALLDATALOAD SWAP3 CALLDATALOAD PUSH2 0x3B5D JUMP JUMPDEST SWAP2 DUP1 PUSH32 0x8000000000000000000000000000000000000000000000000000000000000000 DUP2 SUB PUSH2 0x256F JUMPI POP POP SELFBALANCE JUMPDEST DUP1 PUSH2 0x242E JUMPI POP POP POP PUSH2 0xFE1 JUMP JUMPDEST PUSH20 0xFFFFFFFFFFFFFFFFFFFFFFFFFFFFFFFFFFFFFFFF SWAP1 DUP2 PUSH32 0x0 AND DUP1 EXTCODESIZE ISZERO PUSH2 0xBBE JUMPI DUP4 MLOAD SWAP3 PUSH32 0xD0E30DB000000000000000000000000000000000000000000000000000000000 DUP5 MSTORE PUSH1 0x4 SWAP4 PUSH1 0x0 DUP2 DUP7 DUP2 DUP8 DUP8 GAS CALL DUP1 ISZERO PUSH2 0x2564 JUMPI PUSH2 0x2555 JUMPI JUMPDEST POP ADDRESS SWAP1 DUP7 AND SUB PUSH2 0x24BD JUMPI JUMPDEST POP POP PUSH2 0x1972 JUMP JUMPDEST PUSH2 0x251C SWAP5 PUSH1 0x0 PUSH1 0x20 SWAP5 DUP7 MLOAD SWAP8 DUP9 SWAP6 DUP7 SWAP5 DUP6 SWAP4 PUSH32 0xA9059CBB00000000000000000000000000000000000000000000000000000000 DUP6 MSTORE DUP5 ADD PUSH1 0x20 SWAP1 SWAP4 SWAP3 SWAP2 SWAP4 PUSH20 0xFFFFFFFFFFFFFFFFFFFFFFFFFFFFFFFFFFFFFFFF PUSH1 0x40 DUP3 ADD SWAP6 AND DUP2 MSTORE ADD MSTORE JUMP JUMPDEST SUB SWAP3 GAS CALL SWAP1 DUP2 ISZERO PUSH2 0x1B1A JUMPI POP PUSH2 0x2536 JUMPI JUMPDEST DUP1 DUP1 DUP1 DUP1 PUSH2 0x24B6 JUMP JUMPDEST PUSH2 0x254E SWAP1 PUSH1 0x20 RETURNDATASIZE PUSH1 0x20 GT PUSH2 0x79F JUMPI PUSH2 0x790 DUP2 DUP4 PUSH2 0x3903 JUMP JUMPDEST POP CODESIZE PUSH2 0x252D JUMP JUMPDEST PUSH2 0x255E SWAP1 PUSH2 0x387F JUMP JUMPDEST CODESIZE PUSH2 0x24AB JUMP JUMPDEST DUP7 MLOAD RETURNDATASIZE PUSH1 0x0 DUP3 RETURNDATACOPY RETURNDATASIZE SWAP1 REVERT JUMPDEST SELFBALANCE LT ISZERO PUSH2 0x2421 JUMPI PUSH1 0x4 DUP3 MLOAD PUSH32 0x6A12F10400000000000000000000000000000000000000000000000000000000 DUP2 MSTORE REVERT JUMPDEST PUSH1 0xC DUP2 SUB PUSH2 0x272F JUMPI POP POP POP SWAP1 PUSH2 0x25B5 SWAP1 CALLDATALOAD PUSH2 0x3B5D JUMP JUMPDEST SWAP1 PUSH20 0xFFFFFFFFFFFFFFFFFFFFFFFFFFFFFFFFFFFFFFFF DUP1 PUSH32 0x0 AND PUSH1 0x40 DUP1 MLOAD SWAP4 PUSH32 0x70A0823100000000000000000000000000000000000000000000000000000000 DUP6 MSTORE PUSH1 0x4 ADDRESS DUP2 DUP8 ADD MSTORE PUSH1 0x24 SWAP2 PUSH1 0x20 DUP8 DUP5 DUP2 DUP9 GAS STATICCALL SWAP7 DUP8 ISZERO PUSH2 0x1DC1 JUMPI PUSH1 0x0 SWAP8 PUSH2 0x26FB JUMPI JUMPDEST POP PUSH1 0x80 MLOAD ADD DUP4 ADD CALLDATALOAD DUP7 LT PUSH2 0x26D4 JUMPI DUP6 PUSH2 0x2657 JUMPI JUMPDEST POP POP POP POP POP POP POP PUSH2 0xFE1 JUMP JUMPDEST DUP4 EXTCODESIZE ISZERO PUSH2 0xBBE JUMPI PUSH1 0x0 SWAP2 DUP7 SWAP2 DUP4 DUP6 MLOAD SWAP7 DUP8 SWAP5 DUP6 SWAP4 PUSH32 0x2E1A7D4D00000000000000000000000000000000000000000000000000000000 DUP6 MSTORE DUP5 ADD MSTORE GAS CALL SWAP1 DUP2 ISZERO PUSH2 0x1B1A JUMPI POP PUSH2 0x26C5 JUMPI JUMPDEST POP ADDRESS SWAP1 DUP4 AND SUB PUSH2 0x26B5 JUMPI JUMPDEST DUP1 DUP1 DUP1 DUP1 DUP1 PUSH2 0x264B JUMP JUMPDEST PUSH2 0x26BE SWAP2 PUSH2 0x4657 JUMP JUMPDEST CODESIZE DUP1 PUSH2 0x26AB JUMP JUMPDEST PUSH2 0x26CE SWAP1 PUSH2 0x387F JUMP JUMPDEST CODESIZE PUSH2 0x26A0 JUMP JUMPDEST DUP3 MLOAD PUSH32 0x6A12F10400000000000000000000000000000000000000000000000000000000 DUP2 MSTORE REVERT JUMPDEST SWAP1 SWAP7 PUSH1 0x20 DUP3 RETURNDATASIZE PUSH1 0x20 GT PUSH2 0x2727 JUMPI JUMPDEST DUP2 PUSH2 0x2716 PUSH1 0x20 SWAP4 DUP4 PUSH2 0x3903 JUMP JUMPDEST DUP2 ADD SUB SLT PUSH2 0x324 JUMPI POP MLOAD SWAP6 DUP4 PUSH2 0x2637 JUMP JUMPDEST RETURNDATASIZE SWAP2 POP PUSH2 0x2709 JUMP JUMPDEST PUSH1 0xD DUP2 SUB PUSH2 0x298A JUMPI POP DUP3 PUSH1 0x80 MLOAD ADD ADD SWAP2 PUSH1 0x20 DUP4 ADD SWAP4 PUSH1 0x20 DUP3 PUSH1 0x80 MLOAD ADD DUP6 SUB SLT PUSH2 0xBBE JUMPI CALLDATALOAD PUSH8 0xFFFFFFFFFFFFFFFF DUP2 GT PUSH2 0xBBE JUMPI DUP5 SWAP2 PUSH1 0x80 MLOAD ADD ADD SWAP2 DUP3 ADD SLT ISZERO PUSH2 0xBBE JUMPI PUSH1 0x20 DUP2 ADD CALLDATALOAD SWAP1 PUSH2 0x2781 DUP3 PUSH2 0x39AE JUMP JUMPDEST SWAP4 PUSH1 0x40 SWAP4 PUSH2 0x2791 DUP6 MLOAD SWAP7 DUP8 PUSH2 0x3903 JUMP JUMPDEST DUP4 DUP7 MSTORE PUSH1 0x20 DUP7 ADD SWAP3 DUP6 DUP5 SWAP6 PUSH1 0x7 SHL DUP3 ADD ADD SWAP3 DUP4 GT PUSH2 0xBBE JUMPI DUP6 ADD SWAP3 JUMPDEST DUP3 DUP5 LT PUSH2 0x2928 JUMPI POP POP POP POP PUSH20 0xFFFFFFFFFFFFFFFFFFFFFFFFFFFFFFFFFFFFFFFF SWAP1 DUP2 PUSH1 0x1 SLOAD AND DUP5 MLOAD SWAP1 PUSH1 0x0 JUMPDEST DUP3 DUP2 LT PUSH2 0x28BC JUMPI POP POP POP DUP2 PUSH32 0x0 AND SWAP2 DUP3 EXTCODESIZE ISZERO PUSH2 0xBBE JUMPI DUP4 MLOAD PUSH32 0xD58B1DB00000000000000000000000000000000000000000000000000000000 DUP2 MSTORE PUSH1 0x20 PUSH1 0x4 DUP3 ADD MSTORE SWAP5 MLOAD PUSH1 0x24 DUP7 ADD DUP2 SWAP1 MSTORE DUP6 SWAP3 PUSH1 0x44 DUP5 ADD SWAP3 SWAP1 SWAP2 PUSH1 0x0 SWAP2 JUMPDEST DUP2 DUP4 LT PUSH2 0x2878 JUMPI POP POP POP POP SWAP2 DUP2 PUSH1 0x0 DUP2 DUP2 SWAP6 SUB SWAP3 GAS CALL SWAP1 DUP2 ISZERO PUSH2 0x1B1A JUMPI POP PUSH2 0x1794 JUMPI POP PUSH2 0xFE1 JUMP JUMPDEST SWAP2 SWAP4 DUP4 SWAP6 POP PUSH1 0x80 PUSH1 0x20 SWAP2 DUP5 PUSH1 0x60 PUSH1 0x1 SWAP6 SWAP8 MLOAD DUP3 DUP2 MLOAD AND DUP5 MSTORE DUP3 DUP7 DUP3 ADD MLOAD AND DUP7 DUP6 ADD MSTORE DUP3 DUP14 DUP3 ADD MLOAD AND DUP14 DUP6 ADD MSTORE ADD MLOAD AND PUSH1 0x60 DUP3 ADD MSTORE ADD SWAP6 ADD SWAP4 ADD SWAP1 SWAP2 DUP8 SWAP5 SWAP4 SWAP3 PUSH2 0x2850 JUMP JUMPDEST DUP2 DUP6 PUSH2 0x28C8 DUP4 DUP11 PUSH2 0x3D79 JUMP JUMPDEST MLOAD MLOAD AND SUB PUSH2 0x28FF JUMPI PUSH32 0xFFFFFFFFFFFFFFFFFFFFFFFFFFFFFFFFFFFFFFFFFFFFFFFFFFFFFFFFFFFFFFFF DUP2 EQ PUSH2 0x1E0C JUMPI PUSH1 0x1 ADD PUSH2 0x27D9 JUMP JUMPDEST PUSH1 0x4 DUP7 MLOAD PUSH32 0xE700287700000000000000000000000000000000000000000000000000000000 DUP2 MSTORE REVERT JUMPDEST PUSH1 0x80 PUSH1 0x20 DUP6 DUP5 SUB ADD SLT PUSH2 0xBBE JUMPI PUSH1 0x20 PUSH1 0x80 SWAP2 DUP8 MLOAD PUSH2 0x2945 DUP2 PUSH2 0x3893 JUMP JUMPDEST PUSH2 0x294E DUP8 PUSH2 0xBE6 JUMP JUMPDEST DUP2 MSTORE PUSH2 0x295B DUP4 DUP9 ADD PUSH2 0xBE6 JUMP JUMPDEST DUP4 DUP3 ADD MSTORE PUSH2 0x296A DUP10 DUP9 ADD PUSH2 0xBE6 JUMP JUMPDEST DUP10 DUP3 ADD MSTORE PUSH2 0x297A PUSH1 0x60 DUP9 ADD PUSH2 0xBE6 JUMP JUMPDEST PUSH1 0x60 DUP3 ADD MSTORE DUP2 MSTORE ADD SWAP4 ADD SWAP3 PUSH2 0x27AD JUMP JUMPDEST SWAP3 SWAP5 POP POP POP PUSH1 0xE DUP2 SUB PUSH2 0x2A8C JUMPI POP PUSH1 0x40 SWAP2 DUP3 MLOAD SWAP1 PUSH32 0x70A0823100000000000000000000000000000000000000000000000000000000 DUP3 MSTORE PUSH1 0x20 DUP3 PUSH1 0x24 DUP2 PUSH20 0xFFFFFFFFFFFFFFFFFFFFFFFFFFFFFFFFFFFFFFFF DUP1 PUSH1 0x4 SWAP9 CALLDATALOAD AND DUP9 DUP4 ADD MSTORE DUP9 DUP7 PUSH1 0x80 MLOAD ADD ADD CALLDATALOAD AND GAS STATICCALL SWAP2 DUP3 ISZERO PUSH2 0x1DC1 JUMPI PUSH1 0x0 SWAP3 PUSH2 0x2A57 JUMPI JUMPDEST POP PUSH1 0x80 MLOAD ADD PUSH1 0x60 ADD CALLDATALOAD GT DUP1 ISZERO SWAP3 SWAP1 PUSH2 0x2A19 JUMPI POP POP PUSH2 0xFE1 JUMP JUMPDEST MLOAD PUSH32 0xA328167200000000000000000000000000000000000000000000000000000000 PUSH1 0x20 DUP3 ADD MSTORE SWAP1 DUP2 MSTORE SWAP1 SWAP2 POP PUSH2 0x2A4F DUP2 PUSH2 0x38CB JUMP JUMPDEST SWAP1 CODESIZE DUP1 PUSH2 0x18E0 JUMP JUMPDEST SWAP1 SWAP2 PUSH1 0x20 DUP3 RETURNDATASIZE PUSH1 0x20 GT PUSH2 0x2A84 JUMPI JUMPDEST DUP2 PUSH2 0x2A72 PUSH1 0x20 SWAP4 DUP4 PUSH2 0x3903 JUMP JUMPDEST DUP2 ADD SUB SLT PUSH2 0x324 JUMPI POP MLOAD SWAP1 PUSH1 0x60 PUSH2 0x2A00 JUMP JUMPDEST RETURNDATASIZE SWAP2 POP PUSH2 0x2A65 JUMP JUMPDEST PUSH1 0x24 SWAP1 PUSH1 0x40 MLOAD SWAP1 PUSH32 0xD76A1E9E00000000000000000000000000000000000000000000000000000000 DUP3 MSTORE PUSH1 0x4 DUP3 ADD MSTORE REVERT JUMPDEST SWAP2 POP SWAP2 POP PUSH1 0x18 SWAP12 SWAP6 SWAP4 SWAP9 SWAP8 SWAP10 SWAP7 SWAP3 SWAP5 SWAP12 DUP1 DUP4 LT PUSH1 0x0 EQ PUSH2 0x304C JUMPI POP DUP2 SUB PUSH2 0x2B33 JUMPI POP POP POP PUSH1 0x0 SWAP3 POP SWAP1 PUSH2 0x2AF1 DUP4 SWAP3 DUP3 PUSH2 0x4484 JUMP JUMPDEST DUP2 PUSH1 0x40 MLOAD SWAP3 DUP4 SWAP3 DUP4 CALLDATACOPY DUP2 ADD DUP5 DUP2 MSTORE SUB SWAP2 CALLDATALOAD PUSH32 0x0 GAS CALL PUSH2 0x2B2D PUSH2 0x397E JUMP JUMPDEST SWAP1 PUSH2 0xFE1 JUMP JUMPDEST PUSH1 0x11 DUP2 SUB PUSH2 0x2B8A JUMPI POP POP POP PUSH1 0x0 SWAP3 POP SWAP1 PUSH2 0x2B4E DUP4 SWAP3 DUP3 PUSH2 0x4484 JUMP JUMPDEST DUP2 PUSH1 0x40 MLOAD SWAP3 DUP4 SWAP3 DUP4 CALLDATACOPY DUP2 ADD DUP5 DUP2 MSTORE SUB SWAP2 CALLDATALOAD PUSH32 0x0 GAS CALL PUSH2 0x2B2D PUSH2 0x397E JUMP JUMPDEST PUSH1 0x12 DUP2 SUB PUSH2 0x2BE1 JUMPI POP POP POP PUSH1 0x0 SWAP3 POP SWAP1 PUSH2 0x2BA5 DUP4 SWAP3 DUP3 PUSH2 0x4484 JUMP JUMPDEST DUP2 PUSH1 0x40 MLOAD SWAP3 DUP4 SWAP3 DUP4 CALLDATACOPY DUP2 ADD DUP5 DUP2 MSTORE SUB SWAP2 CALLDATALOAD PUSH32 0x0 GAS CALL PUSH2 0x2B2D PUSH2 0x397E JUMP JUMPDEST SWAP2 SWAP4 SWAP3 POP SWAP1 PUSH1 0x13 DUP2 SUB PUSH2 0x2D47 JUMPI POP POP SWAP1 SWAP2 POP CALLDATALOAD PUSH32 0x0 SWAP2 PUSH1 0x40 PUSH1 0x0 DUP1 DUP3 MLOAD PUSH1 0x20 DUP2 ADD SWAP1 PUSH32 0x8264FE9800000000000000000000000000000000000000000000000000000000 DUP3 MSTORE PUSH1 0x24 DUP8 DUP2 DUP4 ADD MSTORE DUP2 MSTORE PUSH2 0x2C57 DUP2 PUSH2 0x38E7 JUMP JUMPDEST MLOAD SWAP1 PUSH1 0x60 DUP7 PUSH1 0x80 MLOAD ADD ADD CALLDATALOAD DUP9 GAS CALL SWAP3 PUSH2 0x2C6E PUSH2 0x397E JUMP JUMPDEST SWAP5 DUP5 ISZERO PUSH2 0x2D0D JUMPI DUP3 PUSH20 0xFFFFFFFFFFFFFFFFFFFFFFFFFFFFFFFFFFFFFFFF PUSH2 0x2C9C SWAP3 AND SWAP5 PUSH1 0x80 MLOAD ADD ADD CALLDATALOAD PUSH2 0x3B5D JUMP JUMPDEST SWAP1 DUP4 EXTCODESIZE ISZERO PUSH2 0xBBE JUMPI DUP3 MLOAD PUSH32 0x8B72A2EC00000000000000000000000000000000000000000000000000000000 DUP2 MSTORE PUSH20 0xFFFFFFFFFFFFFFFFFFFFFFFFFFFFFFFFFFFFFFFF SWAP3 SWAP1 SWAP3 AND PUSH1 0x4 DUP4 ADD MSTORE PUSH1 0x24 DUP3 ADD MSTORE SWAP2 PUSH1 0x0 SWAP1 DUP4 SWAP1 PUSH1 0x44 SWAP1 DUP3 SWAP1 DUP5 SWAP1 GAS CALL SWAP1 DUP2 ISZERO PUSH2 0x1B1A JUMPI POP PUSH2 0x1794 JUMPI POP PUSH2 0xFE1 JUMP JUMPDEST POP POP SWAP2 SWAP3 POP POP MLOAD PUSH32 0xAE9BDF0000000000000000000000000000000000000000000000000000000000 PUSH1 0x20 DUP3 ADD MSTORE PUSH1 0x4 DUP2 MSTORE PUSH2 0x2B2D DUP2 PUSH2 0x38CB JUMP JUMPDEST PUSH1 0x15 DUP2 SUB PUSH2 0x2E58 JUMPI POP POP SWAP1 PUSH1 0x40 SWAP2 DUP3 DUP1 MLOAD SWAP2 PUSH32 0x6352211E00000000000000000000000000000000000000000000000000000000 DUP4 MSTORE PUSH1 0x20 DUP4 PUSH1 0x24 DUP2 PUSH1 0x4 SWAP8 PUSH1 0x60 DUP2 PUSH1 0x80 MLOAD ADD ADD CALLDATALOAD DUP10 DUP4 ADD MSTORE PUSH20 0xFFFFFFFFFFFFFFFFFFFFFFFFFFFFFFFFFFFFFFFF SWAP7 DUP8 SWAP2 PUSH1 0x80 MLOAD ADD ADD CALLDATALOAD AND GAS STATICCALL SWAP3 DUP4 ISZERO PUSH2 0x2E4D JUMPI PUSH1 0x0 SWAP4 PUSH2 0x2E0E JUMPI JUMPDEST POP DUP2 SWAP1 CALLDATALOAD AND SWAP2 AND EQ SWAP2 DUP3 ISZERO PUSH2 0x2DD8 JUMPI POP POP PUSH2 0xFE1 JUMP JUMPDEST MLOAD PUSH32 0x7DBE7E8900000000000000000000000000000000000000000000000000000000 PUSH1 0x20 DUP3 ADD MSTORE SWAP1 DUP2 MSTORE SWAP1 SWAP2 POP PUSH2 0x2A4F DUP2 PUSH2 0x38CB JUMP JUMPDEST PUSH1 0x20 SWAP4 SWAP2 SWAP4 DUP2 RETURNDATASIZE PUSH1 0x20 GT PUSH2 0x2E45 JUMPI JUMPDEST DUP2 PUSH2 0x2E2A PUSH1 0x20 SWAP4 DUP4 PUSH2 0x3903 JUMP JUMPDEST DUP2 ADD SUB SLT PUSH2 0x5B4 JUMPI MLOAD SWAP1 DUP3 DUP3 AND DUP3 SUB PUSH2 0x324 JUMPI POP SWAP2 DUP2 PUSH2 0x2DC2 JUMP JUMPDEST RETURNDATASIZE SWAP2 POP PUSH2 0x2E1D JUMP JUMPDEST DUP6 MLOAD RETURNDATASIZE PUSH1 0x0 DUP3 RETURNDATACOPY RETURNDATASIZE SWAP1 REVERT JUMPDEST PUSH1 0x16 DUP2 SUB PUSH2 0x2F7F JUMPI POP POP PUSH1 0x40 SWAP2 DUP3 MLOAD SWAP1 PUSH31 0xFDD58E00000000000000000000000000000000000000000000000000000000 DUP3 MSTORE PUSH1 0x20 DUP3 DUP1 PUSH2 0x2ECA PUSH1 0x4 SWAP7 PUSH1 0x60 DUP7 PUSH1 0x80 MLOAD ADD ADD CALLDATALOAD SWAP1 CALLDATALOAD DUP9 DUP5 ADD PUSH1 0x20 SWAP1 SWAP4 SWAP3 SWAP2 SWAP4 PUSH20 0xFFFFFFFFFFFFFFFFFFFFFFFFFFFFFFFFFFFFFFFF PUSH1 0x40 DUP3 ADD SWAP6 AND DUP2 MSTORE ADD MSTORE JUMP JUMPDEST SUB DUP2 PUSH20 0xFFFFFFFFFFFFFFFFFFFFFFFFFFFFFFFFFFFFFFFF DUP9 DUP7 PUSH1 0x80 MLOAD ADD ADD CALLDATALOAD AND GAS STATICCALL SWAP2 DUP3 ISZERO PUSH2 0x1DC1 JUMPI PUSH1 0x0 SWAP3 PUSH2 0x2F4A JUMPI JUMPDEST POP PUSH1 0x80 SWAP1 DUP2 MLOAD ADD ADD CALLDATALOAD GT SWAP2 DUP3 ISZERO SWAP3 PUSH2 0x2F14 JUMPI POP POP PUSH2 0xFE1 JUMP JUMPDEST MLOAD PUSH32 0x483A692900000000000000000000000000000000000000000000000000000000 PUSH1 0x20 DUP3 ADD MSTORE SWAP1 DUP2 MSTORE SWAP1 SWAP2 POP PUSH2 0x2A4F DUP2 PUSH2 0x38CB JUMP JUMPDEST SWAP1 SWAP2 PUSH1 0x20 DUP3 RETURNDATASIZE PUSH1 0x20 GT PUSH2 0x2F77 JUMPI JUMPDEST DUP2 PUSH2 0x2F65 PUSH1 0x20 SWAP4 DUP4 PUSH2 0x3903 JUMP JUMPDEST DUP2 ADD SUB SLT PUSH2 0x324 JUMPI POP MLOAD SWAP1 PUSH1 0x80 PUSH2 0x2EFB JUMP JUMPDEST RETURNDATASIZE SWAP2 POP PUSH2 0x2F58 JUMP JUMPDEST SWAP1 SWAP3 SWAP1 PUSH1 0x17 EQ PUSH2 0x2F90 JUMPI POP POP PUSH2 0xFE1 JUMP JUMPDEST PUSH1 0x40 SWAP1 PUSH20 0xFFFFFFFFFFFFFFFFFFFFFFFFFFFFFFFFFFFFFFFF PUSH2 0x2FB8 DUP4 DUP4 PUSH1 0x80 MLOAD ADD ADD CALLDATALOAD PUSH2 0x3B5D JUMP JUMPDEST SWAP4 CALLDATALOAD AND SWAP3 DUP4 EXTCODESIZE ISZERO PUSH2 0xBBE JUMPI DUP3 MLOAD PUSH32 0x42842E0E00000000000000000000000000000000000000000000000000000000 DUP2 MSTORE PUSH1 0x80 MLOAD ADDRESS PUSH1 0x4 DUP4 ADD MSTORE PUSH20 0xFFFFFFFFFFFFFFFFFFFFFFFFFFFFFFFFFFFFFFFF SWAP1 SWAP3 AND PUSH1 0x24 DUP3 ADD MSTORE SWAP2 ADD PUSH1 0x60 ADD CALLDATALOAD PUSH1 0x44 DUP3 ADD MSTORE SWAP2 PUSH1 0x0 SWAP1 DUP4 SWAP1 DUP2 DUP4 DUP2 PUSH1 0x64 DUP2 ADD SUB SWAP3 GAS CALL SWAP1 DUP2 ISZERO PUSH2 0x1B1A JUMPI POP PUSH2 0x303D JUMPI JUMPDEST DUP1 PUSH2 0x18E0 JUMP JUMPDEST PUSH2 0x3046 SWAP1 PUSH2 0x387F JUMP JUMPDEST CODESIZE PUSH2 0x3037 JUMP JUMPDEST SWAP4 SWAP7 SWAP4 DUP3 EQ ISZERO SWAP1 POP PUSH2 0x3087 JUMPI POP POP POP PUSH2 0x2B2D SWAP3 POP PUSH32 0x0 SWAP2 PUSH2 0x3A20 JUMP JUMPDEST PUSH1 0x19 DUP2 SUB PUSH2 0x30DE JUMPI POP POP POP PUSH1 0x0 SWAP3 POP SWAP1 PUSH2 0x30A2 DUP4 SWAP3 DUP3 PUSH2 0x4484 JUMP JUMPDEST DUP2 PUSH1 0x40 MLOAD SWAP3 DUP4 SWAP3 DUP4 CALLDATACOPY DUP2 ADD DUP5 DUP2 MSTORE SUB SWAP2 CALLDATALOAD PUSH32 0x0 GAS CALL PUSH2 0x2B2D PUSH2 0x397E JUMP JUMPDEST PUSH1 0x1A DUP2 SUB PUSH2 0x3135 JUMPI POP POP POP PUSH1 0x0 SWAP3 POP SWAP1 PUSH2 0x30F9 DUP4 SWAP3 DUP3 PUSH2 0x4484 JUMP JUMPDEST DUP2 PUSH1 0x40 MLOAD SWAP3 DUP4 SWAP3 DUP4 CALLDATACOPY DUP2 ADD DUP5 DUP2 MSTORE SUB SWAP2 CALLDATALOAD PUSH32 0x0 GAS CALL PUSH2 0x2B2D PUSH2 0x397E JUMP JUMPDEST PUSH1 0x1B DUP2 SUB PUSH2 0x325C JUMPI POP POP POP PUSH1 0x0 PUSH2 0x314D DUP2 SWAP3 DUP5 PUSH2 0x4484 JUMP JUMPDEST SWAP4 SWAP1 PUSH1 0x40 SWAP5 DUP2 DUP7 MLOAD SWAP3 DUP4 SWAP3 DUP4 CALLDATACOPY DUP2 ADD DUP5 DUP2 MSTORE SUB SWAP2 CALLDATALOAD PUSH32 0x0 GAS CALL SWAP2 DUP3 SWAP2 PUSH2 0x3190 PUSH2 0x397E JUMP JUMPDEST SWAP3 PUSH2 0x319E JUMPI JUMPDEST POP POP SWAP1 PUSH2 0xFE1 JUMP JUMPDEST PUSH20 0xFFFFFFFFFFFFFFFFFFFFFFFFFFFFFFFFFFFFFFFF PUSH1 0x80 DUP4 DUP2 MLOAD ADD ADD CALLDATALOAD AND PUSH2 0x31CD PUSH1 0x60 DUP5 PUSH1 0x80 MLOAD ADD ADD CALLDATALOAD PUSH2 0x3B5D JUMP JUMPDEST SWAP1 DUP3 MLOAD SWAP1 PUSH2 0x31DA DUP3 PUSH2 0x38AF JUMP JUMPDEST PUSH1 0x0 DUP3 MSTORE DUP1 EXTCODESIZE ISZERO PUSH2 0xBBE JUMPI PUSH2 0x3236 SWAP5 PUSH1 0x0 DUP1 SWAP5 DUP7 MLOAD SWAP8 DUP9 SWAP6 DUP7 SWAP5 DUP6 SWAP4 PUSH32 0xF242432A00000000000000000000000000000000000000000000000000000000 DUP6 MSTORE PUSH1 0xA0 PUSH1 0xC0 DUP4 PUSH1 0x80 MLOAD ADD ADD CALLDATALOAD SWAP3 PUSH1 0x80 MLOAD ADD ADD CALLDATALOAD SWAP1 ADDRESS PUSH1 0x4 DUP8 ADD PUSH2 0x3B18 JUMP JUMPDEST SUB SWAP3 GAS CALL SWAP1 DUP2 ISZERO PUSH2 0x1B1A JUMPI POP PUSH2 0x324D JUMPI JUMPDEST DUP1 PUSH2 0x3196 JUMP JUMPDEST PUSH2 0x3256 SWAP1 PUSH2 0x387F JUMP JUMPDEST CODESIZE PUSH2 0x3247 JUMP JUMPDEST SWAP2 SWAP5 SWAP1 SWAP2 PUSH1 0x1C DUP2 SUB PUSH2 0x3297 JUMPI POP POP POP PUSH2 0x2B2D SWAP3 POP PUSH32 0x0 SWAP2 PUSH2 0x3A20 JUMP JUMPDEST SWAP2 SWAP4 SWAP3 SWAP1 SWAP2 PUSH1 0x1D DUP2 SUB PUSH2 0x3420 JUMPI POP POP PUSH1 0x60 DUP2 PUSH1 0x80 MLOAD ADD ADD CALLDATALOAD SWAP1 PUSH1 0x40 SWAP2 PUSH20 0xFFFFFFFFFFFFFFFFFFFFFFFFFFFFFFFFFFFFFFFF PUSH2 0x32D8 DUP5 DUP5 PUSH1 0x80 MLOAD ADD ADD CALLDATALOAD PUSH2 0x3B5D JUMP JUMPDEST SWAP5 CALLDATALOAD AND DUP4 MLOAD SWAP5 PUSH31 0xFDD58E00000000000000000000000000000000000000000000000000000000 DUP7 MSTORE PUSH1 0x4 SWAP4 PUSH1 0x20 DUP8 DUP1 PUSH2 0x3337 DUP8 ADDRESS DUP11 DUP5 ADD PUSH1 0x20 SWAP1 SWAP4 SWAP3 SWAP2 SWAP4 PUSH20 0xFFFFFFFFFFFFFFFFFFFFFFFFFFFFFFFFFFFFFFFF PUSH1 0x40 DUP3 ADD SWAP6 AND DUP2 MSTORE ADD MSTORE JUMP JUMPDEST SUB DUP2 DUP7 GAS STATICCALL SWAP7 DUP8 ISZERO PUSH2 0x2564 JUMPI PUSH1 0x0 SWAP8 PUSH2 0x33EB JUMPI JUMPDEST POP PUSH1 0x80 SWAP1 DUP2 MLOAD ADD ADD CALLDATALOAD DUP7 LT PUSH2 0x33C3 JUMPI DUP5 MLOAD PUSH2 0x3365 DUP2 PUSH2 0x38AF JUMP JUMPDEST PUSH1 0x0 DUP2 MSTORE DUP3 EXTCODESIZE ISZERO PUSH2 0xBBE JUMPI PUSH1 0x0 SWAP5 PUSH2 0x33AD DUP7 SWAP3 DUP9 MLOAD SWAP10 DUP11 SWAP8 DUP9 SWAP7 DUP8 SWAP6 PUSH32 0xF242432A00000000000000000000000000000000000000000000000000000000 DUP8 MSTORE ADDRESS SWAP1 DUP8 ADD PUSH2 0x3B18 JUMP JUMPDEST SUB SWAP3 GAS CALL SWAP1 DUP2 ISZERO PUSH2 0x1B1A JUMPI POP PUSH2 0x1794 JUMPI POP PUSH2 0xFE1 JUMP JUMPDEST DUP4 DUP6 MLOAD PUSH32 0x675CAE3800000000000000000000000000000000000000000000000000000000 DUP2 MSTORE REVERT JUMPDEST SWAP1 SWAP7 PUSH1 0x20 DUP3 RETURNDATASIZE PUSH1 0x20 GT PUSH2 0x3418 JUMPI JUMPDEST DUP2 PUSH2 0x3406 PUSH1 0x20 SWAP4 DUP4 PUSH2 0x3903 JUMP JUMPDEST DUP2 ADD SUB SLT PUSH2 0x324 JUMPI POP MLOAD SWAP6 PUSH1 0x80 PUSH2 0x334B JUMP JUMPDEST RETURNDATASIZE SWAP2 POP PUSH2 0x33F9 JUMP JUMPDEST SWAP3 SWAP5 POP SWAP3 POP POP PUSH1 0x1E DUP2 SUB PUSH2 0x2A8C JUMPI POP DUP2 PUSH2 0x343E PUSH1 0x0 SWAP4 SWAP3 DUP5 SWAP4 PUSH2 0x4484 JUMP JUMPDEST DUP2 PUSH1 0x40 MLOAD SWAP3 DUP4 SWAP3 DUP4 CALLDATACOPY DUP2 ADD DUP5 DUP2 MSTORE SUB SWAP2 CALLDATALOAD PUSH32 0x0 GAS CALL PUSH2 0x2B2D PUSH2 0x397E JUMP JUMPDEST SWAP5 SWAP10 SWAP9 SWAP11 SWAP3 POP PUSH1 0x20 DUP2 SWAP14 SWAP8 SWAP3 SWAP7 SWAP14 SWAP9 SWAP5 SWAP9 EQ PUSH1 0x0 EQ PUSH2 0x34E3 JUMPI POP POP POP POP POP POP DUP1 PUSH2 0x34A7 PUSH1 0x0 SWAP4 DUP5 SWAP4 PUSH2 0x4484 JUMP JUMPDEST DUP2 PUSH1 0x40 MLOAD SWAP3 DUP4 SWAP3 DUP4 CALLDATACOPY DUP2 ADD DUP5 DUP2 MSTORE SUB SWAP2 CALLDATALOAD PUSH32 0x0 GAS CALL PUSH2 0x2B2D PUSH2 0x397E JUMP JUMPDEST PUSH1 0x21 SWAP1 DUP1 DUP3 SUB PUSH2 0x365A JUMPI POP POP POP POP SWAP1 SWAP2 PUSH2 0x3508 PUSH2 0x3500 DUP7 DUP7 PUSH2 0x4463 JUMP JUMPDEST SWAP7 SWAP1 SWAP6 PUSH2 0x4484 JUMP JUMPDEST SWAP3 SWAP1 PUSH2 0x354A PUSH1 0x40 SWAP8 DUP9 MLOAD SWAP8 PUSH1 0x20 DUP10 ADD SWAP10 PUSH32 0x24856BC300000000000000000000000000000000000000000000000000000000 DUP12 MSTORE PUSH1 0x24 DUP11 ADD MSTORE PUSH1 0x64 DUP10 ADD SWAP2 PUSH2 0x3840 JUMP JUMPDEST PUSH32 0xFFFFFFFFFFFFFFFFFFFFFFFFFFFFFFFFFFFFFFFFFFFFFFFFFFFFFFFFFFFFFFDC DUP8 DUP3 SUB ADD PUSH1 0x44 DUP9 ADD MSTORE DUP2 DUP2 MSTORE PUSH1 0x20 DUP3 DUP2 DUP4 ADD SWAP6 SHL DUP3 ADD ADD SWAP6 DUP6 PUSH1 0x0 SWAP2 JUMPDEST DUP5 DUP4 LT PUSH2 0x35DC JUMPI POP POP POP POP POP POP POP POP SWAP2 DUP2 PUSH2 0x35CE PUSH1 0x0 SWAP5 SWAP4 DUP6 SWAP5 SUB PUSH32 0xFFFFFFFFFFFFFFFFFFFFFFFFFFFFFFFFFFFFFFFFFFFFFFFFFFFFFFFFFFFFFFE0 DUP2 ADD DUP4 MSTORE DUP3 PUSH2 0x3903 JUMP JUMPDEST MLOAD SWAP1 DUP3 ADDRESS GAS CALL PUSH2 0x2B2D PUSH2 0x397E JUMP JUMPDEST SWAP1 SWAP2 SWAP3 SWAP4 SWAP5 SWAP6 SWAP7 SWAP8 PUSH32 0xFFFFFFFFFFFFFFFFFFFFFFFFFFFFFFFFFFFFFFFFFFFFFFFFFFFFFFFFFFFFFFE0 DUP6 DUP3 SUB ADD DUP9 MSTORE DUP9 CALLDATALOAD DUP3 DUP5 CALLDATASIZE SUB ADD DUP2 SLT ISZERO PUSH2 0xBBE JUMPI DUP4 ADD SWAP1 PUSH1 0x20 DUP3 CALLDATALOAD SWAP3 ADD SWAP2 PUSH8 0xFFFFFFFFFFFFFFFF DUP2 GT PUSH2 0xBBE JUMPI DUP1 CALLDATASIZE SUB DUP4 SGT PUSH2 0xBBE JUMPI PUSH2 0x364A PUSH1 0x20 SWAP3 DUP4 SWAP3 DUP12 SWAP6 PUSH2 0x3840 JUMP JUMPDEST SWAP11 ADD SWAP9 ADD SWAP7 SWAP6 SWAP5 SWAP4 ADD SWAP2 SWAP1 PUSH2 0x3588 JUMP JUMPDEST SWAP3 SWAP8 POP SWAP3 SWAP6 SWAP4 POP SWAP4 POP PUSH1 0x22 DUP2 EQ PUSH1 0x0 EQ PUSH2 0x2A8C JUMPI POP PUSH1 0x40 DUP1 SWAP4 PUSH1 0x80 MLOAD ADD ADD CALLDATALOAD SWAP1 PUSH1 0x0 SWAP1 PUSH1 0x2 DUP4 LT ISZERO PUSH2 0x37EA JUMPI POP POP DUP1 DUP5 SWAP2 ISZERO PUSH1 0x0 EQ PUSH2 0x3792 JUMPI POP POP PUSH1 0x0 SWAP1 PUSH32 0x0 SWAP3 JUMPDEST PUSH1 0x20 DUP4 DUP3 MLOAD SWAP4 PUSH32 0x95EA7B300000000000000000000000000000000000000000000000000000000 DUP6 MSTORE PUSH1 0x4 SWAP7 DUP8 DUP7 ADD MSTORE PUSH1 0x24 SWAP5 PUSH32 0xFFFFFFFFFFFFFFFFFFFFFFFFFFFFFFFFFFFFFFFFFFFFFFFFFFFFFFFFFFFFFFFF DUP7 DUP3 ADD MSTORE PUSH1 0x44 SWAP7 DUP8 SWAP3 CALLDATALOAD GAS CALL RETURNDATASIZE ISZERO PUSH1 0x1F RETURNDATASIZE GT DUP8 PUSH1 0x0 MLOAD EQ AND OR AND ISZERO PUSH2 0x3737 JUMPI POP POP POP POP PUSH2 0xFE1 JUMP JUMPDEST SWAP2 PUSH1 0xE PUSH32 0x415050524F56455F4641494C4544000000000000000000000000000000000000 SWAP3 PUSH1 0x20 PUSH1 0x64 SWAP7 SWAP6 MLOAD SWAP6 PUSH32 0x8C379A000000000000000000000000000000000000000000000000000000000 DUP8 MSTORE DUP7 ADD MSTORE DUP5 ADD MSTORE DUP3 ADD MSTORE REVERT JUMPDEST SUB PUSH2 0x37C1 JUMPI PUSH1 0x0 SWAP1 PUSH32 0x0 SWAP3 PUSH2 0x36BB JUMP JUMPDEST PUSH1 0x4 DUP3 MLOAD PUSH32 0x5461585F00000000000000000000000000000000000000000000000000000000 DUP2 MSTORE REVERT JUMPDEST PUSH1 0x24 SWAP3 POP PUSH32 0x4E487B7100000000000000000000000000000000000000000000000000000000 DUP3 MSTORE PUSH1 0x4 MSTORE REVERT JUMPDEST PUSH1 0x4 PUSH1 0x40 MLOAD PUSH32 0xFF633A3800000000000000000000000000000000000000000000000000000000 DUP2 MSTORE REVERT JUMPDEST PUSH1 0x1F DUP3 PUSH1 0x20 SWAP5 SWAP4 PUSH32 0xFFFFFFFFFFFFFFFFFFFFFFFFFFFFFFFFFFFFFFFFFFFFFFFFFFFFFFFFFFFFFFE0 SWAP4 DUP2 DUP7 MSTORE DUP7 DUP7 ADD CALLDATACOPY PUSH1 0x0 DUP6 DUP3 DUP7 ADD ADD MSTORE ADD AND ADD ADD SWAP1 JUMP JUMPDEST PUSH8 0xFFFFFFFFFFFFFFFF DUP2 GT PUSH2 0x10ED JUMPI PUSH1 0x40 MSTORE JUMP JUMPDEST PUSH1 0x80 DUP2 ADD SWAP1 DUP2 LT PUSH8 0xFFFFFFFFFFFFFFFF DUP3 GT OR PUSH2 0x10ED JUMPI PUSH1 0x40 MSTORE JUMP JUMPDEST PUSH1 0x20 DUP2 ADD SWAP1 DUP2 LT PUSH8 0xFFFFFFFFFFFFFFFF DUP3 GT OR PUSH2 0x10ED JUMPI PUSH1 0x40 MSTORE JUMP JUMPDEST PUSH1 0x40 DUP2 ADD SWAP1 DUP2 LT PUSH8 0xFFFFFFFFFFFFFFFF DUP3 GT OR PUSH2 0x10ED JUMPI PUSH1 0x40 MSTORE JUMP JUMPDEST PUSH1 0x60 DUP2 ADD SWAP1 DUP2 LT PUSH8 0xFFFFFFFFFFFFFFFF DUP3 GT OR PUSH2 0x10ED JUMPI PUSH1 0x40 MSTORE JUMP JUMPDEST SWAP1 PUSH1 0x1F PUSH32 0xFFFFFFFFFFFFFFFFFFFFFFFFFFFFFFFFFFFFFFFFFFFFFFFFFFFFFFFFFFFFFFE0 SWAP2 ADD AND DUP2 ADD SWAP1 DUP2 LT PUSH8 0xFFFFFFFFFFFFFFFF DUP3 GT OR PUSH2 0x10ED JUMPI PUSH1 0x40 MSTORE JUMP JUMPDEST PUSH8 0xFFFFFFFFFFFFFFFF DUP2 GT PUSH2 0x10ED JUMPI PUSH1 0x1F ADD PUSH32 0xFFFFFFFFFFFFFFFFFFFFFFFFFFFFFFFFFFFFFFFFFFFFFFFFFFFFFFFFFFFFFFE0 AND PUSH1 0x20 ADD SWAP1 JUMP JUMPDEST RETURNDATASIZE ISZERO PUSH2 0x39A9 JUMPI RETURNDATASIZE SWAP1 PUSH2 0x398F DUP3 PUSH2 0x3944 JUMP JUMPDEST SWAP2 PUSH2 0x399D PUSH1 0x40 MLOAD SWAP4 DUP5 PUSH2 0x3903 JUMP JUMPDEST DUP3 MSTORE RETURNDATASIZE PUSH1 0x0 PUSH1 0x20 DUP5 ADD RETURNDATACOPY JUMP JUMPDEST PUSH1 0x60 SWAP1 JUMP JUMPDEST PUSH8 0xFFFFFFFFFFFFFFFF DUP2 GT PUSH2 0x10ED JUMPI PUSH1 0x5 SHL PUSH1 0x20 ADD SWAP1 JUMP JUMPDEST CALLDATALOAD SWAP1 PUSH6 0xFFFFFFFFFFFF DUP3 AND DUP3 SUB PUSH2 0xBBE JUMPI JUMP JUMPDEST DUP2 PUSH1 0x1F DUP3 ADD SLT ISZERO PUSH2 0xBBE JUMPI DUP1 CALLDATALOAD SWAP1 PUSH2 0x39F0 DUP3 PUSH2 0x3944 JUMP JUMPDEST SWAP3 PUSH2 0x39FE PUSH1 0x40 MLOAD SWAP5 DUP6 PUSH2 0x3903 JUMP JUMPDEST DUP3 DUP5 MSTORE PUSH1 0x20 DUP4 DUP4 ADD ADD GT PUSH2 0xBBE JUMPI DUP2 PUSH1 0x0 SWAP3 PUSH1 0x20 DUP1 SWAP4 ADD DUP4 DUP7 ADD CALLDATACOPY DUP4 ADD ADD MSTORE SWAP1 JUMP JUMPDEST SWAP2 SWAP3 SWAP1 PUSH2 0x3A2D SWAP1 DUP4 PUSH2 0x4484 JUMP JUMPDEST SWAP1 SWAP4 DUP5 PUSH1 0x40 MLOAD SWAP6 DUP7 SWAP4 DUP5 CALLDATACOPY DUP3 ADD SWAP1 PUSH1 0x0 SWAP6 DUP7 SWAP4 DUP4 DUP6 DUP1 SWAP6 MSTORE SUB SWAP2 DUP7 CALLDATALOAD SWAP1 GAS CALL SWAP3 PUSH2 0x3A55 PUSH2 0x397E JUMP JUMPDEST SWAP3 DUP5 PUSH2 0x3A5F JUMPI POP POP JUMP JUMPDEST PUSH20 0xFFFFFFFFFFFFFFFFFFFFFFFFFFFFFFFFFFFFFFFF PUSH1 0x60 DUP3 ADD CALLDATALOAD AND PUSH2 0x3A87 PUSH1 0x40 DUP4 ADD CALLDATALOAD PUSH2 0x3B5D JUMP JUMPDEST SWAP2 DUP2 EXTCODESIZE ISZERO PUSH2 0x817 JUMPI PUSH1 0x40 MLOAD PUSH32 0x42842E0E00000000000000000000000000000000000000000000000000000000 DUP2 MSTORE ADDRESS PUSH1 0x4 DUP3 ADD MSTORE PUSH20 0xFFFFFFFFFFFFFFFFFFFFFFFFFFFFFFFFFFFFFFFF SWAP4 SWAP1 SWAP4 AND PUSH1 0x24 DUP5 ADD MSTORE PUSH1 0x80 ADD CALLDATALOAD PUSH1 0x44 DUP4 ADD MSTORE SWAP1 SWAP2 SWAP1 DUP2 SWAP1 DUP4 SWAP1 PUSH1 0x64 SWAP1 DUP3 SWAP1 DUP5 SWAP1 GAS CALL SWAP1 DUP2 ISZERO PUSH2 0x3B0C JUMPI POP PUSH2 0x3B01 JUMPI POP JUMP JUMPDEST PUSH2 0x3B0A SWAP1 PUSH2 0x387F JUMP JUMPDEST JUMP JUMPDEST PUSH1 0x40 MLOAD SWAP1 RETURNDATASIZE SWAP1 DUP3 RETURNDATACOPY RETURNDATASIZE SWAP1 REVERT JUMPDEST SWAP2 SWAP3 PUSH2 0x3B5A SWAP6 SWAP5 SWAP2 PUSH1 0xA0 SWAP5 PUSH20 0xFFFFFFFFFFFFFFFFFFFFFFFFFFFFFFFFFFFFFFFF DUP1 SWAP3 AND DUP6 MSTORE AND PUSH1 0x20 DUP5 ADD MSTORE PUSH1 0x40 DUP4 ADD MSTORE PUSH1 0x60 DUP3 ADD MSTORE DUP2 PUSH1 0x80 DUP3 ADD MSTORE ADD SWAP1 PUSH2 0xC66 JUMP JUMPDEST SWAP1 JUMP JUMPDEST PUSH20 0xFFFFFFFFFFFFFFFFFFFFFFFFFFFFFFFFFFFFFFFF SWAP1 DUP1 DUP3 AND PUSH1 0x1 DUP2 SUB PUSH2 0x3B87 JUMPI POP POP PUSH1 0x1 SLOAD AND SWAP1 JUMP JUMPDEST SWAP1 SWAP2 POP PUSH1 0x2 SUB PUSH2 0x3B5A JUMPI POP ADDRESS SWAP1 JUMP JUMPDEST SWAP1 DUP2 PUSH1 0x20 SWAP2 SUB SLT PUSH2 0xBBE JUMPI MLOAD DUP1 ISZERO ISZERO DUP2 SUB PUSH2 0xBBE JUMPI SWAP1 JUMP JUMPDEST SWAP1 SWAP3 SWAP2 SWAP1 PUSH20 0xFFFFFFFFFFFFFFFFFFFFFFFFFFFFFFFFFFFFFFFF AND DUP1 PUSH2 0x3BD8 JUMPI POP PUSH2 0x3B0A SWAP2 SWAP3 PUSH2 0x4657 JUMP JUMPDEST PUSH32 0x8000000000000000000000000000000000000000000000000000000000000000 DUP3 EQ PUSH2 0x3C0B JUMPI JUMPDEST SWAP3 PUSH2 0x3B0A SWAP3 SWAP4 PUSH2 0x46C5 JUMP JUMPDEST SWAP1 POP PUSH1 0x40 MLOAD SWAP3 PUSH32 0x70A0823100000000000000000000000000000000000000000000000000000000 DUP5 MSTORE ADDRESS PUSH1 0x4 DUP6 ADD MSTORE PUSH1 0x20 DUP5 PUSH1 0x24 DUP2 DUP6 GAS STATICCALL SWAP4 DUP5 ISZERO PUSH2 0x10E1 JUMPI PUSH1 0x0 SWAP5 PUSH2 0x3C5A JUMPI JUMPDEST POP SWAP3 SWAP1 PUSH2 0x3C00 JUMP JUMPDEST PUSH1 0x20 DUP2 RETURNDATASIZE DUP3 GT PUSH2 0x3C85 JUMPI JUMPDEST DUP2 PUSH2 0x3C72 PUSH1 0x20 SWAP4 DUP4 PUSH2 0x3903 JUMP JUMPDEST DUP2 ADD SUB SLT PUSH2 0x953 JUMPI MLOAD SWAP4 POP PUSH2 0x3B0A PUSH2 0x3C52 JUMP JUMPDEST RETURNDATASIZE SWAP2 POP PUSH2 0x3C65 JUMP JUMPDEST DUP2 DUP2 MUL SWAP3 SWAP2 DUP2 ISZERO SWAP2 DUP5 DIV EQ OR ISZERO PUSH2 0x1E0C JUMPI JUMP JUMPDEST DUP2 ISZERO PUSH2 0x3CAA JUMPI DIV SWAP1 JUMP JUMPDEST PUSH32 0x4E487B7100000000000000000000000000000000000000000000000000000000 PUSH1 0x0 MSTORE PUSH1 0x12 PUSH1 0x4 MSTORE PUSH1 0x24 PUSH1 0x0 REVERT JUMPDEST SWAP2 SWAP3 PUSH20 0xFFFFFFFFFFFFFFFFFFFFFFFFFFFFFFFFFFFFFFFF SWAP2 DUP3 PUSH32 0x0 AND SWAP4 DUP5 EXTCODESIZE ISZERO PUSH2 0xBBE JUMPI PUSH1 0x0 SWAP5 DUP5 DUP7 SWAP3 DUP2 PUSH1 0x84 SWAP7 DUP2 PUSH1 0x40 MLOAD SWAP12 DUP13 SWAP11 DUP12 SWAP10 PUSH32 0x36C7851600000000000000000000000000000000000000000000000000000000 DUP12 MSTORE AND PUSH1 0x4 DUP11 ADD MSTORE AND PUSH1 0x24 DUP9 ADD MSTORE AND PUSH1 0x44 DUP7 ADD MSTORE AND PUSH1 0x64 DUP5 ADD MSTORE GAS CALL DUP1 ISZERO PUSH2 0x10E1 JUMPI PUSH2 0x3B01 JUMPI POP JUMP JUMPDEST DUP1 MLOAD DUP3 LT ISZERO PUSH2 0x1E55 JUMPI PUSH1 0x20 SWAP2 PUSH1 0x5 SHL ADD ADD SWAP1 JUMP JUMPDEST SWAP2 SWAP1 DUP2 LT ISZERO PUSH2 0x1E55 JUMPI PUSH1 0x5 SHL ADD SWAP1 JUMP JUMPDEST CALLDATALOAD PUSH20 0xFFFFFFFFFFFFFFFFFFFFFFFFFFFFFFFFFFFFFFFF DUP2 AND DUP2 SUB PUSH2 0xBBE JUMPI SWAP1 JUMP JUMPDEST SWAP2 SWAP1 DUP3 SUB SWAP2 DUP3 GT PUSH2 0x1E0C JUMPI JUMP JUMPDEST SWAP3 SWAP2 SWAP1 PUSH20 0xFFFFFFFFFFFFFFFFFFFFFFFFFFFFFFFFFFFFFFFF DUP1 DUP3 AND ADDRESS SUB PUSH2 0x3DF7 JUMPI POP POP PUSH2 0x3B0A SWAP3 PUSH2 0x3BAE JUMP JUMPDEST DUP1 DUP5 SWAP6 SWAP5 GT PUSH2 0x3E0B JUMPI PUSH2 0x3B0A SWAP5 AND SWAP3 PUSH2 0x3CD9 JUMP JUMPDEST PUSH1 0x4 PUSH1 0x40 MLOAD PUSH32 0xC4BD89A900000000000000000000000000000000000000000000000000000000 DUP2 MSTORE REVERT JUMPDEST SWAP2 PUSH20 0xFFFFFFFFFFFFFFFFFFFFFFFFFFFFFFFFFFFFFFFF SWAP4 PUSH2 0x3F36 SWAP2 PUSH1 0x40 MLOAD SWAP1 PUSH1 0x20 DUP3 ADD SWAP3 PUSH32 0xFFFFFFFFFFFFFFFFFFFFFFFFFFFFFFFFFFFFFFFF000000000000000000000000 DUP1 SWAP3 PUSH1 0x60 SHL AND DUP5 MSTORE PUSH1 0x60 SHL AND PUSH1 0x34 DUP3 ADD MSTORE PUSH1 0x28 DUP2 MSTORE PUSH2 0x3E98 DUP2 PUSH2 0x38E7 JUMP JUMPDEST MLOAD SWAP1 KECCAK256 PUSH2 0x3F0A PUSH1 0x40 MLOAD SWAP4 DUP5 SWAP3 PUSH1 0x20 DUP5 ADD SWAP7 DUP8 SWAP2 PUSH32 0xFFFFFFFFFFFFFFFFFFFFFFFFFFFFFFFFFFFFFFFF000000000000000000000000 PUSH1 0x55 SWAP5 SWAP3 PUSH32 0xFF00000000000000000000000000000000000000000000000000000000000000 DUP6 MSTORE PUSH1 0x60 SHL AND PUSH1 0x1 DUP5 ADD MSTORE PUSH1 0x15 DUP4 ADD MSTORE PUSH1 0x35 DUP3 ADD MSTORE ADD SWAP1 JUMP JUMPDEST SUB PUSH32 0xFFFFFFFFFFFFFFFFFFFFFFFFFFFFFFFFFFFFFFFFFFFFFFFFFFFFFFFFFFFFFFE0 DUP2 ADD DUP4 MSTORE DUP3 PUSH2 0x3903 JUMP JUMPDEST MLOAD SWAP1 KECCAK256 AND SWAP1 JUMP JUMPDEST PUSH20 0xFFFFFFFFFFFFFFFFFFFFFFFFFFFFFFFFFFFFFFFF DUP3 DUP2 AND SWAP1 DUP3 AND LT ISZERO PUSH2 0x3F61 JUMPI SWAP2 JUMP JUMPDEST SWAP1 SWAP2 JUMP JUMPDEST MLOAD SWAP1 PUSH14 0xFFFFFFFFFFFFFFFFFFFFFFFFFFFF DUP3 AND DUP3 SUB PUSH2 0xBBE JUMPI JUMP JUMPDEST SWAP1 DUP2 PUSH1 0x60 SWAP2 SUB SLT PUSH2 0xBBE JUMPI PUSH2 0x3F94 DUP2 PUSH2 0x3F65 JUMP JUMPDEST SWAP2 PUSH1 0x40 PUSH2 0x3FA3 PUSH1 0x20 DUP5 ADD PUSH2 0x3F65 JUMP JUMPDEST SWAP3 ADD MLOAD PUSH4 0xFFFFFFFF DUP2 AND DUP2 SUB PUSH2 0xBBE JUMPI SWAP1 JUMP JUMPDEST SWAP3 PUSH1 0x2 DUP3 LT PUSH2 0x442C JUMPI DUP2 ISZERO PUSH2 0x1E55 JUMPI PUSH2 0x3FCE DUP5 PUSH2 0x3D9D JUMP JUMPDEST SWAP2 PUSH1 0x1 SWAP5 DUP2 DUP7 LT ISZERO PUSH2 0x1E55 JUMPI SWAP2 PUSH2 0x3FEC PUSH1 0x20 SWAP5 PUSH2 0x1C18 DUP7 DUP7 ADD PUSH2 0x3D9D JUMP JUMPDEST POP SWAP3 PUSH1 0x0 SWAP4 JUMPDEST PUSH32 0xFFFFFFFFFFFFFFFFFFFFFFFFFFFFFFFFFFFFFFFFFFFFFFFFFFFFFFFFFFFFFFFF DUP5 ADD DUP6 LT PUSH2 0x4025 JUMPI POP POP POP POP POP POP POP POP JUMP JUMPDEST PUSH2 0x4033 PUSH2 0x1CC2 DUP7 DUP7 DUP6 PUSH2 0x3D8D JUMP JUMPDEST SWAP3 PUSH2 0x4044 PUSH2 0x1CC2 DUP11 DUP9 ADD DUP8 DUP7 PUSH2 0x3D8D JUMP JUMPDEST SWAP4 PUSH1 0x40 SWAP1 DUP2 MLOAD SWAP6 PUSH32 0x902F1AC00000000000000000000000000000000000000000000000000000000 DUP8 MSTORE PUSH20 0xFFFFFFFFFFFFFFFFFFFFFFFFFFFFFFFFFFFFFFFF DUP1 SWAP5 AND SWAP5 PUSH1 0x60 SWAP3 PUSH1 0x4 SWAP4 DUP1 DUP11 DUP7 DUP2 DUP12 GAS STATICCALL SWAP10 DUP11 ISZERO PUSH2 0x2564 JUMPI SWAP1 DUP14 SWAP6 SWAP5 SWAP4 SWAP3 SWAP2 PUSH1 0x0 SWAP2 DUP3 SWAP13 PUSH2 0x4406 JUMPI JUMPDEST POP POP DUP8 DUP1 SWAP2 PUSH14 0xFFFFFFFFFFFFFFFFFFFFFFFFFFFF DUP1 SWAP2 AND SWAP13 AND SWAP3 AND SWAP3 AND DUP3 EQ SWAP10 DUP11 PUSH1 0x0 EQ PUSH2 0x4400 JUMPI JUMPDEST DUP7 MLOAD SWAP6 DUP7 DUP1 SWAP5 PUSH32 0x70A0823100000000000000000000000000000000000000000000000000000000 DUP3 MSTORE DUP12 DUP9 DUP4 ADD MSTORE PUSH1 0x24 SWAP9 DUP10 SWAP2 GAS STATICCALL SWAP3 DUP4 ISZERO PUSH2 0x43F5 JUMPI DUP15 PUSH1 0x0 SWAP5 PUSH2 0x43C4 JUMPI JUMPDEST POP POP DUP1 DUP4 SUB SWAP2 DUP2 ISZERO SWAP4 DUP5 DUP1 ISZERO PUSH2 0x43BC JUMPI JUMPDEST PUSH2 0x4394 JUMPI DUP3 PUSH2 0x3E5 DUP1 DUP7 MUL SWAP6 DUP7 DIV EQ SWAP2 EQ OR ISZERO PUSH2 0x4367 JUMPI PUSH2 0x414C SWAP1 DUP4 PUSH2 0x3C8D JUMP JUMPDEST SWAP3 PUSH2 0x3E8 DUP1 DUP4 MUL SWAP3 DUP4 DIV EQ OR ISZERO PUSH2 0x433A JUMPI PUSH2 0x4171 SWAP3 SWAP2 PUSH2 0x416B SWAP2 PUSH2 0x4456 JUMP JUMPDEST SWAP1 PUSH2 0x3CA0 JUMP JUMPDEST SWAP8 ISZERO PUSH2 0x4332 JUMPI PUSH1 0x0 SWAP8 SWAP1 JUMPDEST DUP10 DUP12 PUSH32 0xFFFFFFFFFFFFFFFFFFFFFFFFFFFFFFFFFFFFFFFFFFFFFFFFFFFFFFFFFFFFFFFE DUP3 ADD DUP2 LT ISZERO PUSH2 0x4326 JUMPI SWAP2 PUSH2 0x1C18 PUSH2 0x1CC2 PUSH2 0x41C2 SWAP4 PUSH1 0x2 PUSH2 0x420C SWAP13 SWAP7 ADD SWAP1 DUP14 PUSH2 0x3D8D JUMP JUMPDEST DUP2 SWAP9 SWAP2 PUSH32 0x0 PUSH32 0x0 PUSH2 0x3E35 JUMP JUMPDEST SWAP7 JUMPDEST SWAP9 DUP6 MLOAD SWAP2 DUP14 DUP4 ADD SWAP4 PUSH8 0xFFFFFFFFFFFFFFFF SWAP5 DUP5 DUP2 LT DUP7 DUP3 GT OR PUSH2 0x42F9 JUMPI DUP9 MSTORE PUSH1 0x0 DUP5 MSTORE DUP2 EXTCODESIZE ISZERO PUSH2 0xBBE JUMPI PUSH1 0x0 DUP11 SWAP4 PUSH2 0x428C DUP3 SWAP7 DUP12 MLOAD SWAP13 DUP14 SWAP8 DUP9 SWAP7 DUP8 SWAP6 PUSH32 0x22C0D9F00000000000000000000000000000000000000000000000000000000 DUP8 MSTORE DUP14 DUP8 ADD MSTORE DUP14 DUP7 ADD MSTORE AND PUSH1 0x44 DUP5 ADD MSTORE PUSH1 0x80 PUSH1 0x64 DUP5 ADD MSTORE PUSH1 0x84 DUP4 ADD SWAP1 PUSH2 0xC66 JUMP JUMPDEST SUB SWAP3 GAS CALL DUP1 ISZERO PUSH2 0x1DC1 JUMPI SWAP1 DUP14 SWAP7 SWAP6 SWAP5 SWAP4 SWAP3 SWAP2 PUSH2 0x42B1 JUMPI JUMPDEST POP POP POP POP POP SWAP5 ADD SWAP4 SWAP2 PUSH2 0x3FF2 JUMP JUMPDEST SWAP1 SWAP2 SWAP3 SWAP4 DUP1 SWAP6 SWAP7 POP GT PUSH2 0x42CD JUMPI POP POP MSTORE DUP8 SWAP1 CODESIZE DUP1 DUP1 DUP1 DUP1 PUSH2 0x42A3 JUMP JUMPDEST PUSH1 0x41 SWAP1 PUSH32 0x4E487B7100000000000000000000000000000000000000000000000000000000 PUSH1 0x0 MSTORE MSTORE PUSH1 0x0 REVERT JUMPDEST DUP8 PUSH1 0x41 DUP9 PUSH32 0x4E487B7100000000000000000000000000000000000000000000000000000000 PUSH1 0x0 MSTORE MSTORE PUSH1 0x0 REVERT JUMPDEST POP POP POP DUP12 SWAP6 PUSH1 0x0 PUSH2 0x420E JUMP JUMPDEST PUSH1 0x0 SWAP1 PUSH2 0x417C JUMP JUMPDEST DUP6 PUSH1 0x11 DUP7 PUSH32 0x4E487B7100000000000000000000000000000000000000000000000000000000 PUSH1 0x0 MSTORE MSTORE PUSH1 0x0 REVERT JUMPDEST DUP7 PUSH1 0x11 DUP8 PUSH32 0x4E487B7100000000000000000000000000000000000000000000000000000000 PUSH1 0x0 MSTORE MSTORE PUSH1 0x0 REVERT JUMPDEST DUP7 DUP10 MLOAD PUSH32 0x7B9C891600000000000000000000000000000000000000000000000000000000 DUP2 MSTORE REVERT JUMPDEST POP DUP2 ISZERO PUSH2 0x412B JUMP JUMPDEST DUP2 DUP2 SWAP6 SWAP3 SWAP4 SWAP6 RETURNDATASIZE DUP4 GT PUSH2 0x43EE JUMPI JUMPDEST PUSH2 0x43DC DUP2 DUP4 PUSH2 0x3903 JUMP JUMPDEST DUP2 ADD SUB SLT PUSH2 0x324 JUMPI POP MLOAD SWAP2 CODESIZE DUP15 PUSH2 0x411A JUMP JUMPDEST POP RETURNDATASIZE PUSH2 0x43D2 JUMP JUMPDEST DUP8 MLOAD RETURNDATASIZE PUSH1 0x0 DUP3 RETURNDATACOPY RETURNDATASIZE SWAP1 REVERT JUMPDEST SWAP1 PUSH2 0x40D5 JUMP JUMPDEST DUP10 SWAP13 POP DUP10 SWAP3 POP SWAP1 DUP2 PUSH2 0x4423 SWAP3 SWAP1 RETURNDATASIZE LT PUSH2 0x221C JUMPI PUSH2 0x220B DUP2 DUP4 PUSH2 0x3903 JUMP JUMPDEST POP SWAP12 SWAP1 SWAP2 PUSH2 0x40AC JUMP JUMPDEST PUSH1 0x4 PUSH1 0x40 MLOAD PUSH32 0xAE52AD0C00000000000000000000000000000000000000000000000000000000 DUP2 MSTORE REVERT JUMPDEST SWAP2 SWAP1 DUP3 ADD DUP1 SWAP3 GT PUSH2 0x1E0C JUMPI JUMP JUMPDEST SWAP2 DUP3 CALLDATALOAD DUP4 ADD SWAP2 PUSH2 0x447D PUSH1 0x20 DUP5 CALLDATALOAD SWAP6 DUP2 DUP7 ADD SWAP6 SUB ADD DUP6 PUSH2 0x4456 JUMP JUMPDEST GT PUSH2 0x11CD JUMPI JUMP JUMPDEST SWAP2 PUSH1 0x20 DUP4 ADD CALLDATALOAD DUP4 ADD SWAP2 PUSH2 0x447D PUSH1 0x20 DUP5 CALLDATALOAD SWAP6 DUP2 DUP7 ADD SWAP6 SUB ADD DUP6 PUSH2 0x4456 JUMP JUMPDEST SWAP2 PUSH1 0x60 DUP4 ADD CALLDATALOAD DUP4 ADD SWAP2 PUSH2 0x447D PUSH1 0x20 DUP5 CALLDATALOAD SWAP6 DUP2 DUP7 ADD SWAP6 SUB ADD DUP6 PUSH2 0x4456 JUMP JUMPDEST PUSH32 0x8000000000000000000000000000000000000000000000000000000000000000 DUP2 EQ PUSH2 0x1E0C JUMPI PUSH1 0x0 SUB SWAP1 JUMP JUMPDEST PUSH20 0xFFFFFFFFFFFFFFFFFFFFFFFFFFFFFFFFFFFFFFFF SWAP3 DUP4 DUP4 AND DUP5 DUP4 AND GT PUSH2 0x464F JUMPI JUMPDEST PUSH3 0xFFFFFF SWAP1 DUP5 PUSH1 0x40 MLOAD SWAP5 DUP2 PUSH1 0x20 DUP8 ADD SWAP6 AND DUP6 MSTORE AND PUSH1 0x40 DUP6 ADD MSTORE AND PUSH1 0x60 DUP4 ADD MSTORE PUSH1 0x60 DUP3 MSTORE PUSH1 0x80 DUP3 ADD SWAP1 DUP3 DUP3 LT PUSH8 0xFFFFFFFFFFFFFFFF DUP4 GT OR PUSH2 0x10ED JUMPI PUSH32 0xFFFFFFFFFFFFFFFFFFFFFFFFFFFFFFFFFFFFFFFFFFFFFFFFFFFFFFFFFFFFFF80 PUSH2 0x3F36 SWAP2 DUP4 PUSH1 0x40 MSTORE DUP5 MLOAD SWAP1 KECCAK256 SWAP4 PUSH2 0x4622 PUSH1 0xA0 DUP3 ADD SWAP6 PUSH32 0x0 SWAP1 PUSH32 0x0 DUP9 SWAP2 PUSH32 0xFFFFFFFFFFFFFFFFFFFFFFFFFFFFFFFFFFFFFFFF000000000000000000000000 PUSH1 0x55 SWAP5 SWAP3 PUSH32 0xFF00000000000000000000000000000000000000000000000000000000000000 DUP6 MSTORE PUSH1 0x60 SHL AND PUSH1 0x1 DUP5 ADD MSTORE PUSH1 0x15 DUP4 ADD MSTORE PUSH1 0x35 DUP3 ADD MSTORE ADD SWAP1 JUMP JUMPDEST SUB PUSH32 0xFFFFFFFFFFFFFFFFFFFFFFFFFFFFFFFFFFFFFFFFFFFFFFFFFFFFFFFFFFFFFF60 DUP2 ADD DUP5 MSTORE ADD DUP3 PUSH2 0x3903 JUMP JUMPDEST SWAP1 SWAP2 SWAP1 PUSH2 0x450D JUMP JUMPDEST PUSH1 0x0 DUP1 DUP1 SWAP4 DUP2 SWAP4 GAS CALL ISZERO PUSH2 0x4667 JUMPI JUMP JUMPDEST PUSH1 0x64 PUSH1 0x40 MLOAD PUSH32 0x8C379A000000000000000000000000000000000000000000000000000000000 DUP2 MSTORE PUSH1 0x20 PUSH1 0x4 DUP3 ADD MSTORE PUSH1 0x13 PUSH1 0x24 DUP3 ADD MSTORE PUSH32 0x4554485F5452414E534645525F4641494C454400000000000000000000000000 PUSH1 0x44 DUP3 ADD MSTORE REVERT JUMPDEST PUSH1 0x0 SWAP2 DUP3 PUSH1 0x44 SWAP3 PUSH1 0x20 SWAP6 PUSH1 0x40 MLOAD SWAP4 PUSH32 0xA9059CBB00000000000000000000000000000000000000000000000000000000 DUP6 MSTORE PUSH1 0x4 DUP6 ADD MSTORE PUSH1 0x24 DUP5 ADD MSTORE GAS CALL RETURNDATASIZE ISZERO PUSH1 0x1F RETURNDATASIZE GT PUSH1 0x1 PUSH1 0x0 MLOAD EQ AND OR AND ISZERO PUSH2 0x4718 JUMPI JUMP JUMPDEST PUSH1 0x64 PUSH1 0x40 MLOAD PUSH32 0x8C379A000000000000000000000000000000000000000000000000000000000 DUP2 MSTORE PUSH1 0x20 PUSH1 0x4 DUP3 ADD MSTORE PUSH1 0xF PUSH1 0x24 DUP3 ADD MSTORE PUSH32 0x5452414E534645525F4641494C45440000000000000000000000000000000000 PUSH1 0x44 DUP3 ADD MSTORE REVERT INVALID LOG1 PUSH5 0x736F6C6343 STOP ADDMOD GT STOP EXP "},"deployedBytecode":{"immutableReferences":{"2611":[{"length":32,"start":9287},{"length":32,"start":9678}],"2615":[{"length":32,"start":5729},{"length":32,"start":5985},{"length":32,"start":8896},{"length":32,"start":10214},{"length":32,"start":15604}],"2618":[{"length":32,"start":11012}],"2621":[{"length":32,"start":13498}],"2624":[{"length":32,"start":13978}],"2627":[{"length":32,"start":11192}],"2630":[{"length":32,"start":12386},{"length":32,"start":12644}],"2632":[{"length":32,"start":12914}],"2634":[{"length":32,"start":12469},{"length":32,"start":14236}],"2636":[{"length":32,"start":13393}],"2638":[{"length":32,"start":12556}],"2640":[{"length":32,"start":11254}],"2643":[{"length":32,"start":11105}],"2647":[{"length":32,"start":1658}],"2650":[{"length":32,"start":1566}],"2653":[{"length":32,"start":1794}],"2656":[{"length":32,"start":7234},{"length":32,"start":8274},{"length":32,"start":16872}],"2659":[{"length":32,"start":7201},{"length":32,"start":8241},{"length":32,"start":16839}],"2662":[{"length":32,"start":17826}],"2665":[{"length":32,"start":17792}]},"linkReferences":{},"object":"60a06040818152600480361015610021575b505050361561001f57600080fd5b005b600092833560e01c90816301ffc9a714610aad57508063150b7a0214610a1f57806324856bc3146109575780633593564c1461081b578063709a1cc2146105b8578063bc197c81146104f3578063f23a6e61146104655763fa461e330361001157346104615760607ffffffffffffffffffffffffffffffffffffffffffffffffffffffffffffffffc360112610461578035906024356044359167ffffffffffffffff9283811161045d576100d99036908301610c07565b91909287861394851580610453575b61042b5783850188868203126104275785359182116104275761010c9186016139d9565b5060208401359373ffffffffffffffffffffffffffffffffffffffff938486168096036104275761013c91614463565b929093602b85106103ff578335968760601c9760178601968735958660601c936101718c8662ffffff809760481c16916144eb565b86339116036103d757156103cd5750828a105b156101a057505050505050505061019d93503391613dcb565b80f35b909192939598506042819a95979a10156000146103845780601711610380577fffffffffffffffffffffffffffffffffffffffffffffffffffffffffffffffe901937f800000000000000000000000000000000000000000000000000000000000000081101561038057610213906144be565b97602b851061035857926102a18b826102498f9895966102f397602e859f9e9d9c9a013560601c908282109c60481c16916144eb565b1698881561033a576102706401000276a49d5b835196879460208601526060850191613840565b908c830152037fffffffffffffffffffffffffffffffffffffffffffffffffffffffffffffffe08101845283613903565b8851998a98899788967f128acb0800000000000000000000000000000000000000000000000000000000885233908801526024870152604486015216606484015260a0608484015260a4830190610c66565b03925af1801561032e5761030657505080f35b813d8311610327575b6103198183613903565b810103126103245780f35b80fd5b503d61030f565b505051903d90823e3d90fd5b61027073fffd8963efd1fc6a506488495d951d5263988d259d61025c565b858b517f3b99b53d000000000000000000000000000000000000000000000000000000008152fd5b8b80fd5b5050955050945095809591505484116103a5575061019d9394503391613dcb565b8590517f739dbe52000000000000000000000000000000000000000000000000000000008152fd5b9a50898310610184565b868e517f32b13d91000000000000000000000000000000000000000000000000000000008152fd5b5087517f3b99b53d000000000000000000000000000000000000000000000000000000008152fd5b8980fd5b8288517f316cf0eb000000000000000000000000000000000000000000000000000000008152fd5b50888213156100e8565b8680fd5b8280fd5b5091346103245760a07ffffffffffffffffffffffffffffffffffffffffffffffffffffffffffffffffc3601126103245761049e610b9b565b506104a7610bc3565b506084359067ffffffffffffffff821161032457506020926104cb91369101610c07565b5050517ff23a6e61000000000000000000000000000000000000000000000000000000008152f35b5091346103245760a07ffffffffffffffffffffffffffffffffffffffffffffffffffffffffffffffffc3601126103245761052c610b9b565b50610535610bc3565b5067ffffffffffffffff906044358281116105b4576105579036908601610c35565b50506064358281116105b4576105709036908601610c35565b5050608435918211610324575060209261058c91369101610c07565b5050517fbc197c81000000000000000000000000000000000000000000000000000000008152f35b5080fd5b50903461046157602090817ffffffffffffffffffffffffffffffffffffffffffffffffffffffffffffffffc3601126108175783833567ffffffffffffffff81116105b45761060b829136908701610c07565b90818551928392833781018381520390827f00000000000000000000000000000000000000000000000000000000000000005af161064761397e565b50156107ef5780517f70a082310000000000000000000000000000000000000000000000000000000081523084820152907f000000000000000000000000000000000000000000000000000000000000000073ffffffffffffffffffffffffffffffffffffffff168383602481845afa9283156107e55786936107b0575b5081517fa9059cbb00000000000000000000000000000000000000000000000000000000815273ffffffffffffffffffffffffffffffffffffffff7f0000000000000000000000000000000000000000000000000000000000000000169581019586526020860184905294849186918290899082906040015b03925af19384156107a6577f1e8f03f716bc104bf7d728131967a0c771e85ab54d09c1e2d6ed9e0bc4e2a16c94610779575b5051908152a180f35b61079890843d861161079f575b6107908183613903565b810190613b96565b5038610770565b503d610786565b81513d87823e3d90fd5b9092508381813d83116107de575b6107c88183613903565b810103126107da57519161073e6106c5565b8580fd5b503d6107be565b82513d88823e3d90fd5b9050517f7d529919000000000000000000000000000000000000000000000000000000008152fd5b8380fd5b509060607ffffffffffffffffffffffffffffffffffffffffffffffffffffffffffffffffc3601126104615767ffffffffffffffff8235818111610953576108669036908501610c07565b916024359081116107da5761087e9036908601610c35565b929091604435421161092b5733301461091c576001958654958773ffffffffffffffffffffffffffffffffffffffff8816036108f657505091859493916108ed937fffffffffffffffffffffffff00000000000000000000000000000000000000009586339116178755610cc4565b81541617905580f35b517f6f5ffb7e000000000000000000000000000000000000000000000000000000008152fd5b909192935061019d9450610cc4565b8585517f5bf6f916000000000000000000000000000000000000000000000000000000008152fd5b8480fd5b5090807ffffffffffffffffffffffffffffffffffffffffffffffffffffffffffffffffc3601126104615767ffffffffffffffff8235818111610953576109a19036908501610c07565b916024359081116107da576109b99036908601610c35565b92909133301461091c576001958654958773ffffffffffffffffffffffffffffffffffffffff8816036108f657505091859493916108ed937fffffffffffffffffffffffff00000000000000000000000000000000000000009586339116178755610cc4565b5091346103245760807ffffffffffffffffffffffffffffffffffffffffffffffffffffffffffffffffc36011261032457610a58610b9b565b50610a61610bc3565b506064359067ffffffffffffffff82116103245750602092610a8591369101610c07565b5050517f150b7a02000000000000000000000000000000000000000000000000000000008152f35b925050346104615760207ffffffffffffffffffffffffffffffffffffffffffffffffffffffffffffffffc36011261046157357fffffffff00000000000000000000000000000000000000000000000000000000811680910361046157602092507f4e2312e0000000000000000000000000000000000000000000000000000000008114908115610b71575b8115610b47575b5015158152f35b7f01ffc9a70000000000000000000000000000000000000000000000000000000091501438610b40565b7f150b7a020000000000000000000000000000000000000000000000000000000081149150610b39565b6004359073ffffffffffffffffffffffffffffffffffffffff82168203610bbe57565b600080fd5b6024359073ffffffffffffffffffffffffffffffffffffffff82168203610bbe57565b359073ffffffffffffffffffffffffffffffffffffffff82168203610bbe57565b9181601f84011215610bbe5782359167ffffffffffffffff8311610bbe5760208381860195010111610bbe57565b9181601f84011215610bbe5782359167ffffffffffffffff8311610bbe576020808501948460051b010111610bbe57565b919082519283825260005b848110610cb05750507fffffffffffffffffffffffffffffffffffffffffffffffffffffffffffffffe0601f8460006020809697860101520116010190565b602081830181015184830182015201610c71565b919290926080528281036138165791906000905b828210610ce55750505050565b8382959394951015611e555760059282841b60805101357fffffffffffffffffffffffffffffffffffffffffffffffffffffffffffffffe19182608051360301821215610bbe578160805101359767ffffffffffffffff8911610bbe576020836080510101988036038a13610bbe57606097603f90818989013560f81c166001976020821060001461347a5750601080821015612abd5750600880821015611b8757508061120157505050610d9a908a6144a1565b92909860a0856080510101356000146111f757610dd173ffffffffffffffffffffffffffffffffffffffff600154169b5b35613b5d565b9960408660805101013585829d927f8000000000000000000000000000000000000000000000000000000000000000831461113f575b50959c95505b7f8000000000000000000000000000000000000000000000000000000000000000811015610bbe57604286106111385730915b86602b11610bbe578d91601783013560601c9083359462ffffff8660601c96610e8573ffffffffffffffffffffffffffffffffffffffff92839260481c16868a6144eb565b16908488101561111c57806401000276a4965b602b60405199604060208c01528160608c015260808b0137600060ab8a015216604088015260a0875260c087019587871067ffffffffffffffff8811176110ed576040948288958688527f128acb080000000000000000000000000000000000000000000000000000000087521660c48a0152868a1060e48a01526101048901521661012487015260a06101448701528160007fffffffffffffffffffffffffffffffffffffffffffffffffffffffffffffff4088610f5b610164820182610c66565b0301925af19283156110e157600092839461109f575b5050610f85931060001461109857506144be565b9a60428510610fc657309085601711610bbe5760177fffffffffffffffffffffffffffffffffffffffffffffffffffffffffffffffe991019501949b610e0d565b5098509860609196959794939250916080510101351161106e575b1580611041575b610ffa57506001019291929092610cd8565b9061103d60409283519384937f2c4029e9000000000000000000000000000000000000000000000000000000008552600485015260248401526044830190610c66565b0390fd5b507f8000000000000000000000000000000000000000000000000000000000000000828501351615610fe8565b60046040517f39d35496000000000000000000000000000000000000000000000000000000008152fd5b90506144be565b91929093506040843d6040116110d9575b816110bd60409386613903565b8101031261032457505160e092909201519190610f8538610f71565b3d91506110b0565b6040513d6000823e3d90fd5b7f4e487b7100000000000000000000000000000000000000000000000000000000600052604160045260246000fd5b8073fffd8963efd1fc6a506488495d951d5263988d2596610e98565b8b91610e40565b6014919250106111cd576020602491604051928380927f70a082310000000000000000000000000000000000000000000000000000000082523060048301523560601c5afa9081156110e15760009161119b575b503880610e07565b906020823d6020116111c5575b816111b560209383613903565b8101031261032457505138611193565b3d91506111a8565b60046040517f3b99b53d000000000000000000000000000000000000000000000000000000008152fd5b610dd1309b610dcb565b6001819d9493969d9b9897959a999b146000146114c557505081611227929394506144a1565b9060a0846080510101356000146114bb5761125b73ffffffffffffffffffffffffffffffffffffffff600154169335613b5d565b916060856080510101356000557f80000000000000000000000000000000000000000000000000000000000000006040866080510101351015610bbe576112a96040866080510101356144be565b602b83106111cd57813592601783013560601c9586928560601c96879660481c62ffffff166112d99086896144eb565b73ffffffffffffffffffffffffffffffffffffffff16938786106000149673ffffffffffffffffffffffffffffffffffffffff80956000956113746113c89560409c6114a0576401000276a4935b856113428f51986040948a9560208701526060860191613840565b91168e830152037fffffffffffffffffffffffffffffffffffffffffffffffffffffffffffffffe08101865285613903565b8a519b8c9a8b998a987f128acb08000000000000000000000000000000000000000000000000000000008a52166004890152106024870152604486015216606484015260a0608484015260a4830190610c66565b03925af19182156110e1576000918293611462575b50604093101561145257506113f1906144be565b915b60805101013503611428577fffffffffffffffffffffffffffffffffffffffffffffffffffffffffffffffff6000555b610fe1565b60046040517fd4e0248e000000000000000000000000000000000000000000000000000000008152fd5b61145c91506144be565b916113f3565b9250906040833d604011611498575b8161147e60409383613903565b8101031261032457508151602090920151919060406113dd565b3d9150611471565b73fffd8963efd1fc6a506488495d951d5263988d2593611327565b61125b3093610dcb565b6002810361150f57505050611423925073ffffffffffffffffffffffffffffffffffffffff60015416611508604060608560805101013594608051010135613b5d565b9135613cd9565b9193916003810361188157505060805181018084019390604090850312610bbe57823567ffffffffffffffff8111610bbe5782608051010192606084860312610bbe57604051946060860186811067ffffffffffffffff8211176110ed57604052602085013567ffffffffffffffff8111610bbe57850160208201809882011215610bbe576020810135906115a3826139ae565b926115b16040519485613903565b8284526040602085019360071b830101918a8311610bbe57604001925b82841061181c575050505085526115e760408501610be6565b956020860196875260606040870195013585526040846080510101359067ffffffffffffffff8211610bbe5760206116289261162e966080510101016139d9565b50614484565b909173ffffffffffffffffffffffffffffffffffffffff600154169473ffffffffffffffffffffffffffffffffffffffff7f0000000000000000000000000000000000000000000000000000000000000000163b15610bbe5794929391906040519586947f2a2d80d100000000000000000000000000000000000000000000000000000000865260048601526060602486015260c48501935193606060648701528451809152602060e487019501906000905b8082106117a357505050946117479285949273ffffffffffffffffffffffffffffffffffffffff600098511660848701525160a48601527ffffffffffffffffffffffffffffffffffffffffffffffffffffffffffffffffc858403016044860152613840565b03818373ffffffffffffffffffffffffffffffffffffffff7f0000000000000000000000000000000000000000000000000000000000000000165af180156110e157611794575b50610fe1565b61179d9061387f565b3861178e565b9197965091929394602060806001928a5173ffffffffffffffffffffffffffffffffffffffff815116825273ffffffffffffffffffffffffffffffffffffffff848201511684830152606065ffffffffffff918260408201511660408501520151166060820152019801920188969795949392916116e1565b608060208584030112610bbe57602060809160405161183a81613893565b61184387610be6565b8152611850838801610be6565b83820152611860604088016139c6565b6040820152611871606088016139c6565b60608201528152019301926115ce565b600495509193508482036119f05750509091604060606118a78286608051010135613b5d565b608051909501013573ffffffffffffffffffffffffffffffffffffffff9081169335168061191d5750479283106118f7575050806118e7575b5050610fe1565b6118f091614657565b38806118e0565b517f6a12f104000000000000000000000000000000000000000000000000000000008152fd5b9391908051937f70a082310000000000000000000000000000000000000000000000000000000085523083860152602085602481895afa9485156119e5576000956119b1575b50841061198b5750508161197a575b505050610fe1565b611983926146c5565b388080611972565b517f675cae38000000000000000000000000000000000000000000000000000000008152fd5b90946020823d6020116119dd575b816119cc60209383613903565b810103126103245750519338611963565b3d91506119bf565b82513d6000823e3d90fd5b8103611a1d57506114239250611a16604060608460805101013593608051010135613b5d565b9035613bae565b90919060068103611b57575060805101606081013590604090611a4290820135613b5d565b9282158015611b4c575b611b24573573ffffffffffffffffffffffffffffffffffffffff169384611a885750506114239250611a816127109147613c8d565b0490614657565b8151907f70a082310000000000000000000000000000000000000000000000000000000082523090820152602081602481885afa918215611b1a5750600091611ae6575b50611adf61142394939261271092613c8d565b04916146c5565b906020823d602011611b12575b81611b0060209383613903565b81010312610324575051611adf611acc565b3d9150611af3565b513d6000823e3d90fd5b8482517fdeaa01e6000000000000000000000000000000000000000000000000000000008152fd5b506127108311611a4c565b83602491604051917fd76a1e9e000000000000000000000000000000000000000000000000000000008352820152fd5b819d969d9b989794959a999b93929314600014611e8e57505050604091611bb6838360805101013591856144a1565b92909460a082608051010135600014611e8457611bec73ffffffffffffffffffffffffffffffffffffffff600154169135613b5d565b908615611e5557611bfc85613d9d565b8760011015611e5557611c1e611c6691611c1860208901613d9d565b90613f3d565b907f00000000000000000000000000000000000000000000000000000000000000007f0000000000000000000000000000000000000000000000000000000000000000613e35565b938481611e3b575b5050507fffffffffffffffffffffffffffffffffffffffffffffffffffffffffffffffff860193868511611e0c57611cc294611cc773ffffffffffffffffffffffffffffffffffffffff9687928a85613d8d565b613d9d565b16948651947f70a082310000000000000000000000000000000000000000000000000000000091828752841693600499858b89015260249460208987818d5afa988915611e0157600099611dcc575b509160209695949391611d2893613fb6565b8751968793849283528a8301525afa928315611dc157600093611d8c575b50906060611d5a9260805101013592613dbe565b10611d66575050610fe1565b517f849eaf98000000000000000000000000000000000000000000000000000000008152fd5b90926020823d602011611db9575b81611da760209383613903565b81010312610324575051916060611d46565b3d9150611d9a565b84513d6000823e3d90fd5b90986020823d602011611df9575b81611de760209383613903565b81010312610324575051976020611d16565b3d9150611dda565b8b513d6000823e3d90fd5b7f4e487b7100000000000000000000000000000000000000000000000000000000600052601160045260246000fd5b611e4d92611e4888613d9d565b613dcb565b388084611c6e565b7f4e487b7100000000000000000000000000000000000000000000000000000000600052603260045260246000fd5b611bec3091610dcb565b91949293916009810361226f575050611ea790826144a1565b608051840160a001351561226557611ed873ffffffffffffffffffffffffffffffffffffffff600154169335613b5d565b92611ee2836139ae565b95611ef06040519788613903565b83875283901b820160208701368211610bbe5783905b82821061224d575050506000946002875110612223576040816080510101359680517fffffffffffffffffffffffffffffffffffffffffffffffffffffffffffffffff8101908111611e0c5790815b611fb057505060805101606001358611611f86578215611e55576114239585611f8192611e4885613d9d565b613fb6565b60046040517f8ab0bc16000000000000000000000000000000000000000000000000000000008152fd5b90977fffffffffffffffffffffffffffffffffffffffffffffffffffffffffffffffff89019750888811611e0c5773ffffffffffffffffffffffffffffffffffffffff6120006120769984613d79565b511661202c73ffffffffffffffffffffffffffffffffffffffff6120248c86613d79565b511682613f3d565b819a917f00000000000000000000000000000000000000000000000000000000000000007f0000000000000000000000000000000000000000000000000000000000000000613e35565b90604051907f0902f1ac00000000000000000000000000000000000000000000000000000000825260608260048173ffffffffffffffffffffffffffffffffffffffff87165afa9a8b156110e157600092839c6121da575b5073ffffffffffffffffffffffffffffffffffffffff16036121c0576dffffffffffffffffffffffffffff8091169916905b98801580156121b8575b61218e578261211891613c8d565b916103e892838102938185041490151715611e0c5761213691613dbe565b6103e590818102918183041490151715611e0c5761215391613ca0565b60018101809111611e0c57978015611e0c577fffffffffffffffffffffffffffffffffffffffffffffffffffffffffffffffff019081611f55565b60046040517f7b9c8916000000000000000000000000000000000000000000000000000000008152fd5b50811561210a565b6dffffffffffffffffffffffffffff998a16991690612100565b612213919c5073ffffffffffffffffffffffffffffffffffffffff935060603d811161221c575b61220b8183613903565b810190613f80565b509b90926120ce565b503d612201565b60046040517f20db8267000000000000000000000000000000000000000000000000000000008152fd5b6020809161225a84610be6565b815201910190611f06565b611ed83093610dcb565b92945091600a81036123d55750608051830160e081013581019460208087013594509092916122a2919087030184614456565b116111cd5773ffffffffffffffffffffffffffffffffffffffff93847f00000000000000000000000000000000000000000000000000000000000000001692856001541691843b15610bbe5760409587875198899687967f2b67b570000000000000000000000000000000000000000000000000000000008852600488015261232a90610be6565b166024860152808883608051010161234190610be6565b16604486015265ffffffffffff808360805101606001612360906139c6565b1660648701528260805101608001612377906139c6565b166084860152816080510160a00161238e90610be6565b1660a48501526080510160c0013560c484015261010060e48401526123ba916101048401918701613840565b03815a6000948591f1908115611b1a57506117945750610fe1565b600b810361259f575050506123f4604080926080510101359235613b5d565b91807f8000000000000000000000000000000000000000000000000000000000000000810361256f575050475b8061242e57505050610fe1565b73ffffffffffffffffffffffffffffffffffffffff90817f000000000000000000000000000000000000000000000000000000000000000016803b15610bbe578351927fd0e30db0000000000000000000000000000000000000000000000000000000008452600493600081868187875af1801561256457612555575b5030908616036124bd575b5050611972565b61251c9460006020948651978895869485937fa9059cbb00000000000000000000000000000000000000000000000000000000855284016020909392919373ffffffffffffffffffffffffffffffffffffffff60408201951681520152565b03925af1908115611b1a5750612536575b808080806124b6565b61254e9060203d60201161079f576107908183613903565b503861252d565b61255e9061387f565b386124ab565b86513d6000823e3d90fd5b47101561242157600482517f6a12f104000000000000000000000000000000000000000000000000000000008152fd5b600c810361272f57505050906125b59035613b5d565b9073ffffffffffffffffffffffffffffffffffffffff807f00000000000000000000000000000000000000000000000000000000000000001660408051937f70a08231000000000000000000000000000000000000000000000000000000008552600430818701526024916020878481885afa968715611dc1576000976126fb575b506080510183013586106126d45785612657575b50505050505050610fe1565b833b15610bbe57600091869183855196879485937f2e1a7d4d0000000000000000000000000000000000000000000000000000000085528401525af1908115611b1a57506126c5575b5030908316036126b5575b808080808061264b565b6126be91614657565b38806126ab565b6126ce9061387f565b386126a0565b82517f6a12f104000000000000000000000000000000000000000000000000000000008152fd5b90966020823d602011612727575b8161271660209383613903565b810103126103245750519583612637565b3d9150612709565b600d810361298a575082608051010191602083019360208260805101850312610bbe573567ffffffffffffffff8111610bbe57849160805101019182011215610bbe57602081013590612781826139ae565b9360409361279185519687613903565b838652602086019285849560071b820101928311610bbe578501925b828410612928575050505073ffffffffffffffffffffffffffffffffffffffff90816001541684519060005b8281106128bc57505050817f00000000000000000000000000000000000000000000000000000000000000001691823b15610bbe5783517f0d58b1db000000000000000000000000000000000000000000000000000000008152602060048201529451602486018190528592604484019290916000915b81831061287857505050509181600081819503925af1908115611b1a57506117945750610fe1565b91938395506080602091846060600195975182815116845282868201511686850152828d820151168d85015201511660608201520195019301909187949392612850565b81856128c8838a613d79565b515116036128ff577fffffffffffffffffffffffffffffffffffffffffffffffffffffffffffffffff8114611e0c576001016127d9565b600486517fe7002877000000000000000000000000000000000000000000000000000000008152fd5b608060208584030112610bbe576020608091875161294581613893565b61294e87610be6565b815261295b838801610be6565b8382015261296a898801610be6565b8982015261297a60608801610be6565b60608201528152019301926127ad565b9294505050600e8103612a8c57506040918251907f70a0823100000000000000000000000000000000000000000000000000000000825260208260248173ffffffffffffffffffffffffffffffffffffffff806004983516888301528886608051010135165afa918215611dc157600092612a57575b5060805101606001351180159290612a19575050610fe1565b517fa3281672000000000000000000000000000000000000000000000000000000006020820152908152909150612a4f816138cb565b9038806118e0565b90916020823d602011612a84575b81612a7260209383613903565b81010312610324575051906060612a00565b3d9150612a65565b602490604051907fd76a1e9e0000000000000000000000000000000000000000000000000000000082526004820152fd5b9150915060189b95939897999692949b80831060001461304c57508103612b33575050506000925090612af1839282614484565b81604051928392833781018481520391357f00000000000000000000000000000000000000000000000000000000000000005af1612b2d61397e565b90610fe1565b60118103612b8a575050506000925090612b4e839282614484565b81604051928392833781018481520391357f00000000000000000000000000000000000000000000000000000000000000005af1612b2d61397e565b60128103612be1575050506000925090612ba5839282614484565b81604051928392833781018481520391357f00000000000000000000000000000000000000000000000000000000000000005af1612b2d61397e565b919392509060138103612d47575050909150357f0000000000000000000000000000000000000000000000000000000000000000916040600080825160208101907f8264fe98000000000000000000000000000000000000000000000000000000008252602487818301528152612c57816138e7565b5190606086608051010135885af192612c6e61397e565b948415612d0d578273ffffffffffffffffffffffffffffffffffffffff612c9c921694608051010135613b5d565b90833b15610bbe5782517f8b72a2ec00000000000000000000000000000000000000000000000000000000815273ffffffffffffffffffffffffffffffffffffffff9290921660048301526024820152916000908390604490829084905af1908115611b1a57506117945750610fe1565b505091925050517fae9bdf0000000000000000000000000000000000000000000000000000000000602082015260048152612b2d816138cb565b60158103612e5857505090604091828051917f6352211e0000000000000000000000000000000000000000000000000000000083526020836024816004976060816080510101358983015273ffffffffffffffffffffffffffffffffffffffff968791608051010135165afa928315612e4d57600093612e0e575b5081903516911614918215612dd8575050610fe1565b517f7dbe7e89000000000000000000000000000000000000000000000000000000006020820152908152909150612a4f816138cb565b6020939193813d602011612e45575b81612e2a60209383613903565b810103126105b4575190828216820361032457509181612dc2565b3d9150612e1d565b85513d6000823e3d90fd5b60168103612f7f5750506040918251907efdd58e00000000000000000000000000000000000000000000000000000000825260208280612eca60049660608660805101013590358884016020909392919373ffffffffffffffffffffffffffffffffffffffff60408201951681520152565b038173ffffffffffffffffffffffffffffffffffffffff8886608051010135165afa918215611dc157600092612f4a575b5060809081510101351191821592612f14575050610fe1565b517f483a6929000000000000000000000000000000000000000000000000000000006020820152908152909150612a4f816138cb565b90916020823d602011612f77575b81612f6560209383613903565b81010312610324575051906080612efb565b3d9150612f58565b909290601714612f90575050610fe1565b60409073ffffffffffffffffffffffffffffffffffffffff612fb88383608051010135613b5d565b93351692833b15610bbe5782517f42842e0e00000000000000000000000000000000000000000000000000000000815260805130600483015273ffffffffffffffffffffffffffffffffffffffff909216602482015291016060013560448201529160009083908183816064810103925af1908115611b1a575061303d575b806118e0565b6130469061387f565b38613037565b939693821415905061308757505050612b2d92507f000000000000000000000000000000000000000000000000000000000000000091613a20565b601981036130de5750505060009250906130a2839282614484565b81604051928392833781018481520391357f00000000000000000000000000000000000000000000000000000000000000005af1612b2d61397e565b601a81036131355750505060009250906130f9839282614484565b81604051928392833781018481520391357f00000000000000000000000000000000000000000000000000000000000000005af1612b2d61397e565b601b810361325c57505050600061314d819284614484565b9390604094818651928392833781018481520391357f00000000000000000000000000000000000000000000000000000000000000005af191829161319061397e565b9261319e575b505090610fe1565b73ffffffffffffffffffffffffffffffffffffffff6080838151010135166131cd606084608051010135613b5d565b908251906131da826138af565b60008252803b15610bbe5761323694600080948651978895869485937ff242432a00000000000000000000000000000000000000000000000000000000855260a060c08360805101013592608051010135903060048701613b18565b03925af1908115611b1a575061324d575b80613196565b6132569061387f565b38613247565b91949091601c810361329757505050612b2d92507f000000000000000000000000000000000000000000000000000000000000000091613a20565b9193929091601d81036134205750506060816080510101359060409173ffffffffffffffffffffffffffffffffffffffff6132d88484608051010135613b5d565b9435168351947efdd58e0000000000000000000000000000000000000000000000000000000086526004936020878061333787308a84016020909392919373ffffffffffffffffffffffffffffffffffffffff60408201951681520152565b0381865afa968715612564576000976133eb575b50608090815101013586106133c3578451613365816138af565b60008152823b15610bbe576000946133ad86928851998a97889687957ff242432a00000000000000000000000000000000000000000000000000000000875230908701613b18565b03925af1908115611b1a57506117945750610fe1565b8385517f675cae38000000000000000000000000000000000000000000000000000000008152fd5b90966020823d602011613418575b8161340660209383613903565b8101031261032457505195608061334b565b3d91506133f9565b929450925050601e8103612a8c57508161343e600093928493614484565b81604051928392833781018481520391357f00000000000000000000000000000000000000000000000000000000000000005af1612b2d61397e565b9499989a92506020819d9792969d989498146000146134e357505050505050806134a76000938493614484565b81604051928392833781018481520391357f00000000000000000000000000000000000000000000000000000000000000005af1612b2d61397e565b60219080820361365a575050505090916135086135008686614463565b969095614484565b929061354a60409788519760208901997f24856bc3000000000000000000000000000000000000000000000000000000008b5260248a01526064890191613840565b7fffffffffffffffffffffffffffffffffffffffffffffffffffffffffffffffdc878203016044880152818152602082818301951b82010195856000915b8483106135dc57505050505050505091816135ce600094938594037fffffffffffffffffffffffffffffffffffffffffffffffffffffffffffffffe08101835282613903565b519082305af1612b2d61397e565b90919293949596977fffffffffffffffffffffffffffffffffffffffffffffffffffffffffffffffe085820301885288358284360301811215610bbe578301906020823592019167ffffffffffffffff8111610bbe578036038313610bbe5761364a60209283928b95613840565b9a01980196959493019190613588565b92975092959350935060228114600014612a8c5750604080936080510101359060009060028310156137ea575050808491156000146137925750506000907f0000000000000000000000000000000000000000000000000000000000000000925b6020838251937f095ea7b3000000000000000000000000000000000000000000000000000000008552600496878601526024947fffffffffffffffffffffffffffffffffffffffffffffffffffffffffffffffff868201526044968792355af13d15601f3d118760005114161716156137375750505050610fe1565b91600e7f415050524f56455f4641494c45440000000000000000000000000000000000009260206064969551957f08c379a0000000000000000000000000000000000000000000000000000000008752860152840152820152fd5b036137c1576000907f0000000000000000000000000000000000000000000000000000000000000000926136bb565b600482517f5461585f000000000000000000000000000000000000000000000000000000008152fd5b602492507f4e487b71000000000000000000000000000000000000000000000000000000008252600452fd5b60046040517fff633a38000000000000000000000000000000000000000000000000000000008152fd5b601f82602094937fffffffffffffffffffffffffffffffffffffffffffffffffffffffffffffffe0938186528686013760008582860101520116010190565b67ffffffffffffffff81116110ed57604052565b6080810190811067ffffffffffffffff8211176110ed57604052565b6020810190811067ffffffffffffffff8211176110ed57604052565b6040810190811067ffffffffffffffff8211176110ed57604052565b6060810190811067ffffffffffffffff8211176110ed57604052565b90601f7fffffffffffffffffffffffffffffffffffffffffffffffffffffffffffffffe0910116810190811067ffffffffffffffff8211176110ed57604052565b67ffffffffffffffff81116110ed57601f017fffffffffffffffffffffffffffffffffffffffffffffffffffffffffffffffe01660200190565b3d156139a9573d9061398f82613944565b9161399d6040519384613903565b82523d6000602084013e565b606090565b67ffffffffffffffff81116110ed5760051b60200190565b359065ffffffffffff82168203610bbe57565b81601f82011215610bbe578035906139f082613944565b926139fe6040519485613903565b82845260208383010111610bbe57816000926020809301838601378301015290565b919290613a2d9083614484565b90938460405195869384378201906000958693838580955203918635905af192613a5561397e565b9284613a5f575050565b73ffffffffffffffffffffffffffffffffffffffff606082013516613a876040830135613b5d565b91813b15610817576040517f42842e0e00000000000000000000000000000000000000000000000000000000815230600482015273ffffffffffffffffffffffffffffffffffffffff93909316602484015260800135604483015290919081908390606490829084905af1908115613b0c5750613b015750565b613b0a9061387f565b565b604051903d90823e3d90fd5b9192613b5a95949160a09473ffffffffffffffffffffffffffffffffffffffff8092168552166020840152604083015260608201528160808201520190610c66565b90565b73ffffffffffffffffffffffffffffffffffffffff9080821660018103613b875750506001541690565b909150600203613b5a57503090565b90816020910312610bbe57518015158103610bbe5790565b9092919073ffffffffffffffffffffffffffffffffffffffff1680613bd85750613b0a9192614657565b7f80000000000000000000000000000000000000000000000000000000000000008214613c0b575b92613b0a92936146c5565b9050604051927f70a08231000000000000000000000000000000000000000000000000000000008452306004850152602084602481855afa9384156110e157600094613c5a575b509290613c00565b6020813d8211613c85575b81613c7260209383613903565b8101031261095357519350613b0a613c52565b3d9150613c65565b81810292918115918404141715611e0c57565b8115613caa570490565b7f4e487b7100000000000000000000000000000000000000000000000000000000600052601260045260246000fd5b919273ffffffffffffffffffffffffffffffffffffffff91827f00000000000000000000000000000000000000000000000000000000000000001693843b15610bbe5760009484869281608496816040519b8c9a8b997f36c78516000000000000000000000000000000000000000000000000000000008b521660048a01521660248801521660448601521660648401525af180156110e157613b015750565b8051821015611e555760209160051b010190565b9190811015611e555760051b0190565b3573ffffffffffffffffffffffffffffffffffffffff81168103610bbe5790565b91908203918211611e0c57565b92919073ffffffffffffffffffffffffffffffffffffffff8082163003613df7575050613b0a92613bae565b8084959411613e0b57613b0a941692613cd9565b60046040517fc4bd89a9000000000000000000000000000000000000000000000000000000008152fd5b9173ffffffffffffffffffffffffffffffffffffffff93613f36916040519060208201927fffffffffffffffffffffffffffffffffffffffff000000000000000000000000809260601b16845260601b16603482015260288152613e98816138e7565b519020613f0a604051938492602084019687917fffffffffffffffffffffffffffffffffffffffff000000000000000000000000605594927fff00000000000000000000000000000000000000000000000000000000000000855260601b166001840152601583015260358201520190565b037fffffffffffffffffffffffffffffffffffffffffffffffffffffffffffffffe08101835282613903565b5190201690565b73ffffffffffffffffffffffffffffffffffffffff8281169082161015613f615791565b9091565b51906dffffffffffffffffffffffffffff82168203610bbe57565b90816060910312610bbe57613f9481613f65565b916040613fa360208401613f65565b92015163ffffffff81168103610bbe5790565b926002821061442c578115611e5557613fce84613d9d565b9160019481861015611e555791613fec602094611c18868601613d9d565b50926000935b7fffffffffffffffffffffffffffffffffffffffffffffffffffffffffffffffff84018510614025575050505050505050565b614033611cc2868685613d8d565b92614044611cc28a88018786613d8d565b936040908151957f0902f1ac00000000000000000000000000000000000000000000000000000000875273ffffffffffffffffffffffffffffffffffffffff80941694606092600493808a86818b5afa998a1561256457908d9594939291600091829c614406575b50508780916dffffffffffffffffffffffffffff8091169c16921692168214998a600014614400575b8651958680947f70a082310000000000000000000000000000000000000000000000000000000082528b8883015260249889915afa9283156143f5578e6000946143c4575b5050808303918115938480156143bc575b61439457826103e580860295860414911417156143675761414c9083613c8d565b926103e880830292830414171561433a57614171929161416b91614456565b90613ca0565b971561433257600097905b898b7ffffffffffffffffffffffffffffffffffffffffffffffffffffffffffffffffe82018110156143265791611c18611cc26141c293600261420c9c9601908d613d8d565b8198917f00000000000000000000000000000000000000000000000000000000000000007f0000000000000000000000000000000000000000000000000000000000000000613e35565b965b988551918d83019367ffffffffffffffff94848110868211176142f957885260008452813b15610bbe5760008a9361428c82968b519c8d97889687957f022c0d9f0000000000000000000000000000000000000000000000000000000087528d8701528d860152166044840152608060648401526084830190610c66565b03925af18015611dc157908d9695949392916142b1575b505050505094019391613ff2565b9091929380959650116142cd57505052879038808080806142a3565b6041907f4e487b7100000000000000000000000000000000000000000000000000000000600052526000fd5b876041887f4e487b7100000000000000000000000000000000000000000000000000000000600052526000fd5b5050508b95600061420e565b60009061417c565b856011867f4e487b7100000000000000000000000000000000000000000000000000000000600052526000fd5b866011877f4e487b7100000000000000000000000000000000000000000000000000000000600052526000fd5b8689517f7b9c8916000000000000000000000000000000000000000000000000000000008152fd5b50811561412b565b8181959293953d83116143ee575b6143dc8183613903565b8101031261032457505191388e61411a565b503d6143d2565b87513d6000823e3d90fd5b906140d5565b899c50899250908161442392903d1061221c5761220b8183613903565b509b90916140ac565b60046040517fae52ad0c000000000000000000000000000000000000000000000000000000008152fd5b91908201809211611e0c57565b91823583019161447d602084359581860195030185614456565b116111cd57565b91602083013583019161447d602084359581860195030185614456565b91606083013583019161447d602084359581860195030185614456565b7f80000000000000000000000000000000000000000000000000000000000000008114611e0c5760000390565b73ffffffffffffffffffffffffffffffffffffffff928383168483161161464f575b62ffffff90846040519481602087019516855216604085015216606083015260608252608082019082821067ffffffffffffffff8311176110ed577fffffffffffffffffffffffffffffffffffffffffffffffffffffffffffffff80613f369183604052845190209361462260a08201957f0000000000000000000000000000000000000000000000000000000000000000907f000000000000000000000000000000000000000000000000000000000000000088917fffffffffffffffffffffffffffffffffffffffff000000000000000000000000605594927fff00000000000000000000000000000000000000000000000000000000000000855260601b166001840152601583015260358201520190565b037fffffffffffffffffffffffffffffffffffffffffffffffffffffffffffffff60810184520182613903565b90919061450d565b600080809381935af11561466757565b60646040517f08c379a000000000000000000000000000000000000000000000000000000000815260206004820152601360248201527f4554485f5452414e534645525f4641494c4544000000000000000000000000006044820152fd5b60009182604492602095604051937fa9059cbb000000000000000000000000000000000000000000000000000000008552600485015260248401525af13d15601f3d116001600051141617161561471857565b60646040517f08c379a000000000000000000000000000000000000000000000000000000000815260206004820152600f60248201527f5452414e534645525f4641494c454400000000000000000000000000000000006044820152fdfea164736f6c6343000811000a","opcodes":"PUSH1 0xA0 PUSH1 0x40 DUP2 DUP2 MSTORE PUSH1 0x4 DUP1 CALLDATASIZE LT ISZERO PUSH2 0x21 JUMPI JUMPDEST POP POP POP CALLDATASIZE ISZERO PUSH2 0x1F JUMPI PUSH1 0x0 DUP1 REVERT JUMPDEST STOP JUMPDEST PUSH1 0x0 SWAP3 DUP4 CALLDATALOAD PUSH1 0xE0 SHR SWAP1 DUP2 PUSH4 0x1FFC9A7 EQ PUSH2 0xAAD JUMPI POP DUP1 PUSH4 0x150B7A02 EQ PUSH2 0xA1F JUMPI DUP1 PUSH4 0x24856BC3 EQ PUSH2 0x957 JUMPI DUP1 PUSH4 0x3593564C EQ PUSH2 0x81B JUMPI DUP1 PUSH4 0x709A1CC2 EQ PUSH2 0x5B8 JUMPI DUP1 PUSH4 0xBC197C81 EQ PUSH2 0x4F3 JUMPI DUP1 PUSH4 0xF23A6E61 EQ PUSH2 0x465 JUMPI PUSH4 0xFA461E33 SUB PUSH2 0x11 JUMPI CALLVALUE PUSH2 0x461 JUMPI PUSH1 0x60 PUSH32 0xFFFFFFFFFFFFFFFFFFFFFFFFFFFFFFFFFFFFFFFFFFFFFFFFFFFFFFFFFFFFFFFC CALLDATASIZE ADD SLT PUSH2 0x461 JUMPI DUP1 CALLDATALOAD SWAP1 PUSH1 0x24 CALLDATALOAD PUSH1 0x44 CALLDATALOAD SWAP2 PUSH8 0xFFFFFFFFFFFFFFFF SWAP3 DUP4 DUP2 GT PUSH2 0x45D JUMPI PUSH2 0xD9 SWAP1 CALLDATASIZE SWAP1 DUP4 ADD PUSH2 0xC07 JUMP JUMPDEST SWAP2 SWAP1 SWAP3 DUP8 DUP7 SGT SWAP5 DUP6 ISZERO DUP1 PUSH2 0x453 JUMPI JUMPDEST PUSH2 0x42B JUMPI DUP4 DUP6 ADD DUP9 DUP7 DUP3 SUB SLT PUSH2 0x427 JUMPI DUP6 CALLDATALOAD SWAP2 DUP3 GT PUSH2 0x427 JUMPI PUSH2 0x10C SWAP2 DUP7 ADD PUSH2 0x39D9 JUMP JUMPDEST POP PUSH1 0x20 DUP5 ADD CALLDATALOAD SWAP4 PUSH20 0xFFFFFFFFFFFFFFFFFFFFFFFFFFFFFFFFFFFFFFFF SWAP4 DUP5 DUP7 AND DUP1 SWAP7 SUB PUSH2 0x427 JUMPI PUSH2 0x13C SWAP2 PUSH2 0x4463 JUMP JUMPDEST SWAP3 SWAP1 SWAP4 PUSH1 0x2B DUP6 LT PUSH2 0x3FF JUMPI DUP4 CALLDATALOAD SWAP7 DUP8 PUSH1 0x60 SHR SWAP8 PUSH1 0x17 DUP7 ADD SWAP7 DUP8 CALLDATALOAD SWAP6 DUP7 PUSH1 0x60 SHR SWAP4 PUSH2 0x171 DUP13 DUP7 PUSH3 0xFFFFFF DUP1 SWAP8 PUSH1 0x48 SHR AND SWAP2 PUSH2 0x44EB JUMP JUMPDEST DUP7 CALLER SWAP2 AND SUB PUSH2 0x3D7 JUMPI ISZERO PUSH2 0x3CD JUMPI POP DUP3 DUP11 LT JUMPDEST ISZERO PUSH2 0x1A0 JUMPI POP POP POP POP POP POP POP POP PUSH2 0x19D SWAP4 POP CALLER SWAP2 PUSH2 0x3DCB JUMP JUMPDEST DUP1 RETURN JUMPDEST SWAP1 SWAP2 SWAP3 SWAP4 SWAP6 SWAP9 POP PUSH1 0x42 DUP2 SWAP11 SWAP6 SWAP8 SWAP11 LT ISZERO PUSH1 0x0 EQ PUSH2 0x384 JUMPI DUP1 PUSH1 0x17 GT PUSH2 0x380 JUMPI PUSH32 0xFFFFFFFFFFFFFFFFFFFFFFFFFFFFFFFFFFFFFFFFFFFFFFFFFFFFFFFFFFFFFFE9 ADD SWAP4 PUSH32 0x8000000000000000000000000000000000000000000000000000000000000000 DUP2 LT ISZERO PUSH2 0x380 JUMPI PUSH2 0x213 SWAP1 PUSH2 0x44BE JUMP JUMPDEST SWAP8 PUSH1 0x2B DUP6 LT PUSH2 0x358 JUMPI SWAP3 PUSH2 0x2A1 DUP12 DUP3 PUSH2 0x249 DUP16 SWAP9 SWAP6 SWAP7 PUSH2 0x2F3 SWAP8 PUSH1 0x2E DUP6 SWAP16 SWAP15 SWAP14 SWAP13 SWAP11 ADD CALLDATALOAD PUSH1 0x60 SHR SWAP1 DUP3 DUP3 LT SWAP13 PUSH1 0x48 SHR AND SWAP2 PUSH2 0x44EB JUMP JUMPDEST AND SWAP9 DUP9 ISZERO PUSH2 0x33A JUMPI PUSH2 0x270 PUSH5 0x1000276A4 SWAP14 JUMPDEST DUP4 MLOAD SWAP7 DUP8 SWAP5 PUSH1 0x20 DUP7 ADD MSTORE PUSH1 0x60 DUP6 ADD SWAP2 PUSH2 0x3840 JUMP JUMPDEST SWAP1 DUP13 DUP4 ADD MSTORE SUB PUSH32 0xFFFFFFFFFFFFFFFFFFFFFFFFFFFFFFFFFFFFFFFFFFFFFFFFFFFFFFFFFFFFFFE0 DUP2 ADD DUP5 MSTORE DUP4 PUSH2 0x3903 JUMP JUMPDEST DUP9 MLOAD SWAP10 DUP11 SWAP9 DUP10 SWAP8 DUP9 SWAP7 PUSH32 0x128ACB0800000000000000000000000000000000000000000000000000000000 DUP9 MSTORE CALLER SWAP1 DUP9 ADD MSTORE PUSH1 0x24 DUP8 ADD MSTORE PUSH1 0x44 DUP7 ADD MSTORE AND PUSH1 0x64 DUP5 ADD MSTORE PUSH1 0xA0 PUSH1 0x84 DUP5 ADD MSTORE PUSH1 0xA4 DUP4 ADD SWAP1 PUSH2 0xC66 JUMP JUMPDEST SUB SWAP3 GAS CALL DUP1 ISZERO PUSH2 0x32E JUMPI PUSH2 0x306 JUMPI POP POP DUP1 RETURN JUMPDEST DUP2 RETURNDATASIZE DUP4 GT PUSH2 0x327 JUMPI JUMPDEST PUSH2 0x319 DUP2 DUP4 PUSH2 0x3903 JUMP JUMPDEST DUP2 ADD SUB SLT PUSH2 0x324 JUMPI DUP1 RETURN JUMPDEST DUP1 REVERT JUMPDEST POP RETURNDATASIZE PUSH2 0x30F JUMP JUMPDEST POP POP MLOAD SWAP1 RETURNDATASIZE SWAP1 DUP3 RETURNDATACOPY RETURNDATASIZE SWAP1 REVERT JUMPDEST PUSH2 0x270 PUSH20 0xFFFD8963EFD1FC6A506488495D951D5263988D25 SWAP14 PUSH2 0x25C JUMP JUMPDEST DUP6 DUP12 MLOAD PUSH32 0x3B99B53D00000000000000000000000000000000000000000000000000000000 DUP2 MSTORE REVERT JUMPDEST DUP12 DUP1 REVERT JUMPDEST POP POP SWAP6 POP POP SWAP5 POP SWAP6 DUP1 SWAP6 SWAP2 POP SLOAD DUP5 GT PUSH2 0x3A5 JUMPI POP PUSH2 0x19D SWAP4 SWAP5 POP CALLER SWAP2 PUSH2 0x3DCB JUMP JUMPDEST DUP6 SWAP1 MLOAD PUSH32 0x739DBE5200000000000000000000000000000000000000000000000000000000 DUP2 MSTORE REVERT JUMPDEST SWAP11 POP DUP10 DUP4 LT PUSH2 0x184 JUMP JUMPDEST DUP7 DUP15 MLOAD PUSH32 0x32B13D9100000000000000000000000000000000000000000000000000000000 DUP2 MSTORE REVERT JUMPDEST POP DUP8 MLOAD PUSH32 0x3B99B53D00000000000000000000000000000000000000000000000000000000 DUP2 MSTORE REVERT JUMPDEST DUP10 DUP1 REVERT JUMPDEST DUP3 DUP9 MLOAD PUSH32 0x316CF0EB00000000000000000000000000000000000000000000000000000000 DUP2 MSTORE REVERT JUMPDEST POP DUP9 DUP3 SGT ISZERO PUSH2 0xE8 JUMP JUMPDEST DUP7 DUP1 REVERT JUMPDEST DUP3 DUP1 REVERT JUMPDEST POP SWAP2 CALLVALUE PUSH2 0x324 JUMPI PUSH1 0xA0 PUSH32 0xFFFFFFFFFFFFFFFFFFFFFFFFFFFFFFFFFFFFFFFFFFFFFFFFFFFFFFFFFFFFFFFC CALLDATASIZE ADD SLT PUSH2 0x324 JUMPI PUSH2 0x49E PUSH2 0xB9B JUMP JUMPDEST POP PUSH2 0x4A7 PUSH2 0xBC3 JUMP JUMPDEST POP PUSH1 0x84 CALLDATALOAD SWAP1 PUSH8 0xFFFFFFFFFFFFFFFF DUP3 GT PUSH2 0x324 JUMPI POP PUSH1 0x20 SWAP3 PUSH2 0x4CB SWAP2 CALLDATASIZE SWAP2 ADD PUSH2 0xC07 JUMP JUMPDEST POP POP MLOAD PUSH32 0xF23A6E6100000000000000000000000000000000000000000000000000000000 DUP2 MSTORE RETURN JUMPDEST POP SWAP2 CALLVALUE PUSH2 0x324 JUMPI PUSH1 0xA0 PUSH32 0xFFFFFFFFFFFFFFFFFFFFFFFFFFFFFFFFFFFFFFFFFFFFFFFFFFFFFFFFFFFFFFFC CALLDATASIZE ADD SLT PUSH2 0x324 JUMPI PUSH2 0x52C PUSH2 0xB9B JUMP JUMPDEST POP PUSH2 0x535 PUSH2 0xBC3 JUMP JUMPDEST POP PUSH8 0xFFFFFFFFFFFFFFFF SWAP1 PUSH1 0x44 CALLDATALOAD DUP3 DUP2 GT PUSH2 0x5B4 JUMPI PUSH2 0x557 SWAP1 CALLDATASIZE SWAP1 DUP7 ADD PUSH2 0xC35 JUMP JUMPDEST POP POP PUSH1 0x64 CALLDATALOAD DUP3 DUP2 GT PUSH2 0x5B4 JUMPI PUSH2 0x570 SWAP1 CALLDATASIZE SWAP1 DUP7 ADD PUSH2 0xC35 JUMP JUMPDEST POP POP PUSH1 0x84 CALLDATALOAD SWAP2 DUP3 GT PUSH2 0x324 JUMPI POP PUSH1 0x20 SWAP3 PUSH2 0x58C SWAP2 CALLDATASIZE SWAP2 ADD PUSH2 0xC07 JUMP JUMPDEST POP POP MLOAD PUSH32 0xBC197C8100000000000000000000000000000000000000000000000000000000 DUP2 MSTORE RETURN JUMPDEST POP DUP1 REVERT JUMPDEST POP SWAP1 CALLVALUE PUSH2 0x461 JUMPI PUSH1 0x20 SWAP1 DUP2 PUSH32 0xFFFFFFFFFFFFFFFFFFFFFFFFFFFFFFFFFFFFFFFFFFFFFFFFFFFFFFFFFFFFFFFC CALLDATASIZE ADD SLT PUSH2 0x817 JUMPI DUP4 DUP4 CALLDATALOAD PUSH8 0xFFFFFFFFFFFFFFFF DUP2 GT PUSH2 0x5B4 JUMPI PUSH2 0x60B DUP3 SWAP2 CALLDATASIZE SWAP1 DUP8 ADD PUSH2 0xC07 JUMP JUMPDEST SWAP1 DUP2 DUP6 MLOAD SWAP3 DUP4 SWAP3 DUP4 CALLDATACOPY DUP2 ADD DUP4 DUP2 MSTORE SUB SWAP1 DUP3 PUSH32 0x0 GAS CALL PUSH2 0x647 PUSH2 0x397E JUMP JUMPDEST POP ISZERO PUSH2 0x7EF JUMPI DUP1 MLOAD PUSH32 0x70A0823100000000000000000000000000000000000000000000000000000000 DUP2 MSTORE ADDRESS DUP5 DUP3 ADD MSTORE SWAP1 PUSH32 0x0 PUSH20 0xFFFFFFFFFFFFFFFFFFFFFFFFFFFFFFFFFFFFFFFF AND DUP4 DUP4 PUSH1 0x24 DUP2 DUP5 GAS STATICCALL SWAP3 DUP4 ISZERO PUSH2 0x7E5 JUMPI DUP7 SWAP4 PUSH2 0x7B0 JUMPI JUMPDEST POP DUP2 MLOAD PUSH32 0xA9059CBB00000000000000000000000000000000000000000000000000000000 DUP2 MSTORE PUSH20 0xFFFFFFFFFFFFFFFFFFFFFFFFFFFFFFFFFFFFFFFF PUSH32 0x0 AND SWAP6 DUP2 ADD SWAP6 DUP7 MSTORE PUSH1 0x20 DUP7 ADD DUP5 SWAP1 MSTORE SWAP5 DUP5 SWAP2 DUP7 SWAP2 DUP3 SWAP1 DUP10 SWAP1 DUP3 SWAP1 PUSH1 0x40 ADD JUMPDEST SUB SWAP3 GAS CALL SWAP4 DUP5 ISZERO PUSH2 0x7A6 JUMPI PUSH32 0x1E8F03F716BC104BF7D728131967A0C771E85AB54D09C1E2D6ED9E0BC4E2A16C SWAP5 PUSH2 0x779 JUMPI JUMPDEST POP MLOAD SWAP1 DUP2 MSTORE LOG1 DUP1 RETURN JUMPDEST PUSH2 0x798 SWAP1 DUP5 RETURNDATASIZE DUP7 GT PUSH2 0x79F JUMPI JUMPDEST PUSH2 0x790 DUP2 DUP4 PUSH2 0x3903 JUMP JUMPDEST DUP2 ADD SWAP1 PUSH2 0x3B96 JUMP JUMPDEST POP CODESIZE PUSH2 0x770 JUMP JUMPDEST POP RETURNDATASIZE PUSH2 0x786 JUMP JUMPDEST DUP2 MLOAD RETURNDATASIZE DUP8 DUP3 RETURNDATACOPY RETURNDATASIZE SWAP1 REVERT JUMPDEST SWAP1 SWAP3 POP DUP4 DUP2 DUP2 RETURNDATASIZE DUP4 GT PUSH2 0x7DE JUMPI JUMPDEST PUSH2 0x7C8 DUP2 DUP4 PUSH2 0x3903 JUMP JUMPDEST DUP2 ADD SUB SLT PUSH2 0x7DA JUMPI MLOAD SWAP2 PUSH2 0x73E PUSH2 0x6C5 JUMP JUMPDEST DUP6 DUP1 REVERT JUMPDEST POP RETURNDATASIZE PUSH2 0x7BE JUMP JUMPDEST DUP3 MLOAD RETURNDATASIZE DUP9 DUP3 RETURNDATACOPY RETURNDATASIZE SWAP1 REVERT JUMPDEST SWAP1 POP MLOAD PUSH32 0x7D52991900000000000000000000000000000000000000000000000000000000 DUP2 MSTORE REVERT JUMPDEST DUP4 DUP1 REVERT JUMPDEST POP SWAP1 PUSH1 0x60 PUSH32 0xFFFFFFFFFFFFFFFFFFFFFFFFFFFFFFFFFFFFFFFFFFFFFFFFFFFFFFFFFFFFFFFC CALLDATASIZE ADD SLT PUSH2 0x461 JUMPI PUSH8 0xFFFFFFFFFFFFFFFF DUP3 CALLDATALOAD DUP2 DUP2 GT PUSH2 0x953 JUMPI PUSH2 0x866 SWAP1 CALLDATASIZE SWAP1 DUP6 ADD PUSH2 0xC07 JUMP JUMPDEST SWAP2 PUSH1 0x24 CALLDATALOAD SWAP1 DUP2 GT PUSH2 0x7DA JUMPI PUSH2 0x87E SWAP1 CALLDATASIZE SWAP1 DUP7 ADD PUSH2 0xC35 JUMP JUMPDEST SWAP3 SWAP1 SWAP2 PUSH1 0x44 CALLDATALOAD TIMESTAMP GT PUSH2 0x92B JUMPI CALLER ADDRESS EQ PUSH2 0x91C JUMPI PUSH1 0x1 SWAP6 DUP7 SLOAD SWAP6 DUP8 PUSH20 0xFFFFFFFFFFFFFFFFFFFFFFFFFFFFFFFFFFFFFFFF DUP9 AND SUB PUSH2 0x8F6 JUMPI POP POP SWAP2 DUP6 SWAP5 SWAP4 SWAP2 PUSH2 0x8ED SWAP4 PUSH32 0xFFFFFFFFFFFFFFFFFFFFFFFF0000000000000000000000000000000000000000 SWAP6 DUP7 CALLER SWAP2 AND OR DUP8 SSTORE PUSH2 0xCC4 JUMP JUMPDEST DUP2 SLOAD AND OR SWAP1 SSTORE DUP1 RETURN JUMPDEST MLOAD PUSH32 0x6F5FFB7E00000000000000000000000000000000000000000000000000000000 DUP2 MSTORE REVERT JUMPDEST SWAP1 SWAP2 SWAP3 SWAP4 POP PUSH2 0x19D SWAP5 POP PUSH2 0xCC4 JUMP JUMPDEST DUP6 DUP6 MLOAD PUSH32 0x5BF6F91600000000000000000000000000000000000000000000000000000000 DUP2 MSTORE REVERT JUMPDEST DUP5 DUP1 REVERT JUMPDEST POP SWAP1 DUP1 PUSH32 0xFFFFFFFFFFFFFFFFFFFFFFFFFFFFFFFFFFFFFFFFFFFFFFFFFFFFFFFFFFFFFFFC CALLDATASIZE ADD SLT PUSH2 0x461 JUMPI PUSH8 0xFFFFFFFFFFFFFFFF DUP3 CALLDATALOAD DUP2 DUP2 GT PUSH2 0x953 JUMPI PUSH2 0x9A1 SWAP1 CALLDATASIZE SWAP1 DUP6 ADD PUSH2 0xC07 JUMP JUMPDEST SWAP2 PUSH1 0x24 CALLDATALOAD SWAP1 DUP2 GT PUSH2 0x7DA JUMPI PUSH2 0x9B9 SWAP1 CALLDATASIZE SWAP1 DUP7 ADD PUSH2 0xC35 JUMP JUMPDEST SWAP3 SWAP1 SWAP2 CALLER ADDRESS EQ PUSH2 0x91C JUMPI PUSH1 0x1 SWAP6 DUP7 SLOAD SWAP6 DUP8 PUSH20 0xFFFFFFFFFFFFFFFFFFFFFFFFFFFFFFFFFFFFFFFF DUP9 AND SUB PUSH2 0x8F6 JUMPI POP POP SWAP2 DUP6 SWAP5 SWAP4 SWAP2 PUSH2 0x8ED SWAP4 PUSH32 0xFFFFFFFFFFFFFFFFFFFFFFFF0000000000000000000000000000000000000000 SWAP6 DUP7 CALLER SWAP2 AND OR DUP8 SSTORE PUSH2 0xCC4 JUMP JUMPDEST POP SWAP2 CALLVALUE PUSH2 0x324 JUMPI PUSH1 0x80 PUSH32 0xFFFFFFFFFFFFFFFFFFFFFFFFFFFFFFFFFFFFFFFFFFFFFFFFFFFFFFFFFFFFFFFC CALLDATASIZE ADD SLT PUSH2 0x324 JUMPI PUSH2 0xA58 PUSH2 0xB9B JUMP JUMPDEST POP PUSH2 0xA61 PUSH2 0xBC3 JUMP JUMPDEST POP PUSH1 0x64 CALLDATALOAD SWAP1 PUSH8 0xFFFFFFFFFFFFFFFF DUP3 GT PUSH2 0x324 JUMPI POP PUSH1 0x20 SWAP3 PUSH2 0xA85 SWAP2 CALLDATASIZE SWAP2 ADD PUSH2 0xC07 JUMP JUMPDEST POP POP MLOAD PUSH32 0x150B7A0200000000000000000000000000000000000000000000000000000000 DUP2 MSTORE RETURN JUMPDEST SWAP3 POP POP CALLVALUE PUSH2 0x461 JUMPI PUSH1 0x20 PUSH32 0xFFFFFFFFFFFFFFFFFFFFFFFFFFFFFFFFFFFFFFFFFFFFFFFFFFFFFFFFFFFFFFFC CALLDATASIZE ADD SLT PUSH2 0x461 JUMPI CALLDATALOAD PUSH32 0xFFFFFFFF00000000000000000000000000000000000000000000000000000000 DUP2 AND DUP1 SWAP2 SUB PUSH2 0x461 JUMPI PUSH1 0x20 SWAP3 POP PUSH32 0x4E2312E000000000000000000000000000000000000000000000000000000000 DUP2 EQ SWAP1 DUP2 ISZERO PUSH2 0xB71 JUMPI JUMPDEST DUP2 ISZERO PUSH2 0xB47 JUMPI JUMPDEST POP ISZERO ISZERO DUP2 MSTORE RETURN JUMPDEST PUSH32 0x1FFC9A700000000000000000000000000000000000000000000000000000000 SWAP2 POP EQ CODESIZE PUSH2 0xB40 JUMP JUMPDEST PUSH32 0x150B7A0200000000000000000000000000000000000000000000000000000000 DUP2 EQ SWAP2 POP PUSH2 0xB39 JUMP JUMPDEST PUSH1 0x4 CALLDATALOAD SWAP1 PUSH20 0xFFFFFFFFFFFFFFFFFFFFFFFFFFFFFFFFFFFFFFFF DUP3 AND DUP3 SUB PUSH2 0xBBE JUMPI JUMP JUMPDEST PUSH1 0x0 DUP1 REVERT JUMPDEST PUSH1 0x24 CALLDATALOAD SWAP1 PUSH20 0xFFFFFFFFFFFFFFFFFFFFFFFFFFFFFFFFFFFFFFFF DUP3 AND DUP3 SUB PUSH2 0xBBE JUMPI JUMP JUMPDEST CALLDATALOAD SWAP1 PUSH20 0xFFFFFFFFFFFFFFFFFFFFFFFFFFFFFFFFFFFFFFFF DUP3 AND DUP3 SUB PUSH2 0xBBE JUMPI JUMP JUMPDEST SWAP2 DUP2 PUSH1 0x1F DUP5 ADD SLT ISZERO PUSH2 0xBBE JUMPI DUP3 CALLDATALOAD SWAP2 PUSH8 0xFFFFFFFFFFFFFFFF DUP4 GT PUSH2 0xBBE JUMPI PUSH1 0x20 DUP4 DUP2 DUP7 ADD SWAP6 ADD ADD GT PUSH2 0xBBE JUMPI JUMP JUMPDEST SWAP2 DUP2 PUSH1 0x1F DUP5 ADD SLT ISZERO PUSH2 0xBBE JUMPI DUP3 CALLDATALOAD SWAP2 PUSH8 0xFFFFFFFFFFFFFFFF DUP4 GT PUSH2 0xBBE JUMPI PUSH1 0x20 DUP1 DUP6 ADD SWAP5 DUP5 PUSH1 0x5 SHL ADD ADD GT PUSH2 0xBBE JUMPI JUMP JUMPDEST SWAP2 SWAP1 DUP3 MLOAD SWAP3 DUP4 DUP3 MSTORE PUSH1 0x0 JUMPDEST DUP5 DUP2 LT PUSH2 0xCB0 JUMPI POP POP PUSH32 0xFFFFFFFFFFFFFFFFFFFFFFFFFFFFFFFFFFFFFFFFFFFFFFFFFFFFFFFFFFFFFFE0 PUSH1 0x1F DUP5 PUSH1 0x0 PUSH1 0x20 DUP1 SWAP7 SWAP8 DUP7 ADD ADD MSTORE ADD AND ADD ADD SWAP1 JUMP JUMPDEST PUSH1 0x20 DUP2 DUP4 ADD DUP2 ADD MLOAD DUP5 DUP4 ADD DUP3 ADD MSTORE ADD PUSH2 0xC71 JUMP JUMPDEST SWAP2 SWAP3 SWAP1 SWAP3 PUSH1 0x80 MSTORE DUP3 DUP2 SUB PUSH2 0x3816 JUMPI SWAP2 SWAP1 PUSH1 0x0 SWAP1 JUMPDEST DUP3 DUP3 LT PUSH2 0xCE5 JUMPI POP POP POP POP JUMP JUMPDEST DUP4 DUP3 SWAP6 SWAP4 SWAP5 SWAP6 LT ISZERO PUSH2 0x1E55 JUMPI PUSH1 0x5 SWAP3 DUP3 DUP5 SHL PUSH1 0x80 MLOAD ADD CALLDATALOAD PUSH32 0xFFFFFFFFFFFFFFFFFFFFFFFFFFFFFFFFFFFFFFFFFFFFFFFFFFFFFFFFFFFFFFE1 SWAP2 DUP3 PUSH1 0x80 MLOAD CALLDATASIZE SUB ADD DUP3 SLT ISZERO PUSH2 0xBBE JUMPI DUP2 PUSH1 0x80 MLOAD ADD CALLDATALOAD SWAP8 PUSH8 0xFFFFFFFFFFFFFFFF DUP10 GT PUSH2 0xBBE JUMPI PUSH1 0x20 DUP4 PUSH1 0x80 MLOAD ADD ADD SWAP9 DUP1 CALLDATASIZE SUB DUP11 SGT PUSH2 0xBBE JUMPI PUSH1 0x60 SWAP8 PUSH1 0x3F SWAP1 DUP2 DUP10 DUP10 ADD CALLDATALOAD PUSH1 0xF8 SHR AND PUSH1 0x1 SWAP8 PUSH1 0x20 DUP3 LT PUSH1 0x0 EQ PUSH2 0x347A JUMPI POP PUSH1 0x10 DUP1 DUP3 LT ISZERO PUSH2 0x2ABD JUMPI POP PUSH1 0x8 DUP1 DUP3 LT ISZERO PUSH2 0x1B87 JUMPI POP DUP1 PUSH2 0x1201 JUMPI POP POP POP PUSH2 0xD9A SWAP1 DUP11 PUSH2 0x44A1 JUMP JUMPDEST SWAP3 SWAP1 SWAP9 PUSH1 0xA0 DUP6 PUSH1 0x80 MLOAD ADD ADD CALLDATALOAD PUSH1 0x0 EQ PUSH2 0x11F7 JUMPI PUSH2 0xDD1 PUSH20 0xFFFFFFFFFFFFFFFFFFFFFFFFFFFFFFFFFFFFFFFF PUSH1 0x1 SLOAD AND SWAP12 JUMPDEST CALLDATALOAD PUSH2 0x3B5D JUMP JUMPDEST SWAP10 PUSH1 0x40 DUP7 PUSH1 0x80 MLOAD ADD ADD CALLDATALOAD DUP6 DUP3 SWAP14 SWAP3 PUSH32 0x8000000000000000000000000000000000000000000000000000000000000000 DUP4 EQ PUSH2 0x113F JUMPI JUMPDEST POP SWAP6 SWAP13 SWAP6 POP JUMPDEST PUSH32 0x8000000000000000000000000000000000000000000000000000000000000000 DUP2 LT ISZERO PUSH2 0xBBE JUMPI PUSH1 0x42 DUP7 LT PUSH2 0x1138 JUMPI ADDRESS SWAP2 JUMPDEST DUP7 PUSH1 0x2B GT PUSH2 0xBBE JUMPI DUP14 SWAP2 PUSH1 0x17 DUP4 ADD CALLDATALOAD PUSH1 0x60 SHR SWAP1 DUP4 CALLDATALOAD SWAP5 PUSH3 0xFFFFFF DUP7 PUSH1 0x60 SHR SWAP7 PUSH2 0xE85 PUSH20 0xFFFFFFFFFFFFFFFFFFFFFFFFFFFFFFFFFFFFFFFF SWAP3 DUP4 SWAP3 PUSH1 0x48 SHR AND DUP7 DUP11 PUSH2 0x44EB JUMP JUMPDEST AND SWAP1 DUP5 DUP9 LT ISZERO PUSH2 0x111C JUMPI DUP1 PUSH5 0x1000276A4 SWAP7 JUMPDEST PUSH1 0x2B PUSH1 0x40 MLOAD SWAP10 PUSH1 0x40 PUSH1 0x20 DUP13 ADD MSTORE DUP2 PUSH1 0x60 DUP13 ADD MSTORE PUSH1 0x80 DUP12 ADD CALLDATACOPY PUSH1 0x0 PUSH1 0xAB DUP11 ADD MSTORE AND PUSH1 0x40 DUP9 ADD MSTORE PUSH1 0xA0 DUP8 MSTORE PUSH1 0xC0 DUP8 ADD SWAP6 DUP8 DUP8 LT PUSH8 0xFFFFFFFFFFFFFFFF DUP9 GT OR PUSH2 0x10ED JUMPI PUSH1 0x40 SWAP5 DUP3 DUP9 SWAP6 DUP7 DUP9 MSTORE PUSH32 0x128ACB0800000000000000000000000000000000000000000000000000000000 DUP8 MSTORE AND PUSH1 0xC4 DUP11 ADD MSTORE DUP7 DUP11 LT PUSH1 0xE4 DUP11 ADD MSTORE PUSH2 0x104 DUP10 ADD MSTORE AND PUSH2 0x124 DUP8 ADD MSTORE PUSH1 0xA0 PUSH2 0x144 DUP8 ADD MSTORE DUP2 PUSH1 0x0 PUSH32 0xFFFFFFFFFFFFFFFFFFFFFFFFFFFFFFFFFFFFFFFFFFFFFFFFFFFFFFFFFFFFFF40 DUP9 PUSH2 0xF5B PUSH2 0x164 DUP3 ADD DUP3 PUSH2 0xC66 JUMP JUMPDEST SUB ADD SWAP3 GAS CALL SWAP3 DUP4 ISZERO PUSH2 0x10E1 JUMPI PUSH1 0x0 SWAP3 DUP4 SWAP5 PUSH2 0x109F JUMPI JUMPDEST POP POP PUSH2 0xF85 SWAP4 LT PUSH1 0x0 EQ PUSH2 0x1098 JUMPI POP PUSH2 0x44BE JUMP JUMPDEST SWAP11 PUSH1 0x42 DUP6 LT PUSH2 0xFC6 JUMPI ADDRESS SWAP1 DUP6 PUSH1 0x17 GT PUSH2 0xBBE JUMPI PUSH1 0x17 PUSH32 0xFFFFFFFFFFFFFFFFFFFFFFFFFFFFFFFFFFFFFFFFFFFFFFFFFFFFFFFFFFFFFFE9 SWAP2 ADD SWAP6 ADD SWAP5 SWAP12 PUSH2 0xE0D JUMP JUMPDEST POP SWAP9 POP SWAP9 PUSH1 0x60 SWAP2 SWAP7 SWAP6 SWAP8 SWAP5 SWAP4 SWAP3 POP SWAP2 PUSH1 0x80 MLOAD ADD ADD CALLDATALOAD GT PUSH2 0x106E JUMPI JUMPDEST ISZERO DUP1 PUSH2 0x1041 JUMPI JUMPDEST PUSH2 0xFFA JUMPI POP PUSH1 0x1 ADD SWAP3 SWAP2 SWAP3 SWAP1 SWAP3 PUSH2 0xCD8 JUMP JUMPDEST SWAP1 PUSH2 0x103D PUSH1 0x40 SWAP3 DUP4 MLOAD SWAP4 DUP5 SWAP4 PUSH32 0x2C4029E900000000000000000000000000000000000000000000000000000000 DUP6 MSTORE PUSH1 0x4 DUP6 ADD MSTORE PUSH1 0x24 DUP5 ADD MSTORE PUSH1 0x44 DUP4 ADD SWAP1 PUSH2 0xC66 JUMP JUMPDEST SUB SWAP1 REVERT JUMPDEST POP PUSH32 0x8000000000000000000000000000000000000000000000000000000000000000 DUP3 DUP6 ADD CALLDATALOAD AND ISZERO PUSH2 0xFE8 JUMP JUMPDEST PUSH1 0x4 PUSH1 0x40 MLOAD PUSH32 0x39D3549600000000000000000000000000000000000000000000000000000000 DUP2 MSTORE REVERT JUMPDEST SWAP1 POP PUSH2 0x44BE JUMP JUMPDEST SWAP2 SWAP3 SWAP1 SWAP4 POP PUSH1 0x40 DUP5 RETURNDATASIZE PUSH1 0x40 GT PUSH2 0x10D9 JUMPI JUMPDEST DUP2 PUSH2 0x10BD PUSH1 0x40 SWAP4 DUP7 PUSH2 0x3903 JUMP JUMPDEST DUP2 ADD SUB SLT PUSH2 0x324 JUMPI POP MLOAD PUSH1 0xE0 SWAP3 SWAP1 SWAP3 ADD MLOAD SWAP2 SWAP1 PUSH2 0xF85 CODESIZE PUSH2 0xF71 JUMP JUMPDEST RETURNDATASIZE SWAP2 POP PUSH2 0x10B0 JUMP JUMPDEST PUSH1 0x40 MLOAD RETURNDATASIZE PUSH1 0x0 DUP3 RETURNDATACOPY RETURNDATASIZE SWAP1 REVERT JUMPDEST PUSH32 0x4E487B7100000000000000000000000000000000000000000000000000000000 PUSH1 0x0 MSTORE PUSH1 0x41 PUSH1 0x4 MSTORE PUSH1 0x24 PUSH1 0x0 REVERT JUMPDEST DUP1 PUSH20 0xFFFD8963EFD1FC6A506488495D951D5263988D25 SWAP7 PUSH2 0xE98 JUMP JUMPDEST DUP12 SWAP2 PUSH2 0xE40 JUMP JUMPDEST PUSH1 0x14 SWAP2 SWAP3 POP LT PUSH2 0x11CD JUMPI PUSH1 0x20 PUSH1 0x24 SWAP2 PUSH1 0x40 MLOAD SWAP3 DUP4 DUP1 SWAP3 PUSH32 0x70A0823100000000000000000000000000000000000000000000000000000000 DUP3 MSTORE ADDRESS PUSH1 0x4 DUP4 ADD MSTORE CALLDATALOAD PUSH1 0x60 SHR GAS STATICCALL SWAP1 DUP2 ISZERO PUSH2 0x10E1 JUMPI PUSH1 0x0 SWAP2 PUSH2 0x119B JUMPI JUMPDEST POP CODESIZE DUP1 PUSH2 0xE07 JUMP JUMPDEST SWAP1 PUSH1 0x20 DUP3 RETURNDATASIZE PUSH1 0x20 GT PUSH2 0x11C5 JUMPI JUMPDEST DUP2 PUSH2 0x11B5 PUSH1 0x20 SWAP4 DUP4 PUSH2 0x3903 JUMP JUMPDEST DUP2 ADD SUB SLT PUSH2 0x324 JUMPI POP MLOAD CODESIZE PUSH2 0x1193 JUMP JUMPDEST RETURNDATASIZE SWAP2 POP PUSH2 0x11A8 JUMP JUMPDEST PUSH1 0x4 PUSH1 0x40 MLOAD PUSH32 0x3B99B53D00000000000000000000000000000000000000000000000000000000 DUP2 MSTORE REVERT JUMPDEST PUSH2 0xDD1 ADDRESS SWAP12 PUSH2 0xDCB JUMP JUMPDEST PUSH1 0x1 DUP2 SWAP14 SWAP5 SWAP4 SWAP7 SWAP14 SWAP12 SWAP9 SWAP8 SWAP6 SWAP11 SWAP10 SWAP12 EQ PUSH1 0x0 EQ PUSH2 0x14C5 JUMPI POP POP DUP2 PUSH2 0x1227 SWAP3 SWAP4 SWAP5 POP PUSH2 0x44A1 JUMP JUMPDEST SWAP1 PUSH1 0xA0 DUP5 PUSH1 0x80 MLOAD ADD ADD CALLDATALOAD PUSH1 0x0 EQ PUSH2 0x14BB JUMPI PUSH2 0x125B PUSH20 0xFFFFFFFFFFFFFFFFFFFFFFFFFFFFFFFFFFFFFFFF PUSH1 0x1 SLOAD AND SWAP4 CALLDATALOAD PUSH2 0x3B5D JUMP JUMPDEST SWAP2 PUSH1 0x60 DUP6 PUSH1 0x80 MLOAD ADD ADD CALLDATALOAD PUSH1 0x0 SSTORE PUSH32 0x8000000000000000000000000000000000000000000000000000000000000000 PUSH1 0x40 DUP7 PUSH1 0x80 MLOAD ADD ADD CALLDATALOAD LT ISZERO PUSH2 0xBBE JUMPI PUSH2 0x12A9 PUSH1 0x40 DUP7 PUSH1 0x80 MLOAD ADD ADD CALLDATALOAD PUSH2 0x44BE JUMP JUMPDEST PUSH1 0x2B DUP4 LT PUSH2 0x11CD JUMPI DUP2 CALLDATALOAD SWAP3 PUSH1 0x17 DUP4 ADD CALLDATALOAD PUSH1 0x60 SHR SWAP6 DUP7 SWAP3 DUP6 PUSH1 0x60 SHR SWAP7 DUP8 SWAP7 PUSH1 0x48 SHR PUSH3 0xFFFFFF AND PUSH2 0x12D9 SWAP1 DUP7 DUP10 PUSH2 0x44EB JUMP JUMPDEST PUSH20 0xFFFFFFFFFFFFFFFFFFFFFFFFFFFFFFFFFFFFFFFF AND SWAP4 DUP8 DUP7 LT PUSH1 0x0 EQ SWAP7 PUSH20 0xFFFFFFFFFFFFFFFFFFFFFFFFFFFFFFFFFFFFFFFF DUP1 SWAP6 PUSH1 0x0 SWAP6 PUSH2 0x1374 PUSH2 0x13C8 SWAP6 PUSH1 0x40 SWAP13 PUSH2 0x14A0 JUMPI PUSH5 0x1000276A4 SWAP4 JUMPDEST DUP6 PUSH2 0x1342 DUP16 MLOAD SWAP9 PUSH1 0x40 SWAP5 DUP11 SWAP6 PUSH1 0x20 DUP8 ADD MSTORE PUSH1 0x60 DUP7 ADD SWAP2 PUSH2 0x3840 JUMP JUMPDEST SWAP2 AND DUP15 DUP4 ADD MSTORE SUB PUSH32 0xFFFFFFFFFFFFFFFFFFFFFFFFFFFFFFFFFFFFFFFFFFFFFFFFFFFFFFFFFFFFFFE0 DUP2 ADD DUP7 MSTORE DUP6 PUSH2 0x3903 JUMP JUMPDEST DUP11 MLOAD SWAP12 DUP13 SWAP11 DUP12 SWAP10 DUP11 SWAP9 PUSH32 0x128ACB0800000000000000000000000000000000000000000000000000000000 DUP11 MSTORE AND PUSH1 0x4 DUP10 ADD MSTORE LT PUSH1 0x24 DUP8 ADD MSTORE PUSH1 0x44 DUP7 ADD MSTORE AND PUSH1 0x64 DUP5 ADD MSTORE PUSH1 0xA0 PUSH1 0x84 DUP5 ADD MSTORE PUSH1 0xA4 DUP4 ADD SWAP1 PUSH2 0xC66 JUMP JUMPDEST SUB SWAP3 GAS CALL SWAP2 DUP3 ISZERO PUSH2 0x10E1 JUMPI PUSH1 0x0 SWAP2 DUP3 SWAP4 PUSH2 0x1462 JUMPI JUMPDEST POP PUSH1 0x40 SWAP4 LT ISZERO PUSH2 0x1452 JUMPI POP PUSH2 0x13F1 SWAP1 PUSH2 0x44BE JUMP JUMPDEST SWAP2 JUMPDEST PUSH1 0x80 MLOAD ADD ADD CALLDATALOAD SUB PUSH2 0x1428 JUMPI PUSH32 0xFFFFFFFFFFFFFFFFFFFFFFFFFFFFFFFFFFFFFFFFFFFFFFFFFFFFFFFFFFFFFFFF PUSH1 0x0 SSTORE JUMPDEST PUSH2 0xFE1 JUMP JUMPDEST PUSH1 0x4 PUSH1 0x40 MLOAD PUSH32 0xD4E0248E00000000000000000000000000000000000000000000000000000000 DUP2 MSTORE REVERT JUMPDEST PUSH2 0x145C SWAP2 POP PUSH2 0x44BE JUMP JUMPDEST SWAP2 PUSH2 0x13F3 JUMP JUMPDEST SWAP3 POP SWAP1 PUSH1 0x40 DUP4 RETURNDATASIZE PUSH1 0x40 GT PUSH2 0x1498 JUMPI JUMPDEST DUP2 PUSH2 0x147E PUSH1 0x40 SWAP4 DUP4 PUSH2 0x3903 JUMP JUMPDEST DUP2 ADD SUB SLT PUSH2 0x324 JUMPI POP DUP2 MLOAD PUSH1 0x20 SWAP1 SWAP3 ADD MLOAD SWAP2 SWAP1 PUSH1 0x40 PUSH2 0x13DD JUMP JUMPDEST RETURNDATASIZE SWAP2 POP PUSH2 0x1471 JUMP JUMPDEST PUSH20 0xFFFD8963EFD1FC6A506488495D951D5263988D25 SWAP4 PUSH2 0x1327 JUMP JUMPDEST PUSH2 0x125B ADDRESS SWAP4 PUSH2 0xDCB JUMP JUMPDEST PUSH1 0x2 DUP2 SUB PUSH2 0x150F JUMPI POP POP POP PUSH2 0x1423 SWAP3 POP PUSH20 0xFFFFFFFFFFFFFFFFFFFFFFFFFFFFFFFFFFFFFFFF PUSH1 0x1 SLOAD AND PUSH2 0x1508 PUSH1 0x40 PUSH1 0x60 DUP6 PUSH1 0x80 MLOAD ADD ADD CALLDATALOAD SWAP5 PUSH1 0x80 MLOAD ADD ADD CALLDATALOAD PUSH2 0x3B5D JUMP JUMPDEST SWAP2 CALLDATALOAD PUSH2 0x3CD9 JUMP JUMPDEST SWAP2 SWAP4 SWAP2 PUSH1 0x3 DUP2 SUB PUSH2 0x1881 JUMPI POP POP PUSH1 0x80 MLOAD DUP2 ADD DUP1 DUP5 ADD SWAP4 SWAP1 PUSH1 0x40 SWAP1 DUP6 SUB SLT PUSH2 0xBBE JUMPI DUP3 CALLDATALOAD PUSH8 0xFFFFFFFFFFFFFFFF DUP2 GT PUSH2 0xBBE JUMPI DUP3 PUSH1 0x80 MLOAD ADD ADD SWAP3 PUSH1 0x60 DUP5 DUP7 SUB SLT PUSH2 0xBBE JUMPI PUSH1 0x40 MLOAD SWAP5 PUSH1 0x60 DUP7 ADD DUP7 DUP2 LT PUSH8 0xFFFFFFFFFFFFFFFF DUP3 GT OR PUSH2 0x10ED JUMPI PUSH1 0x40 MSTORE PUSH1 0x20 DUP6 ADD CALLDATALOAD PUSH8 0xFFFFFFFFFFFFFFFF DUP2 GT PUSH2 0xBBE JUMPI DUP6 ADD PUSH1 0x20 DUP3 ADD DUP1 SWAP9 DUP3 ADD SLT ISZERO PUSH2 0xBBE JUMPI PUSH1 0x20 DUP2 ADD CALLDATALOAD SWAP1 PUSH2 0x15A3 DUP3 PUSH2 0x39AE JUMP JUMPDEST SWAP3 PUSH2 0x15B1 PUSH1 0x40 MLOAD SWAP5 DUP6 PUSH2 0x3903 JUMP JUMPDEST DUP3 DUP5 MSTORE PUSH1 0x40 PUSH1 0x20 DUP6 ADD SWAP4 PUSH1 0x7 SHL DUP4 ADD ADD SWAP2 DUP11 DUP4 GT PUSH2 0xBBE JUMPI PUSH1 0x40 ADD SWAP3 JUMPDEST DUP3 DUP5 LT PUSH2 0x181C JUMPI POP POP POP POP DUP6 MSTORE PUSH2 0x15E7 PUSH1 0x40 DUP6 ADD PUSH2 0xBE6 JUMP JUMPDEST SWAP6 PUSH1 0x20 DUP7 ADD SWAP7 DUP8 MSTORE PUSH1 0x60 PUSH1 0x40 DUP8 ADD SWAP6 ADD CALLDATALOAD DUP6 MSTORE PUSH1 0x40 DUP5 PUSH1 0x80 MLOAD ADD ADD CALLDATALOAD SWAP1 PUSH8 0xFFFFFFFFFFFFFFFF DUP3 GT PUSH2 0xBBE JUMPI PUSH1 0x20 PUSH2 0x1628 SWAP3 PUSH2 0x162E SWAP7 PUSH1 0x80 MLOAD ADD ADD ADD PUSH2 0x39D9 JUMP JUMPDEST POP PUSH2 0x4484 JUMP JUMPDEST SWAP1 SWAP2 PUSH20 0xFFFFFFFFFFFFFFFFFFFFFFFFFFFFFFFFFFFFFFFF PUSH1 0x1 SLOAD AND SWAP5 PUSH20 0xFFFFFFFFFFFFFFFFFFFFFFFFFFFFFFFFFFFFFFFF PUSH32 0x0 AND EXTCODESIZE ISZERO PUSH2 0xBBE JUMPI SWAP5 SWAP3 SWAP4 SWAP2 SWAP1 PUSH1 0x40 MLOAD SWAP6 DUP7 SWAP5 PUSH32 0x2A2D80D100000000000000000000000000000000000000000000000000000000 DUP7 MSTORE PUSH1 0x4 DUP7 ADD MSTORE PUSH1 0x60 PUSH1 0x24 DUP7 ADD MSTORE PUSH1 0xC4 DUP6 ADD SWAP4 MLOAD SWAP4 PUSH1 0x60 PUSH1 0x64 DUP8 ADD MSTORE DUP5 MLOAD DUP1 SWAP2 MSTORE PUSH1 0x20 PUSH1 0xE4 DUP8 ADD SWAP6 ADD SWAP1 PUSH1 0x0 SWAP1 JUMPDEST DUP1 DUP3 LT PUSH2 0x17A3 JUMPI POP POP POP SWAP5 PUSH2 0x1747 SWAP3 DUP6 SWAP5 SWAP3 PUSH20 0xFFFFFFFFFFFFFFFFFFFFFFFFFFFFFFFFFFFFFFFF PUSH1 0x0 SWAP9 MLOAD AND PUSH1 0x84 DUP8 ADD MSTORE MLOAD PUSH1 0xA4 DUP7 ADD MSTORE PUSH32 0xFFFFFFFFFFFFFFFFFFFFFFFFFFFFFFFFFFFFFFFFFFFFFFFFFFFFFFFFFFFFFFFC DUP6 DUP5 SUB ADD PUSH1 0x44 DUP7 ADD MSTORE PUSH2 0x3840 JUMP JUMPDEST SUB DUP2 DUP4 PUSH20 0xFFFFFFFFFFFFFFFFFFFFFFFFFFFFFFFFFFFFFFFF PUSH32 0x0 AND GAS CALL DUP1 ISZERO PUSH2 0x10E1 JUMPI PUSH2 0x1794 JUMPI JUMPDEST POP PUSH2 0xFE1 JUMP JUMPDEST PUSH2 0x179D SWAP1 PUSH2 0x387F JUMP JUMPDEST CODESIZE PUSH2 0x178E JUMP JUMPDEST SWAP2 SWAP8 SWAP7 POP SWAP2 SWAP3 SWAP4 SWAP5 PUSH1 0x20 PUSH1 0x80 PUSH1 0x1 SWAP3 DUP11 MLOAD PUSH20 0xFFFFFFFFFFFFFFFFFFFFFFFFFFFFFFFFFFFFFFFF DUP2 MLOAD AND DUP3 MSTORE PUSH20 0xFFFFFFFFFFFFFFFFFFFFFFFFFFFFFFFFFFFFFFFF DUP5 DUP3 ADD MLOAD AND DUP5 DUP4 ADD MSTORE PUSH1 0x60 PUSH6 0xFFFFFFFFFFFF SWAP2 DUP3 PUSH1 0x40 DUP3 ADD MLOAD AND PUSH1 0x40 DUP6 ADD MSTORE ADD MLOAD AND PUSH1 0x60 DUP3 ADD MSTORE ADD SWAP9 ADD SWAP3 ADD DUP9 SWAP7 SWAP8 SWAP6 SWAP5 SWAP4 SWAP3 SWAP2 PUSH2 0x16E1 JUMP JUMPDEST PUSH1 0x80 PUSH1 0x20 DUP6 DUP5 SUB ADD SLT PUSH2 0xBBE JUMPI PUSH1 0x20 PUSH1 0x80 SWAP2 PUSH1 0x40 MLOAD PUSH2 0x183A DUP2 PUSH2 0x3893 JUMP JUMPDEST PUSH2 0x1843 DUP8 PUSH2 0xBE6 JUMP JUMPDEST DUP2 MSTORE PUSH2 0x1850 DUP4 DUP9 ADD PUSH2 0xBE6 JUMP JUMPDEST DUP4 DUP3 ADD MSTORE PUSH2 0x1860 PUSH1 0x40 DUP9 ADD PUSH2 0x39C6 JUMP JUMPDEST PUSH1 0x40 DUP3 ADD MSTORE PUSH2 0x1871 PUSH1 0x60 DUP9 ADD PUSH2 0x39C6 JUMP JUMPDEST PUSH1 0x60 DUP3 ADD MSTORE DUP2 MSTORE ADD SWAP4 ADD SWAP3 PUSH2 0x15CE JUMP JUMPDEST PUSH1 0x4 SWAP6 POP SWAP2 SWAP4 POP DUP5 DUP3 SUB PUSH2 0x19F0 JUMPI POP POP SWAP1 SWAP2 PUSH1 0x40 PUSH1 0x60 PUSH2 0x18A7 DUP3 DUP7 PUSH1 0x80 MLOAD ADD ADD CALLDATALOAD PUSH2 0x3B5D JUMP JUMPDEST PUSH1 0x80 MLOAD SWAP1 SWAP6 ADD ADD CALLDATALOAD PUSH20 0xFFFFFFFFFFFFFFFFFFFFFFFFFFFFFFFFFFFFFFFF SWAP1 DUP2 AND SWAP4 CALLDATALOAD AND DUP1 PUSH2 0x191D JUMPI POP SELFBALANCE SWAP3 DUP4 LT PUSH2 0x18F7 JUMPI POP POP DUP1 PUSH2 0x18E7 JUMPI JUMPDEST POP POP PUSH2 0xFE1 JUMP JUMPDEST PUSH2 0x18F0 SWAP2 PUSH2 0x4657 JUMP JUMPDEST CODESIZE DUP1 PUSH2 0x18E0 JUMP JUMPDEST MLOAD PUSH32 0x6A12F10400000000000000000000000000000000000000000000000000000000 DUP2 MSTORE REVERT JUMPDEST SWAP4 SWAP2 SWAP1 DUP1 MLOAD SWAP4 PUSH32 0x70A0823100000000000000000000000000000000000000000000000000000000 DUP6 MSTORE ADDRESS DUP4 DUP7 ADD MSTORE PUSH1 0x20 DUP6 PUSH1 0x24 DUP2 DUP10 GAS STATICCALL SWAP5 DUP6 ISZERO PUSH2 0x19E5 JUMPI PUSH1 0x0 SWAP6 PUSH2 0x19B1 JUMPI JUMPDEST POP DUP5 LT PUSH2 0x198B JUMPI POP POP DUP2 PUSH2 0x197A JUMPI JUMPDEST POP POP POP PUSH2 0xFE1 JUMP JUMPDEST PUSH2 0x1983 SWAP3 PUSH2 0x46C5 JUMP JUMPDEST CODESIZE DUP1 DUP1 PUSH2 0x1972 JUMP JUMPDEST MLOAD PUSH32 0x675CAE3800000000000000000000000000000000000000000000000000000000 DUP2 MSTORE REVERT JUMPDEST SWAP1 SWAP5 PUSH1 0x20 DUP3 RETURNDATASIZE PUSH1 0x20 GT PUSH2 0x19DD JUMPI JUMPDEST DUP2 PUSH2 0x19CC PUSH1 0x20 SWAP4 DUP4 PUSH2 0x3903 JUMP JUMPDEST DUP2 ADD SUB SLT PUSH2 0x324 JUMPI POP MLOAD SWAP4 CODESIZE PUSH2 0x1963 JUMP JUMPDEST RETURNDATASIZE SWAP2 POP PUSH2 0x19BF JUMP JUMPDEST DUP3 MLOAD RETURNDATASIZE PUSH1 0x0 DUP3 RETURNDATACOPY RETURNDATASIZE SWAP1 REVERT JUMPDEST DUP2 SUB PUSH2 0x1A1D JUMPI POP PUSH2 0x1423 SWAP3 POP PUSH2 0x1A16 PUSH1 0x40 PUSH1 0x60 DUP5 PUSH1 0x80 MLOAD ADD ADD CALLDATALOAD SWAP4 PUSH1 0x80 MLOAD ADD ADD CALLDATALOAD PUSH2 0x3B5D JUMP JUMPDEST SWAP1 CALLDATALOAD PUSH2 0x3BAE JUMP JUMPDEST SWAP1 SWAP2 SWAP1 PUSH1 0x6 DUP2 SUB PUSH2 0x1B57 JUMPI POP PUSH1 0x80 MLOAD ADD PUSH1 0x60 DUP2 ADD CALLDATALOAD SWAP1 PUSH1 0x40 SWAP1 PUSH2 0x1A42 SWAP1 DUP3 ADD CALLDATALOAD PUSH2 0x3B5D JUMP JUMPDEST SWAP3 DUP3 ISZERO DUP1 ISZERO PUSH2 0x1B4C JUMPI JUMPDEST PUSH2 0x1B24 JUMPI CALLDATALOAD PUSH20 0xFFFFFFFFFFFFFFFFFFFFFFFFFFFFFFFFFFFFFFFF AND SWAP4 DUP5 PUSH2 0x1A88 JUMPI POP POP PUSH2 0x1423 SWAP3 POP PUSH2 0x1A81 PUSH2 0x2710 SWAP2 SELFBALANCE PUSH2 0x3C8D JUMP JUMPDEST DIV SWAP1 PUSH2 0x4657 JUMP JUMPDEST DUP2 MLOAD SWAP1 PUSH32 0x70A0823100000000000000000000000000000000000000000000000000000000 DUP3 MSTORE ADDRESS SWAP1 DUP3 ADD MSTORE PUSH1 0x20 DUP2 PUSH1 0x24 DUP2 DUP9 GAS STATICCALL SWAP2 DUP3 ISZERO PUSH2 0x1B1A JUMPI POP PUSH1 0x0 SWAP2 PUSH2 0x1AE6 JUMPI JUMPDEST POP PUSH2 0x1ADF PUSH2 0x1423 SWAP5 SWAP4 SWAP3 PUSH2 0x2710 SWAP3 PUSH2 0x3C8D JUMP JUMPDEST DIV SWAP2 PUSH2 0x46C5 JUMP JUMPDEST SWAP1 PUSH1 0x20 DUP3 RETURNDATASIZE PUSH1 0x20 GT PUSH2 0x1B12 JUMPI JUMPDEST DUP2 PUSH2 0x1B00 PUSH1 0x20 SWAP4 DUP4 PUSH2 0x3903 JUMP JUMPDEST DUP2 ADD SUB SLT PUSH2 0x324 JUMPI POP MLOAD PUSH2 0x1ADF PUSH2 0x1ACC JUMP JUMPDEST RETURNDATASIZE SWAP2 POP PUSH2 0x1AF3 JUMP JUMPDEST MLOAD RETURNDATASIZE PUSH1 0x0 DUP3 RETURNDATACOPY RETURNDATASIZE SWAP1 REVERT JUMPDEST DUP5 DUP3 MLOAD PUSH32 0xDEAA01E600000000000000000000000000000000000000000000000000000000 DUP2 MSTORE REVERT JUMPDEST POP PUSH2 0x2710 DUP4 GT PUSH2 0x1A4C JUMP JUMPDEST DUP4 PUSH1 0x24 SWAP2 PUSH1 0x40 MLOAD SWAP2 PUSH32 0xD76A1E9E00000000000000000000000000000000000000000000000000000000 DUP4 MSTORE DUP3 ADD MSTORE REVERT JUMPDEST DUP2 SWAP14 SWAP7 SWAP14 SWAP12 SWAP9 SWAP8 SWAP5 SWAP6 SWAP11 SWAP10 SWAP12 SWAP4 SWAP3 SWAP4 EQ PUSH1 0x0 EQ PUSH2 0x1E8E JUMPI POP POP POP PUSH1 0x40 SWAP2 PUSH2 0x1BB6 DUP4 DUP4 PUSH1 0x80 MLOAD ADD ADD CALLDATALOAD SWAP2 DUP6 PUSH2 0x44A1 JUMP JUMPDEST SWAP3 SWAP1 SWAP5 PUSH1 0xA0 DUP3 PUSH1 0x80 MLOAD ADD ADD CALLDATALOAD PUSH1 0x0 EQ PUSH2 0x1E84 JUMPI PUSH2 0x1BEC PUSH20 0xFFFFFFFFFFFFFFFFFFFFFFFFFFFFFFFFFFFFFFFF PUSH1 0x1 SLOAD AND SWAP2 CALLDATALOAD PUSH2 0x3B5D JUMP JUMPDEST SWAP1 DUP7 ISZERO PUSH2 0x1E55 JUMPI PUSH2 0x1BFC DUP6 PUSH2 0x3D9D JUMP JUMPDEST DUP8 PUSH1 0x1 LT ISZERO PUSH2 0x1E55 JUMPI PUSH2 0x1C1E PUSH2 0x1C66 SWAP2 PUSH2 0x1C18 PUSH1 0x20 DUP10 ADD PUSH2 0x3D9D JUMP JUMPDEST SWAP1 PUSH2 0x3F3D JUMP JUMPDEST SWAP1 PUSH32 0x0 PUSH32 0x0 PUSH2 0x3E35 JUMP JUMPDEST SWAP4 DUP5 DUP2 PUSH2 0x1E3B JUMPI JUMPDEST POP POP POP PUSH32 0xFFFFFFFFFFFFFFFFFFFFFFFFFFFFFFFFFFFFFFFFFFFFFFFFFFFFFFFFFFFFFFFF DUP7 ADD SWAP4 DUP7 DUP6 GT PUSH2 0x1E0C JUMPI PUSH2 0x1CC2 SWAP5 PUSH2 0x1CC7 PUSH20 0xFFFFFFFFFFFFFFFFFFFFFFFFFFFFFFFFFFFFFFFF SWAP7 DUP8 SWAP3 DUP11 DUP6 PUSH2 0x3D8D JUMP JUMPDEST PUSH2 0x3D9D JUMP JUMPDEST AND SWAP5 DUP7 MLOAD SWAP5 PUSH32 0x70A0823100000000000000000000000000000000000000000000000000000000 SWAP2 DUP3 DUP8 MSTORE DUP5 AND SWAP4 PUSH1 0x4 SWAP10 DUP6 DUP12 DUP10 ADD MSTORE PUSH1 0x24 SWAP5 PUSH1 0x20 DUP10 DUP8 DUP2 DUP14 GAS STATICCALL SWAP9 DUP10 ISZERO PUSH2 0x1E01 JUMPI PUSH1 0x0 SWAP10 PUSH2 0x1DCC JUMPI JUMPDEST POP SWAP2 PUSH1 0x20 SWAP7 SWAP6 SWAP5 SWAP4 SWAP2 PUSH2 0x1D28 SWAP4 PUSH2 0x3FB6 JUMP JUMPDEST DUP8 MLOAD SWAP7 DUP8 SWAP4 DUP5 SWAP3 DUP4 MSTORE DUP11 DUP4 ADD MSTORE GAS STATICCALL SWAP3 DUP4 ISZERO PUSH2 0x1DC1 JUMPI PUSH1 0x0 SWAP4 PUSH2 0x1D8C JUMPI JUMPDEST POP SWAP1 PUSH1 0x60 PUSH2 0x1D5A SWAP3 PUSH1 0x80 MLOAD ADD ADD CALLDATALOAD SWAP3 PUSH2 0x3DBE JUMP JUMPDEST LT PUSH2 0x1D66 JUMPI POP POP PUSH2 0xFE1 JUMP JUMPDEST MLOAD PUSH32 0x849EAF9800000000000000000000000000000000000000000000000000000000 DUP2 MSTORE REVERT JUMPDEST SWAP1 SWAP3 PUSH1 0x20 DUP3 RETURNDATASIZE PUSH1 0x20 GT PUSH2 0x1DB9 JUMPI JUMPDEST DUP2 PUSH2 0x1DA7 PUSH1 0x20 SWAP4 DUP4 PUSH2 0x3903 JUMP JUMPDEST DUP2 ADD SUB SLT PUSH2 0x324 JUMPI POP MLOAD SWAP2 PUSH1 0x60 PUSH2 0x1D46 JUMP JUMPDEST RETURNDATASIZE SWAP2 POP PUSH2 0x1D9A JUMP JUMPDEST DUP5 MLOAD RETURNDATASIZE PUSH1 0x0 DUP3 RETURNDATACOPY RETURNDATASIZE SWAP1 REVERT JUMPDEST SWAP1 SWAP9 PUSH1 0x20 DUP3 RETURNDATASIZE PUSH1 0x20 GT PUSH2 0x1DF9 JUMPI JUMPDEST DUP2 PUSH2 0x1DE7 PUSH1 0x20 SWAP4 DUP4 PUSH2 0x3903 JUMP JUMPDEST DUP2 ADD SUB SLT PUSH2 0x324 JUMPI POP MLOAD SWAP8 PUSH1 0x20 PUSH2 0x1D16 JUMP JUMPDEST RETURNDATASIZE SWAP2 POP PUSH2 0x1DDA JUMP JUMPDEST DUP12 MLOAD RETURNDATASIZE PUSH1 0x0 DUP3 RETURNDATACOPY RETURNDATASIZE SWAP1 REVERT JUMPDEST PUSH32 0x4E487B7100000000000000000000000000000000000000000000000000000000 PUSH1 0x0 MSTORE PUSH1 0x11 PUSH1 0x4 MSTORE PUSH1 0x24 PUSH1 0x0 REVERT JUMPDEST PUSH2 0x1E4D SWAP3 PUSH2 0x1E48 DUP9 PUSH2 0x3D9D JUMP JUMPDEST PUSH2 0x3DCB JUMP JUMPDEST CODESIZE DUP1 DUP5 PUSH2 0x1C6E JUMP JUMPDEST PUSH32 0x4E487B7100000000000000000000000000000000000000000000000000000000 PUSH1 0x0 MSTORE PUSH1 0x32 PUSH1 0x4 MSTORE PUSH1 0x24 PUSH1 0x0 REVERT JUMPDEST PUSH2 0x1BEC ADDRESS SWAP2 PUSH2 0xDCB JUMP JUMPDEST SWAP2 SWAP5 SWAP3 SWAP4 SWAP2 PUSH1 0x9 DUP2 SUB PUSH2 0x226F JUMPI POP POP PUSH2 0x1EA7 SWAP1 DUP3 PUSH2 0x44A1 JUMP JUMPDEST PUSH1 0x80 MLOAD DUP5 ADD PUSH1 0xA0 ADD CALLDATALOAD ISZERO PUSH2 0x2265 JUMPI PUSH2 0x1ED8 PUSH20 0xFFFFFFFFFFFFFFFFFFFFFFFFFFFFFFFFFFFFFFFF PUSH1 0x1 SLOAD AND SWAP4 CALLDATALOAD PUSH2 0x3B5D JUMP JUMPDEST SWAP3 PUSH2 0x1EE2 DUP4 PUSH2 0x39AE JUMP JUMPDEST SWAP6 PUSH2 0x1EF0 PUSH1 0x40 MLOAD SWAP8 DUP9 PUSH2 0x3903 JUMP JUMPDEST DUP4 DUP8 MSTORE DUP4 SWAP1 SHL DUP3 ADD PUSH1 0x20 DUP8 ADD CALLDATASIZE DUP3 GT PUSH2 0xBBE JUMPI DUP4 SWAP1 JUMPDEST DUP3 DUP3 LT PUSH2 0x224D JUMPI POP POP POP PUSH1 0x0 SWAP5 PUSH1 0x2 DUP8 MLOAD LT PUSH2 0x2223 JUMPI PUSH1 0x40 DUP2 PUSH1 0x80 MLOAD ADD ADD CALLDATALOAD SWAP7 DUP1 MLOAD PUSH32 0xFFFFFFFFFFFFFFFFFFFFFFFFFFFFFFFFFFFFFFFFFFFFFFFFFFFFFFFFFFFFFFFF DUP2 ADD SWAP1 DUP2 GT PUSH2 0x1E0C JUMPI SWAP1 DUP2 JUMPDEST PUSH2 0x1FB0 JUMPI POP POP PUSH1 0x80 MLOAD ADD PUSH1 0x60 ADD CALLDATALOAD DUP7 GT PUSH2 0x1F86 JUMPI DUP3 ISZERO PUSH2 0x1E55 JUMPI PUSH2 0x1423 SWAP6 DUP6 PUSH2 0x1F81 SWAP3 PUSH2 0x1E48 DUP6 PUSH2 0x3D9D JUMP JUMPDEST PUSH2 0x3FB6 JUMP JUMPDEST PUSH1 0x4 PUSH1 0x40 MLOAD PUSH32 0x8AB0BC1600000000000000000000000000000000000000000000000000000000 DUP2 MSTORE REVERT JUMPDEST SWAP1 SWAP8 PUSH32 0xFFFFFFFFFFFFFFFFFFFFFFFFFFFFFFFFFFFFFFFFFFFFFFFFFFFFFFFFFFFFFFFF DUP10 ADD SWAP8 POP DUP9 DUP9 GT PUSH2 0x1E0C JUMPI PUSH20 0xFFFFFFFFFFFFFFFFFFFFFFFFFFFFFFFFFFFFFFFF PUSH2 0x2000 PUSH2 0x2076 SWAP10 DUP5 PUSH2 0x3D79 JUMP JUMPDEST MLOAD AND PUSH2 0x202C PUSH20 0xFFFFFFFFFFFFFFFFFFFFFFFFFFFFFFFFFFFFFFFF PUSH2 0x2024 DUP13 DUP7 PUSH2 0x3D79 JUMP JUMPDEST MLOAD AND DUP3 PUSH2 0x3F3D JUMP JUMPDEST DUP2 SWAP11 SWAP2 PUSH32 0x0 PUSH32 0x0 PUSH2 0x3E35 JUMP JUMPDEST SWAP1 PUSH1 0x40 MLOAD SWAP1 PUSH32 0x902F1AC00000000000000000000000000000000000000000000000000000000 DUP3 MSTORE PUSH1 0x60 DUP3 PUSH1 0x4 DUP2 PUSH20 0xFFFFFFFFFFFFFFFFFFFFFFFFFFFFFFFFFFFFFFFF DUP8 AND GAS STATICCALL SWAP11 DUP12 ISZERO PUSH2 0x10E1 JUMPI PUSH1 0x0 SWAP3 DUP4 SWAP13 PUSH2 0x21DA JUMPI JUMPDEST POP PUSH20 0xFFFFFFFFFFFFFFFFFFFFFFFFFFFFFFFFFFFFFFFF AND SUB PUSH2 0x21C0 JUMPI PUSH14 0xFFFFFFFFFFFFFFFFFFFFFFFFFFFF DUP1 SWAP2 AND SWAP10 AND SWAP1 JUMPDEST SWAP9 DUP1 ISZERO DUP1 ISZERO PUSH2 0x21B8 JUMPI JUMPDEST PUSH2 0x218E JUMPI DUP3 PUSH2 0x2118 SWAP2 PUSH2 0x3C8D JUMP JUMPDEST SWAP2 PUSH2 0x3E8 SWAP3 DUP4 DUP2 MUL SWAP4 DUP2 DUP6 DIV EQ SWAP1 ISZERO OR ISZERO PUSH2 0x1E0C JUMPI PUSH2 0x2136 SWAP2 PUSH2 0x3DBE JUMP JUMPDEST PUSH2 0x3E5 SWAP1 DUP2 DUP2 MUL SWAP2 DUP2 DUP4 DIV EQ SWAP1 ISZERO OR ISZERO PUSH2 0x1E0C JUMPI PUSH2 0x2153 SWAP2 PUSH2 0x3CA0 JUMP JUMPDEST PUSH1 0x1 DUP2 ADD DUP1 SWAP2 GT PUSH2 0x1E0C JUMPI SWAP8 DUP1 ISZERO PUSH2 0x1E0C JUMPI PUSH32 0xFFFFFFFFFFFFFFFFFFFFFFFFFFFFFFFFFFFFFFFFFFFFFFFFFFFFFFFFFFFFFFFF ADD SWAP1 DUP2 PUSH2 0x1F55 JUMP JUMPDEST PUSH1 0x4 PUSH1 0x40 MLOAD PUSH32 0x7B9C891600000000000000000000000000000000000000000000000000000000 DUP2 MSTORE REVERT JUMPDEST POP DUP2 ISZERO PUSH2 0x210A JUMP JUMPDEST PUSH14 0xFFFFFFFFFFFFFFFFFFFFFFFFFFFF SWAP10 DUP11 AND SWAP10 AND SWAP1 PUSH2 0x2100 JUMP JUMPDEST PUSH2 0x2213 SWAP2 SWAP13 POP PUSH20 0xFFFFFFFFFFFFFFFFFFFFFFFFFFFFFFFFFFFFFFFF SWAP4 POP PUSH1 0x60 RETURNDATASIZE DUP2 GT PUSH2 0x221C JUMPI JUMPDEST PUSH2 0x220B DUP2 DUP4 PUSH2 0x3903 JUMP JUMPDEST DUP2 ADD SWAP1 PUSH2 0x3F80 JUMP JUMPDEST POP SWAP12 SWAP1 SWAP3 PUSH2 0x20CE JUMP JUMPDEST POP RETURNDATASIZE PUSH2 0x2201 JUMP JUMPDEST PUSH1 0x4 PUSH1 0x40 MLOAD PUSH32 0x20DB826700000000000000000000000000000000000000000000000000000000 DUP2 MSTORE REVERT JUMPDEST PUSH1 0x20 DUP1 SWAP2 PUSH2 0x225A DUP5 PUSH2 0xBE6 JUMP JUMPDEST DUP2 MSTORE ADD SWAP2 ADD SWAP1 PUSH2 0x1F06 JUMP JUMPDEST PUSH2 0x1ED8 ADDRESS SWAP4 PUSH2 0xDCB JUMP JUMPDEST SWAP3 SWAP5 POP SWAP2 PUSH1 0xA DUP2 SUB PUSH2 0x23D5 JUMPI POP PUSH1 0x80 MLOAD DUP4 ADD PUSH1 0xE0 DUP2 ADD CALLDATALOAD DUP2 ADD SWAP5 PUSH1 0x20 DUP1 DUP8 ADD CALLDATALOAD SWAP5 POP SWAP1 SWAP3 SWAP2 PUSH2 0x22A2 SWAP2 SWAP1 DUP8 SUB ADD DUP5 PUSH2 0x4456 JUMP JUMPDEST GT PUSH2 0x11CD JUMPI PUSH20 0xFFFFFFFFFFFFFFFFFFFFFFFFFFFFFFFFFFFFFFFF SWAP4 DUP5 PUSH32 0x0 AND SWAP3 DUP6 PUSH1 0x1 SLOAD AND SWAP2 DUP5 EXTCODESIZE ISZERO PUSH2 0xBBE JUMPI PUSH1 0x40 SWAP6 DUP8 DUP8 MLOAD SWAP9 DUP10 SWAP7 DUP8 SWAP7 PUSH32 0x2B67B57000000000000000000000000000000000000000000000000000000000 DUP9 MSTORE PUSH1 0x4 DUP9 ADD MSTORE PUSH2 0x232A SWAP1 PUSH2 0xBE6 JUMP JUMPDEST AND PUSH1 0x24 DUP7 ADD MSTORE DUP1 DUP9 DUP4 PUSH1 0x80 MLOAD ADD ADD PUSH2 0x2341 SWAP1 PUSH2 0xBE6 JUMP JUMPDEST AND PUSH1 0x44 DUP7 ADD MSTORE PUSH6 0xFFFFFFFFFFFF DUP1 DUP4 PUSH1 0x80 MLOAD ADD PUSH1 0x60 ADD PUSH2 0x2360 SWAP1 PUSH2 0x39C6 JUMP JUMPDEST AND PUSH1 0x64 DUP8 ADD MSTORE DUP3 PUSH1 0x80 MLOAD ADD PUSH1 0x80 ADD PUSH2 0x2377 SWAP1 PUSH2 0x39C6 JUMP JUMPDEST AND PUSH1 0x84 DUP7 ADD MSTORE DUP2 PUSH1 0x80 MLOAD ADD PUSH1 0xA0 ADD PUSH2 0x238E SWAP1 PUSH2 0xBE6 JUMP JUMPDEST AND PUSH1 0xA4 DUP6 ADD MSTORE PUSH1 0x80 MLOAD ADD PUSH1 0xC0 ADD CALLDATALOAD PUSH1 0xC4 DUP5 ADD MSTORE PUSH2 0x100 PUSH1 0xE4 DUP5 ADD MSTORE PUSH2 0x23BA SWAP2 PUSH2 0x104 DUP5 ADD SWAP2 DUP8 ADD PUSH2 0x3840 JUMP JUMPDEST SUB DUP2 GAS PUSH1 0x0 SWAP5 DUP6 SWAP2 CALL SWAP1 DUP2 ISZERO PUSH2 0x1B1A JUMPI POP PUSH2 0x1794 JUMPI POP PUSH2 0xFE1 JUMP JUMPDEST PUSH1 0xB DUP2 SUB PUSH2 0x259F JUMPI POP POP POP PUSH2 0x23F4 PUSH1 0x40 DUP1 SWAP3 PUSH1 0x80 MLOAD ADD ADD CALLDATALOAD SWAP3 CALLDATALOAD PUSH2 0x3B5D JUMP JUMPDEST SWAP2 DUP1 PUSH32 0x8000000000000000000000000000000000000000000000000000000000000000 DUP2 SUB PUSH2 0x256F JUMPI POP POP SELFBALANCE JUMPDEST DUP1 PUSH2 0x242E JUMPI POP POP POP PUSH2 0xFE1 JUMP JUMPDEST PUSH20 0xFFFFFFFFFFFFFFFFFFFFFFFFFFFFFFFFFFFFFFFF SWAP1 DUP2 PUSH32 0x0 AND DUP1 EXTCODESIZE ISZERO PUSH2 0xBBE JUMPI DUP4 MLOAD SWAP3 PUSH32 0xD0E30DB000000000000000000000000000000000000000000000000000000000 DUP5 MSTORE PUSH1 0x4 SWAP4 PUSH1 0x0 DUP2 DUP7 DUP2 DUP8 DUP8 GAS CALL DUP1 ISZERO PUSH2 0x2564 JUMPI PUSH2 0x2555 JUMPI JUMPDEST POP ADDRESS SWAP1 DUP7 AND SUB PUSH2 0x24BD JUMPI JUMPDEST POP POP PUSH2 0x1972 JUMP JUMPDEST PUSH2 0x251C SWAP5 PUSH1 0x0 PUSH1 0x20 SWAP5 DUP7 MLOAD SWAP8 DUP9 SWAP6 DUP7 SWAP5 DUP6 SWAP4 PUSH32 0xA9059CBB00000000000000000000000000000000000000000000000000000000 DUP6 MSTORE DUP5 ADD PUSH1 0x20 SWAP1 SWAP4 SWAP3 SWAP2 SWAP4 PUSH20 0xFFFFFFFFFFFFFFFFFFFFFFFFFFFFFFFFFFFFFFFF PUSH1 0x40 DUP3 ADD SWAP6 AND DUP2 MSTORE ADD MSTORE JUMP JUMPDEST SUB SWAP3 GAS CALL SWAP1 DUP2 ISZERO PUSH2 0x1B1A JUMPI POP PUSH2 0x2536 JUMPI JUMPDEST DUP1 DUP1 DUP1 DUP1 PUSH2 0x24B6 JUMP JUMPDEST PUSH2 0x254E SWAP1 PUSH1 0x20 RETURNDATASIZE PUSH1 0x20 GT PUSH2 0x79F JUMPI PUSH2 0x790 DUP2 DUP4 PUSH2 0x3903 JUMP JUMPDEST POP CODESIZE PUSH2 0x252D JUMP JUMPDEST PUSH2 0x255E SWAP1 PUSH2 0x387F JUMP JUMPDEST CODESIZE PUSH2 0x24AB JUMP JUMPDEST DUP7 MLOAD RETURNDATASIZE PUSH1 0x0 DUP3 RETURNDATACOPY RETURNDATASIZE SWAP1 REVERT JUMPDEST SELFBALANCE LT ISZERO PUSH2 0x2421 JUMPI PUSH1 0x4 DUP3 MLOAD PUSH32 0x6A12F10400000000000000000000000000000000000000000000000000000000 DUP2 MSTORE REVERT JUMPDEST PUSH1 0xC DUP2 SUB PUSH2 0x272F JUMPI POP POP POP SWAP1 PUSH2 0x25B5 SWAP1 CALLDATALOAD PUSH2 0x3B5D JUMP JUMPDEST SWAP1 PUSH20 0xFFFFFFFFFFFFFFFFFFFFFFFFFFFFFFFFFFFFFFFF DUP1 PUSH32 0x0 AND PUSH1 0x40 DUP1 MLOAD SWAP4 PUSH32 0x70A0823100000000000000000000000000000000000000000000000000000000 DUP6 MSTORE PUSH1 0x4 ADDRESS DUP2 DUP8 ADD MSTORE PUSH1 0x24 SWAP2 PUSH1 0x20 DUP8 DUP5 DUP2 DUP9 GAS STATICCALL SWAP7 DUP8 ISZERO PUSH2 0x1DC1 JUMPI PUSH1 0x0 SWAP8 PUSH2 0x26FB JUMPI JUMPDEST POP PUSH1 0x80 MLOAD ADD DUP4 ADD CALLDATALOAD DUP7 LT PUSH2 0x26D4 JUMPI DUP6 PUSH2 0x2657 JUMPI JUMPDEST POP POP POP POP POP POP POP PUSH2 0xFE1 JUMP JUMPDEST DUP4 EXTCODESIZE ISZERO PUSH2 0xBBE JUMPI PUSH1 0x0 SWAP2 DUP7 SWAP2 DUP4 DUP6 MLOAD SWAP7 DUP8 SWAP5 DUP6 SWAP4 PUSH32 0x2E1A7D4D00000000000000000000000000000000000000000000000000000000 DUP6 MSTORE DUP5 ADD MSTORE GAS CALL SWAP1 DUP2 ISZERO PUSH2 0x1B1A JUMPI POP PUSH2 0x26C5 JUMPI JUMPDEST POP ADDRESS SWAP1 DUP4 AND SUB PUSH2 0x26B5 JUMPI JUMPDEST DUP1 DUP1 DUP1 DUP1 DUP1 PUSH2 0x264B JUMP JUMPDEST PUSH2 0x26BE SWAP2 PUSH2 0x4657 JUMP JUMPDEST CODESIZE DUP1 PUSH2 0x26AB JUMP JUMPDEST PUSH2 0x26CE SWAP1 PUSH2 0x387F JUMP JUMPDEST CODESIZE PUSH2 0x26A0 JUMP JUMPDEST DUP3 MLOAD PUSH32 0x6A12F10400000000000000000000000000000000000000000000000000000000 DUP2 MSTORE REVERT JUMPDEST SWAP1 SWAP7 PUSH1 0x20 DUP3 RETURNDATASIZE PUSH1 0x20 GT PUSH2 0x2727 JUMPI JUMPDEST DUP2 PUSH2 0x2716 PUSH1 0x20 SWAP4 DUP4 PUSH2 0x3903 JUMP JUMPDEST DUP2 ADD SUB SLT PUSH2 0x324 JUMPI POP MLOAD SWAP6 DUP4 PUSH2 0x2637 JUMP JUMPDEST RETURNDATASIZE SWAP2 POP PUSH2 0x2709 JUMP JUMPDEST PUSH1 0xD DUP2 SUB PUSH2 0x298A JUMPI POP DUP3 PUSH1 0x80 MLOAD ADD ADD SWAP2 PUSH1 0x20 DUP4 ADD SWAP4 PUSH1 0x20 DUP3 PUSH1 0x80 MLOAD ADD DUP6 SUB SLT PUSH2 0xBBE JUMPI CALLDATALOAD PUSH8 0xFFFFFFFFFFFFFFFF DUP2 GT PUSH2 0xBBE JUMPI DUP5 SWAP2 PUSH1 0x80 MLOAD ADD ADD SWAP2 DUP3 ADD SLT ISZERO PUSH2 0xBBE JUMPI PUSH1 0x20 DUP2 ADD CALLDATALOAD SWAP1 PUSH2 0x2781 DUP3 PUSH2 0x39AE JUMP JUMPDEST SWAP4 PUSH1 0x40 SWAP4 PUSH2 0x2791 DUP6 MLOAD SWAP7 DUP8 PUSH2 0x3903 JUMP JUMPDEST DUP4 DUP7 MSTORE PUSH1 0x20 DUP7 ADD SWAP3 DUP6 DUP5 SWAP6 PUSH1 0x7 SHL DUP3 ADD ADD SWAP3 DUP4 GT PUSH2 0xBBE JUMPI DUP6 ADD SWAP3 JUMPDEST DUP3 DUP5 LT PUSH2 0x2928 JUMPI POP POP POP POP PUSH20 0xFFFFFFFFFFFFFFFFFFFFFFFFFFFFFFFFFFFFFFFF SWAP1 DUP2 PUSH1 0x1 SLOAD AND DUP5 MLOAD SWAP1 PUSH1 0x0 JUMPDEST DUP3 DUP2 LT PUSH2 0x28BC JUMPI POP POP POP DUP2 PUSH32 0x0 AND SWAP2 DUP3 EXTCODESIZE ISZERO PUSH2 0xBBE JUMPI DUP4 MLOAD PUSH32 0xD58B1DB00000000000000000000000000000000000000000000000000000000 DUP2 MSTORE PUSH1 0x20 PUSH1 0x4 DUP3 ADD MSTORE SWAP5 MLOAD PUSH1 0x24 DUP7 ADD DUP2 SWAP1 MSTORE DUP6 SWAP3 PUSH1 0x44 DUP5 ADD SWAP3 SWAP1 SWAP2 PUSH1 0x0 SWAP2 JUMPDEST DUP2 DUP4 LT PUSH2 0x2878 JUMPI POP POP POP POP SWAP2 DUP2 PUSH1 0x0 DUP2 DUP2 SWAP6 SUB SWAP3 GAS CALL SWAP1 DUP2 ISZERO PUSH2 0x1B1A JUMPI POP PUSH2 0x1794 JUMPI POP PUSH2 0xFE1 JUMP JUMPDEST SWAP2 SWAP4 DUP4 SWAP6 POP PUSH1 0x80 PUSH1 0x20 SWAP2 DUP5 PUSH1 0x60 PUSH1 0x1 SWAP6 SWAP8 MLOAD DUP3 DUP2 MLOAD AND DUP5 MSTORE DUP3 DUP7 DUP3 ADD MLOAD AND DUP7 DUP6 ADD MSTORE DUP3 DUP14 DUP3 ADD MLOAD AND DUP14 DUP6 ADD MSTORE ADD MLOAD AND PUSH1 0x60 DUP3 ADD MSTORE ADD SWAP6 ADD SWAP4 ADD SWAP1 SWAP2 DUP8 SWAP5 SWAP4 SWAP3 PUSH2 0x2850 JUMP JUMPDEST DUP2 DUP6 PUSH2 0x28C8 DUP4 DUP11 PUSH2 0x3D79 JUMP JUMPDEST MLOAD MLOAD AND SUB PUSH2 0x28FF JUMPI PUSH32 0xFFFFFFFFFFFFFFFFFFFFFFFFFFFFFFFFFFFFFFFFFFFFFFFFFFFFFFFFFFFFFFFF DUP2 EQ PUSH2 0x1E0C JUMPI PUSH1 0x1 ADD PUSH2 0x27D9 JUMP JUMPDEST PUSH1 0x4 DUP7 MLOAD PUSH32 0xE700287700000000000000000000000000000000000000000000000000000000 DUP2 MSTORE REVERT JUMPDEST PUSH1 0x80 PUSH1 0x20 DUP6 DUP5 SUB ADD SLT PUSH2 0xBBE JUMPI PUSH1 0x20 PUSH1 0x80 SWAP2 DUP8 MLOAD PUSH2 0x2945 DUP2 PUSH2 0x3893 JUMP JUMPDEST PUSH2 0x294E DUP8 PUSH2 0xBE6 JUMP JUMPDEST DUP2 MSTORE PUSH2 0x295B DUP4 DUP9 ADD PUSH2 0xBE6 JUMP JUMPDEST DUP4 DUP3 ADD MSTORE PUSH2 0x296A DUP10 DUP9 ADD PUSH2 0xBE6 JUMP JUMPDEST DUP10 DUP3 ADD MSTORE PUSH2 0x297A PUSH1 0x60 DUP9 ADD PUSH2 0xBE6 JUMP JUMPDEST PUSH1 0x60 DUP3 ADD MSTORE DUP2 MSTORE ADD SWAP4 ADD SWAP3 PUSH2 0x27AD JUMP JUMPDEST SWAP3 SWAP5 POP POP POP PUSH1 0xE DUP2 SUB PUSH2 0x2A8C JUMPI POP PUSH1 0x40 SWAP2 DUP3 MLOAD SWAP1 PUSH32 0x70A0823100000000000000000000000000000000000000000000000000000000 DUP3 MSTORE PUSH1 0x20 DUP3 PUSH1 0x24 DUP2 PUSH20 0xFFFFFFFFFFFFFFFFFFFFFFFFFFFFFFFFFFFFFFFF DUP1 PUSH1 0x4 SWAP9 CALLDATALOAD AND DUP9 DUP4 ADD MSTORE DUP9 DUP7 PUSH1 0x80 MLOAD ADD ADD CALLDATALOAD AND GAS STATICCALL SWAP2 DUP3 ISZERO PUSH2 0x1DC1 JUMPI PUSH1 0x0 SWAP3 PUSH2 0x2A57 JUMPI JUMPDEST POP PUSH1 0x80 MLOAD ADD PUSH1 0x60 ADD CALLDATALOAD GT DUP1 ISZERO SWAP3 SWAP1 PUSH2 0x2A19 JUMPI POP POP PUSH2 0xFE1 JUMP JUMPDEST MLOAD PUSH32 0xA328167200000000000000000000000000000000000000000000000000000000 PUSH1 0x20 DUP3 ADD MSTORE SWAP1 DUP2 MSTORE SWAP1 SWAP2 POP PUSH2 0x2A4F DUP2 PUSH2 0x38CB JUMP JUMPDEST SWAP1 CODESIZE DUP1 PUSH2 0x18E0 JUMP JUMPDEST SWAP1 SWAP2 PUSH1 0x20 DUP3 RETURNDATASIZE PUSH1 0x20 GT PUSH2 0x2A84 JUMPI JUMPDEST DUP2 PUSH2 0x2A72 PUSH1 0x20 SWAP4 DUP4 PUSH2 0x3903 JUMP JUMPDEST DUP2 ADD SUB SLT PUSH2 0x324 JUMPI POP MLOAD SWAP1 PUSH1 0x60 PUSH2 0x2A00 JUMP JUMPDEST RETURNDATASIZE SWAP2 POP PUSH2 0x2A65 JUMP JUMPDEST PUSH1 0x24 SWAP1 PUSH1 0x40 MLOAD SWAP1 PUSH32 0xD76A1E9E00000000000000000000000000000000000000000000000000000000 DUP3 MSTORE PUSH1 0x4 DUP3 ADD MSTORE REVERT JUMPDEST SWAP2 POP SWAP2 POP PUSH1 0x18 SWAP12 SWAP6 SWAP4 SWAP9 SWAP8 SWAP10 SWAP7 SWAP3 SWAP5 SWAP12 DUP1 DUP4 LT PUSH1 0x0 EQ PUSH2 0x304C JUMPI POP DUP2 SUB PUSH2 0x2B33 JUMPI POP POP POP PUSH1 0x0 SWAP3 POP SWAP1 PUSH2 0x2AF1 DUP4 SWAP3 DUP3 PUSH2 0x4484 JUMP JUMPDEST DUP2 PUSH1 0x40 MLOAD SWAP3 DUP4 SWAP3 DUP4 CALLDATACOPY DUP2 ADD DUP5 DUP2 MSTORE SUB SWAP2 CALLDATALOAD PUSH32 0x0 GAS CALL PUSH2 0x2B2D PUSH2 0x397E JUMP JUMPDEST SWAP1 PUSH2 0xFE1 JUMP JUMPDEST PUSH1 0x11 DUP2 SUB PUSH2 0x2B8A JUMPI POP POP POP PUSH1 0x0 SWAP3 POP SWAP1 PUSH2 0x2B4E DUP4 SWAP3 DUP3 PUSH2 0x4484 JUMP JUMPDEST DUP2 PUSH1 0x40 MLOAD SWAP3 DUP4 SWAP3 DUP4 CALLDATACOPY DUP2 ADD DUP5 DUP2 MSTORE SUB SWAP2 CALLDATALOAD PUSH32 0x0 GAS CALL PUSH2 0x2B2D PUSH2 0x397E JUMP JUMPDEST PUSH1 0x12 DUP2 SUB PUSH2 0x2BE1 JUMPI POP POP POP PUSH1 0x0 SWAP3 POP SWAP1 PUSH2 0x2BA5 DUP4 SWAP3 DUP3 PUSH2 0x4484 JUMP JUMPDEST DUP2 PUSH1 0x40 MLOAD SWAP3 DUP4 SWAP3 DUP4 CALLDATACOPY DUP2 ADD DUP5 DUP2 MSTORE SUB SWAP2 CALLDATALOAD PUSH32 0x0 GAS CALL PUSH2 0x2B2D PUSH2 0x397E JUMP JUMPDEST SWAP2 SWAP4 SWAP3 POP SWAP1 PUSH1 0x13 DUP2 SUB PUSH2 0x2D47 JUMPI POP POP SWAP1 SWAP2 POP CALLDATALOAD PUSH32 0x0 SWAP2 PUSH1 0x40 PUSH1 0x0 DUP1 DUP3 MLOAD PUSH1 0x20 DUP2 ADD SWAP1 PUSH32 0x8264FE9800000000000000000000000000000000000000000000000000000000 DUP3 MSTORE PUSH1 0x24 DUP8 DUP2 DUP4 ADD MSTORE DUP2 MSTORE PUSH2 0x2C57 DUP2 PUSH2 0x38E7 JUMP JUMPDEST MLOAD SWAP1 PUSH1 0x60 DUP7 PUSH1 0x80 MLOAD ADD ADD CALLDATALOAD DUP9 GAS CALL SWAP3 PUSH2 0x2C6E PUSH2 0x397E JUMP JUMPDEST SWAP5 DUP5 ISZERO PUSH2 0x2D0D JUMPI DUP3 PUSH20 0xFFFFFFFFFFFFFFFFFFFFFFFFFFFFFFFFFFFFFFFF PUSH2 0x2C9C SWAP3 AND SWAP5 PUSH1 0x80 MLOAD ADD ADD CALLDATALOAD PUSH2 0x3B5D JUMP JUMPDEST SWAP1 DUP4 EXTCODESIZE ISZERO PUSH2 0xBBE JUMPI DUP3 MLOAD PUSH32 0x8B72A2EC00000000000000000000000000000000000000000000000000000000 DUP2 MSTORE PUSH20 0xFFFFFFFFFFFFFFFFFFFFFFFFFFFFFFFFFFFFFFFF SWAP3 SWAP1 SWAP3 AND PUSH1 0x4 DUP4 ADD MSTORE PUSH1 0x24 DUP3 ADD MSTORE SWAP2 PUSH1 0x0 SWAP1 DUP4 SWAP1 PUSH1 0x44 SWAP1 DUP3 SWAP1 DUP5 SWAP1 GAS CALL SWAP1 DUP2 ISZERO PUSH2 0x1B1A JUMPI POP PUSH2 0x1794 JUMPI POP PUSH2 0xFE1 JUMP JUMPDEST POP POP SWAP2 SWAP3 POP POP MLOAD PUSH32 0xAE9BDF0000000000000000000000000000000000000000000000000000000000 PUSH1 0x20 DUP3 ADD MSTORE PUSH1 0x4 DUP2 MSTORE PUSH2 0x2B2D DUP2 PUSH2 0x38CB JUMP JUMPDEST PUSH1 0x15 DUP2 SUB PUSH2 0x2E58 JUMPI POP POP SWAP1 PUSH1 0x40 SWAP2 DUP3 DUP1 MLOAD SWAP2 PUSH32 0x6352211E00000000000000000000000000000000000000000000000000000000 DUP4 MSTORE PUSH1 0x20 DUP4 PUSH1 0x24 DUP2 PUSH1 0x4 SWAP8 PUSH1 0x60 DUP2 PUSH1 0x80 MLOAD ADD ADD CALLDATALOAD DUP10 DUP4 ADD MSTORE PUSH20 0xFFFFFFFFFFFFFFFFFFFFFFFFFFFFFFFFFFFFFFFF SWAP7 DUP8 SWAP2 PUSH1 0x80 MLOAD ADD ADD CALLDATALOAD AND GAS STATICCALL SWAP3 DUP4 ISZERO PUSH2 0x2E4D JUMPI PUSH1 0x0 SWAP4 PUSH2 0x2E0E JUMPI JUMPDEST POP DUP2 SWAP1 CALLDATALOAD AND SWAP2 AND EQ SWAP2 DUP3 ISZERO PUSH2 0x2DD8 JUMPI POP POP PUSH2 0xFE1 JUMP JUMPDEST MLOAD PUSH32 0x7DBE7E8900000000000000000000000000000000000000000000000000000000 PUSH1 0x20 DUP3 ADD MSTORE SWAP1 DUP2 MSTORE SWAP1 SWAP2 POP PUSH2 0x2A4F DUP2 PUSH2 0x38CB JUMP JUMPDEST PUSH1 0x20 SWAP4 SWAP2 SWAP4 DUP2 RETURNDATASIZE PUSH1 0x20 GT PUSH2 0x2E45 JUMPI JUMPDEST DUP2 PUSH2 0x2E2A PUSH1 0x20 SWAP4 DUP4 PUSH2 0x3903 JUMP JUMPDEST DUP2 ADD SUB SLT PUSH2 0x5B4 JUMPI MLOAD SWAP1 DUP3 DUP3 AND DUP3 SUB PUSH2 0x324 JUMPI POP SWAP2 DUP2 PUSH2 0x2DC2 JUMP JUMPDEST RETURNDATASIZE SWAP2 POP PUSH2 0x2E1D JUMP JUMPDEST DUP6 MLOAD RETURNDATASIZE PUSH1 0x0 DUP3 RETURNDATACOPY RETURNDATASIZE SWAP1 REVERT JUMPDEST PUSH1 0x16 DUP2 SUB PUSH2 0x2F7F JUMPI POP POP PUSH1 0x40 SWAP2 DUP3 MLOAD SWAP1 PUSH31 0xFDD58E00000000000000000000000000000000000000000000000000000000 DUP3 MSTORE PUSH1 0x20 DUP3 DUP1 PUSH2 0x2ECA PUSH1 0x4 SWAP7 PUSH1 0x60 DUP7 PUSH1 0x80 MLOAD ADD ADD CALLDATALOAD SWAP1 CALLDATALOAD DUP9 DUP5 ADD PUSH1 0x20 SWAP1 SWAP4 SWAP3 SWAP2 SWAP4 PUSH20 0xFFFFFFFFFFFFFFFFFFFFFFFFFFFFFFFFFFFFFFFF PUSH1 0x40 DUP3 ADD SWAP6 AND DUP2 MSTORE ADD MSTORE JUMP JUMPDEST SUB DUP2 PUSH20 0xFFFFFFFFFFFFFFFFFFFFFFFFFFFFFFFFFFFFFFFF DUP9 DUP7 PUSH1 0x80 MLOAD ADD ADD CALLDATALOAD AND GAS STATICCALL SWAP2 DUP3 ISZERO PUSH2 0x1DC1 JUMPI PUSH1 0x0 SWAP3 PUSH2 0x2F4A JUMPI JUMPDEST POP PUSH1 0x80 SWAP1 DUP2 MLOAD ADD ADD CALLDATALOAD GT SWAP2 DUP3 ISZERO SWAP3 PUSH2 0x2F14 JUMPI POP POP PUSH2 0xFE1 JUMP JUMPDEST MLOAD PUSH32 0x483A692900000000000000000000000000000000000000000000000000000000 PUSH1 0x20 DUP3 ADD MSTORE SWAP1 DUP2 MSTORE SWAP1 SWAP2 POP PUSH2 0x2A4F DUP2 PUSH2 0x38CB JUMP JUMPDEST SWAP1 SWAP2 PUSH1 0x20 DUP3 RETURNDATASIZE PUSH1 0x20 GT PUSH2 0x2F77 JUMPI JUMPDEST DUP2 PUSH2 0x2F65 PUSH1 0x20 SWAP4 DUP4 PUSH2 0x3903 JUMP JUMPDEST DUP2 ADD SUB SLT PUSH2 0x324 JUMPI POP MLOAD SWAP1 PUSH1 0x80 PUSH2 0x2EFB JUMP JUMPDEST RETURNDATASIZE SWAP2 POP PUSH2 0x2F58 JUMP JUMPDEST SWAP1 SWAP3 SWAP1 PUSH1 0x17 EQ PUSH2 0x2F90 JUMPI POP POP PUSH2 0xFE1 JUMP JUMPDEST PUSH1 0x40 SWAP1 PUSH20 0xFFFFFFFFFFFFFFFFFFFFFFFFFFFFFFFFFFFFFFFF PUSH2 0x2FB8 DUP4 DUP4 PUSH1 0x80 MLOAD ADD ADD CALLDATALOAD PUSH2 0x3B5D JUMP JUMPDEST SWAP4 CALLDATALOAD AND SWAP3 DUP4 EXTCODESIZE ISZERO PUSH2 0xBBE JUMPI DUP3 MLOAD PUSH32 0x42842E0E00000000000000000000000000000000000000000000000000000000 DUP2 MSTORE PUSH1 0x80 MLOAD ADDRESS PUSH1 0x4 DUP4 ADD MSTORE PUSH20 0xFFFFFFFFFFFFFFFFFFFFFFFFFFFFFFFFFFFFFFFF SWAP1 SWAP3 AND PUSH1 0x24 DUP3 ADD MSTORE SWAP2 ADD PUSH1 0x60 ADD CALLDATALOAD PUSH1 0x44 DUP3 ADD MSTORE SWAP2 PUSH1 0x0 SWAP1 DUP4 SWAP1 DUP2 DUP4 DUP2 PUSH1 0x64 DUP2 ADD SUB SWAP3 GAS CALL SWAP1 DUP2 ISZERO PUSH2 0x1B1A JUMPI POP PUSH2 0x303D JUMPI JUMPDEST DUP1 PUSH2 0x18E0 JUMP JUMPDEST PUSH2 0x3046 SWAP1 PUSH2 0x387F JUMP JUMPDEST CODESIZE PUSH2 0x3037 JUMP JUMPDEST SWAP4 SWAP7 SWAP4 DUP3 EQ ISZERO SWAP1 POP PUSH2 0x3087 JUMPI POP POP POP PUSH2 0x2B2D SWAP3 POP PUSH32 0x0 SWAP2 PUSH2 0x3A20 JUMP JUMPDEST PUSH1 0x19 DUP2 SUB PUSH2 0x30DE JUMPI POP POP POP PUSH1 0x0 SWAP3 POP SWAP1 PUSH2 0x30A2 DUP4 SWAP3 DUP3 PUSH2 0x4484 JUMP JUMPDEST DUP2 PUSH1 0x40 MLOAD SWAP3 DUP4 SWAP3 DUP4 CALLDATACOPY DUP2 ADD DUP5 DUP2 MSTORE SUB SWAP2 CALLDATALOAD PUSH32 0x0 GAS CALL PUSH2 0x2B2D PUSH2 0x397E JUMP JUMPDEST PUSH1 0x1A DUP2 SUB PUSH2 0x3135 JUMPI POP POP POP PUSH1 0x0 SWAP3 POP SWAP1 PUSH2 0x30F9 DUP4 SWAP3 DUP3 PUSH2 0x4484 JUMP JUMPDEST DUP2 PUSH1 0x40 MLOAD SWAP3 DUP4 SWAP3 DUP4 CALLDATACOPY DUP2 ADD DUP5 DUP2 MSTORE SUB SWAP2 CALLDATALOAD PUSH32 0x0 GAS CALL PUSH2 0x2B2D PUSH2 0x397E JUMP JUMPDEST PUSH1 0x1B DUP2 SUB PUSH2 0x325C JUMPI POP POP POP PUSH1 0x0 PUSH2 0x314D DUP2 SWAP3 DUP5 PUSH2 0x4484 JUMP JUMPDEST SWAP4 SWAP1 PUSH1 0x40 SWAP5 DUP2 DUP7 MLOAD SWAP3 DUP4 SWAP3 DUP4 CALLDATACOPY DUP2 ADD DUP5 DUP2 MSTORE SUB SWAP2 CALLDATALOAD PUSH32 0x0 GAS CALL SWAP2 DUP3 SWAP2 PUSH2 0x3190 PUSH2 0x397E JUMP JUMPDEST SWAP3 PUSH2 0x319E JUMPI JUMPDEST POP POP SWAP1 PUSH2 0xFE1 JUMP JUMPDEST PUSH20 0xFFFFFFFFFFFFFFFFFFFFFFFFFFFFFFFFFFFFFFFF PUSH1 0x80 DUP4 DUP2 MLOAD ADD ADD CALLDATALOAD AND PUSH2 0x31CD PUSH1 0x60 DUP5 PUSH1 0x80 MLOAD ADD ADD CALLDATALOAD PUSH2 0x3B5D JUMP JUMPDEST SWAP1 DUP3 MLOAD SWAP1 PUSH2 0x31DA DUP3 PUSH2 0x38AF JUMP JUMPDEST PUSH1 0x0 DUP3 MSTORE DUP1 EXTCODESIZE ISZERO PUSH2 0xBBE JUMPI PUSH2 0x3236 SWAP5 PUSH1 0x0 DUP1 SWAP5 DUP7 MLOAD SWAP8 DUP9 SWAP6 DUP7 SWAP5 DUP6 SWAP4 PUSH32 0xF242432A00000000000000000000000000000000000000000000000000000000 DUP6 MSTORE PUSH1 0xA0 PUSH1 0xC0 DUP4 PUSH1 0x80 MLOAD ADD ADD CALLDATALOAD SWAP3 PUSH1 0x80 MLOAD ADD ADD CALLDATALOAD SWAP1 ADDRESS PUSH1 0x4 DUP8 ADD PUSH2 0x3B18 JUMP JUMPDEST SUB SWAP3 GAS CALL SWAP1 DUP2 ISZERO PUSH2 0x1B1A JUMPI POP PUSH2 0x324D JUMPI JUMPDEST DUP1 PUSH2 0x3196 JUMP JUMPDEST PUSH2 0x3256 SWAP1 PUSH2 0x387F JUMP JUMPDEST CODESIZE PUSH2 0x3247 JUMP JUMPDEST SWAP2 SWAP5 SWAP1 SWAP2 PUSH1 0x1C DUP2 SUB PUSH2 0x3297 JUMPI POP POP POP PUSH2 0x2B2D SWAP3 POP PUSH32 0x0 SWAP2 PUSH2 0x3A20 JUMP JUMPDEST SWAP2 SWAP4 SWAP3 SWAP1 SWAP2 PUSH1 0x1D DUP2 SUB PUSH2 0x3420 JUMPI POP POP PUSH1 0x60 DUP2 PUSH1 0x80 MLOAD ADD ADD CALLDATALOAD SWAP1 PUSH1 0x40 SWAP2 PUSH20 0xFFFFFFFFFFFFFFFFFFFFFFFFFFFFFFFFFFFFFFFF PUSH2 0x32D8 DUP5 DUP5 PUSH1 0x80 MLOAD ADD ADD CALLDATALOAD PUSH2 0x3B5D JUMP JUMPDEST SWAP5 CALLDATALOAD AND DUP4 MLOAD SWAP5 PUSH31 0xFDD58E00000000000000000000000000000000000000000000000000000000 DUP7 MSTORE PUSH1 0x4 SWAP4 PUSH1 0x20 DUP8 DUP1 PUSH2 0x3337 DUP8 ADDRESS DUP11 DUP5 ADD PUSH1 0x20 SWAP1 SWAP4 SWAP3 SWAP2 SWAP4 PUSH20 0xFFFFFFFFFFFFFFFFFFFFFFFFFFFFFFFFFFFFFFFF PUSH1 0x40 DUP3 ADD SWAP6 AND DUP2 MSTORE ADD MSTORE JUMP JUMPDEST SUB DUP2 DUP7 GAS STATICCALL SWAP7 DUP8 ISZERO PUSH2 0x2564 JUMPI PUSH1 0x0 SWAP8 PUSH2 0x33EB JUMPI JUMPDEST POP PUSH1 0x80 SWAP1 DUP2 MLOAD ADD ADD CALLDATALOAD DUP7 LT PUSH2 0x33C3 JUMPI DUP5 MLOAD PUSH2 0x3365 DUP2 PUSH2 0x38AF JUMP JUMPDEST PUSH1 0x0 DUP2 MSTORE DUP3 EXTCODESIZE ISZERO PUSH2 0xBBE JUMPI PUSH1 0x0 SWAP5 PUSH2 0x33AD DUP7 SWAP3 DUP9 MLOAD SWAP10 DUP11 SWAP8 DUP9 SWAP7 DUP8 SWAP6 PUSH32 0xF242432A00000000000000000000000000000000000000000000000000000000 DUP8 MSTORE ADDRESS SWAP1 DUP8 ADD PUSH2 0x3B18 JUMP JUMPDEST SUB SWAP3 GAS CALL SWAP1 DUP2 ISZERO PUSH2 0x1B1A JUMPI POP PUSH2 0x1794 JUMPI POP PUSH2 0xFE1 JUMP JUMPDEST DUP4 DUP6 MLOAD PUSH32 0x675CAE3800000000000000000000000000000000000000000000000000000000 DUP2 MSTORE REVERT JUMPDEST SWAP1 SWAP7 PUSH1 0x20 DUP3 RETURNDATASIZE PUSH1 0x20 GT PUSH2 0x3418 JUMPI JUMPDEST DUP2 PUSH2 0x3406 PUSH1 0x20 SWAP4 DUP4 PUSH2 0x3903 JUMP JUMPDEST DUP2 ADD SUB SLT PUSH2 0x324 JUMPI POP MLOAD SWAP6 PUSH1 0x80 PUSH2 0x334B JUMP JUMPDEST RETURNDATASIZE SWAP2 POP PUSH2 0x33F9 JUMP JUMPDEST SWAP3 SWAP5 POP SWAP3 POP POP PUSH1 0x1E DUP2 SUB PUSH2 0x2A8C JUMPI POP DUP2 PUSH2 0x343E PUSH1 0x0 SWAP4 SWAP3 DUP5 SWAP4 PUSH2 0x4484 JUMP JUMPDEST DUP2 PUSH1 0x40 MLOAD SWAP3 DUP4 SWAP3 DUP4 CALLDATACOPY DUP2 ADD DUP5 DUP2 MSTORE SUB SWAP2 CALLDATALOAD PUSH32 0x0 GAS CALL PUSH2 0x2B2D PUSH2 0x397E JUMP JUMPDEST SWAP5 SWAP10 SWAP9 SWAP11 SWAP3 POP PUSH1 0x20 DUP2 SWAP14 SWAP8 SWAP3 SWAP7 SWAP14 SWAP9 SWAP5 SWAP9 EQ PUSH1 0x0 EQ PUSH2 0x34E3 JUMPI POP POP POP POP POP POP DUP1 PUSH2 0x34A7 PUSH1 0x0 SWAP4 DUP5 SWAP4 PUSH2 0x4484 JUMP JUMPDEST DUP2 PUSH1 0x40 MLOAD SWAP3 DUP4 SWAP3 DUP4 CALLDATACOPY DUP2 ADD DUP5 DUP2 MSTORE SUB SWAP2 CALLDATALOAD PUSH32 0x0 GAS CALL PUSH2 0x2B2D PUSH2 0x397E JUMP JUMPDEST PUSH1 0x21 SWAP1 DUP1 DUP3 SUB PUSH2 0x365A JUMPI POP POP POP POP SWAP1 SWAP2 PUSH2 0x3508 PUSH2 0x3500 DUP7 DUP7 PUSH2 0x4463 JUMP JUMPDEST SWAP7 SWAP1 SWAP6 PUSH2 0x4484 JUMP JUMPDEST SWAP3 SWAP1 PUSH2 0x354A PUSH1 0x40 SWAP8 DUP9 MLOAD SWAP8 PUSH1 0x20 DUP10 ADD SWAP10 PUSH32 0x24856BC300000000000000000000000000000000000000000000000000000000 DUP12 MSTORE PUSH1 0x24 DUP11 ADD MSTORE PUSH1 0x64 DUP10 ADD SWAP2 PUSH2 0x3840 JUMP JUMPDEST PUSH32 0xFFFFFFFFFFFFFFFFFFFFFFFFFFFFFFFFFFFFFFFFFFFFFFFFFFFFFFFFFFFFFFDC DUP8 DUP3 SUB ADD PUSH1 0x44 DUP9 ADD MSTORE DUP2 DUP2 MSTORE PUSH1 0x20 DUP3 DUP2 DUP4 ADD SWAP6 SHL DUP3 ADD ADD SWAP6 DUP6 PUSH1 0x0 SWAP2 JUMPDEST DUP5 DUP4 LT PUSH2 0x35DC JUMPI POP POP POP POP POP POP POP POP SWAP2 DUP2 PUSH2 0x35CE PUSH1 0x0 SWAP5 SWAP4 DUP6 SWAP5 SUB PUSH32 0xFFFFFFFFFFFFFFFFFFFFFFFFFFFFFFFFFFFFFFFFFFFFFFFFFFFFFFFFFFFFFFE0 DUP2 ADD DUP4 MSTORE DUP3 PUSH2 0x3903 JUMP JUMPDEST MLOAD SWAP1 DUP3 ADDRESS GAS CALL PUSH2 0x2B2D PUSH2 0x397E JUMP JUMPDEST SWAP1 SWAP2 SWAP3 SWAP4 SWAP5 SWAP6 SWAP7 SWAP8 PUSH32 0xFFFFFFFFFFFFFFFFFFFFFFFFFFFFFFFFFFFFFFFFFFFFFFFFFFFFFFFFFFFFFFE0 DUP6 DUP3 SUB ADD DUP9 MSTORE DUP9 CALLDATALOAD DUP3 DUP5 CALLDATASIZE SUB ADD DUP2 SLT ISZERO PUSH2 0xBBE JUMPI DUP4 ADD SWAP1 PUSH1 0x20 DUP3 CALLDATALOAD SWAP3 ADD SWAP2 PUSH8 0xFFFFFFFFFFFFFFFF DUP2 GT PUSH2 0xBBE JUMPI DUP1 CALLDATASIZE SUB DUP4 SGT PUSH2 0xBBE JUMPI PUSH2 0x364A PUSH1 0x20 SWAP3 DUP4 SWAP3 DUP12 SWAP6 PUSH2 0x3840 JUMP JUMPDEST SWAP11 ADD SWAP9 ADD SWAP7 SWAP6 SWAP5 SWAP4 ADD SWAP2 SWAP1 PUSH2 0x3588 JUMP JUMPDEST SWAP3 SWAP8 POP SWAP3 SWAP6 SWAP4 POP SWAP4 POP PUSH1 0x22 DUP2 EQ PUSH1 0x0 EQ PUSH2 0x2A8C JUMPI POP PUSH1 0x40 DUP1 SWAP4 PUSH1 0x80 MLOAD ADD ADD CALLDATALOAD SWAP1 PUSH1 0x0 SWAP1 PUSH1 0x2 DUP4 LT ISZERO PUSH2 0x37EA JUMPI POP POP DUP1 DUP5 SWAP2 ISZERO PUSH1 0x0 EQ PUSH2 0x3792 JUMPI POP POP PUSH1 0x0 SWAP1 PUSH32 0x0 SWAP3 JUMPDEST PUSH1 0x20 DUP4 DUP3 MLOAD SWAP4 PUSH32 0x95EA7B300000000000000000000000000000000000000000000000000000000 DUP6 MSTORE PUSH1 0x4 SWAP7 DUP8 DUP7 ADD MSTORE PUSH1 0x24 SWAP5 PUSH32 0xFFFFFFFFFFFFFFFFFFFFFFFFFFFFFFFFFFFFFFFFFFFFFFFFFFFFFFFFFFFFFFFF DUP7 DUP3 ADD MSTORE PUSH1 0x44 SWAP7 DUP8 SWAP3 CALLDATALOAD GAS CALL RETURNDATASIZE ISZERO PUSH1 0x1F RETURNDATASIZE GT DUP8 PUSH1 0x0 MLOAD EQ AND OR AND ISZERO PUSH2 0x3737 JUMPI POP POP POP POP PUSH2 0xFE1 JUMP JUMPDEST SWAP2 PUSH1 0xE PUSH32 0x415050524F56455F4641494C4544000000000000000000000000000000000000 SWAP3 PUSH1 0x20 PUSH1 0x64 SWAP7 SWAP6 MLOAD SWAP6 PUSH32 0x8C379A000000000000000000000000000000000000000000000000000000000 DUP8 MSTORE DUP7 ADD MSTORE DUP5 ADD MSTORE DUP3 ADD MSTORE REVERT JUMPDEST SUB PUSH2 0x37C1 JUMPI PUSH1 0x0 SWAP1 PUSH32 0x0 SWAP3 PUSH2 0x36BB JUMP JUMPDEST PUSH1 0x4 DUP3 MLOAD PUSH32 0x5461585F00000000000000000000000000000000000000000000000000000000 DUP2 MSTORE REVERT JUMPDEST PUSH1 0x24 SWAP3 POP PUSH32 0x4E487B7100000000000000000000000000000000000000000000000000000000 DUP3 MSTORE PUSH1 0x4 MSTORE REVERT JUMPDEST PUSH1 0x4 PUSH1 0x40 MLOAD PUSH32 0xFF633A3800000000000000000000000000000000000000000000000000000000 DUP2 MSTORE REVERT JUMPDEST PUSH1 0x1F DUP3 PUSH1 0x20 SWAP5 SWAP4 PUSH32 0xFFFFFFFFFFFFFFFFFFFFFFFFFFFFFFFFFFFFFFFFFFFFFFFFFFFFFFFFFFFFFFE0 SWAP4 DUP2 DUP7 MSTORE DUP7 DUP7 ADD CALLDATACOPY PUSH1 0x0 DUP6 DUP3 DUP7 ADD ADD MSTORE ADD AND ADD ADD SWAP1 JUMP JUMPDEST PUSH8 0xFFFFFFFFFFFFFFFF DUP2 GT PUSH2 0x10ED JUMPI PUSH1 0x40 MSTORE JUMP JUMPDEST PUSH1 0x80 DUP2 ADD SWAP1 DUP2 LT PUSH8 0xFFFFFFFFFFFFFFFF DUP3 GT OR PUSH2 0x10ED JUMPI PUSH1 0x40 MSTORE JUMP JUMPDEST PUSH1 0x20 DUP2 ADD SWAP1 DUP2 LT PUSH8 0xFFFFFFFFFFFFFFFF DUP3 GT OR PUSH2 0x10ED JUMPI PUSH1 0x40 MSTORE JUMP JUMPDEST PUSH1 0x40 DUP2 ADD SWAP1 DUP2 LT PUSH8 0xFFFFFFFFFFFFFFFF DUP3 GT OR PUSH2 0x10ED JUMPI PUSH1 0x40 MSTORE JUMP JUMPDEST PUSH1 0x60 DUP2 ADD SWAP1 DUP2 LT PUSH8 0xFFFFFFFFFFFFFFFF DUP3 GT OR PUSH2 0x10ED JUMPI PUSH1 0x40 MSTORE JUMP JUMPDEST SWAP1 PUSH1 0x1F PUSH32 0xFFFFFFFFFFFFFFFFFFFFFFFFFFFFFFFFFFFFFFFFFFFFFFFFFFFFFFFFFFFFFFE0 SWAP2 ADD AND DUP2 ADD SWAP1 DUP2 LT PUSH8 0xFFFFFFFFFFFFFFFF DUP3 GT OR PUSH2 0x10ED JUMPI PUSH1 0x40 MSTORE JUMP JUMPDEST PUSH8 0xFFFFFFFFFFFFFFFF DUP2 GT PUSH2 0x10ED JUMPI PUSH1 0x1F ADD PUSH32 0xFFFFFFFFFFFFFFFFFFFFFFFFFFFFFFFFFFFFFFFFFFFFFFFFFFFFFFFFFFFFFFE0 AND PUSH1 0x20 ADD SWAP1 JUMP JUMPDEST RETURNDATASIZE ISZERO PUSH2 0x39A9 JUMPI RETURNDATASIZE SWAP1 PUSH2 0x398F DUP3 PUSH2 0x3944 JUMP JUMPDEST SWAP2 PUSH2 0x399D PUSH1 0x40 MLOAD SWAP4 DUP5 PUSH2 0x3903 JUMP JUMPDEST DUP3 MSTORE RETURNDATASIZE PUSH1 0x0 PUSH1 0x20 DUP5 ADD RETURNDATACOPY JUMP JUMPDEST PUSH1 0x60 SWAP1 JUMP JUMPDEST PUSH8 0xFFFFFFFFFFFFFFFF DUP2 GT PUSH2 0x10ED JUMPI PUSH1 0x5 SHL PUSH1 0x20 ADD SWAP1 JUMP JUMPDEST CALLDATALOAD SWAP1 PUSH6 0xFFFFFFFFFFFF DUP3 AND DUP3 SUB PUSH2 0xBBE JUMPI JUMP JUMPDEST DUP2 PUSH1 0x1F DUP3 ADD SLT ISZERO PUSH2 0xBBE JUMPI DUP1 CALLDATALOAD SWAP1 PUSH2 0x39F0 DUP3 PUSH2 0x3944 JUMP JUMPDEST SWAP3 PUSH2 0x39FE PUSH1 0x40 MLOAD SWAP5 DUP6 PUSH2 0x3903 JUMP JUMPDEST DUP3 DUP5 MSTORE PUSH1 0x20 DUP4 DUP4 ADD ADD GT PUSH2 0xBBE JUMPI DUP2 PUSH1 0x0 SWAP3 PUSH1 0x20 DUP1 SWAP4 ADD DUP4 DUP7 ADD CALLDATACOPY DUP4 ADD ADD MSTORE SWAP1 JUMP JUMPDEST SWAP2 SWAP3 SWAP1 PUSH2 0x3A2D SWAP1 DUP4 PUSH2 0x4484 JUMP JUMPDEST SWAP1 SWAP4 DUP5 PUSH1 0x40 MLOAD SWAP6 DUP7 SWAP4 DUP5 CALLDATACOPY DUP3 ADD SWAP1 PUSH1 0x0 SWAP6 DUP7 SWAP4 DUP4 DUP6 DUP1 SWAP6 MSTORE SUB SWAP2 DUP7 CALLDATALOAD SWAP1 GAS CALL SWAP3 PUSH2 0x3A55 PUSH2 0x397E JUMP JUMPDEST SWAP3 DUP5 PUSH2 0x3A5F JUMPI POP POP JUMP JUMPDEST PUSH20 0xFFFFFFFFFFFFFFFFFFFFFFFFFFFFFFFFFFFFFFFF PUSH1 0x60 DUP3 ADD CALLDATALOAD AND PUSH2 0x3A87 PUSH1 0x40 DUP4 ADD CALLDATALOAD PUSH2 0x3B5D JUMP JUMPDEST SWAP2 DUP2 EXTCODESIZE ISZERO PUSH2 0x817 JUMPI PUSH1 0x40 MLOAD PUSH32 0x42842E0E00000000000000000000000000000000000000000000000000000000 DUP2 MSTORE ADDRESS PUSH1 0x4 DUP3 ADD MSTORE PUSH20 0xFFFFFFFFFFFFFFFFFFFFFFFFFFFFFFFFFFFFFFFF SWAP4 SWAP1 SWAP4 AND PUSH1 0x24 DUP5 ADD MSTORE PUSH1 0x80 ADD CALLDATALOAD PUSH1 0x44 DUP4 ADD MSTORE SWAP1 SWAP2 SWAP1 DUP2 SWAP1 DUP4 SWAP1 PUSH1 0x64 SWAP1 DUP3 SWAP1 DUP5 SWAP1 GAS CALL SWAP1 DUP2 ISZERO PUSH2 0x3B0C JUMPI POP PUSH2 0x3B01 JUMPI POP JUMP JUMPDEST PUSH2 0x3B0A SWAP1 PUSH2 0x387F JUMP JUMPDEST JUMP JUMPDEST PUSH1 0x40 MLOAD SWAP1 RETURNDATASIZE SWAP1 DUP3 RETURNDATACOPY RETURNDATASIZE SWAP1 REVERT JUMPDEST SWAP2 SWAP3 PUSH2 0x3B5A SWAP6 SWAP5 SWAP2 PUSH1 0xA0 SWAP5 PUSH20 0xFFFFFFFFFFFFFFFFFFFFFFFFFFFFFFFFFFFFFFFF DUP1 SWAP3 AND DUP6 MSTORE AND PUSH1 0x20 DUP5 ADD MSTORE PUSH1 0x40 DUP4 ADD MSTORE PUSH1 0x60 DUP3 ADD MSTORE DUP2 PUSH1 0x80 DUP3 ADD MSTORE ADD SWAP1 PUSH2 0xC66 JUMP JUMPDEST SWAP1 JUMP JUMPDEST PUSH20 0xFFFFFFFFFFFFFFFFFFFFFFFFFFFFFFFFFFFFFFFF SWAP1 DUP1 DUP3 AND PUSH1 0x1 DUP2 SUB PUSH2 0x3B87 JUMPI POP POP PUSH1 0x1 SLOAD AND SWAP1 JUMP JUMPDEST SWAP1 SWAP2 POP PUSH1 0x2 SUB PUSH2 0x3B5A JUMPI POP ADDRESS SWAP1 JUMP JUMPDEST SWAP1 DUP2 PUSH1 0x20 SWAP2 SUB SLT PUSH2 0xBBE JUMPI MLOAD DUP1 ISZERO ISZERO DUP2 SUB PUSH2 0xBBE JUMPI SWAP1 JUMP JUMPDEST SWAP1 SWAP3 SWAP2 SWAP1 PUSH20 0xFFFFFFFFFFFFFFFFFFFFFFFFFFFFFFFFFFFFFFFF AND DUP1 PUSH2 0x3BD8 JUMPI POP PUSH2 0x3B0A SWAP2 SWAP3 PUSH2 0x4657 JUMP JUMPDEST PUSH32 0x8000000000000000000000000000000000000000000000000000000000000000 DUP3 EQ PUSH2 0x3C0B JUMPI JUMPDEST SWAP3 PUSH2 0x3B0A SWAP3 SWAP4 PUSH2 0x46C5 JUMP JUMPDEST SWAP1 POP PUSH1 0x40 MLOAD SWAP3 PUSH32 0x70A0823100000000000000000000000000000000000000000000000000000000 DUP5 MSTORE ADDRESS PUSH1 0x4 DUP6 ADD MSTORE PUSH1 0x20 DUP5 PUSH1 0x24 DUP2 DUP6 GAS STATICCALL SWAP4 DUP5 ISZERO PUSH2 0x10E1 JUMPI PUSH1 0x0 SWAP5 PUSH2 0x3C5A JUMPI JUMPDEST POP SWAP3 SWAP1 PUSH2 0x3C00 JUMP JUMPDEST PUSH1 0x20 DUP2 RETURNDATASIZE DUP3 GT PUSH2 0x3C85 JUMPI JUMPDEST DUP2 PUSH2 0x3C72 PUSH1 0x20 SWAP4 DUP4 PUSH2 0x3903 JUMP JUMPDEST DUP2 ADD SUB SLT PUSH2 0x953 JUMPI MLOAD SWAP4 POP PUSH2 0x3B0A PUSH2 0x3C52 JUMP JUMPDEST RETURNDATASIZE SWAP2 POP PUSH2 0x3C65 JUMP JUMPDEST DUP2 DUP2 MUL SWAP3 SWAP2 DUP2 ISZERO SWAP2 DUP5 DIV EQ OR ISZERO PUSH2 0x1E0C JUMPI JUMP JUMPDEST DUP2 ISZERO PUSH2 0x3CAA JUMPI DIV SWAP1 JUMP JUMPDEST PUSH32 0x4E487B7100000000000000000000000000000000000000000000000000000000 PUSH1 0x0 MSTORE PUSH1 0x12 PUSH1 0x4 MSTORE PUSH1 0x24 PUSH1 0x0 REVERT JUMPDEST SWAP2 SWAP3 PUSH20 0xFFFFFFFFFFFFFFFFFFFFFFFFFFFFFFFFFFFFFFFF SWAP2 DUP3 PUSH32 0x0 AND SWAP4 DUP5 EXTCODESIZE ISZERO PUSH2 0xBBE JUMPI PUSH1 0x0 SWAP5 DUP5 DUP7 SWAP3 DUP2 PUSH1 0x84 SWAP7 DUP2 PUSH1 0x40 MLOAD SWAP12 DUP13 SWAP11 DUP12 SWAP10 PUSH32 0x36C7851600000000000000000000000000000000000000000000000000000000 DUP12 MSTORE AND PUSH1 0x4 DUP11 ADD MSTORE AND PUSH1 0x24 DUP9 ADD MSTORE AND PUSH1 0x44 DUP7 ADD MSTORE AND PUSH1 0x64 DUP5 ADD MSTORE GAS CALL DUP1 ISZERO PUSH2 0x10E1 JUMPI PUSH2 0x3B01 JUMPI POP JUMP JUMPDEST DUP1 MLOAD DUP3 LT ISZERO PUSH2 0x1E55 JUMPI PUSH1 0x20 SWAP2 PUSH1 0x5 SHL ADD ADD SWAP1 JUMP JUMPDEST SWAP2 SWAP1 DUP2 LT ISZERO PUSH2 0x1E55 JUMPI PUSH1 0x5 SHL ADD SWAP1 JUMP JUMPDEST CALLDATALOAD PUSH20 0xFFFFFFFFFFFFFFFFFFFFFFFFFFFFFFFFFFFFFFFF DUP2 AND DUP2 SUB PUSH2 0xBBE JUMPI SWAP1 JUMP JUMPDEST SWAP2 SWAP1 DUP3 SUB SWAP2 DUP3 GT PUSH2 0x1E0C JUMPI JUMP JUMPDEST SWAP3 SWAP2 SWAP1 PUSH20 0xFFFFFFFFFFFFFFFFFFFFFFFFFFFFFFFFFFFFFFFF DUP1 DUP3 AND ADDRESS SUB PUSH2 0x3DF7 JUMPI POP POP PUSH2 0x3B0A SWAP3 PUSH2 0x3BAE JUMP JUMPDEST DUP1 DUP5 SWAP6 SWAP5 GT PUSH2 0x3E0B JUMPI PUSH2 0x3B0A SWAP5 AND SWAP3 PUSH2 0x3CD9 JUMP JUMPDEST PUSH1 0x4 PUSH1 0x40 MLOAD PUSH32 0xC4BD89A900000000000000000000000000000000000000000000000000000000 DUP2 MSTORE REVERT JUMPDEST SWAP2 PUSH20 0xFFFFFFFFFFFFFFFFFFFFFFFFFFFFFFFFFFFFFFFF SWAP4 PUSH2 0x3F36 SWAP2 PUSH1 0x40 MLOAD SWAP1 PUSH1 0x20 DUP3 ADD SWAP3 PUSH32 0xFFFFFFFFFFFFFFFFFFFFFFFFFFFFFFFFFFFFFFFF000000000000000000000000 DUP1 SWAP3 PUSH1 0x60 SHL AND DUP5 MSTORE PUSH1 0x60 SHL AND PUSH1 0x34 DUP3 ADD MSTORE PUSH1 0x28 DUP2 MSTORE PUSH2 0x3E98 DUP2 PUSH2 0x38E7 JUMP JUMPDEST MLOAD SWAP1 KECCAK256 PUSH2 0x3F0A PUSH1 0x40 MLOAD SWAP4 DUP5 SWAP3 PUSH1 0x20 DUP5 ADD SWAP7 DUP8 SWAP2 PUSH32 0xFFFFFFFFFFFFFFFFFFFFFFFFFFFFFFFFFFFFFFFF000000000000000000000000 PUSH1 0x55 SWAP5 SWAP3 PUSH32 0xFF00000000000000000000000000000000000000000000000000000000000000 DUP6 MSTORE PUSH1 0x60 SHL AND PUSH1 0x1 DUP5 ADD MSTORE PUSH1 0x15 DUP4 ADD MSTORE PUSH1 0x35 DUP3 ADD MSTORE ADD SWAP1 JUMP JUMPDEST SUB PUSH32 0xFFFFFFFFFFFFFFFFFFFFFFFFFFFFFFFFFFFFFFFFFFFFFFFFFFFFFFFFFFFFFFE0 DUP2 ADD DUP4 MSTORE DUP3 PUSH2 0x3903 JUMP JUMPDEST MLOAD SWAP1 KECCAK256 AND SWAP1 JUMP JUMPDEST PUSH20 0xFFFFFFFFFFFFFFFFFFFFFFFFFFFFFFFFFFFFFFFF DUP3 DUP2 AND SWAP1 DUP3 AND LT ISZERO PUSH2 0x3F61 JUMPI SWAP2 JUMP JUMPDEST SWAP1 SWAP2 JUMP JUMPDEST MLOAD SWAP1 PUSH14 0xFFFFFFFFFFFFFFFFFFFFFFFFFFFF DUP3 AND DUP3 SUB PUSH2 0xBBE JUMPI JUMP JUMPDEST SWAP1 DUP2 PUSH1 0x60 SWAP2 SUB SLT PUSH2 0xBBE JUMPI PUSH2 0x3F94 DUP2 PUSH2 0x3F65 JUMP JUMPDEST SWAP2 PUSH1 0x40 PUSH2 0x3FA3 PUSH1 0x20 DUP5 ADD PUSH2 0x3F65 JUMP JUMPDEST SWAP3 ADD MLOAD PUSH4 0xFFFFFFFF DUP2 AND DUP2 SUB PUSH2 0xBBE JUMPI SWAP1 JUMP JUMPDEST SWAP3 PUSH1 0x2 DUP3 LT PUSH2 0x442C JUMPI DUP2 ISZERO PUSH2 0x1E55 JUMPI PUSH2 0x3FCE DUP5 PUSH2 0x3D9D JUMP JUMPDEST SWAP2 PUSH1 0x1 SWAP5 DUP2 DUP7 LT ISZERO PUSH2 0x1E55 JUMPI SWAP2 PUSH2 0x3FEC PUSH1 0x20 SWAP5 PUSH2 0x1C18 DUP7 DUP7 ADD PUSH2 0x3D9D JUMP JUMPDEST POP SWAP3 PUSH1 0x0 SWAP4 JUMPDEST PUSH32 0xFFFFFFFFFFFFFFFFFFFFFFFFFFFFFFFFFFFFFFFFFFFFFFFFFFFFFFFFFFFFFFFF DUP5 ADD DUP6 LT PUSH2 0x4025 JUMPI POP POP POP POP POP POP POP POP JUMP JUMPDEST PUSH2 0x4033 PUSH2 0x1CC2 DUP7 DUP7 DUP6 PUSH2 0x3D8D JUMP JUMPDEST SWAP3 PUSH2 0x4044 PUSH2 0x1CC2 DUP11 DUP9 ADD DUP8 DUP7 PUSH2 0x3D8D JUMP JUMPDEST SWAP4 PUSH1 0x40 SWAP1 DUP2 MLOAD SWAP6 PUSH32 0x902F1AC00000000000000000000000000000000000000000000000000000000 DUP8 MSTORE PUSH20 0xFFFFFFFFFFFFFFFFFFFFFFFFFFFFFFFFFFFFFFFF DUP1 SWAP5 AND SWAP5 PUSH1 0x60 SWAP3 PUSH1 0x4 SWAP4 DUP1 DUP11 DUP7 DUP2 DUP12 GAS STATICCALL SWAP10 DUP11 ISZERO PUSH2 0x2564 JUMPI SWAP1 DUP14 SWAP6 SWAP5 SWAP4 SWAP3 SWAP2 PUSH1 0x0 SWAP2 DUP3 SWAP13 PUSH2 0x4406 JUMPI JUMPDEST POP POP DUP8 DUP1 SWAP2 PUSH14 0xFFFFFFFFFFFFFFFFFFFFFFFFFFFF DUP1 SWAP2 AND SWAP13 AND SWAP3 AND SWAP3 AND DUP3 EQ SWAP10 DUP11 PUSH1 0x0 EQ PUSH2 0x4400 JUMPI JUMPDEST DUP7 MLOAD SWAP6 DUP7 DUP1 SWAP5 PUSH32 0x70A0823100000000000000000000000000000000000000000000000000000000 DUP3 MSTORE DUP12 DUP9 DUP4 ADD MSTORE PUSH1 0x24 SWAP9 DUP10 SWAP2 GAS STATICCALL SWAP3 DUP4 ISZERO PUSH2 0x43F5 JUMPI DUP15 PUSH1 0x0 SWAP5 PUSH2 0x43C4 JUMPI JUMPDEST POP POP DUP1 DUP4 SUB SWAP2 DUP2 ISZERO SWAP4 DUP5 DUP1 ISZERO PUSH2 0x43BC JUMPI JUMPDEST PUSH2 0x4394 JUMPI DUP3 PUSH2 0x3E5 DUP1 DUP7 MUL SWAP6 DUP7 DIV EQ SWAP2 EQ OR ISZERO PUSH2 0x4367 JUMPI PUSH2 0x414C SWAP1 DUP4 PUSH2 0x3C8D JUMP JUMPDEST SWAP3 PUSH2 0x3E8 DUP1 DUP4 MUL SWAP3 DUP4 DIV EQ OR ISZERO PUSH2 0x433A JUMPI PUSH2 0x4171 SWAP3 SWAP2 PUSH2 0x416B SWAP2 PUSH2 0x4456 JUMP JUMPDEST SWAP1 PUSH2 0x3CA0 JUMP JUMPDEST SWAP8 ISZERO PUSH2 0x4332 JUMPI PUSH1 0x0 SWAP8 SWAP1 JUMPDEST DUP10 DUP12 PUSH32 0xFFFFFFFFFFFFFFFFFFFFFFFFFFFFFFFFFFFFFFFFFFFFFFFFFFFFFFFFFFFFFFFE DUP3 ADD DUP2 LT ISZERO PUSH2 0x4326 JUMPI SWAP2 PUSH2 0x1C18 PUSH2 0x1CC2 PUSH2 0x41C2 SWAP4 PUSH1 0x2 PUSH2 0x420C SWAP13 SWAP7 ADD SWAP1 DUP14 PUSH2 0x3D8D JUMP JUMPDEST DUP2 SWAP9 SWAP2 PUSH32 0x0 PUSH32 0x0 PUSH2 0x3E35 JUMP JUMPDEST SWAP7 JUMPDEST SWAP9 DUP6 MLOAD SWAP2 DUP14 DUP4 ADD SWAP4 PUSH8 0xFFFFFFFFFFFFFFFF SWAP5 DUP5 DUP2 LT DUP7 DUP3 GT OR PUSH2 0x42F9 JUMPI DUP9 MSTORE PUSH1 0x0 DUP5 MSTORE DUP2 EXTCODESIZE ISZERO PUSH2 0xBBE JUMPI PUSH1 0x0 DUP11 SWAP4 PUSH2 0x428C DUP3 SWAP7 DUP12 MLOAD SWAP13 DUP14 SWAP8 DUP9 SWAP7 DUP8 SWAP6 PUSH32 0x22C0D9F00000000000000000000000000000000000000000000000000000000 DUP8 MSTORE DUP14 DUP8 ADD MSTORE DUP14 DUP7 ADD MSTORE AND PUSH1 0x44 DUP5 ADD MSTORE PUSH1 0x80 PUSH1 0x64 DUP5 ADD MSTORE PUSH1 0x84 DUP4 ADD SWAP1 PUSH2 0xC66 JUMP JUMPDEST SUB SWAP3 GAS CALL DUP1 ISZERO PUSH2 0x1DC1 JUMPI SWAP1 DUP14 SWAP7 SWAP6 SWAP5 SWAP4 SWAP3 SWAP2 PUSH2 0x42B1 JUMPI JUMPDEST POP POP POP POP POP SWAP5 ADD SWAP4 SWAP2 PUSH2 0x3FF2 JUMP JUMPDEST SWAP1 SWAP2 SWAP3 SWAP4 DUP1 SWAP6 SWAP7 POP GT PUSH2 0x42CD JUMPI POP POP MSTORE DUP8 SWAP1 CODESIZE DUP1 DUP1 DUP1 DUP1 PUSH2 0x42A3 JUMP JUMPDEST PUSH1 0x41 SWAP1 PUSH32 0x4E487B7100000000000000000000000000000000000000000000000000000000 PUSH1 0x0 MSTORE MSTORE PUSH1 0x0 REVERT JUMPDEST DUP8 PUSH1 0x41 DUP9 PUSH32 0x4E487B7100000000000000000000000000000000000000000000000000000000 PUSH1 0x0 MSTORE MSTORE PUSH1 0x0 REVERT JUMPDEST POP POP POP DUP12 SWAP6 PUSH1 0x0 PUSH2 0x420E JUMP JUMPDEST PUSH1 0x0 SWAP1 PUSH2 0x417C JUMP JUMPDEST DUP6 PUSH1 0x11 DUP7 PUSH32 0x4E487B7100000000000000000000000000000000000000000000000000000000 PUSH1 0x0 MSTORE MSTORE PUSH1 0x0 REVERT JUMPDEST DUP7 PUSH1 0x11 DUP8 PUSH32 0x4E487B7100000000000000000000000000000000000000000000000000000000 PUSH1 0x0 MSTORE MSTORE PUSH1 0x0 REVERT JUMPDEST DUP7 DUP10 MLOAD PUSH32 0x7B9C891600000000000000000000000000000000000000000000000000000000 DUP2 MSTORE REVERT JUMPDEST POP DUP2 ISZERO PUSH2 0x412B JUMP JUMPDEST DUP2 DUP2 SWAP6 SWAP3 SWAP4 SWAP6 RETURNDATASIZE DUP4 GT PUSH2 0x43EE JUMPI JUMPDEST PUSH2 0x43DC DUP2 DUP4 PUSH2 0x3903 JUMP JUMPDEST DUP2 ADD SUB SLT PUSH2 0x324 JUMPI POP MLOAD SWAP2 CODESIZE DUP15 PUSH2 0x411A JUMP JUMPDEST POP RETURNDATASIZE PUSH2 0x43D2 JUMP JUMPDEST DUP8 MLOAD RETURNDATASIZE PUSH1 0x0 DUP3 RETURNDATACOPY RETURNDATASIZE SWAP1 REVERT JUMPDEST SWAP1 PUSH2 0x40D5 JUMP JUMPDEST DUP10 SWAP13 POP DUP10 SWAP3 POP SWAP1 DUP2 PUSH2 0x4423 SWAP3 SWAP1 RETURNDATASIZE LT PUSH2 0x221C JUMPI PUSH2 0x220B DUP2 DUP4 PUSH2 0x3903 JUMP JUMPDEST POP SWAP12 SWAP1 SWAP2 PUSH2 0x40AC JUMP JUMPDEST PUSH1 0x4 PUSH1 0x40 MLOAD PUSH32 0xAE52AD0C00000000000000000000000000000000000000000000000000000000 DUP2 MSTORE REVERT JUMPDEST SWAP2 SWAP1 DUP3 ADD DUP1 SWAP3 GT PUSH2 0x1E0C JUMPI JUMP JUMPDEST SWAP2 DUP3 CALLDATALOAD DUP4 ADD SWAP2 PUSH2 0x447D PUSH1 0x20 DUP5 CALLDATALOAD SWAP6 DUP2 DUP7 ADD SWAP6 SUB ADD DUP6 PUSH2 0x4456 JUMP JUMPDEST GT PUSH2 0x11CD JUMPI JUMP JUMPDEST SWAP2 PUSH1 0x20 DUP4 ADD CALLDATALOAD DUP4 ADD SWAP2 PUSH2 0x447D PUSH1 0x20 DUP5 CALLDATALOAD SWAP6 DUP2 DUP7 ADD SWAP6 SUB ADD DUP6 PUSH2 0x4456 JUMP JUMPDEST SWAP2 PUSH1 0x60 DUP4 ADD CALLDATALOAD DUP4 ADD SWAP2 PUSH2 0x447D PUSH1 0x20 DUP5 CALLDATALOAD SWAP6 DUP2 DUP7 ADD SWAP6 SUB ADD DUP6 PUSH2 0x4456 JUMP JUMPDEST PUSH32 0x8000000000000000000000000000000000000000000000000000000000000000 DUP2 EQ PUSH2 0x1E0C JUMPI PUSH1 0x0 SUB SWAP1 JUMP JUMPDEST PUSH20 0xFFFFFFFFFFFFFFFFFFFFFFFFFFFFFFFFFFFFFFFF SWAP3 DUP4 DUP4 AND DUP5 DUP4 AND GT PUSH2 0x464F JUMPI JUMPDEST PUSH3 0xFFFFFF SWAP1 DUP5 PUSH1 0x40 MLOAD SWAP5 DUP2 PUSH1 0x20 DUP8 ADD SWAP6 AND DUP6 MSTORE AND PUSH1 0x40 DUP6 ADD MSTORE AND PUSH1 0x60 DUP4 ADD MSTORE PUSH1 0x60 DUP3 MSTORE PUSH1 0x80 DUP3 ADD SWAP1 DUP3 DUP3 LT PUSH8 0xFFFFFFFFFFFFFFFF DUP4 GT OR PUSH2 0x10ED JUMPI PUSH32 0xFFFFFFFFFFFFFFFFFFFFFFFFFFFFFFFFFFFFFFFFFFFFFFFFFFFFFFFFFFFFFF80 PUSH2 0x3F36 SWAP2 DUP4 PUSH1 0x40 MSTORE DUP5 MLOAD SWAP1 KECCAK256 SWAP4 PUSH2 0x4622 PUSH1 0xA0 DUP3 ADD SWAP6 PUSH32 0x0 SWAP1 PUSH32 0x0 DUP9 SWAP2 PUSH32 0xFFFFFFFFFFFFFFFFFFFFFFFFFFFFFFFFFFFFFFFF000000000000000000000000 PUSH1 0x55 SWAP5 SWAP3 PUSH32 0xFF00000000000000000000000000000000000000000000000000000000000000 DUP6 MSTORE PUSH1 0x60 SHL AND PUSH1 0x1 DUP5 ADD MSTORE PUSH1 0x15 DUP4 ADD MSTORE PUSH1 0x35 DUP3 ADD MSTORE ADD SWAP1 JUMP JUMPDEST SUB PUSH32 0xFFFFFFFFFFFFFFFFFFFFFFFFFFFFFFFFFFFFFFFFFFFFFFFFFFFFFFFFFFFFFF60 DUP2 ADD DUP5 MSTORE ADD DUP3 PUSH2 0x3903 JUMP JUMPDEST SWAP1 SWAP2 SWAP1 PUSH2 0x450D JUMP JUMPDEST PUSH1 0x0 DUP1 DUP1 SWAP4 DUP2 SWAP4 GAS CALL ISZERO PUSH2 0x4667 JUMPI JUMP JUMPDEST PUSH1 0x64 PUSH1 0x40 MLOAD PUSH32 0x8C379A000000000000000000000000000000000000000000000000000000000 DUP2 MSTORE PUSH1 0x20 PUSH1 0x4 DUP3 ADD MSTORE PUSH1 0x13 PUSH1 0x24 DUP3 ADD MSTORE PUSH32 0x4554485F5452414E534645525F4641494C454400000000000000000000000000 PUSH1 0x44 DUP3 ADD MSTORE REVERT JUMPDEST PUSH1 0x0 SWAP2 DUP3 PUSH1 0x44 SWAP3 PUSH1 0x20 SWAP6 PUSH1 0x40 MLOAD SWAP4 PUSH32 0xA9059CBB00000000000000000000000000000000000000000000000000000000 DUP6 MSTORE PUSH1 0x4 DUP6 ADD MSTORE PUSH1 0x24 DUP5 ADD MSTORE GAS CALL RETURNDATASIZE ISZERO PUSH1 0x1F RETURNDATASIZE GT PUSH1 0x1 PUSH1 0x0 MLOAD EQ AND OR AND ISZERO PUSH2 0x4718 JUMPI JUMP JUMPDEST PUSH1 0x64 PUSH1 0x40 MLOAD PUSH32 0x8C379A000000000000000000000000000000000000000000000000000000000 DUP2 MSTORE PUSH1 0x20 PUSH1 0x4 DUP3 ADD MSTORE PUSH1 0xF PUSH1 0x24 DUP3 ADD MSTORE PUSH32 0x5452414E534645525F4641494C45440000000000000000000000000000000000 PUSH1 0x44 DUP3 ADD MSTORE REVERT INVALID LOG1 PUSH5 0x736F6C6343 STOP ADDMOD GT STOP EXP "},"methodIdentifiers":{"collectRewards(bytes)":"709a1cc2","execute(bytes,bytes[])":"24856bc3","execute(bytes,bytes[],uint256)":"3593564c","onERC1155BatchReceived(address,address,uint256[],uint256[],bytes)":"bc197c81","onERC1155Received(address,address,uint256,uint256,bytes)":"f23a6e61","onERC721Received(address,address,uint256,bytes)":"150b7a02","supportsInterface(bytes4)":"01ffc9a7","uniswapV3SwapCallback(int256,int256,bytes)":"fa461e33"}}}}}