{"contracts/test/ReenteringProtocol.sol":{"ReenteringProtocol":{"abi":[{"inputs":[],"name":"NotAllowedReenter","type":"error"},{"inputs":[{"internalType":"address","name":"universalRouter","type":"address"},{"internalType":"bytes","name":"data","type":"bytes"}],"name":"callAndReenter","outputs":[],"stateMutability":"payable","type":"function"}],"evm":{"bytecode":{"linkReferences":{},"object":"60808060405234610016576101c6908161001c8239f35b600080fdfe60808060405260048036101561001457600080fd5b600091823560e01c63260b0b4c1461002b57600080fd5b60407ffffffffffffffffffffffffffffffffffffffffffffffffffffffffffffffffc3601126101b55782823573ffffffffffffffffffffffffffffffffffffffff811681036101b1576024359067ffffffffffffffff938483116101ad57366023840112156101ad57828601358581116101a95736602482860101116101a957818186959260248794018337810182815203925af1903d156101a3573d81811161017757604051917fffffffffffffffffffffffffffffffffffffffffffffffffffffffffffffffe0603f81601f85011601168301908382109082111761014b5760405281528360203d92013e5b15610123575080f35b6040517fb418cb98000000000000000000000000000000000000000000000000000000008152fd5b6024866041877f4e487b7100000000000000000000000000000000000000000000000000000000835252fd5b6024856041867f4e487b7100000000000000000000000000000000000000000000000000000000835252fd5b5061011a565b8480fd5b8380fd5b5080fd5b8280fdfea164736f6c6343000811000a","opcodes":"PUSH1 0x80 DUP1 PUSH1 0x40 MSTORE CALLVALUE PUSH2 0x16 JUMPI PUSH2 0x1C6 SWAP1 DUP2 PUSH2 0x1C DUP3 CODECOPY RETURN JUMPDEST PUSH1 0x0 DUP1 REVERT INVALID PUSH1 0x80 DUP1 PUSH1 0x40 MSTORE PUSH1 0x4 DUP1 CALLDATASIZE LT ISZERO PUSH2 0x14 JUMPI PUSH1 0x0 DUP1 REVERT JUMPDEST PUSH1 0x0 SWAP2 DUP3 CALLDATALOAD PUSH1 0xE0 SHR PUSH4 0x260B0B4C EQ PUSH2 0x2B JUMPI PUSH1 0x0 DUP1 REVERT JUMPDEST PUSH1 0x40 PUSH32 0xFFFFFFFFFFFFFFFFFFFFFFFFFFFFFFFFFFFFFFFFFFFFFFFFFFFFFFFFFFFFFFFC CALLDATASIZE ADD SLT PUSH2 0x1B5 JUMPI DUP3 DUP3 CALLDATALOAD PUSH20 0xFFFFFFFFFFFFFFFFFFFFFFFFFFFFFFFFFFFFFFFF DUP2 AND DUP2 SUB PUSH2 0x1B1 JUMPI PUSH1 0x24 CALLDATALOAD SWAP1 PUSH8 0xFFFFFFFFFFFFFFFF SWAP4 DUP5 DUP4 GT PUSH2 0x1AD JUMPI CALLDATASIZE PUSH1 0x23 DUP5 ADD SLT ISZERO PUSH2 0x1AD JUMPI DUP3 DUP7 ADD CALLDATALOAD DUP6 DUP2 GT PUSH2 0x1A9 JUMPI CALLDATASIZE PUSH1 0x24 DUP3 DUP7 ADD ADD GT PUSH2 0x1A9 JUMPI DUP2 DUP2 DUP7 SWAP6 SWAP3 PUSH1 0x24 DUP8 SWAP5 ADD DUP4 CALLDATACOPY DUP2 ADD DUP3 DUP2 MSTORE SUB SWAP3 GAS CALL SWAP1 RETURNDATASIZE ISZERO PUSH2 0x1A3 JUMPI RETURNDATASIZE DUP2 DUP2 GT PUSH2 0x177 JUMPI PUSH1 0x40 MLOAD SWAP2 PUSH32 0xFFFFFFFFFFFFFFFFFFFFFFFFFFFFFFFFFFFFFFFFFFFFFFFFFFFFFFFFFFFFFFE0 PUSH1 0x3F DUP2 PUSH1 0x1F DUP6 ADD AND ADD AND DUP4 ADD SWAP1 DUP4 DUP3 LT SWAP1 DUP3 GT OR PUSH2 0x14B JUMPI PUSH1 0x40 MSTORE DUP2 MSTORE DUP4 PUSH1 0x20 RETURNDATASIZE SWAP3 ADD RETURNDATACOPY JUMPDEST ISZERO PUSH2 0x123 JUMPI POP DUP1 RETURN JUMPDEST PUSH1 0x40 MLOAD PUSH32 0xB418CB9800000000000000000000000000000000000000000000000000000000 DUP2 MSTORE REVERT JUMPDEST PUSH1 0x24 DUP7 PUSH1 0x41 DUP8 PUSH32 0x4E487B7100000000000000000000000000000000000000000000000000000000 DUP4 MSTORE MSTORE REVERT JUMPDEST PUSH1 0x24 DUP6 PUSH1 0x41 DUP7 PUSH32 0x4E487B7100000000000000000000000000000000000000000000000000000000 DUP4 MSTORE MSTORE REVERT JUMPDEST POP PUSH2 0x11A JUMP JUMPDEST DUP5 DUP1 REVERT JUMPDEST DUP4 DUP1 REVERT JUMPDEST POP DUP1 REVERT JUMPDEST DUP3 DUP1 REVERT INVALID LOG1 PUSH5 0x736F6C6343 STOP ADDMOD GT STOP EXP "},"methodIdentifiers":{"callAndReenter(address,bytes)":"260b0b4c"}}}}}