{"contracts/test/MockLooksRareRewardsDistributor.sol":{"MockLooksRareRewardsDistributor":{"abi":[{"inputs":[{"internalType":"address","name":"_routerRewardsDistributor","type":"address"},{"internalType":"address","name":"_looksRareToken","type":"address"}],"stateMutability":"nonpayable","type":"constructor"},{"stateMutability":"nonpayable","type":"fallback"},{"inputs":[],"name":"routerRewardsDistributor","outputs":[{"internalType":"address","name":"","type":"address"}],"stateMutability":"view","type":"function"}],"evm":{"bytecode":{"linkReferences":{},"object":"60c03461008a57601f61033338819003918201601f19168301916001600160401b0383118484101761008f57808492604094855283398101031261008a57610052602061004b836100a5565b92016100a5565b6080919091526001600160a01b031660a05260405161027990816100ba823960805181818160c901526101d4015260a05181602d0152f35b600080fd5b634e487b7160e01b600052604160045260246000fd5b51906001600160a01b038216820361008a5756fe6080806040526004361015610174575b50346101285773ffffffffffffffffffffffffffffffffffffffff807f000000000000000000000000000000000000000000000000000000000000000016906040517f70a082310000000000000000000000000000000000000000000000000000000081523060048201526020918282602481875afa908115610134578392600092610140575b50604490600060405196879485937fa9059cbb0000000000000000000000000000000000000000000000000000000085527f000000000000000000000000000000000000000000000000000000000000000016600485015260248401525af180156101345761010157005b81813d831161012d575b61011581836101fc565b8101031261012857518015150361012857005b600080fd5b503d61010b565b6040513d6000823e3d90fd5b91909282813d831161016d575b61015781836101fc565b8101031261016a57505182916044610096565b80fd5b503d61014d565b600090813560e01c635abe7a361461018c575061000f565b346101f857817ffffffffffffffffffffffffffffffffffffffffffffffffffffffffffffffffc3601126101f85760209073ffffffffffffffffffffffffffffffffffffffff7f0000000000000000000000000000000000000000000000000000000000000000168152f35b5080fd5b90601f7fffffffffffffffffffffffffffffffffffffffffffffffffffffffffffffffe0910116810190811067ffffffffffffffff82111761023d57604052565b7f4e487b7100000000000000000000000000000000000000000000000000000000600052604160045260246000fdfea164736f6c6343000811000a","opcodes":"PUSH1 0xC0 CALLVALUE PUSH2 0x8A JUMPI PUSH1 0x1F PUSH2 0x333 CODESIZE DUP2 SWAP1 SUB SWAP2 DUP3 ADD PUSH1 0x1F NOT AND DUP4 ADD SWAP2 PUSH1 0x1 PUSH1 0x1 PUSH1 0x40 SHL SUB DUP4 GT DUP5 DUP5 LT OR PUSH2 0x8F JUMPI DUP1 DUP5 SWAP3 PUSH1 0x40 SWAP5 DUP6 MSTORE DUP4 CODECOPY DUP2 ADD SUB SLT PUSH2 0x8A JUMPI PUSH2 0x52 PUSH1 0x20 PUSH2 0x4B DUP4 PUSH2 0xA5 JUMP JUMPDEST SWAP3 ADD PUSH2 0xA5 JUMP JUMPDEST PUSH1 0x80 SWAP2 SWAP1 SWAP2 MSTORE PUSH1 0x1 PUSH1 0x1 PUSH1 0xA0 SHL SUB AND PUSH1 0xA0 MSTORE PUSH1 0x40 MLOAD PUSH2 0x279 SWAP1 DUP2 PUSH2 0xBA DUP3 CODECOPY PUSH1 0x80 MLOAD DUP2 DUP2 DUP2 PUSH1 0xC9 ADD MSTORE PUSH2 0x1D4 ADD MSTORE PUSH1 0xA0 MLOAD DUP2 PUSH1 0x2D ADD MSTORE RETURN JUMPDEST PUSH1 0x0 DUP1 REVERT JUMPDEST PUSH4 0x4E487B71 PUSH1 0xE0 SHL PUSH1 0x0 MSTORE PUSH1 0x41 PUSH1 0x4 MSTORE PUSH1 0x24 PUSH1 0x0 REVERT JUMPDEST MLOAD SWAP1 PUSH1 0x1 PUSH1 0x1 PUSH1 0xA0 SHL SUB DUP3 AND DUP3 SUB PUSH2 0x8A JUMPI JUMP INVALID PUSH1 0x80 DUP1 PUSH1 0x40 MSTORE PUSH1 0x4 CALLDATASIZE LT ISZERO PUSH2 0x174 JUMPI JUMPDEST POP CALLVALUE PUSH2 0x128 JUMPI PUSH20 0xFFFFFFFFFFFFFFFFFFFFFFFFFFFFFFFFFFFFFFFF DUP1 PUSH32 0x0 AND SWAP1 PUSH1 0x40 MLOAD PUSH32 0x70A0823100000000000000000000000000000000000000000000000000000000 DUP2 MSTORE ADDRESS PUSH1 0x4 DUP3 ADD MSTORE PUSH1 0x20 SWAP2 DUP3 DUP3 PUSH1 0x24 DUP2 DUP8 GAS STATICCALL SWAP1 DUP2 ISZERO PUSH2 0x134 JUMPI DUP4 SWAP3 PUSH1 0x0 SWAP3 PUSH2 0x140 JUMPI JUMPDEST POP PUSH1 0x44 SWAP1 PUSH1 0x0 PUSH1 0x40 MLOAD SWAP7 DUP8 SWAP5 DUP6 SWAP4 PUSH32 0xA9059CBB00000000000000000000000000000000000000000000000000000000 DUP6 MSTORE PUSH32 0x0 AND PUSH1 0x4 DUP6 ADD MSTORE PUSH1 0x24 DUP5 ADD MSTORE GAS CALL DUP1 ISZERO PUSH2 0x134 JUMPI PUSH2 0x101 JUMPI STOP JUMPDEST DUP2 DUP2 RETURNDATASIZE DUP4 GT PUSH2 0x12D JUMPI JUMPDEST PUSH2 0x115 DUP2 DUP4 PUSH2 0x1FC JUMP JUMPDEST DUP2 ADD SUB SLT PUSH2 0x128 JUMPI MLOAD DUP1 ISZERO ISZERO SUB PUSH2 0x128 JUMPI STOP JUMPDEST PUSH1 0x0 DUP1 REVERT JUMPDEST POP RETURNDATASIZE PUSH2 0x10B JUMP JUMPDEST PUSH1 0x40 MLOAD RETURNDATASIZE PUSH1 0x0 DUP3 RETURNDATACOPY RETURNDATASIZE SWAP1 REVERT JUMPDEST SWAP2 SWAP1 SWAP3 DUP3 DUP2 RETURNDATASIZE DUP4 GT PUSH2 0x16D JUMPI JUMPDEST PUSH2 0x157 DUP2 DUP4 PUSH2 0x1FC JUMP JUMPDEST DUP2 ADD SUB SLT PUSH2 0x16A JUMPI POP MLOAD DUP3 SWAP2 PUSH1 0x44 PUSH2 0x96 JUMP JUMPDEST DUP1 REVERT JUMPDEST POP RETURNDATASIZE PUSH2 0x14D JUMP JUMPDEST PUSH1 0x0 SWAP1 DUP2 CALLDATALOAD PUSH1 0xE0 SHR PUSH4 0x5ABE7A36 EQ PUSH2 0x18C JUMPI POP PUSH2 0xF JUMP JUMPDEST CALLVALUE PUSH2 0x1F8 JUMPI DUP2 PUSH32 0xFFFFFFFFFFFFFFFFFFFFFFFFFFFFFFFFFFFFFFFFFFFFFFFFFFFFFFFFFFFFFFFC CALLDATASIZE ADD SLT PUSH2 0x1F8 JUMPI PUSH1 0x20 SWAP1 PUSH20 0xFFFFFFFFFFFFFFFFFFFFFFFFFFFFFFFFFFFFFFFF PUSH32 0x0 AND DUP2 MSTORE RETURN JUMPDEST POP DUP1 REVERT JUMPDEST SWAP1 PUSH1 0x1F PUSH32 0xFFFFFFFFFFFFFFFFFFFFFFFFFFFFFFFFFFFFFFFFFFFFFFFFFFFFFFFFFFFFFFE0 SWAP2 ADD AND DUP2 ADD SWAP1 DUP2 LT PUSH8 0xFFFFFFFFFFFFFFFF DUP3 GT OR PUSH2 0x23D JUMPI PUSH1 0x40 MSTORE JUMP JUMPDEST PUSH32 0x4E487B7100000000000000000000000000000000000000000000000000000000 PUSH1 0x0 MSTORE PUSH1 0x41 PUSH1 0x4 MSTORE PUSH1 0x24 PUSH1 0x0 REVERT INVALID LOG1 PUSH5 0x736F6C6343 STOP ADDMOD GT STOP EXP "},"methodIdentifiers":{"routerRewardsDistributor()":"5abe7a36"}}}}}